###############################################################################
#
# IAR C/C++ Compiler V10.20.1.5333 for 8051               04/Jun/2018  16:34:43
# Copyright 2004-2018 IAR Systems AB.
# PC-locked license - IAR Embedded Workbench for 8051
#
#    Core               =  plain
#    Code model         =  banked
#    Data model         =  large
#    Calling convention =  xdata reentrant
#    Constant location  =  data_rom
#    Dptr setup         =  1,16
#                          
#    Source file        =  
#        C:\Texas Instruments\Z-Stack
#        3.0.1\Projects\zstack\HomeAutomation\SampleLight\Source\zcl_samplelight.c
#    Command line       =  
#        -f C:\Users\yao\AppData\Local\Temp\EW137F.tmp ("C:\Texas
#        Instruments\Z-Stack
#        3.0.1\Projects\zstack\HomeAutomation\SampleLight\Source\zcl_samplelight.c"
#        -D BDB_REPORTING -D SECURE=1 -D TC_LINKKEY_JOIN -D NV_INIT -D
#        NV_RESTORE -D NWK_AUTO_POLL -D xZTOOL_P1 -D xMT_TASK -D xMT_APP_FUNC
#        -D xMT_SYS_FUNC -D xMT_ZDO_FUNC -D xMT_ZDO_MGMT -D xMT_APP_CNF_FUNC -D
#        LCD_SUPPORTED=DEBUG -D MULTICAST_ENABLED=FALSE -D ZCL_READ -D
#        ZCL_DISCOVER -D ZCL_WRITE -D ZCL_BASIC -D ZCL_IDENTIFY -D ZCL_ON_OFF
#        -D ZCL_GROUPS -D ZCL_LEVEL_CTRL -D ZCL_SCENES -lC "C:\Texas
#        Instruments\Z-Stack
#        3.0.1\Projects\zstack\HomeAutomation\SampleLight\CC2530DB\EndDeviceEB\List"
#        -lA "C:\Texas Instruments\Z-Stack
#        3.0.1\Projects\zstack\HomeAutomation\SampleLight\CC2530DB\EndDeviceEB\List"
#        --diag_suppress Pe001,Pa010 -o "C:\Texas Instruments\Z-Stack
#        3.0.1\Projects\zstack\HomeAutomation\SampleLight\CC2530DB\EndDeviceEB\Obj"
#        -e --debug --core=plain --dptr=16,1 --data_model=large
#        --code_model=banked --calling_convention=xdata_reentrant
#        --place_constants=data_rom --nr_virtual_regs 16 -f "C:\Texas
#        Instruments\Z-Stack
#        3.0.1\Projects\zstack\HomeAutomation\SampleLight\CC2530DB\..\..\..\Tools\CC2530DB\f8wEndev.cfg"
#        (-DCPU32MHZ -DROOT=__near_func -DMAC_CFG_TX_DATA_MAX=3
#        -DMAC_CFG_TX_MAX=6 -DMAC_CFG_RX_MAX=3) -f "C:\Texas
#        Instruments\Z-Stack
#        3.0.1\Projects\zstack\HomeAutomation\SampleLight\CC2530DB\..\..\..\Tools\CC2530DB\f8wConfig.cfg"
#        (-DZIGBEEPRO -DSECURE=1 -DZG_SECURE_DYNAMIC=0 -DREFLECTOR
#        -DDEFAULT_CHANLIST=0x00000800 -DZDAPP_CONFIG_PAN_ID=0x1234
#        -DNWK_START_DELAY=100 -DEXTENDED_JOINING_RANDOM_MASK=0x007F
#        -DBEACON_REQUEST_DELAY=100 -DBEACON_REQ_DELAY_MASK=0x00FF
#        -DLINK_STATUS_JITTER_MASK=0x007F -DROUTE_EXPIRY_TIME=30
#        -DAPSC_ACK_WAIT_DURATION_POLLED=3000 -DNWK_INDIRECT_MSG_TIMEOUT=7
#        -DMAX_RREQ_ENTRIES=8 -DAPSC_MAX_FRAME_RETRIES=3
#        -DNWK_MAX_DATA_RETRIES=2 -DMAX_POLL_FAILURE_RETRIES=2 -DMAX_BCAST=9
#        -DAPS_MAX_GROUPS=16 -DMAX_RTG_ENTRIES=40 -DNWK_MAX_BINDING_ENTRIES=4
#        -DMAX_BINDING_CLUSTER_IDS=4 -DDEFAULT_KEY={0} -DMAC_MAX_FRAME_SIZE=116
#        -DZDNWKMGR_MIN_TRANSMISSIONS=20 "-DCONST=const __code"
#        -DGENERIC=__generic -DRFD_RCVC_ALWAYS_ON=TRUE -DPOLL_RATE=1000
#        -DQUEUED_POLL_RATE=100 -DRESPONSE_POLL_RATE=100 -DREJOIN_POLL_RATE=440
#        -DREJOIN_BACKOFF=900000 -DREJOIN_SCAN=900000 -DENABLE_LED4_DISABLE_S1)
#        -f "C:\Texas Instruments\Z-Stack
#        3.0.1\Projects\zstack\HomeAutomation\SampleLight\CC2530DB\..\..\..\Tools\CC2530DB\f8wZCL.cfg"
#        -I "C:\Texas Instruments\Z-Stack
#        3.0.1\Projects\zstack\HomeAutomation\SampleLight\CC2530DB\" -I
#        "C:\Texas Instruments\Z-Stack
#        3.0.1\Projects\zstack\HomeAutomation\SampleLight\CC2530DB\..\Source\"
#        -I "C:\Texas Instruments\Z-Stack
#        3.0.1\Projects\zstack\HomeAutomation\SampleLight\CC2530DB\..\..\Source\"
#        -I "C:\Texas Instruments\Z-Stack
#        3.0.1\Projects\zstack\HomeAutomation\SampleLight\CC2530DB\..\..\..\ZMain\TI2530DB\"
#        -I "C:\Texas Instruments\Z-Stack
#        3.0.1\Projects\zstack\HomeAutomation\SampleLight\CC2530DB\..\..\..\..\..\Components\hal\include\"
#        -I "C:\Texas Instruments\Z-Stack
#        3.0.1\Projects\zstack\HomeAutomation\SampleLight\CC2530DB\..\..\..\..\..\Components\hal\target\CC2530EB\"
#        -I "C:\Texas Instruments\Z-Stack
#        3.0.1\Projects\zstack\HomeAutomation\SampleLight\CC2530DB\..\..\..\..\..\Components\mac\include\"
#        -I "C:\Texas Instruments\Z-Stack
#        3.0.1\Projects\zstack\HomeAutomation\SampleLight\CC2530DB\..\..\..\..\..\Components\mac\high_level\"
#        -I "C:\Texas Instruments\Z-Stack
#        3.0.1\Projects\zstack\HomeAutomation\SampleLight\CC2530DB\..\..\..\..\..\Components\mac\low_level\srf04\"
#        -I "C:\Texas Instruments\Z-Stack
#        3.0.1\Projects\zstack\HomeAutomation\SampleLight\CC2530DB\..\..\..\..\..\Components\mac\low_level\srf04\single_chip\"
#        -I "C:\Texas Instruments\Z-Stack
#        3.0.1\Projects\zstack\HomeAutomation\SampleLight\CC2530DB\..\..\..\..\..\Components\mt\"
#        -I "C:\Texas Instruments\Z-Stack
#        3.0.1\Projects\zstack\HomeAutomation\SampleLight\CC2530DB\..\..\..\..\..\Components\osal\include\"
#        -I "C:\Texas Instruments\Z-Stack
#        3.0.1\Projects\zstack\HomeAutomation\SampleLight\CC2530DB\..\..\..\..\..\Components\services\saddr\"
#        -I "C:\Texas Instruments\Z-Stack
#        3.0.1\Projects\zstack\HomeAutomation\SampleLight\CC2530DB\..\..\..\..\..\Components\services\sdata\"
#        -I "C:\Texas Instruments\Z-Stack
#        3.0.1\Projects\zstack\HomeAutomation\SampleLight\CC2530DB\..\..\..\..\..\Components\stack\af\"
#        -I "C:\Texas Instruments\Z-Stack
#        3.0.1\Projects\zstack\HomeAutomation\SampleLight\CC2530DB\..\..\..\..\..\Components\stack\bdb\"
#        -I "C:\Texas Instruments\Z-Stack
#        3.0.1\Projects\zstack\HomeAutomation\SampleLight\CC2530DB\..\..\..\..\..\Components\stack\gp\"
#        -I "C:\Texas Instruments\Z-Stack
#        3.0.1\Projects\zstack\HomeAutomation\SampleLight\CC2530DB\..\..\..\..\..\Components\stack\nwk\"
#        -I "C:\Texas Instruments\Z-Stack
#        3.0.1\Projects\zstack\HomeAutomation\SampleLight\CC2530DB\..\..\..\..\..\Components\stack\sapi\"
#        -I "C:\Texas Instruments\Z-Stack
#        3.0.1\Projects\zstack\HomeAutomation\SampleLight\CC2530DB\..\..\..\..\..\Components\stack\sec\"
#        -I "C:\Texas Instruments\Z-Stack
#        3.0.1\Projects\zstack\HomeAutomation\SampleLight\CC2530DB\..\..\..\..\..\Components\stack\sys\"
#        -I "C:\Texas Instruments\Z-Stack
#        3.0.1\Projects\zstack\HomeAutomation\SampleLight\CC2530DB\..\..\..\..\..\Components\stack\zcl\"
#        -I "C:\Texas Instruments\Z-Stack
#        3.0.1\Projects\zstack\HomeAutomation\SampleLight\CC2530DB\..\..\..\..\..\Components\stack\zdo\"
#        -I "C:\Texas Instruments\Z-Stack
#        3.0.1\Projects\zstack\HomeAutomation\SampleLight\CC2530DB\..\..\..\..\..\Components\zmac\"
#        -I "C:\Texas Instruments\Z-Stack
#        3.0.1\Projects\zstack\HomeAutomation\SampleLight\CC2530DB\..\..\..\..\..\Components\zmac\f8w\"
#        -Ohz --require_prototypes)
#    Locale             =  Chinese (Simplified)_CHN.936
#    List file          =  
#        C:\Texas Instruments\Z-Stack
#        3.0.1\Projects\zstack\HomeAutomation\SampleLight\CC2530DB\EndDeviceEB\List\zcl_samplelight.lst
#    Object file        =  
#        C:\Texas Instruments\Z-Stack
#        3.0.1\Projects\zstack\HomeAutomation\SampleLight\CC2530DB\EndDeviceEB\Obj\zcl_samplelight.r51
#
###############################################################################

C:\Texas Instruments\Z-Stack 3.0.1\Projects\zstack\HomeAutomation\SampleLight\Source\zcl_samplelight.c
      1          /**************************************************************************************************
      2            Filename:       zcl_sampleLight.c
      3            Revised:        $Date: 2014-10-24 16:04:46 -0700 (Fri, 24 Oct 2014) $
      4            Revision:       $Revision: 40796 $
      5          
      6          
      7            Description:    Zigbee Cluster Library - sample light application.
      8          
      9          
     10            Copyright 2006-2014 Texas Instruments Incorporated. All rights reserved.
     11          
     12            IMPORTANT: Your use of this Software is limited to those specific rights
     13            granted under the terms of a software license agreement between the user
     14            who downloaded the software, his/her employer (which must be your employer)
     15            and Texas Instruments Incorporated (the "License").  You may not use this
     16            Software unless you agree to abide by the terms of the License. The License
     17            limits your use, and you acknowledge, that the Software may not be modified,
     18            copied or distributed unless embedded on a Texas Instruments microcontroller
     19            or used solely and exclusively in conjunction with a Texas Instruments radio
     20            frequency transceiver, which is integrated into your product.  Other than for
     21            the foregoing purpose, you may not use, reproduce, copy, prepare derivative
     22            works of, modify, distribute, perform, display or sell this Software and/or
     23            its documentation for any purpose.
     24          
     25            YOU FURTHER ACKNOWLEDGE AND AGREE THAT THE SOFTWARE AND DOCUMENTATION ARE
     26            PROVIDED "AS IS" WITHOUT WARRANTY OF ANY KIND, EITHER EXPRESS OR IMPLIED,
     27            INCLUDING WITHOUT LIMITATION, ANY WARRANTY OF MERCHANTABILITY, TITLE,
     28            NON-INFRINGEMENT AND FITNESS FOR A PARTICULAR PURPOSE. IN NO EVENT SHALL
     29            TEXAS INSTRUMENTS OR ITS LICENSORS BE LIABLE OR OBLIGATED UNDER CONTRACT,
     30            NEGLIGENCE, STRICT LIABILITY, CONTRIBUTION, BREACH OF WARRANTY, OR OTHER
     31            LEGAL EQUITABLE THEORY ANY DIRECT OR INDIRECT DAMAGES OR EXPENSES
     32            INCLUDING BUT NOT LIMITED TO ANY INCIDENTAL, SPECIAL, INDIRECT, PUNITIVE
     33            OR CONSEQUENTIAL DAMAGES, LOST PROFITS OR LOST DATA, COST OF PROCUREMENT
     34            OF SUBSTITUTE GOODS, TECHNOLOGY, SERVICES, OR ANY CLAIMS BY THIRD PARTIES
     35            (INCLUDING BUT NOT LIMITED TO ANY DEFENSE THEREOF), OR OTHER SIMILAR COSTS.
     36          
     37            Should you have any questions regarding your right to use this Software,
     38            contact Texas Instruments Incorporated at www.TI.com.
     39          **************************************************************************************************/
     40          
     41          /*********************************************************************
     42            This application implements a ZigBee Light, based on Z-Stack 3.0. It can be configured as an
     43            On/Off light or as a dimmable light, by undefining or defining ZCL_LEVEL_CTRL, respectively.
     44          
     45            This application is based on the common sample-application user interface. Please see the main
     46            comment in zcl_sampleapp_ui.c. The rest of this comment describes only the content specific for
     47            this sample applicetion.
     48            
     49            Application-specific UI peripherals being used:
     50          
     51            - LEDs:
     52              LED1 reflect the current light state (On / Off accordingly).
     53          
     54            Application-specific menu system:
     55          
     56              <TOGGLE LIGHT> Toggle the local light and display its status and level
     57                Press OK to toggle the local light on and off.
     58                This screen shows the following information
     59                  Line1: (only populated if ZCL_LEVEL_CTRL is defined)
     60                    LEVEL XXX - xxx is the current level of the light if the light state is ON, or the target level
     61                      of the light when the light state is off. The target level is the level that the light will be
     62                      set to when it is switched from off to on using the on or the toggle commands.
     63                  Line2:
     64                    LIGHT OFF / ON: shows the current state of the light.
     65                Note when ZCL_LEVEL_CTRL is enabled:
     66                  - If the light state is ON and the light level is X, and then the light receives the OFF or TOGGLE 
     67                    commands: The level will decrease gradually until it reaches 1, and only then the light state will
     68                    be changed to OFF. The level then will be restored to X, with the state staying OFF. At this stage
     69                    the light is not lighting, and the level represent the target level for the next ON or TOGGLE 
     70                    commands.
     71                  - If the light state is OFF and the light level is X, and then the light receives the ON or TOGGLE
     72                    commands; The level will be set to 1, the light state will be set to ON, and then the level will
     73                    increase gradually until it reaches level X.
     74                  - Any level-setting command will affect the level directly, and may also affect the on/off state,
     75                    depending on the command's arguments.       
     76          
     77          *********************************************************************/
     78          
     79          /*********************************************************************
     80           * INCLUDES
     81           */
     82          #include "ZComDef.h"
     83          #include "OSAL.h"
     84          #include "AF.h"
     85          #include "ZDApp.h"
     86          #include "ZDObject.h"
     87          #include "MT_SYS.h"
     88          #include "aps_groups.h"
     89          #include "nwk_util.h"
     90          
     91          #include "zcl.h"
     92          #include "zcl_general.h"
     93          #include "zcl_ha.h"
     94          #include "zcl_diagnostic.h"
     95          
     96          #include "zcl_samplelight.h"
     97             
     98          #include "bdb.h"
     99          #include "bdb_interface.h"
    100          
    101           //GP_UPDATE
    102          #include "gp_interface.h"
    103             
    104          #include "onboard.h"
    105          
    106          /* HAL */
    107          #include "hal_lcd.h"
    108          #include "hal_led.h"
    109          #include "hal_key.h"
    110          
    111          #include "NLMEDE.h"
    112          
    113          // Added to include TouchLink initiator functionality 
    114          #if defined ( BDB_TL_INITIATOR )
    115            #include "bdb_touchlink_initiator.h"
    116          #endif // BDB_TL_INITIATOR
    117          
    118          #if defined ( BDB_TL_TARGET )
    119            #include "bdb_touchlink_target.h"
    120          #endif // BDB_TL_TARGET
    121          
    122          #if defined ( BDB_TL_INITIATOR ) || defined ( BDB_TL_TARGET )
    123            #include "bdb_touchlink.h"
    124          #endif
    125          
    126          #include "zcl_sampleapps_ui.h"
    127          
    128          /*********************************************************************
    129           * MACROS
    130           */
    131          #define UI_STATE_TOGGLE_LIGHT 1 //UI_STATE_BACK_FROM_APP_MENU is item #0, so app item numbers should start from 1
    132          
    133          #define APP_TITLE "TI Sample Light"
    134          
    135          /*********************************************************************
    136           * TYPEDEFS
    137           */
    138          
    139          /*********************************************************************
    140           * GLOBAL VARIABLES
    141           */

   \                                 In  segment XDATA_Z, align 1, keep-with-next
    142          byte zclSampleLight_TaskID;
   \                     zclSampleLight_TaskID:
   \   000000                DS 1
   \   000001                REQUIRE __INIT_XDATA_Z

   \                                 In  segment XDATA_Z, align 1, keep-with-next
    143          uint8 zclSampleLightSeqNum;
   \                     zclSampleLightSeqNum:
   \   000000                DS 1
   \   000001                REQUIRE __INIT_XDATA_Z

   \                                 In  segment XDATA_I, align 1, keep-with-next
    144          uint8 Current_Led=HAL_LED_3;
   \                     Current_Led:
   \   000000                DS 1
   \   000001                REQUIRE `?<Initializer for Current_Led>`
   \   000001                REQUIRE __INIT_XDATA_I
    145          /*********************************************************************
    146           * GLOBAL FUNCTIONS
    147           */
    148          
    149          /*********************************************************************
    150           * LOCAL VARIABLES
    151           */

   \                                 In  segment XDATA_Z, align 1, keep-with-next
    152          afAddrType_t zclSampleLight_DstAddr;
   \                     zclSampleLight_DstAddr:
   \   000000                DS 12
   \   00000C                REQUIRE __INIT_XDATA_Z
    153          
    154          //afAddrType_t Group_DstAddr;           
    155          //aps_Group_t SampleLight_Group;    
    156          
    157          // Test Endpoint to allow SYS_APP_MSGs

   \                                 In  segment XDATA_I, align 1, keep-with-next
    158          static endPointDesc_t sampleLight_TestEp =
   \                     sampleLight_TestEp:
   \   000000                DS 7
   \   000007                REQUIRE `?<Initializer for sampleLight_TestEp>`
   \   000007                REQUIRE __INIT_XDATA_I
    159          {
    160            SAMPLELIGHT_ENDPOINT,
    161            0,
    162            &zclSampleLight_TaskID,
    163            (SimpleDescriptionFormat_t *)NULL,  // No Simple description for this test endpoint
    164            (afNetworkLatencyReq_t)0            // No Network Latency req
    165          };
    166          
    167          #ifdef ZCL_LEVEL_CTRL

   \                                 In  segment XDATA_Z, align 1, keep-with-next
    168          uint8 zclSampleLight_WithOnOff;       // set to TRUE if state machine should set light on/off
   \                     zclSampleLight_WithOnOff:
   \   000000                DS 1
   \   000001                REQUIRE __INIT_XDATA_Z

   \                                 In  segment XDATA_Z, align 1, keep-with-next
    169          uint8 zclSampleLight_NewLevel;        // new level when done moving
   \                     zclSampleLight_NewLevel:
   \   000000                DS 1
   \   000001                REQUIRE __INIT_XDATA_Z

   \                                 In  segment XDATA_Z, align 1, keep-with-next
    170          uint8 zclSampleLight_LevelChangeCmd; // current level change was triggered by an on/off command
   \                     zclSampleLight_LevelChangeCmd:
   \   000000                DS 1
   \   000001                REQUIRE __INIT_XDATA_Z

   \                                 In  segment XDATA_Z, align 1, keep-with-next
    171          bool  zclSampleLight_NewLevelUp;      // is direction to new level up or down?
   \                     zclSampleLight_NewLevelUp:
   \   000000                DS 1
   \   000001                REQUIRE __INIT_XDATA_Z

   \                                 In  segment XDATA_Z, align 1, keep-with-next
    172          int32 zclSampleLight_CurrentLevel32;  // current level, fixed point (e.g. 192.456)
   \                     zclSampleLight_CurrentLevel32:
   \   000000                DS 4
   \   000004                REQUIRE __INIT_XDATA_Z

   \                                 In  segment XDATA_Z, align 1, keep-with-next
    173          int32 zclSampleLight_Rate32;          // rate in units, fixed point (e.g. 16.123)
   \                     zclSampleLight_Rate32:
   \   000000                DS 4
   \   000004                REQUIRE __INIT_XDATA_Z

   \                                 In  segment XDATA_Z, align 1, keep-with-next
    174          uint8 zclSampleLight_LevelLastLevel;  // to save the Current Level before the light was turned OFF
   \                     zclSampleLight_LevelLastLevel:
   \   000000                DS 1
   \   000001                REQUIRE __INIT_XDATA_Z
    175          #endif
    176          
    177          /*********************************************************************
    178           * LOCAL FUNCTIONS
    179           */
    180          static void zclSampleLight_HandleKeys( byte shift, byte keys );
    181          static void zclSampleLight_BasicResetCB( void );
    182          static void zclSampleLight_OnOffCB( uint8 cmd );
    183          //GP_UPDATE
    184          #if (ZG_BUILD_RTR_TYPE)
    185          static void gp_CommissioningMode(bool isEntering);
    186          static uint8 gp_ChangeChannelReq(void);
    187          #endif
    188          
    189          
    190          static void zclSampleLight_ProcessCommissioningStatus(bdbCommissioningModeMsg_t *bdbCommissioningModeMsg);
    191          
    192          
    193          #ifdef ZCL_LEVEL_CTRL
    194          static void zclSampleLight_LevelControlMoveToLevelCB( zclLCMoveToLevel_t *pCmd );
    195          static void zclSampleLight_LevelControlMoveCB( zclLCMove_t *pCmd );
    196          static void zclSampleLight_LevelControlStepCB( zclLCStep_t *pCmd );
    197          static void zclSampleLight_LevelControlStopCB( void );
    198          static void zclSampleLight_SceneSimpleCB(void);
    199          static void zclSampleLight_DefaultMove( uint8 OnOff );
    200          static uint32 zclSampleLight_TimeRateHelper( uint8 newLevel );
    201          static uint16 zclSampleLight_GetTime ( uint8 level, uint16 time );
    202          static void zclSampleLight_MoveBasedOnRate( uint8 newLevel, uint32 rate );
    203          static void zclSampleLight_MoveBasedOnTime( uint8 newLevel, uint16 time );
    204          static void zclSampleLight_AdjustLightLevel( void );
    205          #endif
    206          
    207          // Functions to process ZCL Foundation incoming Command/Response messages
    208          static void zclSampleLight_ProcessIncomingMsg( zclIncomingMsg_t *msg );
    209          #ifdef ZCL_READ
    210          static uint8 zclSampleLight_ProcessInReadRspCmd( zclIncomingMsg_t *pInMsg );
    211          #endif
    212          #ifdef ZCL_WRITE
    213          static uint8 zclSampleLight_ProcessInWriteRspCmd( zclIncomingMsg_t *pInMsg );
    214          #endif
    215          static uint8 zclSampleLight_ProcessInDefaultRspCmd( zclIncomingMsg_t *pInMsg );
    216          #ifdef ZCL_DISCOVER
    217          static uint8 zclSampleLight_ProcessInDiscCmdsRspCmd( zclIncomingMsg_t *pInMsg );
    218          static uint8 zclSampleLight_ProcessInDiscAttrsRspCmd( zclIncomingMsg_t *pInMsg );
    219          static uint8 zclSampleLight_ProcessInDiscAttrsExtRspCmd( zclIncomingMsg_t *pInMsg );
    220          #endif
    221          
    222          void zclSampleLight_UiActionToggleLight(uint16 keys);
    223          void zclSampleLight_UiUpdateLcd(uint8 uiCurrentState, char * line[3]);
    224          void zclSampleLight_UpdateLedState(void);
    225          
    226          /*********************************************************************
    227           * CONSTANTS
    228           */

   \                                 In  segment XDATA_ROM_C, align 1
    229          const uiState_t zclSampleLight_UiStatesMain[] = 
   \                     zclSampleLight_UiStatesMain:
   \   000000   FE           DB 254
   \   000001   01           DB 1
   \   000002   0400         DW 4
   \   000004   ....         DW `??UI_ActionBackFromAppMenu::?relay`
   \   000006   00           DB 0
   \   000007   FE           DB 254
   \   000008   0400         DW 4
   \   00000A   ....         DW `??zclSampleLight_UiActionToggleLight::?relay`
    230          {
    231            /*  UI_STATE_BACK_FROM_APP_MENU  */   {UI_STATE_DEFAULT_MOVE,       UI_STATE_TOGGLE_LIGHT,  UI_KEY_SW_5_PRESSED, &UI_ActionBackFromAppMenu}, //do not change this line, except for the second item, which should point to the last entry in this menu
    232            /*  UI_STATE_TOGGLE_LIGHT        */   {UI_STATE_BACK_FROM_APP_MENU, UI_STATE_DEFAULT_MOVE,  UI_KEY_SW_5_PRESSED, &zclSampleLight_UiActionToggleLight},
    233          };
    234          
    235          #define LEVEL_CHANGED_BY_LEVEL_CMD  0
    236          #define LEVEL_CHANGED_BY_ON_CMD     1
    237          #define LEVEL_CHANGED_BY_OFF_CMD    2
    238          
    239          /*********************************************************************
    240           * STATUS STRINGS
    241           */
    242          #ifdef LCD_SUPPORTED

   \                                 In  segment XDATA_ROM_C, align 1
    243            const char sLightOn[]      = "   LIGHT ON     ";
   \                     sLightOn:
   \   000000   2020204C     DB "   LIGHT ON     "
   \            49474854
   \            204F4E20
   \            20202020
   \            00      

   \                                 In  segment XDATA_ROM_C, align 1
    244            const char sLightOff[]     = "   LIGHT OFF    ";
   \                     sLightOff:
   \   000000   2020204C     DB "   LIGHT OFF    "
   \            49474854
   \            204F4646
   \            20202020
   \            00      
    245            #ifdef ZCL_LEVEL_CTRL

   \                                 In  segment XDATA_I, align 1, keep-with-next
    246              char sLightLevel[]        = "   LEVEL ###    "; // displays level 1-254
   \                     sLightLevel:
   \   000000                DS 17
   \   000011                REQUIRE `?<Initializer for sLightLevel>`
   \   000011                REQUIRE __INIT_XDATA_I
    247            #endif
    248          #endif
    249          
    250          /*********************************************************************
    251           * REFERENCED EXTERNALS
    252           */
    253          extern int16 zdpExternalStateTaskID;
    254          
    255          /*********************************************************************
    256           * ZCL General Profile Callback table
    257           */

   \                                 In  segment XDATA_I, align 1, keep-with-next
    258          static zclGeneral_AppCallbacks_t zclSampleLight_CmdCallbacks =
   \                     zclSampleLight_CmdCallbacks:
   \   000000                DS 34
   \   000022                REQUIRE `?<Initializer for zclSampleLight_CmdCallbacks>`
   \   000022                REQUIRE __INIT_XDATA_I
    259          {
    260            zclSampleLight_BasicResetCB,            // Basic Cluster Reset command
    261            NULL,                                   // Identify Trigger Effect command
    262            zclSampleLight_OnOffCB,                 // On/Off cluster commands
    263            NULL,                                   // On/Off cluster enhanced command Off with Effect
    264            NULL,                                   // On/Off cluster enhanced command On with Recall Global Scene
    265            NULL,                                   // On/Off cluster enhanced command On with Timed Off
    266          #ifdef ZCL_LEVEL_CTRL
    267            zclSampleLight_LevelControlMoveToLevelCB, // Level Control Move to Level command
    268            zclSampleLight_LevelControlMoveCB,        // Level Control Move command
    269            zclSampleLight_LevelControlStepCB,        // Level Control Step command
    270            zclSampleLight_LevelControlStopCB,        // Level Control Stop command
    271          #endif
    272          #ifdef ZCL_GROUPS
    273            NULL,                                   // Group Response commands
    274          #endif
    275          #ifdef ZCL_SCENES
    276            NULL,                                  // Scene Store Request command
    277            NULL,                                  // Scene Recall Request command
    278            NULL,                                  // Scene Response command
    279            zclSampleLight_SceneSimpleCB,          // Scene simple test
    280          #endif
    281          #ifdef ZCL_ALARMS
    282            NULL,                                  // Alarm (Response) commands
    283          #endif
    284          #ifdef SE_UK_EXT
    285            NULL,                                  // Get Event Log command
    286            NULL,                                  // Publish Event Log command
    287          #endif
    288            NULL,                                  // RSSI Location command
    289            NULL                                   // RSSI Location Response command
    290          };
    291          
    292          /*********************************************************************
    293           * @fn          zclSampleLight_Init
    294           *
    295           * @brief       Initialization function for the zclGeneral layer.
    296           *
    297           * @param       none
    298           *
    299           * @return      none
    300           */

   \                                 In  segment BANKED_CODE, align 1, keep-with-next
    301          void zclSampleLight_Init( byte task_id )
   \                     zclSampleLight_Init:
    302          {
   \   000000                REQUIRE ?V0
   \   000000                REQUIRE ?V1
   \   000000                REQUIRE ?V2
   \   000000   74F5         MOV       A,#-0xb
   \   000002   12....       LCALL     ?BANKED_ENTER_XDATA
   \   000005                ; Saved register size: 11
   \   000005                ; Auto size: 18
   \   000005   74EE         MOV       A,#-0x12
   \   000007   12....       LCALL     ?ALLOC_XSTACK8
   \   00000A   E9           MOV       A,R1
    303            zclSampleLight_TaskID = task_id;
   \   00000B   90....       MOV       DPTR,#zclSampleLight_TaskID
   \   00000E   F0           MOVX      @DPTR,A
    304            
    305            // Set destination address to indirect
    306            zclSampleLight_DstAddr.addrMode = (afAddrMode_t)AddrNotPresent;
   \   00000F   90....       MOV       DPTR,#zclSampleLight_DstAddr + 8
   \   000012   E4           CLR       A
   \   000013   F0           MOVX      @DPTR,A
    307            zclSampleLight_DstAddr.endPoint = 0;
   \   000014   A3           INC       DPTR
   \   000015   F0           MOVX      @DPTR,A
    308            zclSampleLight_DstAddr.addr.shortAddr = 0;
   \   000016   90....       MOV       DPTR,#zclSampleLight_DstAddr
   \   000019   F0           MOVX      @DPTR,A
   \   00001A   A3           INC       DPTR
   \   00001B   F0           MOVX      @DPTR,A
    309          
    310            // Register the Simple Descriptor for this application
    311            bdb_RegisterSimpleDescriptor( &zclSampleLight_SimpleDesc );
   \   00001C                ; Setup parameters for call to function bdb_RegisterSimpleDescriptor
   \   00001C   7A..         MOV       R2,#zclSampleLight_SimpleDesc & 0xff
   \   00001E   7B..         MOV       R3,#(zclSampleLight_SimpleDesc >> 8) & 0xff
   \   000020   12....       LCALL     `??bdb_RegisterSimpleDescriptor::?relay`; Banked call to: bdb_RegisterSimpleDescriptor
    312          
    313            //register the group
    314            aps_Group_t SampleLight_Group;         //组播组结构体 
    315            SampleLight_Group.ID = 0x9ba8  ;       
   \   000023   85..82       MOV       DPL,?XSP + 0
   \   000026   85..83       MOV       DPH,?XSP + 1
   \   000029   74A8         MOV       A,#-0x58
   \   00002B   F0           MOVX      @DPTR,A
   \   00002C   A3           INC       DPTR
   \   00002D   749B         MOV       A,#-0x65
   \   00002F   F0           MOVX      @DPTR,A
    316            osal_memcpy( SampleLight_Group.name, "Group 1", 7  );  
   \   000030                ; Setup parameters for call to function osal_memcpy
   \   000030   75....       MOV       ?V0,#`?<Constant "Group 1">` & 0xff
   \   000033   75....       MOV       ?V1,#(`?<Constant "Group 1">` >> 8) & 0xff
   \   000036   75..00       MOV       ?V2,#0x0
   \   000039   78..         MOV       R0,#?V0
   \   00003B   12....       LCALL     ?PUSH_XSTACK_I_THREE
   \   00003E   7C07         MOV       R4,#0x7
   \   000040   7D00         MOV       R5,#0x0
   \   000042   7405         MOV       A,#0x5
   \   000044   12....       LCALL     ?XSTACK_DISP0_8
   \   000047   AA82         MOV       R2,DPL
   \   000049   AB83         MOV       R3,DPH
   \   00004B   12....       LCALL     `??osal_memcpy::?relay`; Banked call to: osal_memcpy
   \   00004E   7403         MOV       A,#0x3
   \   000050   12....       LCALL     ?DEALLOC_XSTACK8
    317            aps_AddGroup( SAMPLELIGHT_ENDPOINT, &SampleLight_Group ); 
   \   000053                ; Setup parameters for call to function aps_AddGroup
   \   000053   AA..         MOV       R2,?XSP + 0
   \   000055   AB..         MOV       R3,?XSP + 1
   \   000057   7908         MOV       R1,#0x8
   \   000059   12....       LCALL     `??aps_AddGroup::?relay`; Banked call to: aps_AddGroup
    318            
    319            // Register the ZCL General Cluster Library callback functions
    320            zclGeneral_RegisterCmdCallbacks( SAMPLELIGHT_ENDPOINT, &zclSampleLight_CmdCallbacks );
   \   00005C                ; Setup parameters for call to function zclGeneral_RegisterCmdCallbacks
   \   00005C   7A..         MOV       R2,#zclSampleLight_CmdCallbacks & 0xff
   \   00005E   7B..         MOV       R3,#(zclSampleLight_CmdCallbacks >> 8) & 0xff
   \   000060   7908         MOV       R1,#0x8
   \   000062   12....       LCALL     `??zclGeneral_RegisterCmdCallbacks::?relay`; Banked call to: zclGeneral_RegisterCmdCallbacks
    321          
    322            // Register the application's attribute list
    323            zclSampleLight_ResetAttributesToDefaultValues();
   \   000065                ; Setup parameters for call to function zclSampleLight_ResetAttributesToDefaultValues
   \   000065   12....       LCALL     ??zclSampleLight_ResetAttributesToDefaultValues; Banked call to: zclSampleLight_ResetAttributesToDefaultValues
    324            zcl_registerAttrList( SAMPLELIGHT_ENDPOINT, zclSampleLight_NumAttributes, zclSampleLight_Attrs );
   \   000068                ; Setup parameters for call to function zcl_registerAttrList
   \   000068   7C..         MOV       R4,#zclSampleLight_Attrs & 0xff
   \   00006A   7D..         MOV       R5,#(zclSampleLight_Attrs >> 8) & 0xff
   \   00006C   90....       MOV       DPTR,#zclSampleLight_NumAttributes
   \   00006F   E4           CLR       A
   \   000070   93           MOVC      A,@A+DPTR
   \   000071   FA           MOV       R2,A
   \   000072   7908         MOV       R1,#0x8
   \   000074   12....       LCALL     `??zcl_registerAttrList::?relay`; Banked call to: zcl_registerAttrList
    325          
    326          #ifdef ZCL_LEVEL_CTRL
    327            zclSampleLight_LevelLastLevel = zclSampleLight_LevelCurrentLevel;
   \   000077   90....       MOV       DPTR,#zclSampleLight_LevelCurrentLevel
   \   00007A   E0           MOVX      A,@DPTR
   \   00007B   90....       MOV       DPTR,#zclSampleLight_LevelLastLevel
   \   00007E   F0           MOVX      @DPTR,A
    328          #endif
    329          
    330            // Register the Application to receive the unprocessed Foundation command/response messages
    331            zcl_registerForMsg( zclSampleLight_TaskID );
   \   00007F                ; Setup parameters for call to function zcl_registerForMsg
   \   00007F   90....       MOV       DPTR,#zclSampleLight_TaskID
   \   000082   E0           MOVX      A,@DPTR
   \   000083   F9           MOV       R1,A
   \   000084   12....       LCALL     `??zcl_registerForMsg::?relay`; Banked call to: zcl_registerForMsg
    332          
    333          #ifdef ZCL_DISCOVER
    334            // Register the application's command list
    335            zcl_registerCmdList( SAMPLELIGHT_ENDPOINT, zclCmdsArraySize, zclSampleLight_Cmds );
   \   000087                ; Setup parameters for call to function zcl_registerCmdList
   \   000087   7C..         MOV       R4,#zclSampleLight_Cmds & 0xff
   \   000089   7D..         MOV       R5,#(zclSampleLight_Cmds >> 8) & 0xff
   \   00008B   90....       MOV       DPTR,#zclCmdsArraySize
   \   00008E   E4           CLR       A
   \   00008F   93           MOVC      A,@A+DPTR
   \   000090   FA           MOV       R2,A
   \   000091   7908         MOV       R1,#0x8
   \   000093   12....       LCALL     `??zcl_registerCmdList::?relay`; Banked call to: zcl_registerCmdList
    336          #endif
    337          
    338            // Register for all key events - This app will handle all key events
    339            RegisterForKeys( zclSampleLight_TaskID );
   \   000096                ; Setup parameters for call to function RegisterForKeys
   \   000096   90....       MOV       DPTR,#zclSampleLight_TaskID
   \   000099   E0           MOVX      A,@DPTR
   \   00009A   F9           MOV       R1,A
   \   00009B   12....       LCALL     `??RegisterForKeys::?relay`; Banked call to: RegisterForKeys
    340            
    341            bdb_RegisterCommissioningStatusCB( zclSampleLight_ProcessCommissioningStatus );
   \   00009E                ; Setup parameters for call to function bdb_RegisterCommissioningStatusCB
   \   00009E   7A..         MOV       R2,#`??zclSampleLight_ProcessCommissioningStatus::?r` & 0xff
   \   0000A0   7B..         MOV       R3,#(`??zclSampleLight_ProcessCommissioningStatus::?r` >> 8) & 0xff
   \   0000A2   12....       LCALL     `??bdb_RegisterCommissioningStatusCB::?relay`; Banked call to: bdb_RegisterCommissioningStatusCB
    342            
    343            // Register for a test endpoint
    344            afRegister( &sampleLight_TestEp );
   \   0000A5                ; Setup parameters for call to function afRegister
   \   0000A5   7A..         MOV       R2,#sampleLight_TestEp & 0xff
   \   0000A7   7B..         MOV       R3,#(sampleLight_TestEp >> 8) & 0xff
   \   0000A9   12....       LCALL     `??afRegister::?relay`; Banked call to: afRegister
    345          
    346          #ifdef ZCL_DIAGNOSTIC
    347            // Register the application's callback function to read/write attribute data.
    348            // This is only required when the attribute data format is unknown to ZCL.
    349            zcl_registerReadWriteCB( SAMPLELIGHT_ENDPOINT, zclDiagnostic_ReadWriteAttrCB, NULL );
    350          
    351            if ( zclDiagnostic_InitStats() == ZSuccess )
    352            {
    353              // Here the user could start the timer to save Diagnostics to NV
    354            }
    355          #endif
    356            
    357          //GP_UPDATE  
    358          #if (ZG_BUILD_RTR_TYPE)  
    359            gp_RegisterCommissioningModeCB(gp_CommissioningMode);
    360            gp_RegisterGPChangeChannelReqCB(gp_ChangeChannelReq);
    361          #endif
    362            
    363            zdpExternalStateTaskID = zclSampleLight_TaskID;
   \   0000AC   90....       MOV       DPTR,#zclSampleLight_TaskID
   \   0000AF   E0           MOVX      A,@DPTR
   \   0000B0   90....       MOV       DPTR,#zdpExternalStateTaskID
   \   0000B3   F0           MOVX      @DPTR,A
   \   0000B4   A3           INC       DPTR
   \   0000B5   E4           CLR       A
   \   0000B6   F0           MOVX      @DPTR,A
    364          
    365            UI_Init(zclSampleLight_TaskID, SAMPLEAPP_LCD_AUTO_UPDATE_EVT, SAMPLEAPP_KEY_AUTO_REPEAT_EVT, &zclSampleLight_IdentifyTime, APP_TITLE, &zclSampleLight_UiUpdateLcd, zclSampleLight_UiStatesMain);
   \   0000B7                ; Setup parameters for call to function UI_Init
   \   0000B7   75....       MOV       ?V0,#zclSampleLight_UiStatesMain & 0xff
   \   0000BA   75....       MOV       ?V1,#(zclSampleLight_UiStatesMain >> 8) & 0xff
   \   0000BD   78..         MOV       R0,#?V0
   \   0000BF   12....       LCALL     ?PUSH_XSTACK_I_TWO
   \   0000C2   75....       MOV       ?V0,#`??zclSampleLight_UiUpdateLcd::?relay` & 0xff
   \   0000C5   75....       MOV       ?V1,#(`??zclSampleLight_UiUpdateLcd::?relay` >> 8) & 0xff
   \   0000C8   78..         MOV       R0,#?V0
   \   0000CA   12....       LCALL     ?PUSH_XSTACK_I_TWO
   \   0000CD   75....       MOV       ?V0,#`?<Constant "TI Sample Light">` & 0xff
   \   0000D0   75....       MOV       ?V1,#(`?<Constant "TI Sample Light">` >> 8) & 0xff
   \   0000D3   78..         MOV       R0,#?V0
   \   0000D5   12....       LCALL     ?PUSH_XSTACK_I_TWO
   \   0000D8   75....       MOV       ?V0,#zclSampleLight_IdentifyTime & 0xff
   \   0000DB   75....       MOV       ?V1,#(zclSampleLight_IdentifyTime >> 8) & 0xff
   \   0000DE   78..         MOV       R0,#?V0
   \   0000E0   12....       LCALL     ?PUSH_XSTACK_I_TWO
   \   0000E3   7C20         MOV       R4,#0x20
   \   0000E5   7D00         MOV       R5,#0x0
   \   0000E7   7A10         MOV       R2,#0x10
   \   0000E9   7B00         MOV       R3,#0x0
   \   0000EB   90....       MOV       DPTR,#zclSampleLight_TaskID
   \   0000EE   E0           MOVX      A,@DPTR
   \   0000EF   F9           MOV       R1,A
   \   0000F0   12....       LCALL     `??UI_Init::?relay`; Banked call to: UI_Init
   \   0000F3   7408         MOV       A,#0x8
   \   0000F5   12....       LCALL     ?DEALLOC_XSTACK8
    366          
    367            UI_UpdateLcd();
   \   0000F8                ; Setup parameters for call to function UI_UpdateLcd
   \   0000F8   12....       LCALL     `??UI_UpdateLcd::?relay`; Banked call to: UI_UpdateLcd
    368            bdb_StartCommissioning(BDB_COMMISSIONING_MODE_NWK_STEERING);
   \   0000FB                ; Setup parameters for call to function bdb_StartCommissioning
   \   0000FB   7902         MOV       R1,#0x2
   \   0000FD   12....       LCALL     `??bdb_StartCommissioning::?relay`; Banked call to: bdb_StartCommissioning
    369          }
   \   000100   7412         MOV       A,#0x12
   \   000102   12....       LCALL     ?DEALLOC_XSTACK8
   \   000105   7F03         MOV       R7,#0x3
   \   000107   02....       LJMP      ?BANKED_LEAVE_XDATA
    370          
    371          /*********************************************************************
    372           * @fn          zclSample_event_loop
    373           *
    374           * @brief       Event Loop Processor for zclGeneral.
    375           *
    376           * @param       none
    377           *
    378           * @return      none
    379           */

   \                                 In  segment BANKED_CODE, align 1, keep-with-next
    380          uint16 zclSampleLight_event_loop( uint8 task_id, uint16 events )
   \                     zclSampleLight_event_loop:
    381          {
   \   000000                REQUIRE ?V0
   \   000000                REQUIRE ?V1
   \   000000                REQUIRE ?V2
   \   000000                REQUIRE ?V3
   \   000000   74F4         MOV       A,#-0xc
   \   000002   12....       LCALL     ?BANKED_ENTER_XDATA
   \   000005                ; Saved register size: 12
   \   000005                ; Auto size: 0
   \   000005   EA           MOV       A,R2
   \   000006   FE           MOV       R6,A
   \   000007   EB           MOV       A,R3
   \   000008   FF           MOV       R7,A
    382            afIncomingMSGPacket_t *MSGpkt;
    383          
    384            (void)task_id;  // Intentionally unreferenced parameter
    385          
    386            if ( events & SYS_EVENT_MSG )
   \   000009   5480         ANL       A,#0x80
   \   00000B   7047         JNZ       ??zclSampleLight_event_loop_0
    387            {
    388              while ( (MSGpkt = (afIncomingMSGPacket_t *)osal_msg_receive( zclSampleLight_TaskID )) )
    389              {
    390                switch ( MSGpkt->hdr.event )
    391                {
    392                  case ZCL_INCOMING_MSG:
    393                    // Incoming ZCL Foundation command/response messages
    394                    zclSampleLight_ProcessIncomingMsg( (zclIncomingMsg_t *)MSGpkt );
    395                    break;
    396          
    397                  case KEY_CHANGE:
    398                    zclSampleLight_HandleKeys( ((keyChange_t *)MSGpkt)->state, ((keyChange_t *)MSGpkt)->keys );
    399                    break;
    400          
    401                  case ZDO_STATE_CHANGE:
    402                    UI_DeviceStateUpdated((devStates_t)(MSGpkt->hdr.status));
    403                    break;
    404          
    405                  default:
    406                    break;
    407                }
    408          
    409                // Release the memory
    410                osal_msg_deallocate( (uint8 *)MSGpkt );
    411              }
    412          
    413              // return unprocessed events
    414              return (events ^ SYS_EVENT_MSG);
    415            }
    416          
    417          #ifdef ZCL_LEVEL_CTRL
    418            if ( events & SAMPLELIGHT_LEVEL_CTRL_EVT )
   \   00000D   EA           MOV       A,R2
   \   00000E   5402         ANL       A,#0x2
   \   000010   7003         JNZ       $+5
   \   000012   02....       LJMP      ??zclSampleLight_event_loop_1 & 0xFFFF
    419            {
    420              zclSampleLight_AdjustLightLevel();
   \   000015   90....       MOV       DPTR,#zclSampleLight_LevelRemainingTime
   \   000018   E0           MOVX      A,@DPTR
   \   000019   F8           MOV       R0,A
   \   00001A   A3           INC       DPTR
   \   00001B   E0           MOVX      A,@DPTR
   \   00001C   F9           MOV       R1,A
   \   00001D   E8           MOV       A,R0
   \   00001E   49           ORL       A,R1
   \   00001F   7003         JNZ       $+5
   \   000021   02....       LJMP      ??zclSampleLight_event_loop_2 & 0xFFFF
   \   000024   90....       MOV       DPTR,#zclSampleLight_LevelRemainingTime
   \   000027   E0           MOVX      A,@DPTR
   \   000028   24FF         ADD       A,#-0x1
   \   00002A   F0           MOVX      @DPTR,A
   \   00002B   A3           INC       DPTR
   \   00002C   E0           MOVX      A,@DPTR
   \   00002D   34FF         ADDC      A,#-0x1
   \   00002F   F0           MOVX      @DPTR,A
   \   000030   90....       MOV       DPTR,#zclSampleLight_LevelDirection
   \   000033   E0           MOVX      A,@DPTR
   \   000034   6401         XRL       A,#0x1
   \   000036   6057         JZ        ??zclSampleLight_event_loop_3
   \   000038   E0           MOVX      A,@DPTR
   \   000039   706C         JNZ       ??zclSampleLight_event_loop_4
   \   00003B   90....       MOV       DPTR,#zclSampleLight_LevelCurrentLevel
   \   00003E   E0           MOVX      A,@DPTR
   \   00003F   14           DEC       A
   \   000040   F0           MOVX      @DPTR,A
   \   000041   705A         JNZ       ??zclSampleLight_event_loop_5
   \   000043   7401         MOV       A,#0x1
   \   000045   8055         SJMP      ??zclSampleLight_event_loop_6
   \                     ??zclSampleLight_event_loop_7:
   \   000047                ; Setup parameters for call to function UI_DeviceStateUpdated
   \   000047   A3           INC       DPTR
   \   000048   E0           MOVX      A,@DPTR
   \   000049   F9           MOV       R1,A
   \   00004A   12....       LCALL     `??UI_DeviceStateUpdated::?relay`; Banked call to: UI_DeviceStateUpdated
   \                     ??zclSampleLight_event_loop_8:
   \   00004D                ; Setup parameters for call to function osal_msg_deallocate
   \   00004D   AA..         MOV       R2,?V0
   \   00004F   AB..         MOV       R3,?V1
   \   000051   12....       LCALL     `??osal_msg_deallocate::?relay`; Banked call to: osal_msg_deallocate
   \                     ??zclSampleLight_event_loop_0:
   \   000054                ; Setup parameters for call to function osal_msg_receive
   \   000054   90....       MOV       DPTR,#zclSampleLight_TaskID
   \   000057   E0           MOVX      A,@DPTR
   \   000058   F9           MOV       R1,A
   \   000059   12....       LCALL     `??osal_msg_receive::?relay`; Banked call to: osal_msg_receive
   \   00005C   8A..         MOV       ?V0,R2
   \   00005E   8B..         MOV       ?V1,R3
   \   000060   EA           MOV       A,R2
   \   000061   4B           ORL       A,R3
   \   000062   6024         JZ        ??zclSampleLight_event_loop_9
   \   000064   8A82         MOV       DPL,R2
   \   000066   8B83         MOV       DPH,R3
   \   000068   E0           MOVX      A,@DPTR
   \   000069   24CC         ADD       A,#-0x34
   \   00006B   600A         JZ        ??zclSampleLight_event_loop_10
   \   00006D   2474         ADD       A,#0x74
   \   00006F   600B         JZ        ??zclSampleLight_event_loop_11
   \   000071   24EF         ADD       A,#-0x11
   \   000073   60D2         JZ        ??zclSampleLight_event_loop_7
   \   000075   80D6         SJMP      ??zclSampleLight_event_loop_8
   \                     ??zclSampleLight_event_loop_10:
   \   000077                ; Setup parameters for call to function zclSampleLight_ProcessIncomingMsg
   \   000077   12....       LCALL     `??zclSampleLight_ProcessIncomingMsg::?relay`; Banked call to: zclSampleLight_ProcessIncomingMsg
   \   00007A   80D1         SJMP      ??zclSampleLight_event_loop_8
   \                     ??zclSampleLight_event_loop_11:
   \   00007C                ; Setup parameters for call to function UI_MainStateMachine
   \   00007C   A3           INC       DPTR
   \   00007D   A3           INC       DPTR
   \   00007E   A3           INC       DPTR
   \   00007F   E0           MOVX      A,@DPTR
   \   000080   FA           MOV       R2,A
   \   000081   7B00         MOV       R3,#0x0
   \   000083   12....       LCALL     `??UI_MainStateMachine::?relay`; Banked call to: UI_MainStateMachine
   \   000086   80C5         SJMP      ??zclSampleLight_event_loop_8
   \                     ??zclSampleLight_event_loop_9:
   \   000088   EE           MOV       A,R6
   \   000089   FA           MOV       R2,A
   \   00008A   EF           MOV       A,R7
   \   00008B   6480         XRL       A,#0x80
   \   00008D   8054         SJMP      ??zclSampleLight_event_loop_12
   \                     ??zclSampleLight_event_loop_3:
   \   00008F   90....       MOV       DPTR,#zclSampleLight_LevelCurrentLevel
   \   000092   E0           MOVX      A,@DPTR
   \   000093   04           INC       A
   \   000094   F0           MOVX      @DPTR,A
   \   000095   C3           CLR       C
   \   000096   940A         SUBB      A,#0xa
   \   000098   4003         JC        ??zclSampleLight_event_loop_5
   \   00009A   7409         MOV       A,#0x9
   \                     ??zclSampleLight_event_loop_6:
   \   00009C   F0           MOVX      @DPTR,A
   \                     ??zclSampleLight_event_loop_5:
   \   00009D                ; Setup parameters for call to function LedSetBrightness
   \   00009D   E0           MOVX      A,@DPTR
   \   00009E   FA           MOV       R2,A
   \   00009F   90....       MOV       DPTR,#Current_Led
   \   0000A2   E0           MOVX      A,@DPTR
   \   0000A3   F9           MOV       R1,A
   \   0000A4   12....       LCALL     `??LedSetBrightness::?relay`; Banked call to: LedSetBrightness
   \                     ??zclSampleLight_event_loop_4:
   \   0000A7                ; Setup parameters for call to function osal_start_timerEx
   \   0000A7   90....       MOV       DPTR,#__Constant_64
   \   0000AA   12....       LCALL     ?PUSH_XSTACK8_X_FOUR
   \   0000AD   12....       LCALL     ?Subroutine2 & 0xFFFF
   \                     ??CrossCallReturnLabel_2:
   \   0000B0   12....       LCALL     ?DEALLOC_XSTACK8
    421              return ( events ^ SAMPLELIGHT_LEVEL_CTRL_EVT );
   \                     ??zclSampleLight_event_loop_2:
   \   0000B3   EE           MOV       A,R6
   \   0000B4   6402         XRL       A,#0x2
   \   0000B6   8029         SJMP      ??zclSampleLight_event_loop_13
    422            }
    423          #endif
    424          
    425          #if ZG_BUILD_ENDDEVICE_TYPE    
    426            if ( events & SAMPLEAPP_END_DEVICE_REJOIN_EVT )
   \                     ??zclSampleLight_event_loop_1:
   \   0000B8   EA           MOV       A,R2
   \   0000B9   5404         ANL       A,#0x4
   \   0000BB   6008         JZ        ??zclSampleLight_event_loop_14
    427            {
    428              bdb_ZedAttemptRecoverNwk();
   \   0000BD                ; Setup parameters for call to function bdb_ZedAttemptRecoverNwk
   \   0000BD   12....       LCALL     `??bdb_ZedAttemptRecoverNwk::?relay`; Banked call to: bdb_ZedAttemptRecoverNwk
    429              return ( events ^ SAMPLEAPP_END_DEVICE_REJOIN_EVT );
   \   0000C0   EE           MOV       A,R6
   \   0000C1   6404         XRL       A,#0x4
   \   0000C3   801C         SJMP      ??zclSampleLight_event_loop_13
    430            }
    431          #endif
    432          
    433            if ( events & SAMPLEAPP_LCD_AUTO_UPDATE_EVT )
   \                     ??zclSampleLight_event_loop_14:
   \   0000C5   EA           MOV       A,R2
   \   0000C6   5410         ANL       A,#0x10
   \   0000C8   6008         JZ        ??zclSampleLight_event_loop_15
    434            {
    435              UI_UpdateLcd();
   \   0000CA                ; Setup parameters for call to function UI_UpdateLcd
   \   0000CA   12....       LCALL     `??UI_UpdateLcd::?relay`; Banked call to: UI_UpdateLcd
    436              return ( events ^ SAMPLEAPP_LCD_AUTO_UPDATE_EVT );
   \   0000CD   EE           MOV       A,R6
   \   0000CE   6410         XRL       A,#0x10
   \   0000D0   800F         SJMP      ??zclSampleLight_event_loop_13
    437            }
    438          
    439            if ( events & SAMPLEAPP_KEY_AUTO_REPEAT_EVT )
   \                     ??zclSampleLight_event_loop_15:
   \   0000D2   EA           MOV       A,R2
   \   0000D3   5420         ANL       A,#0x20
   \   0000D5   600F         JZ        ??zclSampleLight_event_loop_16
    440            {
    441              UI_MainStateMachine(UI_KEY_AUTO_PRESSED);
   \   0000D7                ; Setup parameters for call to function UI_MainStateMachine
   \   0000D7   7AFF         MOV       R2,#-0x1
   \   0000D9   7BFF         MOV       R3,#-0x1
   \   0000DB   12....       LCALL     `??UI_MainStateMachine::?relay`; Banked call to: UI_MainStateMachine
    442              return ( events ^ SAMPLEAPP_KEY_AUTO_REPEAT_EVT );
   \   0000DE   EE           MOV       A,R6
   \   0000DF   6420         XRL       A,#0x20
   \                     ??zclSampleLight_event_loop_13:
   \   0000E1   FA           MOV       R2,A
   \   0000E2   EF           MOV       A,R7
   \                     ??zclSampleLight_event_loop_12:
   \   0000E3   FB           MOV       R3,A
   \   0000E4   8004         SJMP      ??zclSampleLight_event_loop_17
    443            }
    444          
    445            // Discard unknown events
    446            return 0;
   \                     ??zclSampleLight_event_loop_16:
   \   0000E6   7A00         MOV       R2,#0x0
   \   0000E8   7B00         MOV       R3,#0x0
   \                     ??zclSampleLight_event_loop_17:
   \   0000EA   7F04         MOV       R7,#0x4
   \   0000EC   02....       LJMP      ?BANKED_LEAVE_XDATA
    447          }
    448          
    449          
    450          /*********************************************************************
    451           * @fn      zclSampleLight_HandleKeys
    452           *
    453           * @brief   Handles all key events for this device.
    454           *
    455           * @param   shift - true if in shift/alt.
    456           * @param   keys - bit field for key events. Valid entries:
    457           *                 HAL_KEY_SW_5
    458           *                 HAL_KEY_SW_4
    459           *                 HAL_KEY_SW_2
    460           *                 HAL_KEY_SW_1
    461           *
    462           * @return  none
    463           */
    464          static void zclSampleLight_HandleKeys( byte shift, byte keys )
    465          {
    466            UI_MainStateMachine(keys);
    467          }
    468          
    469          //GP_UPDATE
    470          #if (ZG_BUILD_RTR_TYPE)
    471          /*********************************************************************
    472           * @fn      gp_CommissioningMode
    473           *
    474           * @brief   Callback that notifies the application that gp Proxy is entering 
    475           *          into commissioning mode
    476           *
    477           * @param   isEntering - 
    478           *
    479           * @return  
    480           */
    481          static void gp_CommissioningMode(bool isEntering)
    482          {
    483            if(isEntering)
    484            {
    485              //Led on indicating enter commissioning mode
    486            }
    487            else
    488            {
    489              //Led off indicating enter commissioning mode
    490            }
    491          }
    492          
    493          
    494          
    495          //GP_UPDATE
    496          /*********************************************************************
    497           * @fn      gp_ChangeChannelReq
    498           *
    499           * @brief   Callback function to notify the application about a GP commissioning 
    500           * request that will change the current channel for at most 
    501           * gpBirectionalCommissioningChangeChannelTimeout ms
    502           *
    503           * @param   channel - Channel in which the commissioning will take place
    504           *
    505           * @return  TRUE to allow change channel, FALSE to do not allow
    506           */
    507          static uint8 gp_ChangeChannelReq(void)
    508          {
    509            bool allowChangeChannel = TRUE;
    510            
    511            //Check application state to decide if allow change channel or not
    512            
    513            return allowChangeChannel;
    514          }
    515          
    516          #endif
    517          
    518          
    519          /*********************************************************************
    520           * @fn      zclSampleLight_ProcessCommissioningStatus
    521           *
    522           * @brief   Callback in which the status of the commissioning process are reported
    523           *
    524           * @param   bdbCommissioningModeMsg - Context message of the status of a commissioning process
    525           *
    526           * @return  none
    527           */

   \                                 In  segment BANKED_CODE, align 1, keep-with-next
    528          static void zclSampleLight_ProcessCommissioningStatus(bdbCommissioningModeMsg_t *bdbCommissioningModeMsg)
   \                     zclSampleLight_ProcessCommissioningStatus:
    529          {
   \   000000   74F7         MOV       A,#-0x9
   \   000002   12....       LCALL     ?BANKED_ENTER_XDATA
   \   000005                ; Saved register size: 9
   \   000005                ; Auto size: 0
   \   000005   EA           MOV       A,R2
   \   000006   FE           MOV       R6,A
   \   000007   EB           MOV       A,R3
   \   000008   FF           MOV       R7,A
    530            switch(bdbCommissioningModeMsg->bdbCommissioningMode)
   \   000009   8A82         MOV       DPL,R2
   \   00000B   F583         MOV       DPH,A
   \   00000D   A3           INC       DPTR
   \   00000E   E0           MOVX      A,@DPTR
   \   00000F   24FE         ADD       A,#-0x2
   \   000011   6006         JZ        ??zclSampleLight_ProcessCommissioningStatus_0
   \   000013   24FD         ADD       A,#-0x3
   \   000015   6014         JZ        ??zclSampleLight_ProcessCommissioningStatus_1
   \   000017   8029         SJMP      ??zclSampleLight_ProcessCommissioningStatus_2
    531            {
    532              case BDB_COMMISSIONING_FORMATION:
    533                if(bdbCommissioningModeMsg->bdbCommissioningStatus == BDB_COMMISSIONING_SUCCESS)
   \                     ??zclSampleLight_ProcessCommissioningStatus_0:
   \   000019   8A82         MOV       DPL,R2
   \   00001B   8B83         MOV       DPH,R3
   \   00001D   E0           MOVX      A,@DPTR
   \   00001E   7022         JNZ       ??zclSampleLight_ProcessCommissioningStatus_2
    534                {
    535                  //After formation, perform nwk steering again plus the remaining commissioning modes that has not been process yet
    536                  bdb_StartCommissioning(BDB_COMMISSIONING_MODE_NWK_STEERING | bdbCommissioningModeMsg->bdbRemainingCommissioningModes);
   \   000020                ; Setup parameters for call to function bdb_StartCommissioning
   \   000020   A3           INC       DPTR
   \   000021   A3           INC       DPTR
   \   000022   E0           MOVX      A,@DPTR
   \   000023   4402         ORL       A,#0x2
   \   000025   F9           MOV       R1,A
   \   000026   12....       LCALL     `??bdb_StartCommissioning::?relay`; Banked call to: bdb_StartCommissioning
   \   000029   8017         SJMP      ??zclSampleLight_ProcessCommissioningStatus_2
    537                }
    538                else
    539                {
    540                  //Want to try other channels?
    541                  //try with bdb_setChannelAttribute
    542                }
    543              break;
    544              case BDB_COMMISSIONING_NWK_STEERING:
    545                if(bdbCommissioningModeMsg->bdbCommissioningStatus == BDB_COMMISSIONING_SUCCESS)
    546                {
    547                  //YOUR JOB:
    548                  //We are on the nwk, what now?
    549                }
    550                else
    551                {
    552                  //See the possible errors for nwk steering procedure
    553                  //No suitable networks found
    554                  //Want to try other channels?
    555                  //try with bdb_setChannelAttribute
    556                }
    557              break;
    558              case BDB_COMMISSIONING_FINDING_BINDING:
    559                if(bdbCommissioningModeMsg->bdbCommissioningStatus == BDB_COMMISSIONING_SUCCESS)
    560                {
    561                  //YOUR JOB:
    562                }
    563                else
    564                {
    565                  //YOUR JOB:
    566                  //retry?, wait for user interaction?
    567                }
    568              break;
    569              case BDB_COMMISSIONING_INITIALIZATION:
    570                //Initialization notification can only be successful. Failure on initialization 
    571                //only happens for ZED and is notified as BDB_COMMISSIONING_PARENT_LOST notification
    572                
    573                //YOUR JOB:
    574                //We are on a network, what now?
    575                
    576              break;
    577          #if ZG_BUILD_ENDDEVICE_TYPE    
    578              case BDB_COMMISSIONING_PARENT_LOST:
    579                if(bdbCommissioningModeMsg->bdbCommissioningStatus == BDB_COMMISSIONING_NETWORK_RESTORED)
   \                     ??zclSampleLight_ProcessCommissioningStatus_1:
   \   00002B   8A82         MOV       DPL,R2
   \   00002D   8B83         MOV       DPH,R3
   \   00002F   E0           MOVX      A,@DPTR
   \   000030   640D         XRL       A,#0xd
   \   000032   600E         JZ        ??zclSampleLight_ProcessCommissioningStatus_2
    580                {
    581                  //We did recover from losing parent
    582                }
    583                else
    584                {
    585                  //Parent not found, attempt to rejoin again after a fixed delay
    586                  osal_start_timerEx(zclSampleLight_TaskID, SAMPLEAPP_END_DEVICE_REJOIN_EVT, SAMPLEAPP_END_DEVICE_REJOIN_DELAY);
   \   000034                ; Setup parameters for call to function osal_start_timerEx
   \   000034   90....       MOV       DPTR,#__Constant_2710
   \   000037   12....       LCALL     ?PUSH_XSTACK8_X_FOUR
   \   00003A   7A04         MOV       R2,#0x4
   \   00003C   12....       LCALL     ??Subroutine5_0 & 0xFFFF
    587                }
    588              break;
    589          #endif 
    590            }
   \                     ??CrossCallReturnLabel_5:
   \   00003F   12....       LCALL     ?DEALLOC_XSTACK8
    591            
    592            UI_UpdateComissioningStatus(bdbCommissioningModeMsg);
   \                     ??zclSampleLight_ProcessCommissioningStatus_2:
   \   000042                ; Setup parameters for call to function UI_UpdateComissioningStatus
   \   000042   EE           MOV       A,R6
   \   000043   FA           MOV       R2,A
   \   000044   EF           MOV       A,R7
   \   000045   FB           MOV       R3,A
   \   000046   12....       LCALL     `??UI_UpdateComissioningStatus::?relay`; Banked call to: UI_UpdateComissioningStatus
    593          }
   \   000049   02....       LJMP      ?Subroutine0 & 0xFFFF

   \                                 In  segment BANKED_CODE, align 1, keep-with-next
   \                     ??Subroutine5_0:
   \   000000   7B00         MOV       R3,#0x0
   \   000002   90....       MOV       DPTR,#zclSampleLight_TaskID
   \   000005   E0           MOVX      A,@DPTR
   \   000006   F9           MOV       R1,A
   \   000007   12....       LCALL     `??osal_start_timerEx::?relay`; Banked call to: osal_start_timerEx
   \   00000A   7404         MOV       A,#0x4
   \   00000C   22           RET

   \                                 In  segment BANKED_CODE, align 1, keep-with-next
   \                     ?Subroutine0:
   \   000000   7F01         MOV       R7,#0x1
   \   000002   02....       LJMP      ?BANKED_LEAVE_XDATA
    594          
    595          /*********************************************************************
    596           * @fn      zclSampleLight_BasicResetCB
    597           *
    598           * @brief   Callback from the ZCL General Cluster Library
    599           *          to set all the Basic Cluster attributes to default values.
    600           *
    601           * @param   none
    602           *
    603           * @return  none
    604           */

   \                                 In  segment BANKED_CODE, align 1, keep-with-next
    605          static void zclSampleLight_BasicResetCB( void )
   \                     zclSampleLight_BasicResetCB:
    606          {
   \   000000   C082         PUSH      DPL
   \   000002   C083         PUSH      DPH
   \   000004                ; Saved register size: 2
   \   000004                ; Auto size: 0
    607            //Reset every attribute in all supported cluster to their default value.
    608          
    609            zclSampleLight_ResetAttributesToDefaultValues();
   \   000004                ; Setup parameters for call to function zclSampleLight_ResetAttributesToDefaultValues
   \   000004   12....       LCALL     ??zclSampleLight_ResetAttributesToDefaultValues; Banked call to: zclSampleLight_ResetAttributesToDefaultValues
    610          
    611            zclSampleLight_UpdateLedState();
   \   000007                ; Setup parameters for call to function zclSampleLight_UpdateLedState
   \   000007   12....       LCALL     `??zclSampleLight_UpdateLedState::?relay`; Banked call to: zclSampleLight_UpdateLedState
    612          
    613            // update the display
    614            UI_UpdateLcd( ); 
   \   00000A                ; Setup parameters for call to function UI_UpdateLcd
   \   00000A   12....       LCALL     `??UI_UpdateLcd::?relay`; Banked call to: UI_UpdateLcd
    615          }
   \   00000D   02....       LJMP      ??Subroutine6_0 & 0xFFFF

   \                                 In  segment BANKED_CODE, align 1, keep-with-next
   \                     ??Subroutine6_0:
   \   000000   D083         POP       DPH
   \   000002   D082         POP       DPL
   \   000004   02....       LJMP      ?BRET
    616          
    617          /*********************************************************************
    618           * @fn      zclSampleLight_OnOffCB
    619           *
    620           * @brief   Callback from the ZCL General Cluster Library when
    621           *          it received an On/Off Command for this application.
    622           *
    623           * @param   cmd - COMMAND_ON, COMMAND_OFF or COMMAND_TOGGLE
    624           *
    625           * @return  none
    626           */

   \                                 In  segment BANKED_CODE, align 1, keep-with-next
    627          static void zclSampleLight_OnOffCB( uint8 cmd )
   \                     zclSampleLight_OnOffCB:
    628          {
   \   000000   74F7         MOV       A,#-0x9
   \   000002   12....       LCALL     ?BANKED_ENTER_XDATA
   \   000005                ; Saved register size: 9
   \   000005                ; Auto size: 0
   \   000005   E9           MOV       A,R1
   \   000006   FE           MOV       R6,A
    629            uint8 OnOff;
    630          
    631            // Turn on the light
    632            if ( cmd == COMMAND_ON )
   \   000007   7401         MOV       A,#0x1
   \   000009   6E           XRL       A,R6
   \   00000A   6014         JZ        ??zclSampleLight_OnOffCB_0
    633            {
    634              OnOff = LIGHT_ON;
    635            }
    636            // Turn off the light
    637            else if ( cmd == COMMAND_OFF )
   \   00000C   E9           MOV       A,R1
   \   00000D   600D         JZ        ??zclSampleLight_OnOffCB_1
    638            {
    639              OnOff = LIGHT_OFF;
    640            }
    641            // Toggle the light
    642            else if ( cmd == COMMAND_TOGGLE )
   \   00000F   7402         MOV       A,#0x2
   \   000011   6E           XRL       A,R6
   \   000012   700E         JNZ       ??zclSampleLight_OnOffCB_2
    643            {
    644              if (zclSampleLight_OnOff == LIGHT_ON)
   \   000014   90....       MOV       DPTR,#zclSampleLight_OnOff
   \   000017   E0           MOVX      A,@DPTR
   \   000018   6401         XRL       A,#0x1
   \   00001A   7004         JNZ       ??zclSampleLight_OnOffCB_0
    645              {
    646                OnOff = LIGHT_OFF;
   \                     ??zclSampleLight_OnOffCB_1:
   \   00001C   7800         MOV       R0,#0x0
   \   00001E   8002         SJMP      ??zclSampleLight_OnOffCB_2
    647              }
    648              else
    649              {
    650                OnOff = LIGHT_ON;
   \                     ??zclSampleLight_OnOffCB_0:
   \   000020   7801         MOV       R0,#0x1
    651              }
    652            }
    653            zclSampleLight_OnOff = OnOff;
   \                     ??zclSampleLight_OnOffCB_2:
   \   000022   E8           MOV       A,R0
   \   000023   90....       MOV       DPTR,#zclSampleLight_OnOff
   \   000026   F0           MOVX      @DPTR,A
    654          
    655            zclSampleLight_UpdateLedState();
   \   000027                ; Setup parameters for call to function zclSampleLight_UpdateLedState
   \   000027   12....       LCALL     `??zclSampleLight_UpdateLedState::?relay`; Banked call to: zclSampleLight_UpdateLedState
    656            
    657          }
   \   00002A   02....       LJMP      ?Subroutine0 & 0xFFFF
    658          
    659          #ifdef ZCL_LEVEL_CTRL
    660          /*********************************************************************
    661           * @fn      zclSampleLight_TimeRateHelper
    662           *
    663           * @brief   Calculate time based on rate, and startup level state machine
    664           *
    665           * @param   newLevel - new level for current level
    666           *
    667           * @return  diff (directly), zclSampleLight_CurrentLevel32 and zclSampleLight_NewLevel, zclSampleLight_NewLevelUp
    668           */
    669          static uint32 zclSampleLight_TimeRateHelper( uint8 newLevel )
    670          {
    671            uint32 diff;
    672            uint32 newLevel32;
    673          
    674            // remember current and new level
    675            zclSampleLight_NewLevel = newLevel;
    676            zclSampleLight_CurrentLevel32 = (uint32)1000 * zclSampleLight_LevelCurrentLevel;
    677          
    678            // calculate diff
    679            newLevel32 = (uint32)1000 * newLevel;
    680            if ( zclSampleLight_LevelCurrentLevel > newLevel )
    681            {
    682              diff = zclSampleLight_CurrentLevel32 - newLevel32;
    683              zclSampleLight_NewLevelUp = FALSE;  // moving down
    684            }
    685            else
    686            {
    687              diff = newLevel32 - zclSampleLight_CurrentLevel32;
    688              zclSampleLight_NewLevelUp = TRUE;   // moving up
    689            }
    690          
    691            return ( diff );
    692          }
    693          
    694          /*********************************************************************
    695           * @fn      zclSampleLight_MoveBasedOnRate
    696           *
    697           * @brief   Calculate time based on rate, and startup level state machine
    698           *
    699           * @param   newLevel - new level for current level
    700           * @param   rate16   - fixed point rate (e.g. 16.123)
    701           *
    702           * @return  none
    703           */
    704          static void zclSampleLight_MoveBasedOnRate( uint8 newLevel, uint32 rate )
    705          {
    706            uint32 diff;
    707          
    708            // determine how much time (in 10ths of seconds) based on the difference and rate
    709            zclSampleLight_Rate32 = rate;
    710            diff = zclSampleLight_TimeRateHelper( newLevel );
    711            zclSampleLight_LevelRemainingTime = diff / rate;
    712            if ( !zclSampleLight_LevelRemainingTime )
    713            {
    714              zclSampleLight_LevelRemainingTime = 1;
    715            }
    716          
    717            osal_start_timerEx( zclSampleLight_TaskID, SAMPLELIGHT_LEVEL_CTRL_EVT, 100 );
    718          }
    719          
    720          /*********************************************************************
    721           * @fn      zclSampleLight_MoveBasedOnTime
    722           *
    723           * @brief   Calculate rate based on time, and startup level state machine
    724           *
    725           * @param   newLevel  - new level for current level
    726           * @param   time      - in 10ths of seconds
    727           *
    728           * @return  none
    729           */

   \                                 In  segment BANKED_CODE, align 1, keep-with-next
    730          static void zclSampleLight_MoveBasedOnTime( uint8 newLevel, uint16 time )
   \                     zclSampleLight_MoveBasedOnTime:
    731          {
   \   000000                REQUIRE ?V0
   \   000000                REQUIRE ?V1
   \   000000                REQUIRE ?V2
   \   000000                REQUIRE ?V3
   \   000000                REQUIRE ?V4
   \   000000                REQUIRE ?V8
   \   000000                REQUIRE ?V9
   \   000000                REQUIRE ?V10
   \   000000                REQUIRE ?V11
   \   000000   74EC         MOV       A,#-0x14
   \   000002   12....       LCALL     ?BANKED_ENTER_XDATA
   \   000005                ; Saved register size: 20
   \   000005                ; Auto size: 0
   \   000005   89..         MOV       ?V4,R1
    732            uint16 diff;
    733          
    734            // determine rate (in units) based on difference and time
    735            diff = zclSampleLight_TimeRateHelper( newLevel );
   \   000007   E9           MOV       A,R1
   \   000008   90....       MOV       DPTR,#zclSampleLight_NewLevel
   \   00000B   F0           MOVX      @DPTR,A
   \   00000C   90....       MOV       DPTR,#zclSampleLight_LevelCurrentLevel
   \   00000F   E0           MOVX      A,@DPTR
   \   000010   F5..         MOV       ?V0,A
   \   000012   E4           CLR       A
   \   000013   F5..         MOV       ?V1,A
   \   000015   F5..         MOV       ?V2,A
   \   000017   F5..         MOV       ?V3,A
   \   000019   90....       MOV       DPTR,#__Constant_3e8
   \   00001C   78..         MOV       R0,#?V8
   \   00001E   12....       LCALL     ?L_MOV_X
   \   000021   78..         MOV       R0,#?V0
   \   000023   79..         MOV       R1,#?V8
   \   000025   12....       LCALL     ?L_MUL
   \   000028   90....       MOV       DPTR,#zclSampleLight_CurrentLevel32
   \   00002B   78..         MOV       R0,#?V0
   \   00002D   12....       LCALL     ?L_MOV_TO_X
   \   000030   85....       MOV       ?V0,?V4
   \   000033   E4           CLR       A
   \   000034   F5..         MOV       ?V1,A
   \   000036   F5..         MOV       ?V2,A
   \   000038   F5..         MOV       ?V3,A
   \   00003A   90....       MOV       DPTR,#__Constant_3e8
   \   00003D   78..         MOV       R0,#?V8
   \   00003F   12....       LCALL     ?L_MOV_X
   \   000042   78..         MOV       R0,#?V0
   \   000044   79..         MOV       R1,#?V8
   \   000046   12....       LCALL     ?L_MUL
   \   000049   90....       MOV       DPTR,#zclSampleLight_LevelCurrentLevel
   \   00004C   E0           MOVX      A,@DPTR
   \   00004D   F8           MOV       R0,A
   \   00004E   E5..         MOV       A,?V4
   \   000050   C3           CLR       C
   \   000051   98           SUBB      A,R0
   \   000052   90....       MOV       DPTR,#zclSampleLight_CurrentLevel32
   \   000055   5018         JNC       ??zclSampleLight_MoveBasedOnTime_0
   \   000057   78..         MOV       R0,#?V8
   \   000059   12....       LCALL     ?L_MOV_X
   \   00005C   78..         MOV       R0,#?V8
   \   00005E   79..         MOV       R1,#?V0
   \   000060   12....       LCALL     ?L_SUB
   \   000063   85....       MOV       ?V0,?V8
   \   000066   85....       MOV       ?V1,?V9
   \   000069   90....       MOV       DPTR,#zclSampleLight_NewLevelUp
   \   00006C   E4           CLR       A
   \   00006D   800A         SJMP      ??zclSampleLight_MoveBasedOnTime_1
   \                     ??zclSampleLight_MoveBasedOnTime_0:
   \   00006F   78..         MOV       R0,#?V0
   \   000071   12....       LCALL     ?L_SUB_X
   \   000074   90....       MOV       DPTR,#zclSampleLight_NewLevelUp
   \   000077   7401         MOV       A,#0x1
   \                     ??zclSampleLight_MoveBasedOnTime_1:
   \   000079   F0           MOVX      @DPTR,A
   \   00007A   A8..         MOV       R0,?V0
   \   00007C   A9..         MOV       R1,?V1
    736            zclSampleLight_LevelRemainingTime = zclSampleLight_GetTime( newLevel, time );
   \   00007E   EA           MOV       A,R2
   \   00007F   FC           MOV       R4,A
   \   000080   EB           MOV       A,R3
   \   000081   FD           MOV       R5,A
   \   000082   74FF         MOV       A,#-0x1
   \   000084   6C           XRL       A,R4
   \   000085   7003         JNZ       ??zclSampleLight_MoveBasedOnTime_2
   \   000087   74FF         MOV       A,#-0x1
   \   000089   6D           XRL       A,R5
   \                     ??zclSampleLight_MoveBasedOnTime_2:
   \   00008A   7034         JNZ       ??zclSampleLight_MoveBasedOnTime_3
   \   00008C   90....       MOV       DPTR,#zclSampleLight_LevelCurrentLevel
   \   00008F   E0           MOVX      A,@DPTR
   \   000090   FC           MOV       R4,A
   \   000091   E5..         MOV       A,?V4
   \   000093   C3           CLR       C
   \   000094   9C           SUBB      A,R4
   \   000095   5005         JNC       ??zclSampleLight_MoveBasedOnTime_4
   \   000097   90....       MOV       DPTR,#zclSampleLight_LevelOffTransitionTime
   \   00009A   8003         SJMP      ??zclSampleLight_MoveBasedOnTime_5
   \                     ??zclSampleLight_MoveBasedOnTime_4:
   \   00009C   90....       MOV       DPTR,#zclSampleLight_LevelOnTransitionTime
   \                     ??zclSampleLight_MoveBasedOnTime_5:
   \   00009F   E0           MOVX      A,@DPTR
   \   0000A0   FC           MOV       R4,A
   \   0000A1   A3           INC       DPTR
   \   0000A2   E0           MOVX      A,@DPTR
   \   0000A3   FD           MOV       R5,A
   \   0000A4   74FF         MOV       A,#-0x1
   \   0000A6   6C           XRL       A,R4
   \   0000A7   7003         JNZ       ??zclSampleLight_MoveBasedOnTime_6
   \   0000A9   74FF         MOV       A,#-0x1
   \   0000AB   6D           XRL       A,R5
   \                     ??zclSampleLight_MoveBasedOnTime_6:
   \   0000AC   7008         JNZ       ??zclSampleLight_MoveBasedOnTime_7
   \   0000AE   90....       MOV       DPTR,#zclSampleLight_LevelOnOffTransitionTime
   \   0000B1   E0           MOVX      A,@DPTR
   \   0000B2   FC           MOV       R4,A
   \   0000B3   A3           INC       DPTR
   \   0000B4   E0           MOVX      A,@DPTR
   \   0000B5   FD           MOV       R5,A
   \                     ??zclSampleLight_MoveBasedOnTime_7:
   \   0000B6   74FF         MOV       A,#-0x1
   \   0000B8   6C           XRL       A,R4
   \   0000B9   7003         JNZ       ??zclSampleLight_MoveBasedOnTime_8
   \   0000BB   74FF         MOV       A,#-0x1
   \   0000BD   6D           XRL       A,R5
   \                     ??zclSampleLight_MoveBasedOnTime_8:
   \   0000BE   6004         JZ        ??zclSampleLight_MoveBasedOnTime_9
   \                     ??zclSampleLight_MoveBasedOnTime_3:
   \   0000C0   EC           MOV       A,R4
   \   0000C1   4D           ORL       A,R5
   \   0000C2   7004         JNZ       ??zclSampleLight_MoveBasedOnTime_10
   \                     ??zclSampleLight_MoveBasedOnTime_9:
   \   0000C4   7C01         MOV       R4,#0x1
   \   0000C6   7D00         MOV       R5,#0x0
   \                     ??zclSampleLight_MoveBasedOnTime_10:
   \   0000C8   90....       MOV       DPTR,#zclSampleLight_LevelRemainingTime
   \   0000CB   EC           MOV       A,R4
   \   0000CC   F0           MOVX      @DPTR,A
   \   0000CD   A3           INC       DPTR
   \   0000CE   ED           MOV       A,R5
   \   0000CF   F0           MOVX      @DPTR,A
    737            zclSampleLight_Rate32 = diff / time;
   \   0000D0   12....       LCALL     ?US_DIV_MOD
   \   0000D3   90....       MOV       DPTR,#zclSampleLight_Rate32
   \   0000D6   E8           MOV       A,R0
   \   0000D7   F0           MOVX      @DPTR,A
   \   0000D8   A3           INC       DPTR
   \   0000D9   E9           MOV       A,R1
   \   0000DA   F0           MOVX      @DPTR,A
   \   0000DB   A3           INC       DPTR
   \   0000DC   E4           CLR       A
   \   0000DD   F0           MOVX      @DPTR,A
   \   0000DE   A3           INC       DPTR
   \   0000DF   F0           MOVX      @DPTR,A
    738          
    739            osal_start_timerEx( zclSampleLight_TaskID, SAMPLELIGHT_LEVEL_CTRL_EVT, 100 );
   \   0000E0                ; Setup parameters for call to function osal_start_timerEx
   \   0000E0   90....       MOV       DPTR,#__Constant_64
   \   0000E3   12....       LCALL     ?PUSH_XSTACK8_X_FOUR
   \   0000E6   12....       LCALL     ?Subroutine2 & 0xFFFF
   \                     ??CrossCallReturnLabel_3:
   \   0000E9   12....       LCALL     ?DEALLOC_XSTACK8
    740          }
   \   0000EC   7F0C         MOV       R7,#0xc
   \   0000EE   02....       LJMP      ?BANKED_LEAVE_XDATA

   \                                 In  segment BANKED_CODE, align 1, keep-with-next
   \                     ?Subroutine2:
   \   000000   7A02         MOV       R2,#0x2
   \   000002                REQUIRE ??Subroutine5_0
   \   000002                ; // Fall through to label ??Subroutine5_0
    741          
    742          /*********************************************************************
    743           * @fn      zclSampleLight_GetTime
    744           *
    745           * @brief   Determine amount of time that MoveXXX will take to complete.
    746           *
    747           * @param   level = new level to move to
    748           *          time  = 0xffff=default, or 0x0000-n amount of time in tenths of seconds.
    749           *
    750           * @return  none
    751           */
    752          static uint16 zclSampleLight_GetTime( uint8 newLevel, uint16 time )
    753          {
    754            // there is a hiearchy of the amount of time to use for transistioning
    755            // check each one in turn. If none of defaults are set, then use fastest
    756            // time possible.
    757            if ( time == 0xFFFF )
    758            {
    759              // use On or Off Transition Time if set (not 0xffff)
    760              if ( zclSampleLight_LevelCurrentLevel > newLevel )
    761              {
    762                time = zclSampleLight_LevelOffTransitionTime;
    763              }
    764              else
    765              {
    766                time = zclSampleLight_LevelOnTransitionTime;
    767              }
    768          
    769              // else use OnOffTransitionTime if set (not 0xffff)
    770              if ( time == 0xFFFF )
    771              {
    772                time = zclSampleLight_LevelOnOffTransitionTime;
    773              }
    774          
    775              // else as fast as possible
    776              if ( time == 0xFFFF )
    777              {
    778                time = 1;
    779              }
    780            }
    781          
    782            if ( time == 0 )
    783            {
    784              time = 1; // as fast as possible
    785            }
    786          
    787            return ( time );
    788          }
    789          
    790          /*********************************************************************
    791           * @fn      zclSampleLight_DefaultMove
    792           *
    793           * @brief   We were turned on/off. Use default time to move to on or off.
    794           *
    795           * @param   zclSampleLight_OnOff - must be set prior to calling this function.
    796           *
    797           * @return  none
    798           */
    799          static void zclSampleLight_DefaultMove( uint8 OnOff )
                             ^
Warning[Pe177]: function "zclSampleLight_DefaultMove" was declared but never
          referenced
    800          {
    801            uint8  newLevel;
    802            uint32 rate;      // fixed point decimal (3 places, eg. 16.345)
    803            uint16 time;
    804          
    805            // if moving to on position, move to on level
    806            if ( OnOff )
    807            {
    808              if (zclSampleLight_OnOff == LIGHT_OFF)
    809              {
    810                zclSampleLight_LevelCurrentLevel = ATTR_LEVEL_MIN_LEVEL;
    811              }
    812              
    813              if ( zclSampleLight_LevelOnLevel == ATTR_LEVEL_ON_LEVEL_NO_EFFECT )
    814              {
    815                // The last Level (before going OFF) should be used)
    816                newLevel = zclSampleLight_LevelLastLevel;
    817              }
    818              else
    819              {
    820                //newLevel = ,;
    821              }
    822          
    823              time = zclSampleLight_LevelOnTransitionTime;
    824          
    825            }
    826            else
    827            {
    828              newLevel = ATTR_LEVEL_MIN_LEVEL;
    829          
    830              time = zclSampleLight_LevelOffTransitionTime;
    831            }
    832          
    833            // else use OnOffTransitionTime if set (not 0xffff)
    834            if ( time == 0xFFFF )
    835            {
    836              time = zclSampleLight_LevelOnOffTransitionTime;
    837            }
    838          
    839            // else as fast as possible
    840            if ( time == 0xFFFF )
    841            {
    842              time = 1;
    843            }
    844          
    845            // calculate rate based on time (int 10ths) for full transition (1-254)
    846            rate = 255000 / time;    // units per tick, fixed point, 3 decimal places (e.g. 8500 = 8.5 units per tick)
    847          
    848            // start up state machine.
    849            zclSampleLight_WithOnOff = TRUE;
    850            zclSampleLight_MoveBasedOnRate( newLevel, rate );
    851          }
    852          
    853          /*********************************************************************
    854           * @fn      zclSampleLight_AdjustLightLevel
    855           *
    856           * @brief   Called each 10th of a second while state machine running
    857           *
    858           * @param   none
    859           *
    860           * @return  none
    861           */
    862          static void zclSampleLight_AdjustLightLevel( void )
    863          {
    864            // one tick (10th of a second) less
    865            if ( zclSampleLight_LevelRemainingTime>0 )
    866            {
    867              --zclSampleLight_LevelRemainingTime;
    868            }
    869            else
    870            {
    871              return;
    872            }
    873              
    874            
    875            if(zclSampleLight_LevelDirection == 1)
    876            {
    877              if((++zclSampleLight_LevelCurrentLevel)>9)
    878              {
    879                  zclSampleLight_LevelCurrentLevel=9;
    880              }
    881              LedSetBrightness(Current_Led,zclSampleLight_LevelCurrentLevel);
    882            }
    883            else if(zclSampleLight_LevelDirection == 0)
    884            {
    885              if((--zclSampleLight_LevelCurrentLevel)<1)
    886              {
    887                  zclSampleLight_LevelCurrentLevel=1;
    888              }
    889              LedSetBrightness(Current_Led, zclSampleLight_LevelCurrentLevel);
    890            }
    891            
    892            osal_start_timerEx( zclSampleLight_TaskID, SAMPLELIGHT_LEVEL_CTRL_EVT, 100 );
    893          }
    894          
    895          /*********************************************************************
    896           * @fn      zclSampleLight_LevelControlMoveToLevelCB
    897           *
    898           * @brief   Callback from the ZCL General Cluster Library when
    899           *          it received a LevelControlMoveToLevel Command for this application.
    900           *
    901           * @param   pCmd - ZigBee command parameters
    902           *
    903           * @return  none
    904           */

   \                                 In  segment BANKED_CODE, align 1, keep-with-next
    905          static void zclSampleLight_LevelControlMoveToLevelCB( zclLCMoveToLevel_t *pCmd )
   \                     zclSampleLight_LevelControlMoveToLevelCB:
    906          {
   \   000000   C082         PUSH      DPL
   \   000002   C083         PUSH      DPH
   \   000004                ; Saved register size: 2
   \   000004                ; Auto size: 0
   \   000004   EA           MOV       A,R2
   \   000005   F8           MOV       R0,A
   \   000006   EB           MOV       A,R3
   \   000007   F9           MOV       R1,A
    907            zclSampleLight_LevelChangeCmd = LEVEL_CHANGED_BY_LEVEL_CMD;
   \   000008   90....       MOV       DPTR,#zclSampleLight_LevelChangeCmd
   \   00000B   E4           CLR       A
   \   00000C   F0           MOVX      @DPTR,A
    908          
    909            zclSampleLight_WithOnOff = pCmd->withOnOff;
   \   00000D   8A82         MOV       DPL,R2
   \   00000F   8B83         MOV       DPH,R3
   \   000011   A3           INC       DPTR
   \   000012   A3           INC       DPTR
   \   000013   A3           INC       DPTR
   \   000014   E0           MOVX      A,@DPTR
   \   000015   90....       MOV       DPTR,#zclSampleLight_WithOnOff
   \   000018   F0           MOVX      @DPTR,A
    910            zclSampleLight_MoveBasedOnTime( pCmd->level, pCmd->transitionTime );
   \   000019                ; Setup parameters for call to function zclSampleLight_MoveBasedOnTime
   \   000019   8A82         MOV       DPL,R2
   \   00001B   8B83         MOV       DPH,R3
   \   00001D   A3           INC       DPTR
   \   00001E   E0           MOVX      A,@DPTR
   \   00001F   FA           MOV       R2,A
   \   000020   A3           INC       DPTR
   \   000021   E0           MOVX      A,@DPTR
   \   000022   FB           MOV       R3,A
   \   000023   8882         MOV       DPL,R0
   \   000025   8983         MOV       DPH,R1
   \   000027   E0           MOVX      A,@DPTR
   \   000028   F9           MOV       R1,A
   \   000029   12....       LCALL     `??zclSampleLight_MoveBasedOnTime::?relay`; Banked call to: zclSampleLight_MoveBasedOnTime
    911          }
   \   00002C   02....       LJMP      ??Subroutine6_0 & 0xFFFF
    912          
    913          /*********************************************************************
    914           * @fn      zclSampleLight_LevelControlMoveCB
    915           *
    916           * @brief   Callback from the ZCL General Cluster Library when
    917           *          it received a LevelControlMove Command for this application.
    918           *
    919           * @param   pCmd - ZigBee command parameters
    920           *
    921           * @return  none
    922           */

   \                                 In  segment BANKED_CODE, align 1, keep-with-next
    923          static void zclSampleLight_LevelControlMoveCB( zclLCMove_t *pCmd )
   \                     zclSampleLight_LevelControlMoveCB:
    924          {
   \   000000   C082         PUSH      DPL
   \   000002   C083         PUSH      DPH
   \   000004                ; Saved register size: 2
   \   000004                ; Auto size: 0
    925            
    926            if ( pCmd->moveMode == LEVEL_MOVE_UP )
   \   000004   90....       MOV       DPTR,#zclSampleLight_LevelCurrentLevel
   \   000007   E0           MOVX      A,@DPTR
   \   000008   F8           MOV       R0,A
   \   000009   8A82         MOV       DPL,R2
   \   00000B   8B83         MOV       DPH,R3
   \   00000D   E0           MOVX      A,@DPTR
   \   00000E   7017         JNZ       ??zclSampleLight_LevelControlMoveCB_0
    927            {
    928              zclSampleLight_LevelRemainingTime = (ATTR_LEVEL_MAX_LEVEL - zclSampleLight_LevelCurrentLevel);
   \   000010   7409         MOV       A,#0x9
   \   000012   C3           CLR       C
   \   000013   98           SUBB      A,R0
   \   000014   F8           MOV       R0,A
   \   000015   95E0         SUBB      A,0xE0 /* A   */
   \   000017   F9           MOV       R1,A
   \   000018   90....       MOV       DPTR,#zclSampleLight_LevelRemainingTime
   \   00001B   E8           MOV       A,R0
   \   00001C   F0           MOVX      @DPTR,A
   \   00001D   A3           INC       DPTR
   \   00001E   E9           MOV       A,R1
   \   00001F   F0           MOVX      @DPTR,A
    929              zclSampleLight_LevelDirection = 1;        //1 is up
   \   000020   90....       MOV       DPTR,#zclSampleLight_LevelDirection
   \   000023   7401         MOV       A,#0x1
   \   000025   8014         SJMP      ??zclSampleLight_LevelControlMoveCB_1
    930            }
    931            else
    932            {
    933              zclSampleLight_LevelRemainingTime = (zclSampleLight_LevelCurrentLevel - ATTR_LEVEL_MIN_LEVEL);
   \                     ??zclSampleLight_LevelControlMoveCB_0:
   \   000027   E8           MOV       A,R0
   \   000028   24FF         ADD       A,#-0x1
   \   00002A   18           DEC       R0
   \   00002B   E4           CLR       A
   \   00002C   34FF         ADDC      A,#-0x1
   \   00002E   F9           MOV       R1,A
   \   00002F   90....       MOV       DPTR,#zclSampleLight_LevelRemainingTime
   \   000032   E8           MOV       A,R0
   \   000033   F0           MOVX      @DPTR,A
   \   000034   A3           INC       DPTR
   \   000035   E9           MOV       A,R1
   \   000036   F0           MOVX      @DPTR,A
    934              zclSampleLight_LevelDirection = 0;        //0 is down
   \   000037   90....       MOV       DPTR,#zclSampleLight_LevelDirection
   \   00003A   E4           CLR       A
    935            }
   \                     ??zclSampleLight_LevelControlMoveCB_1:
   \   00003B   80..         SJMP      ?Subroutine1
    936            
    937            osal_start_timerEx( zclSampleLight_TaskID, SAMPLELIGHT_LEVEL_CTRL_EVT, 100 );
    938          }

   \                                 In  segment BANKED_CODE, align 1, keep-with-next
   \                     ?Subroutine1:
   \   000000   F0           MOVX      @DPTR,A
   \   000001                ; Setup parameters for call to function osal_start_timerEx
   \   000001                ; Setup parameters for call to function osal_start_timerEx
   \   000001   90....       MOV       DPTR,#__Constant_64
   \   000004   12....       LCALL     ?PUSH_XSTACK8_X_FOUR
   \   000007   12....       LCALL     ?Subroutine2 & 0xFFFF
   \                     ??CrossCallReturnLabel_4:
   \   00000A   12....       LCALL     ?DEALLOC_XSTACK8
   \   00000D                REQUIRE ??Subroutine6_0
   \   00000D                ; // Fall through to label ??Subroutine6_0
    939          
    940          /*********************************************************************
    941           * @fn      zclSampleLight_LevelControlStepCB
    942           *
    943           * @brief   Callback from the ZCL General Cluster Library when
    944           *          it received an On/Off Command for this application.
    945           *
    946           * @param   pCmd - ZigBee command parameters
    947           *
    948           * @return  none
    949           */

   \                                 In  segment BANKED_CODE, align 1, keep-with-next
    950          static void zclSampleLight_LevelControlStepCB( zclLCStep_t *pCmd )
   \                     zclSampleLight_LevelControlStepCB:
    951          {
   \   000000   C082         PUSH      DPL
   \   000002   C083         PUSH      DPH
   \   000004                ; Saved register size: 2
   \   000004                ; Auto size: 0
    952            //uint8 newLevel;
    953          
    954            // determine new level, but don't exceed boundaries
    955            if ( pCmd->stepMode == LEVEL_MOVE_UP )
   \   000004   8A82         MOV       DPL,R2
   \   000006   8B83         MOV       DPH,R3
   \   000008   E0           MOVX      A,@DPTR
   \   000009   90....       MOV       DPTR,#zclSampleLight_LevelCurrentLevel
   \   00000C   701F         JNZ       ??zclSampleLight_LevelControlStepCB_0
    956            {
    957              if ( (uint16)zclSampleLight_LevelCurrentLevel + 1 > ATTR_LEVEL_MAX_LEVEL ) //every step add or reduce 1
   \   00000E   E0           MOVX      A,@DPTR
   \   00000F   7900         MOV       R1,#0x0
   \   000011   2401         ADD       A,#0x1
   \   000013   5001         JNC       ??zclSampleLight_LevelControlStepCB_1
   \   000015   09           INC       R1
   \                     ??zclSampleLight_LevelControlStepCB_1:
   \   000016   C3           CLR       C
   \   000017   940A         SUBB      A,#0xa
   \   000019   E9           MOV       A,R1
   \   00001A   9400         SUBB      A,#0x0
   \   00001C   5015         JNC       ??zclSampleLight_LevelControlStepCB_2
    958              {
    959                zclSampleLight_LevelRemainingTime = 0;
    960              }
    961              else
    962              {
    963                zclSampleLight_LevelRemainingTime=1;
   \   00001E   90....       MOV       DPTR,#zclSampleLight_LevelRemainingTime
   \   000021   7401         MOV       A,#0x1
   \   000023   F0           MOVX      @DPTR,A
   \   000024   A3           INC       DPTR
   \   000025   E4           CLR       A
   \   000026   F0           MOVX      @DPTR,A
    964                zclSampleLight_LevelDirection = 1;        //1 is up
   \   000027   90....       MOV       DPTR,#zclSampleLight_LevelDirection
   \   00002A   04           INC       A
   \   00002B   801A         SJMP      ??zclSampleLight_LevelControlStepCB_3
    965                
    966              }
    967            }
    968            else
    969            {
    970              if ( zclSampleLight_LevelCurrentLevel<=ATTR_LEVEL_MIN_LEVEL )
   \                     ??zclSampleLight_LevelControlStepCB_0:
   \   00002D   E0           MOVX      A,@DPTR
   \   00002E   C3           CLR       C
   \   00002F   9402         SUBB      A,#0x2
   \   000031   5008         JNC       ??zclSampleLight_LevelControlStepCB_4
    971              {
    972                 zclSampleLight_LevelRemainingTime = 0;
   \                     ??zclSampleLight_LevelControlStepCB_2:
   \   000033   90....       MOV       DPTR,#zclSampleLight_LevelRemainingTime
   \   000036   E4           CLR       A
   \   000037   F0           MOVX      @DPTR,A
   \   000038   A3           INC       DPTR
   \   000039   800C         SJMP      ??zclSampleLight_LevelControlStepCB_3
    973              }
    974              else
    975              {
    976                zclSampleLight_LevelRemainingTime=1;
   \                     ??zclSampleLight_LevelControlStepCB_4:
   \   00003B   90....       MOV       DPTR,#zclSampleLight_LevelRemainingTime
   \   00003E   7401         MOV       A,#0x1
   \   000040   F0           MOVX      @DPTR,A
   \   000041   A3           INC       DPTR
   \   000042   E4           CLR       A
   \   000043   F0           MOVX      @DPTR,A
    977                zclSampleLight_LevelDirection = 0;        //0 is down
   \   000044   90....       MOV       DPTR,#zclSampleLight_LevelDirection
    978                
    979              }
    980            }
   \                     ??zclSampleLight_LevelControlStepCB_3:
   \   000047   80..         SJMP      ?Subroutine1
    981            
    982            //zclSampleLight_LevelChangeCmd = LEVEL_CHANGED_BY_LEVEL_CMD;
    983            
    984            // move to the new level
    985            //zclSampleLight_WithOnOff = pCmd->withOnOff;
    986            //zclSampleLight_MoveBasedOnTime( newLevel, pCmd->transitionTime );
    987            osal_start_timerEx( zclSampleLight_TaskID, SAMPLELIGHT_LEVEL_CTRL_EVT, 100 );
    988          }
    989          
    990          /*********************************************************************
    991           * @fn      zclSampleLight_LevelControlStopCB
    992           *
    993           * @brief   Callback from the ZCL General Cluster Library when
    994           *          it received an Level Control Stop Command for this application.
    995           *
    996           * @param   pCmd - ZigBee command parameters
    997           *
    998           * @return  none
    999           */

   \                                 In  segment BANKED_CODE, align 1, keep-with-next
   1000          static void zclSampleLight_LevelControlStopCB( void )
   \                     zclSampleLight_LevelControlStopCB:
   1001          {
   \   000000   C082         PUSH      DPL
   \   000002   C083         PUSH      DPH
   \   000004                ; Saved register size: 2
   \   000004                ; Auto size: 0
   1002            // stop immediately
   1003            zclSampleLight_LevelRemainingTime = 0;
   \   000004   90....       MOV       DPTR,#zclSampleLight_LevelRemainingTime
   \   000007   E4           CLR       A
   \   000008   F0           MOVX      @DPTR,A
   \   000009   A3           INC       DPTR
   \   00000A   F0           MOVX      @DPTR,A
   1004            osal_stop_timerEx( zclSampleLight_TaskID, SAMPLELIGHT_LEVEL_CTRL_EVT );
   \   00000B                ; Setup parameters for call to function osal_stop_timerEx
   \   00000B   7A02         MOV       R2,#0x2
   \   00000D   FB           MOV       R3,A
   \   00000E   90....       MOV       DPTR,#zclSampleLight_TaskID
   \   000011   E0           MOVX      A,@DPTR
   \   000012   F9           MOV       R1,A
   \   000013   12....       LCALL     `??osal_stop_timerEx::?relay`; Banked call to: osal_stop_timerEx
   1005            //zclSampleLight_LevelRemainingTime = 0;
   1006          }
   \   000016   80..         SJMP      ??Subroutine6_0
   1007          #endif
   1008          
   1009          /******************************************************************************
   1010           *
   1011           *  Functions for processing ZCL Foundation incoming Command/Response messages
   1012           *
   1013           *****************************************************************************/
   1014          
   1015          /*********************************************************************
   1016           * @fn      zclSampleLight_ProcessIncomingMsg
   1017           *
   1018           * @brief   Process ZCL Foundation incoming message
   1019           *
   1020           * @param   pInMsg - pointer to the received message
   1021           *
   1022           * @return  none
   1023           */

   \                                 In  segment BANKED_CODE, align 1, keep-with-next
   1024          static void zclSampleLight_ProcessIncomingMsg( zclIncomingMsg_t *pInMsg )
   \                     zclSampleLight_ProcessIncomingMsg:
   1025          {
   \   000000   74F7         MOV       A,#-0x9
   \   000002   12....       LCALL     ?BANKED_ENTER_XDATA
   \   000005                ; Saved register size: 9
   \   000005                ; Auto size: 0
   1026            switch ( pInMsg->zclHdr.commandID )
   \   000005   EA           MOV       A,R2
   \   000006   2417         ADD       A,#0x17
   \   000008   F8           MOV       R0,A
   \   000009   E4           CLR       A
   \   00000A   3B           ADDC      A,R3
   \   00000B   F9           MOV       R1,A
   \   00000C   E8           MOV       A,R0
   \   00000D   FE           MOV       R6,A
   \   00000E   E9           MOV       A,R1
   \   00000F   FF           MOV       R7,A
   \   000010   8A82         MOV       DPL,R2
   \   000012   8B83         MOV       DPH,R3
   \   000014   A3           INC       DPTR
   \   000015   A3           INC       DPTR
   \   000016   A3           INC       DPTR
   \   000017   A3           INC       DPTR
   \   000018   A3           INC       DPTR
   \   000019   A3           INC       DPTR
   \   00001A   A3           INC       DPTR
   \   00001B   E0           MOVX      A,@DPTR
   \   00001C   14           DEC       A
   \   00001D   6016         JZ        ??zclSampleLight_ProcessIncomingMsg_0
   \   00001F   24FD         ADD       A,#-0x3
   \   000021   601F         JZ        ??zclSampleLight_ProcessIncomingMsg_1
   \   000023   24F7         ADD       A,#-0x9
   \   000025   602D         JZ        ??zclSampleLight_ProcessIncomingMsg_2
   \   000027   24FB         ADD       A,#-0x5
   \   000029   6024         JZ        ??zclSampleLight_ProcessIncomingMsg_3
   \   00002B   24FE         ADD       A,#-0x2
   \   00002D   6020         JZ        ??zclSampleLight_ProcessIncomingMsg_3
   \   00002F   24FE         ADD       A,#-0x2
   \   000031   6033         JZ        ??zclSampleLight_ProcessIncomingMsg_4
   \   000033   8043         SJMP      ??zclSampleLight_ProcessIncomingMsg_5
   1027            {
   1028          #ifdef ZCL_READ
   1029              case ZCL_CMD_READ_RSP:
   1030                zclSampleLight_ProcessInReadRspCmd( pInMsg );
   \                     ??zclSampleLight_ProcessIncomingMsg_0:
   \   000035   12....       LCALL     ?Subroutine4 & 0xFFFF
   \                     ??CrossCallReturnLabel_0:
   \   000038   E0           MOVX      A,@DPTR
   \   000039   F9           MOV       R1,A
   \   00003A   E8           MOV       A,R0
   \   00003B   C3           CLR       C
   \   00003C   99           SUBB      A,R1
   \   00003D   5039         JNC       ??zclSampleLight_ProcessIncomingMsg_5
   \   00003F   08           INC       R0
   \   000040   80F6         SJMP      ??CrossCallReturnLabel_0
   1031                break;
   1032          #endif
   1033          #ifdef ZCL_WRITE
   1034              case ZCL_CMD_WRITE_RSP:
   1035                zclSampleLight_ProcessInWriteRspCmd( pInMsg );
   \                     ??zclSampleLight_ProcessIncomingMsg_1:
   \   000042   12....       LCALL     ?Subroutine4 & 0xFFFF
   \                     ??CrossCallReturnLabel_1:
   \   000045   E0           MOVX      A,@DPTR
   \   000046   F9           MOV       R1,A
   \   000047   E8           MOV       A,R0
   \   000048   C3           CLR       C
   \   000049   99           SUBB      A,R1
   \   00004A   502C         JNC       ??zclSampleLight_ProcessIncomingMsg_5
   \   00004C   08           INC       R0
   \   00004D   80F6         SJMP      ??CrossCallReturnLabel_1
   1036                break;
   1037          #endif
   1038              case ZCL_CMD_CONFIG_REPORT:
   1039              case ZCL_CMD_CONFIG_REPORT_RSP:
   1040              case ZCL_CMD_READ_REPORT_CFG:
   1041              case ZCL_CMD_READ_REPORT_CFG_RSP:
   1042              case ZCL_CMD_REPORT:
   1043                //bdb_ProcessIncomingReportingMsg( pInMsg );
   1044                break;
   1045          
   1046              case ZCL_CMD_DEFAULT_RSP:
   1047                zclSampleLight_ProcessInDefaultRspCmd( pInMsg );
   1048                break;
   1049          #ifdef ZCL_DISCOVER
   1050              case ZCL_CMD_DISCOVER_CMDS_RECEIVED_RSP:
   1051                zclSampleLight_ProcessInDiscCmdsRspCmd( pInMsg );
   \                     ??zclSampleLight_ProcessIncomingMsg_3:
   \   00004F                ; Setup parameters for call to function zclSampleLight_ProcessInDiscCmdsRspCmd
   1052                break;
   1053          
   1054              case ZCL_CMD_DISCOVER_CMDS_GEN_RSP:
   1055                zclSampleLight_ProcessInDiscCmdsRspCmd( pInMsg );
   \   00004F                ; Setup parameters for call to function zclSampleLight_ProcessInDiscCmdsRspCmd
   \   00004F   12....       LCALL     `??zclSampleLight_ProcessInDiscCmdsRspCmd::?rela`; Banked call to: zclSampleLight_ProcessInDiscCmdsRspCmd
   1056                break;
   \   000052   8024         SJMP      ??zclSampleLight_ProcessIncomingMsg_5
   1057          
   1058              case ZCL_CMD_DISCOVER_ATTRS_RSP:
   1059                zclSampleLight_ProcessInDiscAttrsRspCmd( pInMsg );
   \                     ??zclSampleLight_ProcessIncomingMsg_2:
   \   000054   12....       LCALL     ?Subroutine3 & 0xFFFF
   \                     ??CrossCallReturnLabel_7:
   \   000057   8882         MOV       DPL,R0
   \   000059   8983         MOV       DPH,R1
   \   00005B   A3           INC       DPTR
   \   00005C   E0           MOVX      A,@DPTR
   \   00005D   FB           MOV       R3,A
   \   00005E   EA           MOV       A,R2
   \   00005F   C3           CLR       C
   \   000060   9B           SUBB      A,R3
   \   000061   5015         JNC       ??zclSampleLight_ProcessIncomingMsg_5
   \   000063   0A           INC       R2
   \   000064   80F1         SJMP      ??CrossCallReturnLabel_7
   1060                break;
   1061          
   1062              case ZCL_CMD_DISCOVER_ATTRS_EXT_RSP:
   1063                zclSampleLight_ProcessInDiscAttrsExtRspCmd( pInMsg );
   \                     ??zclSampleLight_ProcessIncomingMsg_4:
   \   000066   12....       LCALL     ?Subroutine3 & 0xFFFF
   1064                break;
   1065          #endif
   1066              default:
   1067                break;
   1068            }
   \                     ??CrossCallReturnLabel_8:
   \   000069   8001         SJMP      ??zclSampleLight_ProcessIncomingMsg_6
   \                     ??zclSampleLight_ProcessIncomingMsg_7:
   \   00006B   0A           INC       R2
   \                     ??zclSampleLight_ProcessIncomingMsg_6:
   \   00006C   8882         MOV       DPL,R0
   \   00006E   8983         MOV       DPH,R1
   \   000070   A3           INC       DPTR
   \   000071   E0           MOVX      A,@DPTR
   \   000072   FB           MOV       R3,A
   \   000073   EA           MOV       A,R2
   \   000074   C3           CLR       C
   \   000075   9B           SUBB      A,R3
   \   000076   40F3         JC        ??zclSampleLight_ProcessIncomingMsg_7
   1069          
   1070            if ( pInMsg->attrCmd )
   \                     ??zclSampleLight_ProcessIncomingMsg_5:
   \   000078   8E82         MOV       DPL,R6
   \   00007A   8F83         MOV       DPH,R7
   \   00007C   E0           MOVX      A,@DPTR
   \   00007D   FA           MOV       R2,A
   \   00007E   A3           INC       DPTR
   \   00007F   E0           MOVX      A,@DPTR
   \   000080   FB           MOV       R3,A
   \   000081   EA           MOV       A,R2
   \   000082   4B           ORL       A,R3
   \   000083   6003         JZ        ??zclSampleLight_ProcessIncomingMsg_8
   1071              osal_mem_free( pInMsg->attrCmd );
   \   000085                ; Setup parameters for call to function osal_mem_free
   \   000085   12....       LCALL     `??osal_mem_free::?relay`; Banked call to: osal_mem_free
   1072          }
   \                     ??zclSampleLight_ProcessIncomingMsg_8:
   \   000088                REQUIRE ?Subroutine0
   \   000088                ; // Fall through to label ?Subroutine0

   \                                 In  segment BANKED_CODE, align 1, keep-with-next
   \                     ?Subroutine4:
   \   000000   8882         MOV       DPL,R0
   \   000002   8983         MOV       DPH,R1
   \   000004   E0           MOVX      A,@DPTR
   \   000005   F8           MOV       R0,A
   \   000006   A3           INC       DPTR
   \   000007   E0           MOVX      A,@DPTR
   \   000008   8882         MOV       DPL,R0
   \   00000A   F583         MOV       DPH,A
   \   00000C   7800         MOV       R0,#0x0
   \   00000E   22           RET

   \                                 In  segment BANKED_CODE, align 1, keep-with-next
   \                     ?Subroutine3:
   \   000000   8882         MOV       DPL,R0
   \   000002   8983         MOV       DPH,R1
   \   000004                REQUIRE ??Subroutine7_0
   \   000004                ; // Fall through to label ??Subroutine7_0

   \                                 In  segment BANKED_CODE, align 1, keep-with-next
   \                     ??Subroutine7_0:
   \   000000   E0           MOVX      A,@DPTR
   \   000001   F8           MOV       R0,A
   \   000002   A3           INC       DPTR
   \   000003   E0           MOVX      A,@DPTR
   \   000004   F9           MOV       R1,A
   \   000005   7A00         MOV       R2,#0x0
   \   000007   22           RET
   1073          
   1074          #ifdef ZCL_READ
   1075          /*********************************************************************
   1076           * @fn      zclSampleLight_ProcessInReadRspCmd
   1077           *
   1078           * @brief   Process the "Profile" Read Response Command
   1079           *
   1080           * @param   pInMsg - incoming message to process
   1081           *
   1082           * @return  none
   1083           */
   1084          static uint8 zclSampleLight_ProcessInReadRspCmd( zclIncomingMsg_t *pInMsg )
   1085          {
   1086            zclReadRspCmd_t *readRspCmd;
   1087            uint8 i;
   1088          
   1089            readRspCmd = (zclReadRspCmd_t *)pInMsg->attrCmd;
   1090            for (i = 0; i < readRspCmd->numAttr; i++)
   1091            {
   1092              // Notify the originator of the results of the original read attributes
   1093              // attempt and, for each successfull request, the value of the requested
   1094              // attribute
   1095            }
   1096          
   1097            return ( TRUE );
   1098          }
   1099          #endif // ZCL_READ
   1100          
   1101          #ifdef ZCL_WRITE
   1102          /*********************************************************************
   1103           * @fn      zclSampleLight_ProcessInWriteRspCmd
   1104           *
   1105           * @brief   Process the "Profile" Write Response Command
   1106           *
   1107           * @param   pInMsg - incoming message to process
   1108           *
   1109           * @return  none
   1110           */
   1111          static uint8 zclSampleLight_ProcessInWriteRspCmd( zclIncomingMsg_t *pInMsg )
   1112          {
   1113            zclWriteRspCmd_t *writeRspCmd;
   1114            uint8 i;
   1115          
   1116            writeRspCmd = (zclWriteRspCmd_t *)pInMsg->attrCmd;
   1117            for ( i = 0; i < writeRspCmd->numAttr; i++ )
   1118            {
   1119              // Notify the device of the results of the its original write attributes
   1120              // command.
   1121            }
   1122          
   1123            return ( TRUE );
   1124          }
   1125          #endif // ZCL_WRITE
   1126          
   1127          /*********************************************************************
   1128           * @fn      zclSampleLight_ProcessInDefaultRspCmd
   1129           *
   1130           * @brief   Process the "Profile" Default Response Command
   1131           *
   1132           * @param   pInMsg - incoming message to process
   1133           *
   1134           * @return  none
   1135           */
   1136          static uint8 zclSampleLight_ProcessInDefaultRspCmd( zclIncomingMsg_t *pInMsg )
   1137          {
   1138            // zclDefaultRspCmd_t *defaultRspCmd = (zclDefaultRspCmd_t *)pInMsg->attrCmd;
   1139          
   1140            // Device is notified of the Default Response command.
   1141            (void)pInMsg;
   1142          
   1143            return ( TRUE );
   1144          }
   1145          
   1146          #ifdef ZCL_DISCOVER
   1147          /*********************************************************************
   1148           * @fn      zclSampleLight_ProcessInDiscCmdsRspCmd
   1149           *
   1150           * @brief   Process the Discover Commands Response Command
   1151           *
   1152           * @param   pInMsg - incoming message to process
   1153           *
   1154           * @return  none
   1155           */

   \                                 In  segment BANKED_CODE, align 1, keep-with-next
   1156          static uint8 zclSampleLight_ProcessInDiscCmdsRspCmd( zclIncomingMsg_t *pInMsg )
   \                     zclSampleLight_ProcessInDiscCmdsRspCmd:
   1157          {
   \   000000   C082         PUSH      DPL
   \   000002   C083         PUSH      DPH
   \   000004                ; Saved register size: 2
   \   000004                ; Auto size: 0
   1158            zclDiscoverCmdsCmdRsp_t *discoverRspCmd;
   1159            uint8 i;
   1160          
   1161            discoverRspCmd = (zclDiscoverCmdsCmdRsp_t *)pInMsg->attrCmd;
   \   000004   EA           MOV       A,R2
   \   000005   2417         ADD       A,#0x17
   \   000007   F582         MOV       DPL,A
   \   000009   E4           CLR       A
   \   00000A   3B           ADDC      A,R3
   \   00000B   F583         MOV       DPH,A
   \   00000D   12....       LCALL     ??Subroutine7_0 & 0xFFFF
   1162            for ( i = 0; i < discoverRspCmd->numCmd; i++ )
   \                     ??CrossCallReturnLabel_6:
   \   000010   8001         SJMP      ??zclSampleLight_ProcessInDiscCmdsRspCmd_0
   \                     ??zclSampleLight_ProcessInDiscCmdsRspCmd_1:
   \   000012   0A           INC       R2
   \                     ??zclSampleLight_ProcessInDiscCmdsRspCmd_0:
   \   000013   8882         MOV       DPL,R0
   \   000015   8983         MOV       DPH,R1
   \   000017   A3           INC       DPTR
   \   000018   A3           INC       DPTR
   \   000019   E0           MOVX      A,@DPTR
   \   00001A   FB           MOV       R3,A
   \   00001B   EA           MOV       A,R2
   \   00001C   C3           CLR       C
   \   00001D   9B           SUBB      A,R3
   \   00001E   40F2         JC        ??zclSampleLight_ProcessInDiscCmdsRspCmd_1
   1163            {
   1164              // Device is notified of the result of its attribute discovery command.
   1165            }
   1166          
   1167            return ( TRUE );
   \   000020   7901         MOV       R1,#0x1
   \   000022   02....       LJMP      ??Subroutine6_0 & 0xFFFF
   1168          }
   1169          
   1170          /*********************************************************************
   1171           * @fn      zclSampleLight_ProcessInDiscAttrsRspCmd
   1172           *
   1173           * @brief   Process the "Profile" Discover Attributes Response Command
   1174           *
   1175           * @param   pInMsg - incoming message to process
   1176           *
   1177           * @return  none
   1178           */
   1179          static uint8 zclSampleLight_ProcessInDiscAttrsRspCmd( zclIncomingMsg_t *pInMsg )
   1180          {
   1181            zclDiscoverAttrsRspCmd_t *discoverRspCmd;
   1182            uint8 i;
   1183          
   1184            discoverRspCmd = (zclDiscoverAttrsRspCmd_t *)pInMsg->attrCmd;
   1185            for ( i = 0; i < discoverRspCmd->numAttr; i++ )
   1186            {
   1187              // Device is notified of the result of its attribute discovery command.
   1188            }
   1189          
   1190            return ( TRUE );
   1191          }
   1192          
   1193          /*********************************************************************
   1194           * @fn      zclSampleLight_ProcessInDiscAttrsExtRspCmd
   1195           *
   1196           * @brief   Process the "Profile" Discover Attributes Extended Response Command
   1197           *
   1198           * @param   pInMsg - incoming message to process
   1199           *
   1200           * @return  none
   1201           */
   1202          static uint8 zclSampleLight_ProcessInDiscAttrsExtRspCmd( zclIncomingMsg_t *pInMsg )
   1203          {
   1204            zclDiscoverAttrsExtRsp_t *discoverRspCmd;
   1205            uint8 i;
   1206          
   1207            discoverRspCmd = (zclDiscoverAttrsExtRsp_t *)pInMsg->attrCmd;
   1208            for ( i = 0; i < discoverRspCmd->numAttr; i++ )
   1209            {
   1210              // Device is notified of the result of its attribute discovery command.
   1211            }
   1212          
   1213            return ( TRUE );
   1214          }
   1215          #endif // ZCL_DISCOVER
   1216          

   \                                 In  segment BANKED_CODE, align 1, keep-with-next
   1217          void zclSampleLight_UiActionToggleLight(uint16 keys)
   \                     zclSampleLight_UiActionToggleLight:
   1218          {
   \   000000   C082         PUSH      DPL
   \   000002   C083         PUSH      DPH
   \   000004                ; Saved register size: 2
   \   000004                ; Auto size: 0
   1219            zclSampleLight_OnOffCB(COMMAND_TOGGLE);
   \   000004                ; Setup parameters for call to function zclSampleLight_OnOffCB
   \   000004   7902         MOV       R1,#0x2
   \   000006   12....       LCALL     `??zclSampleLight_OnOffCB::?relay`; Banked call to: zclSampleLight_OnOffCB
   1220          }
   \   000009   02....       LJMP      ??Subroutine6_0 & 0xFFFF
   1221          

   \                                 In  segment BANKED_CODE, align 1, keep-with-next
   1222          void zclSampleLight_UpdateLedState(void)
   \                     zclSampleLight_UpdateLedState:
   1223          {
   \   000000   C082         PUSH      DPL
   \   000002   C083         PUSH      DPH
   \   000004                ; Saved register size: 2
   \   000004                ; Auto size: 0
   1224            // set the LED1 based on light (on or off)
   1225            if ( zclSampleLight_OnOff == LIGHT_ON )
   \   000004   90....       MOV       DPTR,#zclSampleLight_OnOff
   \   000007   E0           MOVX      A,@DPTR
   \   000008   6401         XRL       A,#0x1
   \   00000A   90....       MOV       DPTR,#Current_Led
   \   00000D   7007         JNZ       ??zclSampleLight_UpdateLedState_0
   1226            {
   1227              LedTurnOn(Current_Led);
   \   00000F                ; Setup parameters for call to function LedTurnOn
   \   00000F   E0           MOVX      A,@DPTR
   \   000010   F9           MOV       R1,A
   \   000011   12....       LCALL     `??LedTurnOn::?relay`; Banked call to: LedTurnOn
   \   000014   8005         SJMP      ??zclSampleLight_UpdateLedState_1
   1228            }
   1229            else
   1230            {
   1231              LedTurnOff(Current_Led);
   \                     ??zclSampleLight_UpdateLedState_0:
   \   000016                ; Setup parameters for call to function LedTurnOff
   \   000016   E0           MOVX      A,@DPTR
   \   000017   F9           MOV       R1,A
   \   000018   12....       LCALL     `??LedTurnOff::?relay`; Banked call to: LedTurnOff
   1232            }
   1233          }
   \                     ??zclSampleLight_UpdateLedState_1:
   \   00001B   02....       LJMP      ??Subroutine6_0 & 0xFFFF
   1234          

   \                                 In  segment BANKED_CODE, align 1, keep-with-next
   1235          void zclSampleLight_UiUpdateLcd(uint8 UiState, char * line[3])
   \                     zclSampleLight_UiUpdateLcd:
   1236          {
   \   000000   74F7         MOV       A,#-0x9
   \   000002   12....       LCALL     ?BANKED_ENTER_XDATA
   \   000005                ; Saved register size: 9
   \   000005                ; Auto size: 0
   \   000005   EA           MOV       A,R2
   \   000006   FE           MOV       R6,A
   \   000007   EB           MOV       A,R3
   \   000008   FF           MOV       R7,A
   1237          #ifdef LCD_SUPPORTED
   1238          #ifdef ZCL_LEVEL_CTRL
   1239            zclHA_uint8toa( zclSampleLight_LevelCurrentLevel, &sLightLevel[9] );
   \   000009                ; Setup parameters for call to function zclHA_uint8toa
   \   000009   7A..         MOV       R2,#(sLightLevel + 9) & 0xff
   \   00000B   7B..         MOV       R3,#((sLightLevel + 9) >> 8) & 0xff
   \   00000D   90....       MOV       DPTR,#zclSampleLight_LevelCurrentLevel
   \   000010   E0           MOVX      A,@DPTR
   \   000011   F9           MOV       R1,A
   \   000012   12....       LCALL     `??zclHA_uint8toa::?relay`; Banked call to: zclHA_uint8toa
   1240            line[0] = (char *)sLightLevel;
   \   000015   8E82         MOV       DPL,R6
   \   000017   8F83         MOV       DPH,R7
   \   000019   74..         MOV       A,#sLightLevel & 0xff
   \   00001B   F0           MOVX      @DPTR,A
   \   00001C   A3           INC       DPTR
   \   00001D   74..         MOV       A,#(sLightLevel >> 8) & 0xff
   \   00001F   F0           MOVX      @DPTR,A
   1241          #endif // ZCL_LEVEL_CTRL
   1242            line[1] = (char *)(zclSampleLight_OnOff ? sLightOn : sLightOff);
   \   000020   90....       MOV       DPTR,#zclSampleLight_OnOff
   \   000023   E0           MOVX      A,@DPTR
   \   000024   6006         JZ        ??zclSampleLight_UiUpdateLcd_0
   \   000026   78..         MOV       R0,#sLightOn & 0xff
   \   000028   79..         MOV       R1,#(sLightOn >> 8) & 0xff
   \   00002A   8004         SJMP      ??zclSampleLight_UiUpdateLcd_1
   \                     ??zclSampleLight_UiUpdateLcd_0:
   \   00002C   78..         MOV       R0,#sLightOff & 0xff
   \   00002E   79..         MOV       R1,#(sLightOff >> 8) & 0xff
   \                     ??zclSampleLight_UiUpdateLcd_1:
   \   000030   8E82         MOV       DPL,R6
   \   000032   8F83         MOV       DPH,R7
   \   000034   A3           INC       DPTR
   \   000035   A3           INC       DPTR
   \   000036   E8           MOV       A,R0
   \   000037   F0           MOVX      @DPTR,A
   \   000038   A3           INC       DPTR
   \   000039   E9           MOV       A,R1
   \   00003A   F0           MOVX      @DPTR,A
   1243            line[2] = "< TOGGLE LIGHT >";
   \   00003B   8E82         MOV       DPL,R6
   \   00003D   8F83         MOV       DPH,R7
   \   00003F   A3           INC       DPTR
   \   000040   A3           INC       DPTR
   \   000041   A3           INC       DPTR
   \   000042   A3           INC       DPTR
   \   000043   74..         MOV       A,#`?<Constant "< TOGGLE LIGHT >">` & 0xff
   \   000045   F0           MOVX      @DPTR,A
   \   000046   A3           INC       DPTR
   \   000047   74..         MOV       A,#(`?<Constant "< TOGGLE LIGHT >">` >> 8) & 0xff
   \   000049   F0           MOVX      @DPTR,A
   1244          #endif
   1245          }
   \   00004A   02....       LJMP      ?Subroutine0 & 0xFFFF
   1246          

   \                                 In  segment BANKED_CODE, align 1, keep-with-next
   1247          void zclSampleLight_SceneSimpleCB(void)
   \                     zclSampleLight_SceneSimpleCB:
   1248          {
   \   000000   C082         PUSH      DPL
   \   000002   C083         PUSH      DPH
   \   000004                ; Saved register size: 2
   \   000004                ; Auto size: 0
   1249            uint8 oldleds;
   1250            uint8 newleds;
   1251            oldleds=Current_Led;
   \   000004   90....       MOV       DPTR,#Current_Led
   \   000007   E0           MOVX      A,@DPTR
   \   000008   F9           MOV       R1,A
   1252            
   1253            Current_Led*=2;
   \   000009   C3           CLR       C
   \   00000A   33           RLC       A
   \   00000B   F0           MOVX      @DPTR,A
   1254            if(Current_Led>8)
   \   00000C   C3           CLR       C
   \   00000D   9409         SUBB      A,#0x9
   \   00000F   4003         JC        ??zclSampleLight_SceneSimpleCB_0
   1255            {
   1256              Current_Led=HAL_LED_1;
   \   000011   7401         MOV       A,#0x1
   \   000013   F0           MOVX      @DPTR,A
   1257            }
   1258            
   1259            newleds=Current_Led;
   1260            
   1261            LedSwitch(oldleds,newleds);
   \                     ??zclSampleLight_SceneSimpleCB_0:
   \   000014                ; Setup parameters for call to function LedSwitch
   \   000014   E0           MOVX      A,@DPTR
   \   000015   FA           MOV       R2,A
   \   000016   12....       LCALL     `??LedSwitch::?relay`; Banked call to: LedSwitch
   1262            
   1263            return ;
   \   000019   02....       LJMP      ??Subroutine6_0 & 0xFFFF
   1264          }

   \                                 In  segment XDATA_ID, align 1, keep-with-next
   \                     `?<Initializer for Current_Led>`:
   \   000000   04           DB 4

   \                                 In  segment XDATA_ID, align 1, keep-with-next
   \                     `?<Initializer for sampleLight_TestEp>`:
   \   000000   08           DB 8
   \   000001   00           DB 0
   \   000002   ....         DW zclSampleLight_TaskID
   \   000004   0000         DW 0H
   \   000006   00           DB 0

   \                                 In  segment XDATA_ID, align 1, keep-with-next
   \                     `?<Initializer for sLightLevel>`:
   \   000000   2020204C     DB "   LEVEL ###    "
   \            4556454C
   \            20232323
   \            20202020
   \            00      

   \                                 In  segment XDATA_ID, align 1, keep-with-next
   \                     `?<Initializer for zclSampleLight_CmdCallbacks>`:
   \   000000   ....         DW `??zclSampleLight_BasicResetCB::?relay`
   \   000002   0000         DW 0H
   \   000004   ....         DW `??zclSampleLight_OnOffCB::?relay`
   \   000006   0000         DW 0H
   \   000008   0000         DW 0H
   \   00000A   0000         DW 0H
   \   00000C   ....         DW `??zclSampleLight_LevelControlMoveToLevelCB::?re`
   \   00000E   ....         DW `??zclSampleLight_LevelControlMoveCB::?relay`
   \   000010   ....         DW `??zclSampleLight_LevelControlStepCB::?relay`
   \   000012   ....         DW `??zclSampleLight_LevelControlStopCB::?relay`
   \   000014   0000         DW 0H
   \   000016   0000         DW 0H
   \   000018   0000         DW 0H
   \   00001A   0000         DW 0H
   \   00001C   ....         DW `??zclSampleLight_SceneSimpleCB::?relay`
   \   00001E   0000         DW 0H
   \   000020   0000         DW 0H

   \                                 In  segment BANK_RELAYS, align 1
   \                     `??zclSampleLight_Init::?relay`:
   \   000000   12....       LCALL   ?BDISPATCH
   \   000003   ......       DC24    zclSampleLight_Init

   \                                 In  segment BANK_RELAYS, align 1
   \                     `??zclSampleLight_event_loop::?relay`:
   \   000000   12....       LCALL   ?BDISPATCH
   \   000003   ......       DC24    zclSampleLight_event_loop

   \                                 In  segment BANK_RELAYS, align 1
   \                     `??zclSampleLight_ProcessCommissioningStatus::?r`:
   \   000000   12....       LCALL   ?BDISPATCH
   \   000003   ......       DC24    zclSampleLight_ProcessCommissioningStatus

   \                                 In  segment BANK_RELAYS, align 1
   \                     `??zclSampleLight_BasicResetCB::?relay`:
   \   000000   12....       LCALL   ?BDISPATCH
   \   000003   ......       DC24    zclSampleLight_BasicResetCB

   \                                 In  segment BANK_RELAYS, align 1
   \                     `??zclSampleLight_OnOffCB::?relay`:
   \   000000   12....       LCALL   ?BDISPATCH
   \   000003   ......       DC24    zclSampleLight_OnOffCB

   \                                 In  segment BANK_RELAYS, align 1
   \                     `??zclSampleLight_MoveBasedOnTime::?relay`:
   \   000000   12....       LCALL   ?BDISPATCH
   \   000003   ......       DC24    zclSampleLight_MoveBasedOnTime

   \                                 In  segment BANK_RELAYS, align 1
   \                     `??zclSampleLight_LevelControlMoveToLevelCB::?re`:
   \   000000   12....       LCALL   ?BDISPATCH
   \   000003   ......       DC24    zclSampleLight_LevelControlMoveToLevelCB

   \                                 In  segment BANK_RELAYS, align 1
   \                     `??zclSampleLight_LevelControlMoveCB::?relay`:
   \   000000   12....       LCALL   ?BDISPATCH
   \   000003   ......       DC24    zclSampleLight_LevelControlMoveCB

   \                                 In  segment BANK_RELAYS, align 1
   \                     `??zclSampleLight_LevelControlStepCB::?relay`:
   \   000000   12....       LCALL   ?BDISPATCH
   \   000003   ......       DC24    zclSampleLight_LevelControlStepCB

   \                                 In  segment BANK_RELAYS, align 1
   \                     `??zclSampleLight_LevelControlStopCB::?relay`:
   \   000000   12....       LCALL   ?BDISPATCH
   \   000003   ......       DC24    zclSampleLight_LevelControlStopCB

   \                                 In  segment BANK_RELAYS, align 1
   \                     `??zclSampleLight_ProcessIncomingMsg::?relay`:
   \   000000   12....       LCALL   ?BDISPATCH
   \   000003   ......       DC24    zclSampleLight_ProcessIncomingMsg

   \                                 In  segment BANK_RELAYS, align 1
   \                     `??zclSampleLight_ProcessInDiscCmdsRspCmd::?rela`:
   \   000000   12....       LCALL   ?BDISPATCH
   \   000003   ......       DC24    zclSampleLight_ProcessInDiscCmdsRspCmd

   \                                 In  segment BANK_RELAYS, align 1
   \                     `??zclSampleLight_UiActionToggleLight::?relay`:
   \   000000   12....       LCALL   ?BDISPATCH
   \   000003   ......       DC24    zclSampleLight_UiActionToggleLight

   \                                 In  segment BANK_RELAYS, align 1
   \                     `??zclSampleLight_UpdateLedState::?relay`:
   \   000000   12....       LCALL   ?BDISPATCH
   \   000003   ......       DC24    zclSampleLight_UpdateLedState

   \                                 In  segment BANK_RELAYS, align 1
   \                     `??zclSampleLight_UiUpdateLcd::?relay`:
   \   000000   12....       LCALL   ?BDISPATCH
   \   000003   ......       DC24    zclSampleLight_UiUpdateLcd

   \                                 In  segment BANK_RELAYS, align 1
   \                     `??zclSampleLight_SceneSimpleCB::?relay`:
   \   000000   12....       LCALL   ?BDISPATCH
   \   000003   ......       DC24    zclSampleLight_SceneSimpleCB

   \                                 In  segment XDATA_ROM_C, align 1
   \                     `?<Constant "Group 1">`:
   \   000000   47726F75     DB "Group 1"
   \            70203100

   \                                 In  segment XDATA_ROM_C, align 1
   \                     `?<Constant "TI Sample Light">`:
   \   000000   54492053     DB "TI Sample Light"
   \            616D706C
   \            65204C69
   \            67687400

   \                                 In  segment XDATA_ROM_C, align 1
   \                     `?<Constant "< TOGGLE LIGHT >">`:
   \   000000   3C20544F     DB "< TOGGLE LIGHT >"
   \            47474C45
   \            204C4947
   \            4854203E
   \            00      

   \                                 In  segment XDATA_ROM_C, align 1
   \                     __Constant_64:
   \   000000   64000000     DD 100

   \                                 In  segment XDATA_ROM_C, align 1
   \                     __Constant_2710:
   \   000000   10270000     DD 10000

   \                                 In  segment XDATA_ROM_C, align 1
   \                     __Constant_3e8:
   \   000000   E8030000     DD 1000
   1265          /****************************************************************************
   1266          ****************************************************************************/
   1267          
   1268          

   Maximum stack usage in bytes:

   ISTACK XSTACK Function
   ------ ------ --------
      2      0   zclSampleLight_BasicResetCB
        2      0   -> UI_UpdateLcd
        2      0   -> zclSampleLight_ResetAttributesToDefaultValues
        2      0   -> zclSampleLight_UpdateLedState
      0     37   zclSampleLight_Init
        0     29   -> RegisterForKeys
        0     37   -> UI_Init
        0     29   -> UI_UpdateLcd
        0     29   -> afRegister
        0     29   -> aps_AddGroup
        0     29   -> bdb_RegisterCommissioningStatusCB
        0     29   -> bdb_RegisterSimpleDescriptor
        0     29   -> bdb_StartCommissioning
        0     32   -> osal_memcpy
        0     29   -> zclGeneral_RegisterCmdCallbacks
        0     29   -> zclSampleLight_ResetAttributesToDefaultValues
        0     29   -> zcl_registerAttrList
        0     29   -> zcl_registerCmdList
        0     29   -> zcl_registerForMsg
      2      4   zclSampleLight_LevelControlMoveCB
        2      4   -> osal_start_timerEx
      2      0   zclSampleLight_LevelControlMoveToLevelCB
        2      0   -> zclSampleLight_MoveBasedOnTime
      2      4   zclSampleLight_LevelControlStepCB
        2      4   -> osal_start_timerEx
      2      0   zclSampleLight_LevelControlStopCB
        2      0   -> osal_stop_timerEx
      0     24   zclSampleLight_MoveBasedOnTime
        0     24   -> osal_start_timerEx
      0      9   zclSampleLight_OnOffCB
        0      9   -> zclSampleLight_UpdateLedState
      0     13   zclSampleLight_ProcessCommissioningStatus
        0      9   -> UI_UpdateComissioningStatus
        0      9   -> bdb_StartCommissioning
        0     13   -> osal_start_timerEx
      2      9   zclSampleLight_ProcessInDiscCmdsRspCmd
      0     21   zclSampleLight_ProcessIncomingMsg
        0      9   -> osal_mem_free
        0      9   -> zclSampleLight_ProcessInDiscCmdsRspCmd
      2      0   zclSampleLight_SceneSimpleCB
        2      0   -> LedSwitch
      2      0   zclSampleLight_UiActionToggleLight
        2      0   -> zclSampleLight_OnOffCB
      0      9   zclSampleLight_UiUpdateLcd
        0      9   -> zclHA_uint8toa
      2      9   zclSampleLight_UpdateLedState
        2      0   -> LedTurnOff
        2      0   -> LedTurnOn
      0     16   zclSampleLight_event_loop
        0     12   -> LedSetBrightness
        0     12   -> UI_DeviceStateUpdated
        0     12   -> UI_MainStateMachine
        0     12   -> UI_UpdateLcd
        0     12   -> bdb_ZedAttemptRecoverNwk
        0     12   -> osal_msg_deallocate
        0     12   -> osal_msg_receive
        0     16   -> osal_start_timerEx
        0     12   -> zclSampleLight_ProcessIncomingMsg


   Segment part sizes:

   Bytes  Function/Label
   -----  --------------
      17  ?<Constant "< TOGGLE LIGHT >">
       8  ?<Constant "Group 1">
      16  ?<Constant "TI Sample Light">
       1  ?<Initializer for Current_Led>
      17  ?<Initializer for sLightLevel>
       7  ?<Initializer for sampleLight_TestEp>
      34  ?<Initializer for zclSampleLight_CmdCallbacks>
      13  ??Subroutine5_0
       7  ??Subroutine6_0
       8  ??Subroutine7_0
       5  ?Subroutine0
      13  ?Subroutine1
       2  ?Subroutine2
       4  ?Subroutine3
      15  ?Subroutine4
       1  Current_Led
       4  __Constant_2710
       4  __Constant_3e8
       4  __Constant_64
      17  sLightLevel
      17  sLightOff
      17  sLightOn
       7  sampleLight_TestEp
       1  zclSampleLightSeqNum
      16  zclSampleLight_BasicResetCB
       6  zclSampleLight_BasicResetCB::?relay
      34  zclSampleLight_CmdCallbacks
       4  zclSampleLight_CurrentLevel32
      12  zclSampleLight_DstAddr
     266  zclSampleLight_Init
       6  zclSampleLight_Init::?relay
       1  zclSampleLight_LevelChangeCmd
      61  zclSampleLight_LevelControlMoveCB
       6  zclSampleLight_LevelControlMoveCB::?relay
      47  zclSampleLight_LevelControlMoveToLevelCB
       6  zclSampleLight_LevelControlMoveToLevelCB::?relay
      73  zclSampleLight_LevelControlStepCB
       6  zclSampleLight_LevelControlStepCB::?relay
      24  zclSampleLight_LevelControlStopCB
       6  zclSampleLight_LevelControlStopCB::?relay
       1  zclSampleLight_LevelLastLevel
     241  zclSampleLight_MoveBasedOnTime
       6  zclSampleLight_MoveBasedOnTime::?relay
       1  zclSampleLight_NewLevel
       1  zclSampleLight_NewLevelUp
      45  zclSampleLight_OnOffCB
       6  zclSampleLight_OnOffCB::?relay
      76  zclSampleLight_ProcessCommissioningStatus
       6  zclSampleLight_ProcessCommissioningStatus::?relay
      37  zclSampleLight_ProcessInDiscCmdsRspCmd
       6  zclSampleLight_ProcessInDiscCmdsRspCmd::?relay
     136  zclSampleLight_ProcessIncomingMsg
       6  zclSampleLight_ProcessIncomingMsg::?relay
       4  zclSampleLight_Rate32
      28  zclSampleLight_SceneSimpleCB
       6  zclSampleLight_SceneSimpleCB::?relay
       1  zclSampleLight_TaskID
      12  zclSampleLight_UiActionToggleLight
       6  zclSampleLight_UiActionToggleLight::?relay
      12  zclSampleLight_UiStatesMain
      77  zclSampleLight_UiUpdateLcd
       6  zclSampleLight_UiUpdateLcd::?relay
      30  zclSampleLight_UpdateLedState
       6  zclSampleLight_UpdateLedState::?relay
       1  zclSampleLight_WithOnOff
     239  zclSampleLight_event_loop
       6  zclSampleLight_event_loop::?relay

 
 1 475 bytes in segment BANKED_CODE
    96 bytes in segment BANK_RELAYS
    59 bytes in segment XDATA_I
    59 bytes in segment XDATA_ID
    99 bytes in segment XDATA_ROM_C
    27 bytes in segment XDATA_Z
 
   155 bytes of CODE     memory
    87 bytes of CONST    memory (+ 12 bytes shared)
 1 475 bytes of HUGECODE memory
    86 bytes of XDATA    memory

Errors: none
Warnings: 1
