###############################################################################
#
# IAR C/C++ Compiler V10.20.1.5333 for 8051               03/May/2018  17:29:31
# Copyright 2004-2018 IAR Systems AB.
# PC-locked license - IAR Embedded Workbench for 8051
#
#    Core               =  plain
#    Code model         =  banked
#    Data model         =  large
#    Calling convention =  xdata reentrant
#    Constant location  =  data_rom
#    Dptr setup         =  1,16
#                          
#    Source file        =  
#        C:\Texas Instruments\Z-Stack 3.0.1\Components\stack\zcl\zcl.c
#    Command line       =  
#        -f C:\Users\yao\AppData\Local\Temp\EWB390.tmp ("C:\Texas
#        Instruments\Z-Stack 3.0.1\Components\stack\zcl\zcl.c" -D BDB_REPORTING
#        -D SECURE=1 -D TC_LINKKEY_JOIN -D NV_INIT -D NV_RESTORE -D xZTOOL_P1
#        -D xMT_TASK -D xMT_APP_FUNC -D xMT_SYS_FUNC -D xMT_ZDO_FUNC -D
#        xMT_ZDO_MGMT -D xMT_APP_CNF_FUNC -D LCD_SUPPORTED=DEBUG -D
#        MULTICAST_ENABLED=FALSE -D ZCL_READ -D ZCL_DISCOVER -D ZCL_WRITE -D
#        ZCL_BASIC -D ZCL_IDENTIFY -D ZCL_ON_OFF -D ZCL_SCENES -D ZCL_GROUPS -D
#        ZCL_LEVEL_CTRL -lC "C:\Texas Instruments\Z-Stack
#        3.0.1\Projects\zstack\HomeAutomation\SampleLight\CC2530DB\CoordinatorEB\List"
#        -lA "C:\Texas Instruments\Z-Stack
#        3.0.1\Projects\zstack\HomeAutomation\SampleLight\CC2530DB\CoordinatorEB\List"
#        --diag_suppress Pe001,Pa010 -o "C:\Texas Instruments\Z-Stack
#        3.0.1\Projects\zstack\HomeAutomation\SampleLight\CC2530DB\CoordinatorEB\Obj"
#        -e --debug --core=plain --dptr=16,1 --data_model=large
#        --code_model=banked --calling_convention=xdata_reentrant
#        --place_constants=data_rom --nr_virtual_regs 16 -f "C:\Texas
#        Instruments\Z-Stack
#        3.0.1\Projects\zstack\HomeAutomation\SampleLight\CC2530DB\..\..\..\Tools\CC2530DB\f8wCoord.cfg"
#        (-DCPU32MHZ -DROOT=__near_func -DMAC_CFG_APP_PENDING_QUEUE=TRUE
#        -DMAC_CFG_TX_DATA_MAX=5 -DMAC_CFG_TX_MAX=8 -DMAC_CFG_RX_MAX=5
#        -DZDO_COORDINATOR -DRTR_NWK) -f "C:\Texas Instruments\Z-Stack
#        3.0.1\Projects\zstack\HomeAutomation\SampleLight\CC2530DB\..\..\..\Tools\CC2530DB\f8wConfig.cfg"
#        (-DZIGBEEPRO -DSECURE=1 -DZG_SECURE_DYNAMIC=0 -DREFLECTOR
#        -DDEFAULT_CHANLIST=0x00000800 -DZDAPP_CONFIG_PAN_ID=0x16D1
#        -DNWK_START_DELAY=100 -DEXTENDED_JOINING_RANDOM_MASK=0x007F
#        -DBEACON_REQUEST_DELAY=100 -DBEACON_REQ_DELAY_MASK=0x00FF
#        -DLINK_STATUS_JITTER_MASK=0x007F -DROUTE_EXPIRY_TIME=30
#        -DAPSC_ACK_WAIT_DURATION_POLLED=3000 -DNWK_INDIRECT_MSG_TIMEOUT=7
#        -DMAX_RREQ_ENTRIES=8 -DAPSC_MAX_FRAME_RETRIES=3
#        -DNWK_MAX_DATA_RETRIES=2 -DMAX_POLL_FAILURE_RETRIES=2 -DMAX_BCAST=9
#        -DAPS_MAX_GROUPS=16 -DMAX_RTG_ENTRIES=40 -DNWK_MAX_BINDING_ENTRIES=4
#        -DMAX_BINDING_CLUSTER_IDS=4 -DDEFAULT_KEY={0} -DMAC_MAX_FRAME_SIZE=116
#        -DZDNWKMGR_MIN_TRANSMISSIONS=20 "-DCONST=const __code"
#        -DGENERIC=__generic -DRFD_RCVC_ALWAYS_ON=FALSE -DPOLL_RATE=1000
#        -DQUEUED_POLL_RATE=100 -DRESPONSE_POLL_RATE=100 -DREJOIN_POLL_RATE=440
#        -DREJOIN_BACKOFF=900000 -DREJOIN_SCAN=900000 -DENABLE_LED4_DISABLE_S1)
#        -f "C:\Texas Instruments\Z-Stack
#        3.0.1\Projects\zstack\HomeAutomation\SampleLight\CC2530DB\..\..\..\Tools\CC2530DB\f8wZCL.cfg"
#        -I "C:\Texas Instruments\Z-Stack
#        3.0.1\Projects\zstack\HomeAutomation\SampleLight\CC2530DB\" -I
#        "C:\Texas Instruments\Z-Stack
#        3.0.1\Projects\zstack\HomeAutomation\SampleLight\CC2530DB\..\Source\"
#        -I "C:\Texas Instruments\Z-Stack
#        3.0.1\Projects\zstack\HomeAutomation\SampleLight\CC2530DB\..\..\Source\"
#        -I "C:\Texas Instruments\Z-Stack
#        3.0.1\Projects\zstack\HomeAutomation\SampleLight\CC2530DB\..\..\..\ZMain\TI2530DB\"
#        -I "C:\Texas Instruments\Z-Stack
#        3.0.1\Projects\zstack\HomeAutomation\SampleLight\CC2530DB\..\..\..\..\..\Components\hal\include\"
#        -I "C:\Texas Instruments\Z-Stack
#        3.0.1\Projects\zstack\HomeAutomation\SampleLight\CC2530DB\..\..\..\..\..\Components\hal\target\CC2530EB\"
#        -I "C:\Texas Instruments\Z-Stack
#        3.0.1\Projects\zstack\HomeAutomation\SampleLight\CC2530DB\..\..\..\..\..\Components\mac\include\"
#        -I "C:\Texas Instruments\Z-Stack
#        3.0.1\Projects\zstack\HomeAutomation\SampleLight\CC2530DB\..\..\..\..\..\Components\mac\high_level\"
#        -I "C:\Texas Instruments\Z-Stack
#        3.0.1\Projects\zstack\HomeAutomation\SampleLight\CC2530DB\..\..\..\..\..\Components\mac\low_level\srf04\"
#        -I "C:\Texas Instruments\Z-Stack
#        3.0.1\Projects\zstack\HomeAutomation\SampleLight\CC2530DB\..\..\..\..\..\Components\mac\low_level\srf04\single_chip\"
#        -I "C:\Texas Instruments\Z-Stack
#        3.0.1\Projects\zstack\HomeAutomation\SampleLight\CC2530DB\..\..\..\..\..\Components\mt\"
#        -I "C:\Texas Instruments\Z-Stack
#        3.0.1\Projects\zstack\HomeAutomation\SampleLight\CC2530DB\..\..\..\..\..\Components\osal\include\"
#        -I "C:\Texas Instruments\Z-Stack
#        3.0.1\Projects\zstack\HomeAutomation\SampleLight\CC2530DB\..\..\..\..\..\Components\services\saddr\"
#        -I "C:\Texas Instruments\Z-Stack
#        3.0.1\Projects\zstack\HomeAutomation\SampleLight\CC2530DB\..\..\..\..\..\Components\services\sdata\"
#        -I "C:\Texas Instruments\Z-Stack
#        3.0.1\Projects\zstack\HomeAutomation\SampleLight\CC2530DB\..\..\..\..\..\Components\stack\af\"
#        -I "C:\Texas Instruments\Z-Stack
#        3.0.1\Projects\zstack\HomeAutomation\SampleLight\CC2530DB\..\..\..\..\..\Components\stack\bdb\"
#        -I "C:\Texas Instruments\Z-Stack
#        3.0.1\Projects\zstack\HomeAutomation\SampleLight\CC2530DB\..\..\..\..\..\Components\stack\gp\"
#        -I "C:\Texas Instruments\Z-Stack
#        3.0.1\Projects\zstack\HomeAutomation\SampleLight\CC2530DB\..\..\..\..\..\Components\stack\nwk\"
#        -I "C:\Texas Instruments\Z-Stack
#        3.0.1\Projects\zstack\HomeAutomation\SampleLight\CC2530DB\..\..\..\..\..\Components\stack\sapi\"
#        -I "C:\Texas Instruments\Z-Stack
#        3.0.1\Projects\zstack\HomeAutomation\SampleLight\CC2530DB\..\..\..\..\..\Components\stack\sec\"
#        -I "C:\Texas Instruments\Z-Stack
#        3.0.1\Projects\zstack\HomeAutomation\SampleLight\CC2530DB\..\..\..\..\..\Components\stack\sys\"
#        -I "C:\Texas Instruments\Z-Stack
#        3.0.1\Projects\zstack\HomeAutomation\SampleLight\CC2530DB\..\..\..\..\..\Components\stack\zcl\"
#        -I "C:\Texas Instruments\Z-Stack
#        3.0.1\Projects\zstack\HomeAutomation\SampleLight\CC2530DB\..\..\..\..\..\Components\stack\zdo\"
#        -I "C:\Texas Instruments\Z-Stack
#        3.0.1\Projects\zstack\HomeAutomation\SampleLight\CC2530DB\..\..\..\..\..\Components\zmac\"
#        -I "C:\Texas Instruments\Z-Stack
#        3.0.1\Projects\zstack\HomeAutomation\SampleLight\CC2530DB\..\..\..\..\..\Components\zmac\f8w\"
#        -Ohz --require_prototypes)
#    Locale             =  Chinese (Simplified)_CHN.936
#    List file          =  
#        C:\Texas Instruments\Z-Stack
#        3.0.1\Projects\zstack\HomeAutomation\SampleLight\CC2530DB\CoordinatorEB\List\zcl.lst
#    Object file        =  
#        C:\Texas Instruments\Z-Stack
#        3.0.1\Projects\zstack\HomeAutomation\SampleLight\CC2530DB\CoordinatorEB\Obj\zcl.r51
#
###############################################################################

C:\Texas Instruments\Z-Stack 3.0.1\Components\stack\zcl\zcl.c
      1          /**************************************************************************************************
      2            Filename:       zcl.c
      3            Revised:        $Date: 2015-09-09 11:51:49 -0700 (Wed, 09 Sep 2015) $
      4            Revision:       $Revision: 44489 $
      5          
      6            Description:    This file contains the Zigbee Cluster Library Foundation functions.
      7          
      8          
      9            Copyright 2006-2015 Texas Instruments Incorporated. All rights reserved.
     10          
     11            IMPORTANT: Your use of this Software is limited to those specific rights
     12            granted under the terms of a software license agreement between the user
     13            who downloaded the software, his/her employer (which must be your employer)
     14            and Texas Instruments Incorporated (the "License").  You may not use this
     15            Software unless you agree to abide by the terms of the License. The License
     16            limits your use, and you acknowledge, that the Software may not be modified,
     17            copied or distributed unless embedded on a Texas Instruments microcontroller
     18            or used solely and exclusively in conjunction with a Texas Instruments radio
     19            frequency transceiver, which is integrated into your product.  Other than for
     20            the foregoing purpose, you may not use, reproduce, copy, prepare derivative
     21            works of, modify, distribute, perform, display or sell this Software and/or
     22            its documentation for any purpose.
     23          
     24            YOU FURTHER ACKNOWLEDGE AND AGREE THAT THE SOFTWARE AND DOCUMENTATION ARE
     25            PROVIDED "AS IS" WITHOUT WARRANTY OF ANY KIND, EITHER EXPRESS OR IMPLIED,
     26            INCLUDING WITHOUT LIMITATION, ANY WARRANTY OF MERCHANTABILITY, TITLE,
     27            NON-INFRINGEMENT AND FITNESS FOR A PARTICULAR PURPOSE. IN NO EVENT SHALL
     28            TEXAS INSTRUMENTS OR ITS LICENSORS BE LIABLE OR OBLIGATED UNDER CONTRACT,
     29            NEGLIGENCE, STRICT LIABILITY, CONTRIBUTION, BREACH OF WARRANTY, OR OTHER
     30            LEGAL EQUITABLE THEORY ANY DIRECT OR INDIRECT DAMAGES OR EXPENSES
     31            INCLUDING BUT NOT LIMITED TO ANY INCIDENTAL, SPECIAL, INDIRECT, PUNITIVE
     32            OR CONSEQUENTIAL DAMAGES, LOST PROFITS OR LOST DATA, COST OF PROCUREMENT
     33            OF SUBSTITUTE GOODS, TECHNOLOGY, SERVICES, OR ANY CLAIMS BY THIRD PARTIES
     34            (INCLUDING BUT NOT LIMITED TO ANY DEFENSE THEREOF), OR OTHER SIMILAR COSTS.
     35          
     36            Should you have any questions regarding your right to use this Software,
     37            contact Texas Instruments Incorporated at www.TI.com.
     38          **************************************************************************************************/
     39          
     40          /*********************************************************************
     41           * INCLUDES
     42           */
     43          #include "ZComDef.h"
     44          #include "AF.h"
     45          
     46          #include "zcl.h"
     47          #include "zcl_general.h"
     48          
     49          #if defined ( INTER_PAN )
     50            #include "stub_aps.h"
     51          #endif
     52             
     53          #ifdef BDB_REPORTING
     54            #include "bdb_Reporting.h"
     55          #endif
     56          #include "bdb_interface.h"
     57          
     58          #include "zcl_green_power.h"
     59          
     60             
     61          /*********************************************************************
     62           * MACROS
     63           */
     64          /*** Frame Control ***/
     65          #define zcl_FCType( a )               ( (a) & ZCL_FRAME_CONTROL_TYPE )
     66          #define zcl_FCManuSpecific( a )       ( (a) & ZCL_FRAME_CONTROL_MANU_SPECIFIC )
     67          #define zcl_FCDirection( a )          ( (a) & ZCL_FRAME_CONTROL_DIRECTION )
     68          #define zcl_FCDisableDefaultRsp( a )  ( (a) & ZCL_FRAME_CONTROL_DISABLE_DEFAULT_RSP )
     69          
     70          /*** Attribute Access Control ***/
     71          #define zcl_AccessCtrlRead( a )       ( (a) & ACCESS_CONTROL_READ )
     72          #define zcl_AccessCtrlWrite( a )      ( (a) & ACCESS_CONTROL_WRITE )
     73          #define zcl_AccessCtrlCmd( a )        ( (a) & ACCESS_CONTROL_CMD )
     74          #define zcl_AccessCtrlAuthRead( a )   ( (a) & ACCESS_CONTROL_AUTH_READ )
     75          #define zcl_AccessCtrlAuthWrite( a )  ( (a) & ACCESS_CONTROL_AUTH_WRITE )
     76          #define zcl_AccessClient( a )         ( (a) & ACCESS_CLIENT )
     77          
     78          #define zclParseCmd( a, b )           zclCmdTable[(a)].pfnParseInProfile( (b) )
     79          #define zclProcessCmd( a, b )         zclCmdTable[(a)].pfnProcessInProfile( (b) )
     80          
     81          #define zcl_DefaultRspCmd( zclHdr )   ( zcl_ProfileCmd( (zclHdr).fc.type )     && \
     82                                                  (zclHdr).fc.manuSpecific == 0          && \
     83                                                  (zclHdr).commandID == ZCL_CMD_DEFAULT_RSP )
     84          
     85          // Commands that have corresponding responses (ZCL_CMD_WRITE_NO_RSP, does not have response, but must not send default response)
     86          #define CMD_HAS_RSP( cmd )            ( (cmd) == ZCL_CMD_READ                   || \
     87                                                  (cmd) == ZCL_CMD_WRITE                  || \
     88                                                  (cmd) == ZCL_CMD_WRITE_UNDIVIDED        || \
     89                                                  (cmd) == ZCL_CMD_WRITE_NO_RSP           || \
     90                                                  (cmd) == ZCL_CMD_CONFIG_REPORT          || \
     91                                                  (cmd) == ZCL_CMD_READ_REPORT_CFG        || \
     92                                                  (cmd) == ZCL_CMD_DISCOVER_ATTRS         || \
     93                                                  (cmd) == ZCL_CMD_DISCOVER_CMDS_RECEIVED || \
     94                                                  (cmd) == ZCL_CMD_DISCOVER_CMDS_GEN      || \
     95                                                  (cmd) == ZCL_CMD_DISCOVER_ATTRS_EXT     || \
     96                                                  (cmd) == ZCL_CMD_DEFAULT_RSP ) // exception
     97          #define  ZCL_VALID_MIN_HEADER_LEN  3
     98          
     99          /*********************************************************************
    100           * CONSTANTS
    101           */
    102          
    103          /*********************************************************************
    104           * TYPEDEFS
    105           */
    106          typedef struct zclLibPlugin
    107          {
    108            struct zclLibPlugin *next;
    109            uint16              startClusterID;    // starting cluster ID
    110            uint16              endClusterID;      // ending cluster ID
    111            zclInHdlr_t         pfnIncomingHdlr;    // function to handle incoming message
    112          } zclLibPlugin_t;
    113          
    114          // Command record list
    115          typedef struct zclCmdRecsList
    116          {
    117            struct zclCmdRecsList *pNext;
    118            uint8                 endpoint;
    119            uint8                 numCommands;
    120            CONST zclCommandRec_t *pCmdRecs;
    121          } zclCmdRecsList_t;
    122          
    123          
    124          // Cluster option list item
    125          typedef struct zclClusterOptionList
    126          {
    127            struct zclClusterOptionList *next;
    128            uint8                       endpoint;   // Used to link it into the endpoint descriptor
    129            uint8                       numOptions; // Number of the following records
    130            zclOptionRec_t              *options;   // option records
    131          } zclClusterOptionList;
    132          
    133          typedef void *(*zclParseInProfileCmd_t)( zclParseCmd_t *pCmd );
    134          typedef uint8 (*zclProcessInProfileCmd_t)( zclIncoming_t *pInMsg );
    135          
    136          typedef struct
    137          {
    138            zclParseInProfileCmd_t   pfnParseInProfile;
    139            zclProcessInProfileCmd_t pfnProcessInProfile;
    140          } zclCmdItems_t;
    141          
    142          
    143          // List record for external handler for unhandled ZCL Foundation commands/rsps
    144          typedef struct zclExternalFoundationHandlerList
    145          {
    146              struct zclExternalFoundationHandlerList *next;
    147              uint8 zcl_ExternalTaskID;
    148              uint8 zcl_ExternalEndPoint;
    149          } zclExternalFoundationHandlerList;
    150          
    151          
    152          /*********************************************************************
    153           * GLOBAL VARIABLES
    154           */
    155          
    156          #if !defined ( ZCL_STANDALONE )

   \                                 In  segment XDATA_Z, align 1, keep-with-next
    157            uint8 zcl_TaskID;
   \                     zcl_TaskID:
   \   000000                DS 1
   \   000001                REQUIRE __INIT_XDATA_Z
    158          #endif
    159          
    160          // The Application should register its attribute data validation function

   \                                 In  segment XDATA_Z, align 1, keep-with-next
    161          zclValidateAttrData_t zcl_ValidateAttrDataCB = (zclValidateAttrData_t)NULL;
   \                     zcl_ValidateAttrDataCB:
   \   000000                DS 2
   \   000002                REQUIRE __INIT_XDATA_Z
    162          
    163          // ZCL Sequence number
    164          //uint8 zcl_SeqNum = 0x00;  //Not longer used, refer to bdb_getZCLFrameCounter() in bdb_interface.h

   \                                 In  segment XDATA_Z, align 1, keep-with-next
    165          uint8 zcl_InSeqNum = 0x00;
   \                     zcl_InSeqNum:
   \   000000                DS 1
   \   000001                REQUIRE __INIT_XDATA_Z
    166          

   \                                 In  segment XDATA_Z, align 1, keep-with-next
    167          uint8 zcl_TransID = 0;  // This is the unique message ID (counter)
   \                     zcl_TransID:
   \   000000                DS 1
   \   000001                REQUIRE __INIT_XDATA_Z
    168          

   \                                 In  segment XDATA_Z, align 1, keep-with-next
    169          static uint8 savedZCLTransSeqNum = 0;
   \                     savedZCLTransSeqNum:
   \   000000                DS 1
   \   000001                REQUIRE __INIT_XDATA_Z
    170          
    171          /*********************************************************************
    172           * EXTERNAL VARIABLES
    173           */
    174          
    175          /*********************************************************************
    176           * EXTERNAL FUNCTIONS
    177           */
    178          
    179          /*********************************************************************
    180           * LOCAL VARIABLES
    181           */

   \                                 In  segment XDATA_Z, align 1, keep-with-next
    182          static zclLibPlugin_t *plugins = (zclLibPlugin_t *)NULL;
   \                     plugins:
   \   000000                DS 2
   \   000002                REQUIRE __INIT_XDATA_Z
    183          
    184          #if defined ( ZCL_DISCOVER )

   \                                 In  segment XDATA_Z, align 1, keep-with-next
    185            static zclCmdRecsList_t *gpCmdList = (zclCmdRecsList_t *)NULL;
   \                     gpCmdList:
   \   000000                DS 2
   \   000002                REQUIRE __INIT_XDATA_Z
    186          #endif
    187          

   \                                 In  segment XDATA_Z, align 1, keep-with-next
    188          static zclAttrRecsList *attrList = (zclAttrRecsList *)NULL;
   \                     attrList:
   \   000000                DS 2
   \   000002                REQUIRE __INIT_XDATA_Z

   \                                 In  segment XDATA_Z, align 1, keep-with-next
    189          static zclClusterOptionList *clusterOptionList = (zclClusterOptionList *)NULL;
   \                     clusterOptionList:
   \   000000                DS 2
   \   000002                REQUIRE __INIT_XDATA_Z
    190          

   \                                 In  segment XDATA_Z, align 1, keep-with-next
    191          static afIncomingMSGPacket_t *rawAFMsg = (afIncomingMSGPacket_t *)NULL;
   \                     rawAFMsg:
   \   000000                DS 2
   \   000002                REQUIRE __INIT_XDATA_Z
    192          
    193          #if !defined ( ZCL_STANDALONE )

   \                                 In  segment XDATA_Z, align 1, keep-with-next
    194          static zclExternalFoundationHandlerList *externalEndPointHandlerList = (zclExternalFoundationHandlerList *)NULL;
   \                     externalEndPointHandlerList:
   \   000000                DS 2
   \   000002                REQUIRE __INIT_XDATA_Z
    195          #endif
    196          
    197          /*********************************************************************
    198           * LOCAL FUNCTIONS
    199           */
    200          static uint8 *zclBuildHdr( zclFrameHdr_t *hdr, uint8 *pData );
    201          static uint8 zclCalcHdrSize( zclFrameHdr_t *hdr );
    202          static zclLibPlugin_t *zclFindPlugin( uint16 clusterID, uint16 profileID );
    203          
    204          #if !defined ( ZCL_STANDALONE )
    205          static uint8 zcl_addExternalFoundationHandler( uint8 taskId, uint8 endPointId );
    206          static uint8 zcl_getExternalFoundationHandler( afIncomingMSGPacket_t *pInMsg );
    207          #endif // !defined ( ZCL_STANDALONE )
    208          
    209          #if defined ( ZCL_DISCOVER )
    210            static zclCmdRecsList_t *zclFindCmdRecsList( uint8 endpoint );
    211          #endif
    212          
    213          zclAttrRecsList *zclFindAttrRecsList( uint8 endpoint );
    214          static zclOptionRec_t *zclFindClusterOption( uint8 endpoint, uint16 clusterID );
    215          static uint8 zclGetClusterOption( uint8 endpoint, uint16 clusterID );
    216          static void zclSetSecurityOption( uint8 endpoint, uint16 clusterID, uint8 enable );
    217          
    218          static uint8 zcl_DeviceOperational( uint8 srcEP, uint16 clusterID, uint8 frameType, uint8 cmd, uint16 profileID );
    219          
    220          #if defined ( ZCL_READ ) || defined ( ZCL_WRITE )
    221          static zclReadWriteCB_t zclGetReadWriteCB( uint8 endpoint );
    222          static zclAuthorizeCB_t zclGetAuthorizeCB( uint8 endpoint );
    223          #endif // ZCL_READ || ZCL_WRITE
    224          
    225          #ifdef ZCL_READ
    226          ZStatus_t zclReadAttrData( uint8 *pAttrData, zclAttrRec_t *pAttr, uint16 *pDataLen );
    227          static uint16 zclGetAttrDataLengthUsingCB( uint8 endpoint, uint16 clusterID, uint16 attrId );
    228          static ZStatus_t zclReadAttrDataUsingCB( uint8 endpoint, uint16 clusterId, uint16 attrId,
    229                                                   uint8 *pAttrData, uint16 *pDataLen );
    230          static ZStatus_t zclAuthorizeRead( uint8 endpoint, afAddrType_t *srcAddr, zclAttrRec_t *pAttr );
    231          static void *zclParseInReadRspCmd( zclParseCmd_t *pCmd );
    232          static uint8 zclProcessInReadCmd( zclIncoming_t *pInMsg );
    233          #endif // ZCL_READ
    234          
    235          #ifdef ZCL_WRITE
    236          static ZStatus_t zclWriteAttrData( uint8 endpoint, afAddrType_t *srcAddr,
    237                                             zclAttrRec_t *pAttr, zclWriteRec_t *pWriteRec );
    238          static ZStatus_t zclWriteAttrDataUsingCB( uint8 endpoint, afAddrType_t *srcAddr,
    239                                                    zclAttrRec_t *pAttr, uint8 *pAttrData );
    240          static ZStatus_t zclAuthorizeWrite( uint8 endpoint, afAddrType_t *srcAddr, zclAttrRec_t *pAttr );
    241          static void *zclParseInWriteRspCmd( zclParseCmd_t *pCmd );
    242          static uint8 zclProcessInWriteCmd( zclIncoming_t *pInMsg );
    243          static uint8 zclProcessInWriteUndividedCmd( zclIncoming_t *pInMsg );
    244          #endif // ZCL_WRITE
    245          
    246          #ifdef ZCL_REPORT_CONFIGURING_DEVICE
    247          static void *zclParseInConfigReportRspCmd( zclParseCmd_t *pCmd );
    248          static void *zclParseInReadReportCfgRspCmd( zclParseCmd_t *pCmd );
    249          #endif
    250          
    251          static void *zclParseInDefaultRspCmd( zclParseCmd_t *pCmd );
    252          
    253          #ifdef ZCL_DISCOVER
    254          static uint8 zclFindNextCmdRec( uint8 endpoint, uint16 clusterID, uint8 commandID, uint8 direction, uint8 *pCmdID, zclCommandRec_t *pCmd );
    255          static uint8 zclFindNextAttrRec( uint8 endpoint, uint16 clusterID, uint8 direction, uint16 *attrId, zclAttrRec_t *pAttr );
    256          static void *zclParseInDiscCmdsRspCmd( zclParseCmd_t *pCmd );
    257          static void *zclParseInDiscAttrsRspCmd( zclParseCmd_t *pCmd );
    258          static void *zclParseInDiscAttrsExtRspCmd( zclParseCmd_t *pCmd );
    259          static uint8 zclProcessInDiscCmd( zclIncoming_t *pInMsg );
    260          static uint8 zclProcessInDiscAttrs( zclIncoming_t *pInMsg );
    261          static void zclProcessInDiscAttrsCmd( zclIncoming_t *pInMsg, zclDiscoverAttrsCmd_t *pDiscoverCmd, uint8 attrLenBuf );
    262          static void zclProcessInDiscAttrsExtCmd( zclIncoming_t *pInMsg, zclDiscoverAttrsCmd_t *pDiscoverCmd, uint8 attrLenBuf );
    263          #endif // ZCL_DISCOVER
    264          
    265          /*********************************************************************
    266           * Parse Profile Command Function Table
    267           */
    268          

   \                                 In  segment CODE_C, align 1
    269          static CONST zclCmdItems_t zclCmdTable[] =
   \                     zclCmdTable:
   \   000000   ....         DW `??zclParseInReadCmd::?relay`
   \   000002   ....         DW `??zclProcessInReadCmd::?relay`
   \   000004   ....         DW `??zclParseInReadRspCmd::?relay`
   \   000006   ....         DW `??zcl_HandleExternal::?relay`
   \   000008   ....         DW `??zclParseInWriteCmd::?relay`
   \   00000A   ....         DW `??zclProcessInWriteCmd::?relay`
   \   00000C   ....         DW `??zclParseInWriteCmd::?relay`
   \   00000E   ....         DW `??zclProcessInWriteUndividedCmd::?relay`
   \   000010   ....         DW `??zclParseInWriteRspCmd::?relay`
   \   000012   ....         DW `??zcl_HandleExternal::?relay`
   \   000014   ....         DW `??zclParseInWriteCmd::?relay`
   \   000016   ....         DW `??zclProcessInWriteCmd::?relay`
   \   000018   ....         DW `??zclParseInConfigReportCmd::?relay`
   \   00001A   ....         DW `??zcl_HandleExternal::?relay`
   \   00001C   0000         DW 0H
   \   00001E   0000         DW 0H
   \   000020   ....         DW `??zclParseInReadReportCfgCmd::?relay`
   \   000022   ....         DW `??zcl_HandleExternal::?relay`
   \   000024   0000         DW 0H
   \   000026   0000         DW 0H
   \   000028   0000         DW 0H
   \   00002A   0000         DW 0H
   \   00002C   ....         DW `??zclParseInDefaultRspCmd::?relay`
   \   00002E   ....         DW `??zcl_HandleExternal::?relay`
   \   000030   ....         DW `??zclParseInDiscAttrsCmd::?relay`
   \   000032   ....         DW `??zclProcessInDiscAttrs::?relay`
   \   000034   ....         DW `??zclParseInDiscAttrsRspCmd::?relay`
   \   000036   ....         DW `??zcl_HandleExternal::?relay`
   \   000038   0000         DW 0H
   \   00003A   0000         DW 0H
   \   00003C   0000         DW 0H
   \   00003E   0000         DW 0H
   \   000040   0000         DW 0H
   \   000042   0000         DW 0H
   \   000044   ....         DW `??zclParseInDiscCmdsCmd::?relay`
   \   000046   ....         DW `??zclProcessInDiscCmd::?relay`
   \   000048   ....         DW `??zclParseInDiscCmdsRspCmd::?relay`
   \   00004A   ....         DW `??zcl_HandleExternal::?relay`
   \   00004C   ....         DW `??zclParseInDiscCmdsCmd::?relay`
   \   00004E   ....         DW `??zclProcessInDiscCmd::?relay`
   \   000050   ....         DW `??zclParseInDiscCmdsRspCmd::?relay`
   \   000052   ....         DW `??zcl_HandleExternal::?relay`
   \   000054   ....         DW `??zclParseInDiscAttrsCmd::?relay`
   \   000056   ....         DW `??zclProcessInDiscAttrs::?relay`
   \   000058   ....         DW `??zclParseInDiscAttrsExtRspCmd::?relay`
   \   00005A   ....         DW `??zcl_HandleExternal::?relay`
    270          {
    271          #ifdef ZCL_READ
    272            /* ZCL_CMD_READ */                { zclParseInReadCmd,             zclProcessInReadCmd             },
    273            /* ZCL_CMD_READ_RSP */            { zclParseInReadRspCmd,          zcl_HandleExternal              },
    274          #else
    275            /* ZCL_CMD_READ */                { (zclParseInProfileCmd_t)NULL,  (zclProcessInProfileCmd_t)NULL  },
    276            /* ZCL_CMD_READ_RSP */            { (zclParseInProfileCmd_t)NULL,  (zclProcessInProfileCmd_t)NULL  },
    277          #endif // ZCL_READ
    278          
    279          #ifdef ZCL_WRITE
    280            /* ZCL_CMD_WRITE */               { zclParseInWriteCmd,            zclProcessInWriteCmd            },
    281            /* ZCL_CMD_WRITE_UNDIVIDED */     { zclParseInWriteCmd,            zclProcessInWriteUndividedCmd   },
    282            /* ZCL_CMD_WRITE_RSP */           { zclParseInWriteRspCmd,         zcl_HandleExternal              },
    283            /* ZCL_CMD_WRITE_NO_RSP */        { zclParseInWriteCmd,            zclProcessInWriteCmd            },
    284          #else
    285            /* ZCL_CMD_WRITE */               { (zclParseInProfileCmd_t)NULL,  (zclProcessInProfileCmd_t)NULL  },
    286            /* ZCL_CMD_WRITE_UNDIVIDED */     { (zclParseInProfileCmd_t)NULL,  (zclProcessInProfileCmd_t)NULL  },
    287            /* ZCL_CMD_WRITE_RSP */           { (zclParseInProfileCmd_t)NULL,  (zclProcessInProfileCmd_t)NULL  },
    288            /* ZCL_CMD_WRITE_NO_RSP */        { (zclParseInProfileCmd_t)NULL,  (zclProcessInProfileCmd_t)NULL  },
    289          #endif // ZCL_WRITE
    290          
    291          #ifdef ZCL_REPORTING_DEVICE
    292              /* ZCL_CMD_CONFIG_REPORT */       { zclParseInConfigReportCmd,     zcl_HandleExternal              },
    293          #else
    294              /* ZCL_CMD_CONFIG_REPORT */       { (zclParseInProfileCmd_t)NULL,  (zclProcessInProfileCmd_t)NULL  },
    295          #endif
    296          
    297          #ifdef ZCL_REPORT_CONFIGURING_DEVICE
    298              /* ZCL_CMD_CONFIG_REPORT_RSP */   { zclParseInConfigReportRspCmd,  zcl_HandleExternal              },
    299          #else
    300              /* ZCL_CMD_CONFIG_REPORT_RSP */   { (zclParseInProfileCmd_t)NULL,  (zclProcessInProfileCmd_t)NULL  },
    301          #endif
    302          
    303          #ifdef ZCL_REPORTING_DEVICE
    304              /* ZCL_CMD_READ_REPORT_CFG */     { zclParseInReadReportCfgCmd,    zcl_HandleExternal              },
    305          #else
    306              /* ZCL_CMD_READ_REPORT_CFG */     { (zclParseInProfileCmd_t)NULL,  (zclProcessInProfileCmd_t)NULL  },
    307          #endif
    308          
    309          #ifdef ZCL_REPORT_CONFIGURING_DEVICE
    310              /* ZCL_CMD_READ_REPORT_CFG_RSP */ { zclParseInReadReportCfgRspCmd, zcl_HandleExternal              },
    311          #else
    312              /* ZCL_CMD_READ_REPORT_CFG_RSP */ { (zclParseInProfileCmd_t)NULL,  (zclProcessInProfileCmd_t)NULL  },
    313          #endif
    314          
    315          #ifdef ZCL_REPORT_DESTINATION_DEVICE
    316              /* ZCL_CMD_REPORT */              { zclParseInReportCmd,           zcl_HandleExternal              },
    317          #else
    318              /* ZCL_CMD_REPORT */              { (zclParseInProfileCmd_t)NULL,  (zclProcessInProfileCmd_t)NULL  },
    319          #endif
    320          
    321            /* ZCL_CMD_DEFAULT_RSP */         { zclParseInDefaultRspCmd,       zcl_HandleExternal              },
    322          
    323          #ifdef ZCL_DISCOVER
    324            /* ZCL_CMD_DISCOVER_ATTRS */                { zclParseInDiscAttrsCmd,         zclProcessInDiscAttrs           },
    325            /* ZCL_CMD_DISCOVER_ATTRS_RSP */            { zclParseInDiscAttrsRspCmd,      zcl_HandleExternal              },
    326            /* *not supported* READ_ATTRS_STRCT */      { NULL,                           (zclProcessInProfileCmd_t)NULL  },
    327            /* *not supported* WRITE_ATTRS_STRCT */     { NULL,                           (zclProcessInProfileCmd_t)NULL  },
    328            /* *not supported* WRITE_ATTRS_STRCT_RSP */ { NULL,                           (zclProcessInProfileCmd_t)NULL  },
    329            /* ZCL_CMD_DISCOVER_CMDS_RECEIVED */        { zclParseInDiscCmdsCmd,          zclProcessInDiscCmd             },
    330            /* ZCL_CMD_DISCOVER_CMDS_RECEIVED_RSP */    { zclParseInDiscCmdsRspCmd,       zcl_HandleExternal              },
    331            /* ZCL_CMD_DISCOVER_CMDS_GEN */             { zclParseInDiscCmdsCmd,          zclProcessInDiscCmd             },
    332            /* ZCL_CMD_DISCOVER_CMDS_GEN_RSP */         { zclParseInDiscCmdsRspCmd,       zcl_HandleExternal              },
    333            /* ZCL_CMD_DISCOVER_ATTRS_EXT */            { zclParseInDiscAttrsCmd,         zclProcessInDiscAttrs           },
    334            /* ZCL_CMD_DISCOVER_ATTRS_EXT_RSP */        { zclParseInDiscAttrsExtRspCmd,   zcl_HandleExternal              },
    335          #else
    336            /* ZCL_CMD_DISCOVER_ATTRS */                { (zclParseInProfileCmd_t)NULL,    (zclProcessInProfileCmd_t)NULL  },
    337            /* ZCL_CMD_DISCOVER_ATTRS_RSP */            { (zclParseInProfileCmd_t)NULL,   (zclProcessInProfileCmd_t)NULL  },
    338            /* *not supported* READ_ATTRS_STRCT */      { (zclParseInProfileCmd_t)NULL,   (zclProcessInProfileCmd_t)NULL  },
    339            /* *not supported* WRITE_ATTRS_STRCT */     { (zclParseInProfileCmd_t)NULL,   (zclProcessInProfileCmd_t)NULL  },
    340            /* *not supported* WRITE_ATTRS_STRCT_RSP */ { (zclParseInProfileCmd_t)NULL,   (zclProcessInProfileCmd_t)NULL  },
    341            /* ZCL_CMD_DISCOVER_CMDS_RECEIVED */        { (zclParseInProfileCmd_t)NULL,   (zclProcessInProfileCmd_t)NULL  },
    342            /* ZCL_CMD_DISCOVER_CMDS_RECEIVED_RSP */    { (zclParseInProfileCmd_t)NULL,   (zclProcessInProfileCmd_t)NULL  },
    343            /* ZCL_CMD_DISCOVER_CMDS_GEN */             { (zclParseInProfileCmd_t)NULL,   (zclProcessInProfileCmd_t)NULL  },
    344            /* ZCL_CMD_DISCOVER_CMDS_GEN_RSP */         { (zclParseInProfileCmd_t)NULL,   (zclProcessInProfileCmd_t)NULL  },
    345            /* ZCL_CMD_DISCOVER_ATTRS_EXT */            { (zclParseInProfileCmd_t)NULL,   (zclProcessInProfileCmd_t)NULL  },
    346            /* ZCL_CMD_DISCOVER_ATTRS_EXT_RSP */        { (zclParseInProfileCmd_t)NULL,   (zclProcessInProfileCmd_t)NULL  },
    347          #endif // ZCL_DISCOVER
    348          };
    349          
    350          /*********************************************************************
    351           * PUBLIC FUNCTIONS
    352           *********************************************************************/
    353          
    354          #if !defined ( ZCL_STANDALONE )
    355          /*********************************************************************
    356           * @fn          zcl_Init
    357           *
    358           * @brief       Initialization function for the zcl layer.
    359           *
    360           * @param       task_id - ZCL task id
    361           *
    362           * @return      none
    363           */

   \                                 In  segment BANKED_CODE, align 1, keep-with-next
    364          void zcl_Init( uint8 task_id )
   \                     zcl_Init:
    365          {
   \   000000   C082         PUSH      DPL
   \   000002   C083         PUSH      DPH
   \   000004                ; Saved register size: 2
   \   000004                ; Auto size: 0
    366            zcl_TaskID = task_id;
   \   000004   E9           MOV       A,R1
   \   000005   90....       MOV       DPTR,#zcl_TaskID
   \   000008   F0           MOVX      @DPTR,A
    367          }
   \   000009   02....       LJMP      ?Subroutine0 & 0xFFFF

   \                                 In  segment BANKED_CODE, align 1, keep-with-next
   \                     ?Subroutine0:
   \   000000   D083         POP       DPH
   \   000002   D082         POP       DPL
   \   000004   02....       LJMP      ?BRET
    368          #endif
    369          
    370          #if !defined ( ZCL_STANDALONE )
    371          /*********************************************************************
    372           * @fn          zcl_event_loop
    373           *
    374           * @brief       Event Loop Processor for zcl.
    375           *
    376           * @param       task_id - task id
    377           * @param       events - event bitmap
    378           *
    379           * @return      unprocessed events
    380           */

   \                                 In  segment BANKED_CODE, align 1, keep-with-next
    381          uint16 zcl_event_loop( uint8 task_id, uint16 events )
   \                     zcl_event_loop:
    382          {
   \   000000                REQUIRE ?V0
   \   000000                REQUIRE ?V1
   \   000000                REQUIRE ?V2
   \   000000                REQUIRE ?V3
   \   000000                REQUIRE ?V4
   \   000000                REQUIRE ?V5
   \   000000                REQUIRE ?V6
   \   000000                REQUIRE ?V7
   \   000000                REQUIRE ?V8
   \   000000                REQUIRE ?V9
   \   000000   74EE         MOV       A,#-0x12
   \   000002   12....       LCALL     ?BANKED_ENTER_XDATA
   \   000005                ; Saved register size: 18
   \   000005                ; Auto size: 0
   \   000005   8A..         MOV       ?V0,R2
   \   000007   8B..         MOV       ?V1,R3
    383            uint8 *msgPtr;
    384          
    385            (void)task_id;  // Intentionally unreferenced parameter
    386          
    387            if ( events & SYS_EVENT_MSG )
   \   000009   EB           MOV       A,R3
   \   00000A   5480         ANL       A,#0x80
   \   00000C   604E         JZ        ??zcl_event_loop_0
    388            {
    389              msgPtr = osal_msg_receive( zcl_TaskID );
   \   00000E                ; Setup parameters for call to function osal_msg_receive
   \   00000E   800E         SJMP      ??zcl_event_loop_1
    390              while ( msgPtr != NULL )
    391              {
    392                uint8 dealloc = TRUE;
    393          
    394                if ( *msgPtr == AF_INCOMING_MSG_CMD )
    395                {
    396                  zcl_ProcessMessageMSG( (afIncomingMSGPacket_t *)msgPtr );
   \                     ??zcl_event_loop_2:
   \   000010                ; Setup parameters for call to function zcl_ProcessMessageMSG
   \   000010   EE           MOV       A,R6
   \   000011   FA           MOV       R2,A
   \   000012   EF           MOV       A,R7
   \   000013   FB           MOV       R3,A
   \   000014   12....       LCALL     `??zcl_ProcessMessageMSG::?relay`; Banked call to: zcl_ProcessMessageMSG
    397                }
    398                else
    399                {
    400                  uint8 taskID;
    401                  taskID = zcl_getExternalFoundationHandler( (afIncomingMSGPacket_t *)msgPtr );
    402          
    403                  if ( taskID != TASK_NO_TASK )
    404                  {
    405                    // send it to another task to process.
    406                    osal_msg_send( taskID, msgPtr );
    407                    dealloc = FALSE;
    408                  }
    409                }
    410          
    411                // Release the memory
    412                if ( dealloc )
    413                {
    414                  osal_msg_deallocate( msgPtr );
   \                     ??zcl_event_loop_3:
   \   000017                ; Setup parameters for call to function osal_msg_deallocate
   \   000017   EE           MOV       A,R6
   \   000018   FA           MOV       R2,A
   \   000019   EF           MOV       A,R7
   \   00001A   FB           MOV       R3,A
   \   00001B   12....       LCALL     `??osal_msg_deallocate::?relay`; Banked call to: osal_msg_deallocate
    415                }
    416          
    417                // Next
    418                msgPtr = osal_msg_receive( zcl_TaskID );
   \                     ??zcl_event_loop_1:
   \   00001E                ; Setup parameters for call to function osal_msg_receive
   \   00001E   90....       MOV       DPTR,#zcl_TaskID
   \   000021   E0           MOVX      A,@DPTR
   \   000022   F9           MOV       R1,A
   \   000023   12....       LCALL     `??osal_msg_receive::?relay`; Banked call to: osal_msg_receive
   \   000026   8A..         MOV       ?V2,R2
   \   000028   8B..         MOV       ?V3,R3
   \   00002A   AE..         MOV       R6,?V2
   \   00002C   AF..         MOV       R7,?V3
   \   00002E   EE           MOV       A,R6
   \   00002F   4F           ORL       A,R7
   \   000030   6020         JZ        ??zcl_event_loop_4
   \   000032   8E82         MOV       DPL,R6
   \   000034   8F83         MOV       DPH,R7
   \   000036   E0           MOVX      A,@DPTR
   \   000037   641A         XRL       A,#0x1a
   \   000039   60D5         JZ        ??zcl_event_loop_2
   \   00003B                ; Setup parameters for call to function zcl_getExternalFoundationHandler
   \   00003B   EE           MOV       A,R6
   \   00003C   FA           MOV       R2,A
   \   00003D   EF           MOV       A,R7
   \   00003E   FB           MOV       R3,A
   \   00003F   12....       LCALL     `??zcl_getExternalFoundationHandler::?relay`; Banked call to: zcl_getExternalFoundationHandler
   \   000042   E9           MOV       A,R1
   \   000043   F9           MOV       R1,A
   \   000044   74FF         MOV       A,#-0x1
   \   000046   69           XRL       A,R1
   \   000047   60CE         JZ        ??zcl_event_loop_3
   \   000049                ; Setup parameters for call to function osal_msg_send
   \   000049   EE           MOV       A,R6
   \   00004A   FA           MOV       R2,A
   \   00004B   EF           MOV       A,R7
   \   00004C   FB           MOV       R3,A
   \   00004D   12....       LCALL     `??osal_msg_send::?relay`; Banked call to: osal_msg_send
   \   000050   80CC         SJMP      ??zcl_event_loop_1
    419              }
    420          
    421              // return unprocessed events
    422              return (events ^ SYS_EVENT_MSG);
   \                     ??zcl_event_loop_4:
   \   000052   AA..         MOV       R2,?V0
   \   000054   E5..         MOV       A,?V1
   \   000056   6480         XRL       A,#0x80
   \   000058   FB           MOV       R3,A
   \   000059   02....       LJMP      ??zcl_event_loop_5 & 0xFFFF
    423            }
    424          
    425          #if !defined (DISABLE_GREENPOWER_BASIC_PROXY) && (ZG_BUILD_RTR_TYPE)
    426            if ( events & ZCL_DATABUF_SEND )
   \                     ??zcl_event_loop_0:
   \   00005C   EA           MOV       A,R2
   \   00005D   5420         ANL       A,#0x20
   \   00005F   7003         JNZ       $+5
   \   000061   02....       LJMP      ??zcl_event_loop_6 & 0xFFFF
    427            {
    428              gpNotificationMsg_t *gpNotification = NULL;
    429              gpCmdPayloadMsg_t *pCmdPayloadMsgCurr = NULL;
    430              uint8 appId;
    431              uint8 nwkSeqNum;
    432              uint16 nwkAddr;
    433              
    434              gpNotification = gp_GetHeadNotificationMsg( );
   \   000064                ; Setup parameters for call to function gp_GetHeadNotificationMsg
   \   000064   12....       LCALL     `??gp_GetHeadNotificationMsg::?relay`; Banked call to: gp_GetHeadNotificationMsg
   \   000067   8A..         MOV       ?V2,R2
   \   000069   8B..         MOV       ?V3,R3
    435              
    436              if ( gpNotification == NULL )
   \   00006B   EA           MOV       A,R2
   \   00006C   4B           ORL       A,R3
   \   00006D   7003         JNZ       $+5
   \   00006F   02....       LJMP      ??zcl_event_loop_6 & 0xFFFF
    437              {
    438                return 0;
    439              }
    440              
    441              pCmdPayloadMsgCurr = ( gpCmdPayloadMsg_t* ) gpNotification->pMsg ;
   \   000072   EA           MOV       A,R2
   \   000073   240D         ADD       A,#0xd
   \   000075   F582         MOV       DPL,A
   \   000077   E4           CLR       A
   \   000078   35..         ADDC      A,?V3
   \   00007A   F583         MOV       DPH,A
   \   00007C   12....       LCALL     ??Subroutine255_0 & 0xFFFF
    442              appId = PROXY_TBL_GET_APPLICTION_ID((uint16)*pCmdPayloadMsgCurr->pMsg);
   \                     ??CrossCallReturnLabel_594:
   \   00007F   EE           MOV       A,R6
   \   000080   2402         ADD       A,#0x2
   \   000082   12....       LCALL     ?Subroutine138 & 0xFFFF
   \                     ??CrossCallReturnLabel_246:
   \   000085   12....       LCALL     ?Subroutine123 & 0xFFFF
   \                     ??CrossCallReturnLabel_213:
   \   000088   E0           MOVX      A,@DPTR
   \   000089   5407         ANL       A,#0x7
   \   00008B   F8           MOV       R0,A
    443              
    444              // To save the NIB nwk sequense number and use the GP alias nwk sequence number
    445              // for the GP notification
    446              nwkSeqNum = _NIB.SequenceNum;
   \   00008C   90....       MOV       DPTR,#_NIB
   \   00008F   E0           MOVX      A,@DPTR
   \   000090   F5..         MOV       ?V7,A
    447              _NIB.SequenceNum = pCmdPayloadMsgCurr->secNum;
   \   000092   8E82         MOV       DPL,R6
   \   000094   8F83         MOV       DPH,R7
   \   000096   E0           MOVX      A,@DPTR
   \   000097   90....       MOV       DPTR,#_NIB
   \   00009A   F0           MOVX      @DPTR,A
    448              
    449              // To save the NIB nwk address and use the GP alias nwk address for the GP notification
    450              nwkAddr = _NIB.nwkDevAddress;
   \   00009B   90....       MOV       DPTR,#_NIB + 20
   \   00009E   12....       LCALL     ?Subroutine124 & 0xFFFF
    451              
    452              if( appId == GP_OPT_APP_ID_GPD )
   \                     ??CrossCallReturnLabel_215:
   \   0000A1   701C         JNZ       ??zcl_event_loop_7
    453              {
    454                osal_memcpy( &_NIB.nwkDevAddress,( pCmdPayloadMsgCurr->pMsg + sizeof( uint16 ) ), sizeof(uint16) );
   \   0000A3                ; Setup parameters for call to function osal_memcpy
   \   0000A3   85..82       MOV       DPL,?V0
   \   0000A6   85..83       MOV       DPH,?V1
   \   0000A9   E0           MOVX      A,@DPTR
   \   0000AA   2402         ADD       A,#0x2
   \   0000AC   12....       LCALL     ?Subroutine99 & 0xFFFF
    455              }
   \                     ??CrossCallReturnLabel_169:
   \   0000AF   12....       LCALL     ?PUSH_XSTACK_I_THREE
   \   0000B2   7C02         MOV       R4,#0x2
   \   0000B4   7D00         MOV       R5,#0x0
   \   0000B6   7A..         MOV       R2,#(_NIB + 20) & 0xff
   \   0000B8   7B..         MOV       R3,#((_NIB + 20) >> 8) & 0xff
   \   0000BA   12....       LCALL     `??osal_memcpy::?relay`; Banked call to: osal_memcpy
   \   0000BD   801F         SJMP      ??zcl_event_loop_8
    456              else if( appId == GP_OPT_APP_ID_IEEE )
   \                     ??zcl_event_loop_7:
   \   0000BF   7402         MOV       A,#0x2
   \   0000C1   68           XRL       A,R0
   \   0000C2   701F         JNZ       ??zcl_event_loop_9
    457              {
    458                osal_revmemcpy( &_NIB.nwkDevAddress,(pCmdPayloadMsgCurr->pMsg + Z_EXTADDR_LEN), sizeof(uint16) );
   \   0000C4                ; Setup parameters for call to function osal_revmemcpy
   \   0000C4   85..82       MOV       DPL,?V0
   \   0000C7   85..83       MOV       DPH,?V1
   \   0000CA   E0           MOVX      A,@DPTR
   \   0000CB   2408         ADD       A,#0x8
   \   0000CD   12....       LCALL     ?Subroutine99 & 0xFFFF
    459              }
   \                     ??CrossCallReturnLabel_170:
   \   0000D0   12....       LCALL     ?PUSH_XSTACK_I_THREE
   \   0000D3   7C02         MOV       R4,#0x2
   \   0000D5   7D00         MOV       R5,#0x0
   \   0000D7   7A..         MOV       R2,#(_NIB + 20) & 0xff
   \   0000D9   7B..         MOV       R3,#((_NIB + 20) >> 8) & 0xff
   \   0000DB   12....       LCALL     `??osal_revmemcpy::?relay`; Banked call to: osal_revmemcpy
   \                     ??zcl_event_loop_8:
   \   0000DE   7403         MOV       A,#0x3
   \   0000E0   12....       LCALL     ?DEALLOC_XSTACK8
    460              
    461              zcl_SendCommand( GREEN_POWER_INTERNAL_ENDPOINT, &gpNotification->addr, ZCL_CLUSTER_ID_GREEN_POWER,
    462                                    COMMAND_GP_NOTIFICATION, TRUE, ZCL_FRAME_CLIENT_SERVER_DIR,
    463                                    TRUE, 0,  bdb_getZCLFrameCounter(), pCmdPayloadMsgCurr->lenght, pCmdPayloadMsgCurr->pMsg );
   \                     ??zcl_event_loop_9:
   \   0000E3                ; Setup parameters for call to function bdb_getZCLFrameCounter
   \   0000E3   12....       LCALL     `??bdb_getZCLFrameCounter::?relay`; Banked call to: bdb_getZCLFrameCounter
   \   0000E6   E9           MOV       A,R1
   \   0000E7   F9           MOV       R1,A
   \   0000E8                ; Setup parameters for call to function zcl_SendCommand
   \   0000E8   85..82       MOV       DPL,?V0
   \   0000EB   85..83       MOV       DPH,?V1
   \   0000EE   12....       LCALL     ?PUSH_XSTACK8_X_TWO
   \   0000F1   8E82         MOV       DPL,R6
   \   0000F3   8F83         MOV       DPH,R7
   \   0000F5   A3           INC       DPTR
   \   0000F6   E0           MOVX      A,@DPTR
   \   0000F7   F5..         MOV       ?V0,A
   \   0000F9   75..00       MOV       ?V1,#0x0
   \   0000FC   78..         MOV       R0,#?V0
   \   0000FE   12....       LCALL     ?PUSH_XSTACK_I_TWO
   \   000101   E9           MOV       A,R1
   \   000102   F5..         MOV       ?V0,A
   \   000104   78..         MOV       R0,#?V0
   \   000106   12....       LCALL     ?PUSH_XSTACK_I_ONE
   \   000109   E4           CLR       A
   \   00010A   F5..         MOV       ?V0,A
   \   00010C   78..         MOV       R0,#?V0
   \   00010E   12....       LCALL     ?PUSH_XSTACK_I_TWO
   \   000111   75..01       MOV       ?V0,#0x1
   \   000114   78..         MOV       R0,#?V0
   \   000116   12....       LCALL     ?PUSH_XSTACK_I_ONE
   \   000119   75..00       MOV       ?V0,#0x0
   \   00011C   78..         MOV       R0,#?V0
   \   00011E   12....       LCALL     ?PUSH_XSTACK_I_ONE
   \   000121   75..01       MOV       ?V0,#0x1
   \   000124   78..         MOV       R0,#?V0
   \   000126   12....       LCALL     ?PUSH_XSTACK_I_ONE
   \   000129   75..00       MOV       ?V0,#0x0
   \   00012C   78..         MOV       R0,#?V0
   \   00012E   12....       LCALL     ?PUSH_XSTACK_I_ONE
   \   000131   7C21         MOV       R4,#0x21
   \   000133   7D00         MOV       R5,#0x0
   \   000135   AA..         MOV       R2,?V2
   \   000137   AB..         MOV       R3,?V3
   \   000139   79F2         MOV       R1,#-0xe
   \   00013B   12....       LCALL     ??Subroutine227_0 & 0xFFFF
   \                     ??CrossCallReturnLabel_417:
   \   00013E   12....       LCALL     ?DEALLOC_XSTACK8
    464              
    465              // Restore the NIB nwk sequence number
    466              _NIB.SequenceNum = nwkSeqNum;
   \   000141   E5..         MOV       A,?V7
   \   000143   90....       MOV       DPTR,#_NIB
   \   000146   F0           MOVX      @DPTR,A
    467              
    468              // Restore the NIB nwk address
    469              _NIB.nwkDevAddress = nwkAddr;
   \   000147   90....       MOV       DPTR,#_NIB + 20
   \   00014A   E5..         MOV       A,?V8
   \   00014C   F0           MOVX      @DPTR,A
   \   00014D   A3           INC       DPTR
   \   00014E   E5..         MOV       A,?V9
   \   000150   F0           MOVX      @DPTR,A
    470              
    471              gp_NotificationMsgClean( gp_GetPHeadNotification ( ) );
   \   000151                ; Setup parameters for call to function gp_GetPHeadNotification
   \   000151   12....       LCALL     `??gp_GetPHeadNotification::?relay`; Banked call to: gp_GetPHeadNotification
   \   000154                ; Setup parameters for call to function gp_NotificationMsgClean
   \   000154   12....       LCALL     `??gp_NotificationMsgClean::?relay`; Banked call to: gp_NotificationMsgClean
    472              
    473              if ( gp_GetHeadNotificationMsg ( ) != NULL )
   \   000157                ; Setup parameters for call to function gp_GetHeadNotificationMsg
   \   000157   12....       LCALL     `??gp_GetHeadNotificationMsg::?relay`; Banked call to: gp_GetHeadNotificationMsg
   \   00015A   EA           MOV       A,R2
   \   00015B   4B           ORL       A,R3
   \   00015C   6017         JZ        ??zcl_event_loop_6
    474              {
    475                osal_start_timerEx( zcl_TaskID, ZCL_DATABUF_SEND, 50 );
   \   00015E                ; Setup parameters for call to function osal_start_timerEx
   \   00015E   90....       MOV       DPTR,#__Constant_32
   \   000161   12....       LCALL     ?PUSH_XSTACK8_X_FOUR
   \   000164   7A20         MOV       R2,#0x20
   \   000166   7B00         MOV       R3,#0x0
   \   000168   90....       MOV       DPTR,#zcl_TaskID
   \   00016B   E0           MOVX      A,@DPTR
   \   00016C   F9           MOV       R1,A
   \   00016D   12....       LCALL     `??osal_start_timerEx::?relay`; Banked call to: osal_start_timerEx
   \   000170   7404         MOV       A,#0x4
   \   000172   12....       LCALL     ?DEALLOC_XSTACK8
    476              }
    477            }
    478          #endif
    479          
    480            // Discard unknown events
    481            return 0;
   \                     ??zcl_event_loop_6:
   \   000175   7A00         MOV       R2,#0x0
   \   000177   7B00         MOV       R3,#0x0
   \                     ??zcl_event_loop_5:
   \   000179   7F0A         MOV       R7,#0xa
   \   00017B   02....       LJMP      ?BANKED_LEAVE_XDATA
    482          }

   \                                 In  segment BANKED_CODE, align 1, keep-with-next
   \                     ?Subroutine99:
   \   000000   F5..         MOV       ?V4,A
   \   000002   A3           INC       DPTR
   \   000003   E0           MOVX      A,@DPTR
   \   000004   3400         ADDC      A,#0x0
   \   000006   F5..         MOV       ?V5,A
   \   000008   75..00       MOV       ?V6,#0x0
   \   00000B   78..         MOV       R0,#?V4
   \   00000D   22           RET

   \                                 In  segment BANKED_CODE, align 1, keep-with-next
   \                     ?Subroutine124:
   \   000000   E0           MOVX      A,@DPTR
   \   000001   F5..         MOV       ?V8,A
   \   000003   A3           INC       DPTR
   \   000004   E0           MOVX      A,@DPTR
   \   000005   F5..         MOV       ?V9,A
   \   000007   E8           MOV       A,R0
   \   000008   22           RET

   \                                 In  segment BANKED_CODE, align 1, keep-with-next
   \                     ??Subroutine227_0:
   \   000000   12....       LCALL     `??zcl_SendCommand::?relay`; Banked call to: zcl_SendCommand
   \   000003   740B         MOV       A,#0xb
   \   000005   22           RET

   \                                 In  segment BANKED_CODE, align 1, keep-with-next
   \                     ?Subroutine138:
   \   000000   F5..         MOV       ?V0,A
   \   000002   E4           CLR       A
   \   000003   3F           ADDC      A,R7
   \   000004   F5..         MOV       ?V1,A
   \   000006                ; Setup parameters for call to function afFindEndPointDesc
   \   000006   85..82       MOV       DPL,?V0
   \   000009   F583         MOV       DPH,A
   \   00000B   22           RET

   \                                 In  segment BANKED_CODE, align 1, keep-with-next
   \                     ?Subroutine209:
   \   000000   E0           MOVX      A,@DPTR
   \   000001   F8           MOV       R0,A
   \   000002   A3           INC       DPTR
   \   000003   E0           MOVX      A,@DPTR
   \   000004   22           RET

   \                                 In  segment BANKED_CODE, align 1, keep-with-next
   \                     ??Subroutine255_0:
   \   000000   E0           MOVX      A,@DPTR
   \   000001   FE           MOV       R6,A
   \   000002   A3           INC       DPTR
   \   000003   E0           MOVX      A,@DPTR
   \   000004   FF           MOV       R7,A
   \   000005   22           RET

   \                                 In  segment BANKED_CODE, align 1, keep-with-next
   \                     ?Subroutine123:
   \   000000   12....       LCALL     ?Subroutine173 & 0xFFFF
   \                     ??CrossCallReturnLabel_305:
   \   000003   22           RET

   \                                 In  segment BANKED_CODE, align 1, keep-with-next
   \                     ?Subroutine173:
   \   000000   12....       LCALL     ?Subroutine209 & 0xFFFF
   \                     ??CrossCallReturnLabel_577:
   \   000003   F583         MOV       DPH,A
   \   000005   8882         MOV       DPL,R0
   \   000007   22           RET
    483          #endif
    484          
    485          #if !defined ( ZCL_STANDALONE )
    486          /*********************************************************************
    487           * @fn      zcl_registerForMsg
    488           *
    489           * @brief   The ZCL is setup to send all incoming Foundation Command/Response
    490           *          messages that aren't processed to one task (if a task is
    491           *          registered).
    492           *
    493           * @param   taskId - task Id of the Application where commands will be sent to
    494           *
    495           * @return  TRUE if task registeration successful, FALSE otherwise
    496           *********************************************************************/

   \                                 In  segment BANKED_CODE, align 1, keep-with-next
    497          uint8 zcl_registerForMsg( uint8 taskId )
   \                     zcl_registerForMsg:
    498          {
   \   000000   74F7         MOV       A,#-0x9
   \   000002   12....       LCALL     ?BANKED_ENTER_XDATA
   \   000005                ; Saved register size: 9
   \   000005                ; Auto size: 0
    499            return zcl_addExternalFoundationHandler( taskId, AF_BROADCAST_ENDPOINT );
   \   000005                ; Setup parameters for call to function zcl_addExternalFoundationHandler
   \   000005   7AFF         MOV       R2,#-0x1
   \   000007   02....       LJMP      ?Subroutine1 & 0xFFFF
    500          }

   \                                 In  segment BANKED_CODE, align 1, keep-with-next
   \                     ?Subroutine1:
   \   000000   12....       LCALL     `??zcl_addExternalFoundationHandler::?relay`; Banked call to: zcl_addExternalFoundationHandler
   \   000003                REQUIRE ??Subroutine236_0
   \   000003                ; // Fall through to label ??Subroutine236_0

   \                                 In  segment BANKED_CODE, align 1, keep-with-next
   \                     ??Subroutine236_0:
   \   000000   7F01         MOV       R7,#0x1
   \   000002   02....       LJMP      ?BANKED_LEAVE_XDATA
    501          
    502          /*********************************************************************
    503           * @fn      zcl_registerForMsgExt
    504           *
    505           * @brief   This function enables a Task to register to recieve all
    506           *          incoming Foundation Command/Response messages, for a particular
    507           *          End Point, that aren't processed by ZCL.
    508           *
    509           *          NOTE: Any Task registered for a unique end point will take
    510           *          priority over any Task registered with the AF_BROADCAST_ENDPOINT
    511           *          value.  ie. If task A registers for End Point 1, task B registers
    512           *          for AF_BROADCAST_ENDPOINT,  commands addressed to End Point 1 will be
    513           *          sent to Task A and NOT Task B.
    514           *
    515           * @param   taskId - task Id of the Application where commands will be sent to
    516           * @param   endPointId - end point Id of interest
    517           *
    518           * @return  TRUE if task registeration successful, FALSE otherwise
    519           *********************************************************************/

   \                                 In  segment BANKED_CODE, align 1, keep-with-next
    520          uint8 zcl_registerForMsgExt( uint8 taskId, uint8 endPointId  )
   \                     zcl_registerForMsgExt:
    521          {
   \   000000   74F7         MOV       A,#-0x9
   \   000002   12....       LCALL     ?BANKED_ENTER_XDATA
   \   000005                ; Saved register size: 9
   \   000005                ; Auto size: 0
    522            return ( zcl_addExternalFoundationHandler( taskId, endPointId  ) );
   \   000005                ; Setup parameters for call to function zcl_addExternalFoundationHandler
   \   000005   02....       LJMP      ?Subroutine1 & 0xFFFF
    523          }
    524          
    525          /*********************************************************************
    526           * @fn      zcl_addExternalFoundationHandler
    527           *
    528           * @brief   This function adds a record to the internal list of external
    529           *          handlers of unhandled incoming Foundation Command/Response messages.
    530           *
    531           * @param   taskId - task Id of the Application where commands will be sent to
    532           * @param   endPointId - end point Id of interest
    533           *
    534           * @return  TRUE if task registeration successful, FALSE otherwise
    535           *********************************************************************/

   \                                 In  segment BANKED_CODE, align 1, keep-with-next
    536          uint8 zcl_addExternalFoundationHandler( uint8 taskId, uint8 endPointId  )
   \                     zcl_addExternalFoundationHandler:
    537          {
   \   000000                REQUIRE ?V0
   \   000000                REQUIRE ?V1
   \   000000   74F6         MOV       A,#-0xa
   \   000002   12....       LCALL     ?BANKED_ENTER_XDATA
   \   000005                ; Saved register size: 10
   \   000005                ; Auto size: 0
   \   000005   E9           MOV       A,R1
   \   000006   FE           MOV       R6,A
   \   000007   EA           MOV       A,R2
   \   000008   FF           MOV       R7,A
    538            zclExternalFoundationHandlerList *pNewItem;
    539            zclExternalFoundationHandlerList *pLoop;
    540            zclExternalFoundationHandlerList *pLoopPrev;
    541          
    542            // Fill in the new endpoint registrant list
    543            pNewItem = zcl_mem_alloc( sizeof( zclExternalFoundationHandlerList ) );
   \   000009                ; Setup parameters for call to function osal_mem_alloc
   \   000009   7A04         MOV       R2,#0x4
   \   00000B   12....       LCALL     ?Subroutine143 & 0xFFFF
    544            if ( pNewItem == NULL )
   \                     ??CrossCallReturnLabel_552:
   \   00000E   6038         JZ        ??zcl_addExternalFoundationHandler_0
    545            {
    546              return ( false );
    547            }
    548          
    549            pNewItem->zcl_ExternalEndPoint = endPointId;
   \   000010   EF           MOV       A,R7
   \   000011   8A82         MOV       DPL,R2
   \   000013   8B83         MOV       DPH,R3
   \   000015   A3           INC       DPTR
   \   000016   A3           INC       DPTR
   \   000017   A3           INC       DPTR
   \   000018   F0           MOVX      @DPTR,A
    550            pNewItem->zcl_ExternalTaskID = taskId;
   \   000019   EE           MOV       A,R6
   \   00001A   8A82         MOV       DPL,R2
   \   00001C   8B83         MOV       DPH,R3
   \   00001E   A3           INC       DPTR
   \   00001F   A3           INC       DPTR
   \   000020   12....       LCALL     ?Subroutine214 & 0xFFFF
    551            pNewItem->next = NULL;
   \                     ??CrossCallReturnLabel_465:
   \   000023   E4           CLR       A
   \   000024   F0           MOVX      @DPTR,A
   \   000025   A3           INC       DPTR
   \   000026   F0           MOVX      @DPTR,A
    552          
    553            // Add to the list
    554            if ( externalEndPointHandlerList == NULL )
   \   000027   90....       MOV       DPTR,#externalEndPointHandlerList
   \   00002A   12....       LCALL     ??Subroutine239_0 & 0xFFFF
   \                     ??CrossCallReturnLabel_474:
   \   00002D   7009         JNZ       ??zcl_addExternalFoundationHandler_1
    555            {
    556              externalEndPointHandlerList = pNewItem;
   \   00002F   90....       MOV       DPTR,#externalEndPointHandlerList
   \   000032   EA           MOV       A,R2
   \   000033   F0           MOVX      @DPTR,A
   \   000034   A3           INC       DPTR
   \   000035   EB           MOV       A,R3
   \   000036   8042         SJMP      ??zcl_addExternalFoundationHandler_2
    557            }
    558            else
    559            {
    560              // make sure no one else tried to register for this endpoint
    561              pLoop = externalEndPointHandlerList;
   \                     ??zcl_addExternalFoundationHandler_1:
   \   000038   E0           MOVX      A,@DPTR
   \   000039   F9           MOV       R1,A
    562              pLoopPrev = externalEndPointHandlerList;
    563          
    564              while ( pLoop != NULL )
    565              {
    566                if ( ( pLoop->zcl_ExternalEndPoint ) == endPointId )
   \                     ??zcl_addExternalFoundationHandler_3:
   \   00003A   8882         MOV       DPL,R0
   \   00003C   8983         MOV       DPH,R1
   \   00003E   A3           INC       DPTR
   \   00003F   A3           INC       DPTR
   \   000040   A3           INC       DPTR
   \   000041   E0           MOVX      A,@DPTR
   \   000042   6F           XRL       A,R7
   \   000043   7007         JNZ       ??zcl_addExternalFoundationHandler_4
    567                {
    568                  zcl_mem_free(pNewItem);
   \   000045                ; Setup parameters for call to function osal_mem_free
   \   000045   12....       LCALL     `??osal_mem_free::?relay`; Banked call to: osal_mem_free
    569                  return ( false );
   \                     ??zcl_addExternalFoundationHandler_0:
   \   000048   7900         MOV       R1,#0x0
   \   00004A   8031         SJMP      ??zcl_addExternalFoundationHandler_5
    570                }
    571                pLoopPrev = pLoop;
   \                     ??zcl_addExternalFoundationHandler_4:
   \   00004C   E8           MOV       A,R0
   \   00004D   FC           MOV       R4,A
   \   00004E   E9           MOV       A,R1
   \   00004F   FD           MOV       R5,A
    572                pLoop = pLoop->next;
   \   000050   8882         MOV       DPL,R0
   \   000052   8983         MOV       DPH,R1
   \   000054   12....       LCALL     ??Subroutine239_0 & 0xFFFF
    573              }
   \                     ??CrossCallReturnLabel_469:
   \   000057   70E1         JNZ       ??zcl_addExternalFoundationHandler_3
    574          
    575              if ( endPointId == AF_BROADCAST_ENDPOINT )
   \   000059   74FF         MOV       A,#-0x1
   \   00005B   6F           XRL       A,R7
   \   00005C   700C         JNZ       ??zcl_addExternalFoundationHandler_6
    576              {
    577                // put new registration at the end of the list
    578                pLoopPrev->next = pNewItem;
   \   00005E   8C82         MOV       DPL,R4
   \   000060   8D83         MOV       DPH,R5
   \   000062   12....       LCALL     ?Subroutine42 & 0xFFFF
    579                pNewItem->next = NULL;
    580              }
   \                     ??CrossCallReturnLabel_54:
   \   000065   E4           CLR       A
   \   000066   F0           MOVX      @DPTR,A
   \   000067   A3           INC       DPTR
   \   000068   8010         SJMP      ??zcl_addExternalFoundationHandler_2
    581              else
    582              {
    583                // put new registration at the front of the list
    584                zclExternalFoundationHandlerList *temp = externalEndPointHandlerList;
   \                     ??zcl_addExternalFoundationHandler_6:
   \   00006A   90....       MOV       DPTR,#externalEndPointHandlerList
   \   00006D   12....       LCALL     ??Subroutine252_0 & 0xFFFF
    585                externalEndPointHandlerList = pNewItem;
   \                     ??CrossCallReturnLabel_557:
   \   000070   90....       MOV       DPTR,#externalEndPointHandlerList
   \   000073   12....       LCALL     ?Subroutine42 & 0xFFFF
    586                pNewItem->next = temp;
    587              }
    588            }
   \                     ??CrossCallReturnLabel_55:
   \   000076   E8           MOV       A,R0
   \   000077   F0           MOVX      @DPTR,A
   \   000078   A3           INC       DPTR
   \   000079   E9           MOV       A,R1
   \                     ??zcl_addExternalFoundationHandler_2:
   \   00007A   F0           MOVX      @DPTR,A
    589          
    590            return ( true );
   \   00007B   7901         MOV       R1,#0x1
   \                     ??zcl_addExternalFoundationHandler_5:
   \   00007D   02....       LJMP      ?Subroutine2 & 0xFFFF
    591          
    592          }

   \                                 In  segment BANKED_CODE, align 1, keep-with-next
   \                     ?Subroutine42:
   \   000000   EA           MOV       A,R2
   \   000001   F0           MOVX      @DPTR,A
   \   000002   A3           INC       DPTR
   \   000003   EB           MOV       A,R3
   \   000004   12....       LCALL     ?Subroutine214 & 0xFFFF
   \                     ??CrossCallReturnLabel_466:
   \   000007   22           RET

   \                                 In  segment BANKED_CODE, align 1, keep-with-next
   \                     ?Subroutine214:
   \   000000   F0           MOVX      @DPTR,A
   \   000001   8A82         MOV       DPL,R2
   \   000003   8B83         MOV       DPH,R3
   \   000005   22           RET

   \                                 In  segment BANKED_CODE, align 1, keep-with-next
   \                     ??Subroutine239_0:
   \   000000   12....       LCALL     ?Subroutine189 & 0xFFFF
   \                     ??CrossCallReturnLabel_571:
   \   000003   E8           MOV       A,R0
   \   000004   49           ORL       A,R1
   \   000005   22           RET

   \                                 In  segment BANKED_CODE, align 1, keep-with-next
   \                     ?Subroutine2:
   \   000000   7F02         MOV       R7,#0x2
   \   000002   02....       LJMP      ?BANKED_LEAVE_XDATA

   \                                 In  segment BANKED_CODE, align 1, keep-with-next
   \                     ?Subroutine143:
   \   000000   7B00         MOV       R3,#0x0
   \   000002                REQUIRE ??Subroutine251_0
   \   000002                ; // Fall through to label ??Subroutine251_0

   \                                 In  segment BANKED_CODE, align 1, keep-with-next
   \                     ??Subroutine251_0:
   \   000000   12....       LCALL     `??osal_mem_alloc::?relay`; Banked call to: osal_mem_alloc
   \   000003   EA           MOV       A,R2
   \   000004   4B           ORL       A,R3
   \   000005   22           RET

   \                                 In  segment BANKED_CODE, align 1, keep-with-next
   \                     ??Subroutine252_0:
   \   000000   12....       LCALL     ?Subroutine189 & 0xFFFF
   \                     ??CrossCallReturnLabel_572:
   \   000003   22           RET

   \                                 In  segment BANKED_CODE, align 1, keep-with-next
   \                     ?Subroutine189:
   \   000000   12....       LCALL     ?Subroutine209 & 0xFFFF
   \                     ??CrossCallReturnLabel_581:
   \   000003   F9           MOV       R1,A
   \   000004   22           RET
    593          
    594          /*********************************************************************
    595           * @fn      zcl_getExternalFoundationHandler
    596           *
    597           * @brief   This function retrieves the Task ID of the task registered
    598           *          to received unhandled incoming Foundation Command/Response messages
    599           *          for a particular End Point ID.
    600           *
    601           * @param   pInMsg - recevied ZCL command
    602           *
    603           * @return  TASK ID of registered task.  If no task is reigistered, it returns
    604           *          TASK_NO_TASK.
    605           *********************************************************************/

   \                                 In  segment BANKED_CODE, align 1, keep-with-next
    606          static uint8 zcl_getExternalFoundationHandler( afIncomingMSGPacket_t *pInMsg )
   \                     zcl_getExternalFoundationHandler:
    607          {
   \   000000   C082         PUSH      DPL
   \   000002   C083         PUSH      DPH
   \   000004                ; Saved register size: 2
   \   000004                ; Auto size: 0
    608            zclExternalFoundationHandlerList *pLoop;
    609            uint8 addressedEndPointId = pInMsg->endPoint;
   \   000004   EA           MOV       A,R2
   \   000005   12....       LCALL     ??Subroutine261_0 & 0xFFFF
   \                     ??CrossCallReturnLabel_611:
   \   000008   3B           ADDC      A,R3
   \   000009   F583         MOV       DPH,A
   \   00000B   E0           MOVX      A,@DPTR
   \   00000C   FA           MOV       R2,A
    610          
    611            // make sure no one else tried to register for this endpoint
    612            pLoop = externalEndPointHandlerList;
   \   00000D   90....       MOV       DPTR,#externalEndPointHandlerList
   \   000010   8004         SJMP      ??zcl_getExternalFoundationHandler_0
    613          
    614            while ( pLoop != NULL )
    615            {
    616              if ( ( ( pLoop->zcl_ExternalEndPoint ) == addressedEndPointId ) ||
    617                   ( ( pLoop->zcl_ExternalEndPoint ) == AF_BROADCAST_ENDPOINT ) )
    618              {
    619                return ( pLoop->zcl_ExternalTaskID );
    620              }
    621              pLoop = pLoop->next;
   \                     ??zcl_getExternalFoundationHandler_1:
   \   000012   8882         MOV       DPL,R0
   \   000014   8983         MOV       DPH,R1
   \                     ??zcl_getExternalFoundationHandler_0:
   \   000016   12....       LCALL     ??Subroutine239_0 & 0xFFFF
   \                     ??CrossCallReturnLabel_470:
   \   000019   601C         JZ        ??zcl_getExternalFoundationHandler_2
   \   00001B   8882         MOV       DPL,R0
   \   00001D   8983         MOV       DPH,R1
   \   00001F   A3           INC       DPTR
   \   000020   A3           INC       DPTR
   \   000021   A3           INC       DPTR
   \   000022   E0           MOVX      A,@DPTR
   \   000023   FB           MOV       R3,A
   \   000024   EA           MOV       A,R2
   \   000025   6B           XRL       A,R3
   \   000026   6005         JZ        ??zcl_getExternalFoundationHandler_3
   \   000028   74FF         MOV       A,#-0x1
   \   00002A   6B           XRL       A,R3
   \   00002B   70E5         JNZ       ??zcl_getExternalFoundationHandler_1
   \                     ??zcl_getExternalFoundationHandler_3:
   \   00002D   8882         MOV       DPL,R0
   \   00002F   8983         MOV       DPH,R1
   \   000031   A3           INC       DPTR
   \   000032   A3           INC       DPTR
   \   000033   E0           MOVX      A,@DPTR
   \   000034   F9           MOV       R1,A
   \   000035   8002         SJMP      ??zcl_getExternalFoundationHandler_4
    622            }
    623          
    624            return ( TASK_NO_TASK );
   \                     ??zcl_getExternalFoundationHandler_2:
   \   000037   79FF         MOV       R1,#-0x1
   \                     ??zcl_getExternalFoundationHandler_4:
   \   000039   02....       LJMP      ?Subroutine0 & 0xFFFF
    625          }

   \                                 In  segment BANKED_CODE, align 1, keep-with-next
   \                     ??Subroutine261_0:
   \   000000   12....       LCALL     ?Subroutine203 & 0xFFFF
   \                     ??CrossCallReturnLabel_656:
   \   000003   22           RET

   \                                 In  segment BANKED_CODE, align 1, keep-with-next
   \                     ?Subroutine203:
   \   000000   12....       LCALL     ?Subroutine213 & 0xFFFF
   \                     ??CrossCallReturnLabel_664:
   \   000003   22           RET

   \                                 In  segment BANKED_CODE, align 1, keep-with-next
   \                     ?Subroutine213:
   \   000000   2414         ADD       A,#0x14
   \   000002   F582         MOV       DPL,A
   \   000004   E4           CLR       A
   \   000005   22           RET
    626          #endif
    627          
    628          #if !defined ( ZCL_STANDALONE )
    629          /*********************************************************************
    630           * @fn      zcl_HandleExternal
    631           *
    632           * @brief
    633           *
    634           * @param   pInMsg - incoming message to process
    635           *
    636           * @return  TRUE
    637           */

   \                                 In  segment BANKED_CODE, align 1, keep-with-next
    638          uint8 zcl_HandleExternal( zclIncoming_t *pInMsg )
   \                     zcl_HandleExternal:
    639          {
   \   000000                REQUIRE ?V0
   \   000000                REQUIRE ?V1
   \   000000                REQUIRE ?V2
   \   000000                REQUIRE ?V3
   \   000000   74F4         MOV       A,#-0xc
   \   000002   12....       LCALL     ?BANKED_ENTER_XDATA
   \   000005                ; Saved register size: 12
   \   000005                ; Auto size: 0
   \   000005   EA           MOV       A,R2
   \   000006   FE           MOV       R6,A
   \   000007   EB           MOV       A,R3
   \   000008   FF           MOV       R7,A
    640            zclIncomingMsg_t *pCmd;
    641            uint8 taskID;
    642          
    643            taskID = zcl_getExternalFoundationHandler( pInMsg->msg );
   \   000009                ; Setup parameters for call to function zcl_getExternalFoundationHandler
   \   000009   8A82         MOV       DPL,R2
   \   00000B   F583         MOV       DPH,A
   \   00000D   12....       LCALL     ??Subroutine246_0 & 0xFFFF
   \                     ??CrossCallReturnLabel_510:
   \   000010   12....       LCALL     `??zcl_getExternalFoundationHandler::?relay`; Banked call to: zcl_getExternalFoundationHandler
   \   000013   E9           MOV       A,R1
   \   000014   F5..         MOV       ?V0,A
    644          
    645            if ( taskID == TASK_NO_TASK )
   \   000016   74FF         MOV       A,#-0x1
   \   000018   69           XRL       A,R1
   \   000019   7003         JNZ       $+5
   \   00001B   02....       LJMP      ??zcl_HandleExternal_0 & 0xFFFF
    646            {
    647              return ( TRUE );
    648            }
    649          
    650            pCmd = (zclIncomingMsg_t *)osal_msg_allocate( sizeof ( zclIncomingMsg_t ) );
   \   00001E                ; Setup parameters for call to function osal_msg_allocate
   \   00001E   7A19         MOV       R2,#0x19
   \   000020   7B00         MOV       R3,#0x0
   \   000022   12....       LCALL     `??osal_msg_allocate::?relay`; Banked call to: osal_msg_allocate
    651            if ( pCmd != NULL )
   \   000025   EA           MOV       A,R2
   \   000026   4B           ORL       A,R3
   \   000027   7003         JNZ       $+5
   \   000029   02....       LJMP      ??zcl_HandleExternal_0 & 0xFFFF
    652            {
    653              // fill in the message
    654              pCmd->hdr.event = ZCL_INCOMING_MSG;
   \   00002C   8A82         MOV       DPL,R2
   \   00002E   8B83         MOV       DPH,R3
   \   000030   7434         MOV       A,#0x34
   \   000032   12....       LCALL     ?Subroutine39 & 0xFFFF
    655              pCmd->zclHdr    = pInMsg->hdr;
   \                     ??CrossCallReturnLabel_49:
   \   000035   A3           INC       DPTR
   \   000036   EA           MOV       A,R2
   \   000037   2402         ADD       A,#0x2
   \   000039   FC           MOV       R4,A
   \   00003A   E4           CLR       A
   \   00003B   3B           ADDC      A,R3
   \   00003C   FD           MOV       R5,A
   \   00003D   7406         MOV       A,#0x6
   \   00003F   12....       LCALL     ?MOVE_LONG8_XDATA_XDATA
    656              pCmd->clusterId = pInMsg->msg->clusterId;
   \   000042   8E82         MOV       DPL,R6
   \   000044   8F83         MOV       DPH,R7
   \   000046   12....       LCALL     ?Subroutine104 & 0xFFFF
   \                     ??CrossCallReturnLabel_180:
   \   000049   12....       LCALL     ?Subroutine110 & 0xFFFF
   \                     ??CrossCallReturnLabel_608:
   \   00004C   8A82         MOV       DPL,R2
   \   00004E   8B83         MOV       DPH,R3
   \   000050   A3           INC       DPTR
   \   000051   A3           INC       DPTR
   \   000052   A3           INC       DPTR
   \   000053   A3           INC       DPTR
   \   000054   A3           INC       DPTR
   \   000055   A3           INC       DPTR
   \   000056   A3           INC       DPTR
   \   000057   A3           INC       DPTR
   \   000058   EC           MOV       A,R4
   \   000059   F0           MOVX      @DPTR,A
   \   00005A   A3           INC       DPTR
   \   00005B   ED           MOV       A,R5
   \   00005C   12....       LCALL     ?Subroutine166 & 0xFFFF
    657              pCmd->srcAddr   = pInMsg->msg->srcAddr;
   \                     ??CrossCallReturnLabel_409:
   \   00005F   A3           INC       DPTR
   \   000060   A3           INC       DPTR
   \   000061   A3           INC       DPTR
   \   000062   A3           INC       DPTR
   \   000063   A3           INC       DPTR
   \   000064   EA           MOV       A,R2
   \   000065   240A         ADD       A,#0xa
   \   000067   FC           MOV       R4,A
   \   000068   E4           CLR       A
   \   000069   3B           ADDC      A,R3
   \   00006A   FD           MOV       R5,A
   \   00006B   740C         MOV       A,#0xc
   \   00006D   12....       LCALL     ?MOVE_LONG8_XDATA_XDATA
    658              pCmd->endPoint  = pInMsg->msg->endPoint;
   \   000070   8E82         MOV       DPL,R6
   \   000072   8F83         MOV       DPH,R7
   \   000074   12....       LCALL     ?Subroutine76 & 0xFFFF
   \                     ??CrossCallReturnLabel_130:
   \   000077   C0E0         PUSH      A
   \   000079   EA           MOV       A,R2
   \   00007A   2416         ADD       A,#0x16
   \   00007C   F582         MOV       DPL,A
   \   00007E   E4           CLR       A
   \   00007F   3B           ADDC      A,R3
   \   000080   F583         MOV       DPH,A
   \   000082   D0E0         POP       A
   \   000084   F0           MOVX      @DPTR,A
    659              pCmd->attrCmd   = pInMsg->attrCmd;
   \   000085   EE           MOV       A,R6
   \   000086   240C         ADD       A,#0xc
   \   000088   F8           MOV       R0,A
   \   000089   E4           CLR       A
   \   00008A   3F           ADDC      A,R7
   \   00008B   F9           MOV       R1,A
   \   00008C   8882         MOV       DPL,R0
   \   00008E   F583         MOV       DPH,A
   \   000090   12....       LCALL     ??Subroutine257_0 & 0xFFFF
   \                     ??CrossCallReturnLabel_602:
   \   000093   EA           MOV       A,R2
   \   000094   2417         ADD       A,#0x17
   \   000096   F582         MOV       DPL,A
   \   000098   E4           CLR       A
   \   000099   3B           ADDC      A,R3
   \   00009A   F583         MOV       DPH,A
   \   00009C   EC           MOV       A,R4
   \   00009D   F0           MOVX      @DPTR,A
   \   00009E   A3           INC       DPTR
   \   00009F   ED           MOV       A,R5
   \   0000A0   12....       LCALL     ?Subroutine19 & 0xFFFF
    660              
    661          #ifdef BDB_REPORTING
    662              if(pCmd->zclHdr.commandID == ZCL_CMD_CONFIG_REPORT)
   \                     ??CrossCallReturnLabel_11:
   \   0000A3   E0           MOVX      A,@DPTR
   \   0000A4   FC           MOV       R4,A
   \   0000A5   7406         MOV       A,#0x6
   \   0000A7   6C           XRL       A,R4
   \   0000A8   7005         JNZ       ??zcl_HandleExternal_1
    663              {
    664                bdb_ProcessInConfigReportCmd(pCmd);
   \   0000AA                ; Setup parameters for call to function bdb_ProcessInConfigReportCmd
   \   0000AA   12....       LCALL     `??bdb_ProcessInConfigReportCmd::?relay`; Banked call to: bdb_ProcessInConfigReportCmd
   \   0000AD   8017         SJMP      ??zcl_HandleExternal_0
    665                return TRUE;          
    666              }
    667              if(pCmd->zclHdr.commandID == ZCL_CMD_READ_REPORT_CFG)
   \                     ??zcl_HandleExternal_1:
   \   0000AF   7408         MOV       A,#0x8
   \   0000B1   6C           XRL       A,R4
   \   0000B2   7005         JNZ       ??zcl_HandleExternal_2
    668              {
    669                bdb_ProcessInReadReportCfgCmd(pCmd);
   \   0000B4                ; Setup parameters for call to function bdb_ProcessInReadReportCfgCmd
   \   0000B4   12....       LCALL     `??bdb_ProcessInReadReportCfgCmd::?relay`; Banked call to: bdb_ProcessInReadReportCfgCmd
   \   0000B7   800D         SJMP      ??zcl_HandleExternal_0
    670                return TRUE;
    671              }
    672          #endif
    673              // Application will free the attrCmd buffer
    674              pInMsg->attrCmd = NULL;
   \                     ??zcl_HandleExternal_2:
   \   0000B9   8882         MOV       DPL,R0
   \   0000BB   8983         MOV       DPH,R1
   \   0000BD   E4           CLR       A
   \   0000BE   F0           MOVX      @DPTR,A
   \   0000BF   A3           INC       DPTR
   \   0000C0   F0           MOVX      @DPTR,A
    675          
    676              /* send message through task message */
    677              osal_msg_send( taskID, (uint8 *)pCmd );
   \   0000C1                ; Setup parameters for call to function osal_msg_send
   \   0000C1   A9..         MOV       R1,?V0
   \   0000C3   12....       LCALL     `??osal_msg_send::?relay`; Banked call to: osal_msg_send
    678            }
    679          
    680            return ( TRUE );
   \                     ??zcl_HandleExternal_0:
   \   0000C6   7901         MOV       R1,#0x1
   \   0000C8   02....       LJMP      ??Subroutine216_0 & 0xFFFF
    681          }

   \                                 In  segment BANKED_CODE, align 1, keep-with-next
   \                     ?Subroutine19:
   \   000000   12....       LCALL     ?Subroutine167 & 0xFFFF
   \                     ??CrossCallReturnLabel_286:
   \   000003   A3           INC       DPTR
   \   000004   A3           INC       DPTR
   \   000005   22           RET

   \                                 In  segment BANKED_CODE, align 1, keep-with-next
   \                     ??Subroutine216_0:
   \   000000   7F04         MOV       R7,#0x4
   \   000002   02....       LJMP      ?BANKED_LEAVE_XDATA

   \                                 In  segment BANKED_CODE, align 1, keep-with-next
   \                     ?Subroutine205:
   \   000000   12....       LCALL     ?Subroutine214 & 0xFFFF
   \                     ??CrossCallReturnLabel_467:
   \   000003   A3           INC       DPTR
   \   000004   22           RET

   \                                 In  segment BANKED_CODE, align 1, keep-with-next
   \                     ?Subroutine166:
   \   000000   F0           MOVX      @DPTR,A
   \   000001   8882         MOV       DPL,R0
   \   000003   8983         MOV       DPH,R1
   \   000005   A3           INC       DPTR
   \   000006   22           RET

   \                                 In  segment BANKED_CODE, align 1, keep-with-next
   \                     ?Subroutine104:
   \   000000   12....       LCALL     ?Subroutine187 & 0xFFFF
   \                     ??CrossCallReturnLabel_322:
   \   000003   22           RET

   \                                 In  segment BANKED_CODE, align 1, keep-with-next
   \                     ?Subroutine187:
   \   000000   12....       LCALL     ?Subroutine209 & 0xFFFF
   \                     ??CrossCallReturnLabel_578:
   \   000003   F9           MOV       R1,A
   \   000004   8882         MOV       DPL,R0
   \   000006   F583         MOV       DPH,A
   \   000008   22           RET

   \                                 In  segment BANKED_CODE, align 1, keep-with-next
   \                     ?Subroutine39:
   \   000000   12....       LCALL     ?Subroutine171 & 0xFFFF
   \                     ??CrossCallReturnLabel_295:
   \   000003   A3           INC       DPTR
   \   000004   22           RET

   \                                 In  segment BANKED_CODE, align 1, keep-with-next
   \                     ?Subroutine167:
   \   000000   12....       LCALL     ?Subroutine205 & 0xFFFF
   \                     ??CrossCallReturnLabel_349:
   \   000003   A3           INC       DPTR
   \   000004   A3           INC       DPTR
   \   000005   A3           INC       DPTR
   \   000006   A3           INC       DPTR
   \   000007   22           RET

   \                                 In  segment BANKED_CODE, align 1, keep-with-next
   \                     ??Subroutine246_0:
   \   000000   12....       LCALL     ??Subroutine274_0 & 0xFFFF
   \                     ??CrossCallReturnLabel_690:
   \   000003   22           RET

   \                                 In  segment BANKED_CODE, align 1, keep-with-next
   \                     ?Subroutine171:
   \   000000   F0           MOVX      @DPTR,A
   \   000001   8E82         MOV       DPL,R6
   \   000003   8F83         MOV       DPH,R7
   \   000005   22           RET

   \                                 In  segment BANKED_CODE, align 1, keep-with-next
   \                     ?Subroutine76:
   \   000000   E0           MOVX      A,@DPTR
   \   000001   F8           MOV       R0,A
   \   000002   12....       LCALL     ?Subroutine183 & 0xFFFF
   \                     ??CrossCallReturnLabel_318:
   \   000005   22           RET

   \                                 In  segment BANKED_CODE, align 1, keep-with-next
   \                     ?Subroutine183:
   \   000000   A3           INC       DPTR
   \   000001   E0           MOVX      A,@DPTR
   \   000002   C8           XCH       A,R0
   \   000003   12....       LCALL     ?Subroutine213 & 0xFFFF
   \                     ??CrossCallReturnLabel_662:
   \   000006   38           ADDC      A,R0
   \   000007   F583         MOV       DPH,A
   \   000009   E0           MOVX      A,@DPTR
   \   00000A   22           RET

   \                                 In  segment BANKED_CODE, align 1, keep-with-next
   \                     ?Subroutine110:
   \   000000   A3           INC       DPTR
   \   000001   A3           INC       DPTR
   \   000002                REQUIRE ??Subroutine256_0
   \   000002                ; // Fall through to label ??Subroutine256_0

   \                                 In  segment BANKED_CODE, align 1, keep-with-next
   \                     ??Subroutine256_0:
   \   000000   A3           INC       DPTR
   \   000001   A3           INC       DPTR
   \   000002                REQUIRE ??Subroutine257_0
   \   000002                ; // Fall through to label ??Subroutine257_0

   \                                 In  segment BANKED_CODE, align 1, keep-with-next
   \                     ??Subroutine257_0:
   \   000000   12....       LCALL     ??Subroutine265_0 & 0xFFFF
   \                     ??CrossCallReturnLabel_635:
   \   000003   22           RET

   \                                 In  segment BANKED_CODE, align 1, keep-with-next
   \                     ??Subroutine265_0:
   \   000000   E0           MOVX      A,@DPTR
   \   000001   FC           MOV       R4,A
   \   000002   A3           INC       DPTR
   \   000003   E0           MOVX      A,@DPTR
   \   000004   FD           MOV       R5,A
   \   000005   22           RET

   \                                 In  segment BANKED_CODE, align 1, keep-with-next
   \                     ??Subroutine274_0:
   \   000000   E0           MOVX      A,@DPTR
   \   000001   FA           MOV       R2,A
   \   000002   A3           INC       DPTR
   \   000003   E0           MOVX      A,@DPTR
   \   000004   FB           MOV       R3,A
   \   000005   22           RET
    682          #endif
    683          
    684          
    685          /*********************************************************************
    686           * @fn          zcl_getRawAFMsg
    687           *
    688           * @brief       Call to get original unprocessed AF message
    689           *              (not parsed by ZCL).
    690           *
    691           *   NOTE:  This function can only be called during a ZCL callback function
    692           *          and the calling function must NOT change any data in the message.
    693           *
    694           * @param       none
    695           *
    696           * @return      pointer to original AF message, NULL if not processing
    697           *              AF message.
    698           */

   \                                 In  segment BANKED_CODE, align 1, keep-with-next
    699          afIncomingMSGPacket_t *zcl_getRawAFMsg( void )
   \                     zcl_getRawAFMsg:
    700          {
   \   000000   C082         PUSH      DPL
   \   000002   C083         PUSH      DPH
   \   000004                ; Saved register size: 2
   \   000004                ; Auto size: 0
    701            return ( rawAFMsg );
   \   000004   90....       MOV       DPTR,#rawAFMsg
   \   000007   12....       LCALL     ??Subroutine246_0 & 0xFFFF
   \                     ??CrossCallReturnLabel_511:
   \   00000A   02....       LJMP      ?Subroutine0 & 0xFFFF
    702          }
    703          
    704          /*********************************************************************
    705           * @fn          zcl_getParsedTransSeqNum
    706           *
    707           * @brief       Call to the get the transaction sequence number from
    708           *              the incoming message.
    709           *
    710           *   NOTE:  This function can only be called during a ZCL callback function
    711           *          and the calling function must NOT change any data in the message.
    712           *
    713           * @param       none
    714           *
    715           * @return      transaction sequence number.
    716           */

   \                                 In  segment BANKED_CODE, align 1, keep-with-next
    717          uint8 zcl_getParsedTransSeqNum( void )
   \                     zcl_getParsedTransSeqNum:
    718          {
   \   000000   C082         PUSH      DPL
   \   000002   C083         PUSH      DPH
   \   000004                ; Saved register size: 2
   \   000004                ; Auto size: 0
    719            return ( savedZCLTransSeqNum );
   \   000004   90....       MOV       DPTR,#savedZCLTransSeqNum
   \   000007   E0           MOVX      A,@DPTR
   \   000008   F9           MOV       R1,A
   \   000009   02....       LJMP      ?Subroutine0 & 0xFFFF
    720          }
    721          
    722          /*********************************************************************
    723           * @fn          zcl_registerPlugin
    724           *
    725           * @brief       Add a Cluster Library handler
    726           *
    727           * @param       startClusterID - starting cluster ID
    728           * @param       endClusterID - ending cluster ID
    729           * @param       pfnHdlr - function pointer to incoming message handler
    730           *
    731           * @return      ZSuccess if OK
    732           */

   \                                 In  segment BANKED_CODE, align 1, keep-with-next
    733          ZStatus_t zcl_registerPlugin( uint16 startClusterID,
   \                     zcl_registerPlugin:
    734                    uint16 endClusterID, zclInHdlr_t pfnIncomingHdlr )
    735          {
   \   000000                REQUIRE ?V0
   \   000000                REQUIRE ?V1
   \   000000                REQUIRE ?V2
   \   000000                REQUIRE ?V3
   \   000000   74F4         MOV       A,#-0xc
   \   000002   12....       LCALL     ?BANKED_ENTER_XDATA
   \   000005                ; Saved register size: 12
   \   000005                ; Auto size: 0
   \   000005   8A..         MOV       ?V0,R2
   \   000007   8B..         MOV       ?V1,R3
   \   000009   EC           MOV       A,R4
   \   00000A   FE           MOV       R6,A
   \   00000B   ED           MOV       A,R5
   \   00000C   FF           MOV       R7,A
    736            zclLibPlugin_t *pNewItem;
    737            zclLibPlugin_t *pLoop;
    738          
    739            // Fill in the new profile list
    740            pNewItem = zcl_mem_alloc( sizeof( zclLibPlugin_t ) );
   \   00000D                ; Setup parameters for call to function osal_mem_alloc
   \   00000D   7A08         MOV       R2,#0x8
   \   00000F   12....       LCALL     ??Subroutine215_0 & 0xFFFF
    741            if ( pNewItem == NULL )
   \                     ??CrossCallReturnLabel_366:
   \   000012   7004         JNZ       ??zcl_registerPlugin_0
    742            {
    743              return (ZMemError);
   \   000014   7910         MOV       R1,#0x10
   \   000016   8043         SJMP      ??CrossCallReturnLabel_27
    744            }
    745          
    746            // Fill in the plugin record.
    747            pNewItem->next = (zclLibPlugin_t *)NULL;
   \                     ??zcl_registerPlugin_0:
   \   000018   12....       LCALL     ?Subroutine28 & 0xFFFF
    748            pNewItem->startClusterID = startClusterID;
   \                     ??CrossCallReturnLabel_25:
   \   00001B   A3           INC       DPTR
   \   00001C   E5..         MOV       A,?V1
   \   00001E   12....       LCALL     ?Subroutine37 & 0xFFFF
    749            pNewItem->endClusterID = endClusterID;
   \                     ??CrossCallReturnLabel_46:
   \   000021   A3           INC       DPTR
   \   000022   A3           INC       DPTR
   \   000023   A3           INC       DPTR
   \   000024   EE           MOV       A,R6
   \   000025   F0           MOVX      @DPTR,A
   \   000026   A3           INC       DPTR
   \   000027   EF           MOV       A,R7
   \   000028   F0           MOVX      @DPTR,A
    750            pNewItem->pfnIncomingHdlr = pfnIncomingHdlr;
   \   000029   740C         MOV       A,#0xc
   \   00002B   12....       LCALL     ?XSTACK_DISP0_8
   \   00002E   12....       LCALL     ??Subroutine246_0 & 0xFFFF
   \                     ??CrossCallReturnLabel_512:
   \   000031   8882         MOV       DPL,R0
   \   000033   8983         MOV       DPH,R1
   \   000035   A3           INC       DPTR
   \   000036   A3           INC       DPTR
   \   000037   A3           INC       DPTR
   \   000038   A3           INC       DPTR
   \   000039   12....       LCALL     ??Subroutine276_0 & 0xFFFF
    751          
    752            // Find spot in list
    753            if (  plugins == NULL )
   \                     ??CrossCallReturnLabel_707:
   \   00003C   90....       MOV       DPTR,#plugins
   \   00003F   12....       LCALL     ??Subroutine220_0 & 0xFFFF
   \                     ??CrossCallReturnLabel_383:
   \   000042   90....       MOV       DPTR,#plugins
   \   000045   6011         JZ        ??zcl_registerPlugin_1
    754            {
    755              plugins = pNewItem;
    756            }
    757            else
    758            {
    759              // Look for end of list
    760              pLoop = plugins;
   \   000047   12....       LCALL     ?Subroutine127 & 0xFFFF
   \                     ??CrossCallReturnLabel_219:
   \   00004A   8003         SJMP      ??zcl_registerPlugin_2
    761              while ( pLoop->next != NULL )
    762              {
    763                pLoop = pLoop->next;
   \                     ??zcl_registerPlugin_3:
   \   00004C   EA           MOV       A,R2
   \   00004D   FC           MOV       R4,A
   \   00004E   EB           MOV       A,R3
    764              }
   \                     ??zcl_registerPlugin_2:
   \   00004F   12....       LCALL     ?Subroutine51 & 0xFFFF
   \                     ??CrossCallReturnLabel_377:
   \   000052   70F8         JNZ       ??zcl_registerPlugin_3
    765          
    766              // Put new item at end of list
    767              pLoop->next = pNewItem;
   \   000054   8C82         MOV       DPL,R4
   \   000056   8D83         MOV       DPH,R5
    768            }
   \                     ??zcl_registerPlugin_1:
   \   000058   12....       LCALL     ?Subroutine29 & 0xFFFF
    769          
    770            return ( ZSuccess );
   \                     ??CrossCallReturnLabel_27:
   \   00005B   02....       LJMP      ??Subroutine216_0 & 0xFFFF
    771          }

   \                                 In  segment BANKED_CODE, align 1, keep-with-next
   \                     ??Subroutine215_0:
   \   000000   7B00         MOV       R3,#0x0
   \   000002   12....       LCALL     `??osal_mem_alloc::?relay`; Banked call to: osal_mem_alloc
   \   000005   8A..         MOV       ?V2,R2
   \   000007   8B..         MOV       ?V3,R3
   \   000009   A8..         MOV       R0,?V2
   \   00000B   A9..         MOV       R1,?V3
   \   00000D   EA           MOV       A,R2
   \   00000E   49           ORL       A,R1
   \   00000F   22           RET

   \                                 In  segment BANKED_CODE, align 1, keep-with-next
   \                     ?Subroutine29:
   \   000000   E8           MOV       A,R0
   \   000001   F0           MOVX      @DPTR,A
   \   000002   A3           INC       DPTR
   \   000003   E9           MOV       A,R1
   \   000004   F0           MOVX      @DPTR,A
   \   000005   7900         MOV       R1,#0x0
   \   000007   22           RET

   \                                 In  segment BANKED_CODE, align 1, keep-with-next
   \                     ?Subroutine28:
   \   000000   12....       LCALL     ?Subroutine165 & 0xFFFF
   \                     ??CrossCallReturnLabel_284:
   \   000003   22           RET

   \                                 In  segment BANKED_CODE, align 1, keep-with-next
   \                     ?Subroutine165:
   \   000000   8A82         MOV       DPL,R2
   \   000002   8B83         MOV       DPH,R3
   \   000004   E4           CLR       A
   \   000005   F0           MOVX      @DPTR,A
   \   000006   A3           INC       DPTR
   \   000007   12....       LCALL     ?Subroutine205 & 0xFFFF
   \                     ??CrossCallReturnLabel_347:
   \   00000A   A3           INC       DPTR
   \   00000B   E5..         MOV       A,?V0
   \   00000D   F0           MOVX      @DPTR,A
   \   00000E   22           RET

   \                                 In  segment BANKED_CODE, align 1, keep-with-next
   \                     ?Subroutine127:
   \   000000   E0           MOVX      A,@DPTR
   \   000001   FC           MOV       R4,A
   \   000002   A3           INC       DPTR
   \   000003   E0           MOVX      A,@DPTR
   \   000004   22           RET

   \                                 In  segment BANKED_CODE, align 1, keep-with-next
   \                     ?Subroutine51:
   \   000000   FD           MOV       R5,A
   \   000001   8C82         MOV       DPL,R4
   \   000003   8D83         MOV       DPH,R5
   \   000005                REQUIRE ??Subroutine220_0
   \   000005                ; // Fall through to label ??Subroutine220_0

   \                                 In  segment BANKED_CODE, align 1, keep-with-next
   \                     ??Subroutine220_0:
   \   000000   12....       LCALL     ??Subroutine274_0 & 0xFFFF
   \                     ??CrossCallReturnLabel_689:
   \   000003   EA           MOV       A,R2
   \   000004   4B           ORL       A,R3
   \   000005   22           RET

   \                                 In  segment BANKED_CODE, align 1, keep-with-next
   \                     ?Subroutine37:
   \   000000   12....       LCALL     ?Subroutine168 & 0xFFFF
   \                     ??CrossCallReturnLabel_289:
   \   000003   22           RET

   \                                 In  segment BANKED_CODE, align 1, keep-with-next
   \                     ?Subroutine168:
   \   000000   12....       LCALL     ?Subroutine205 & 0xFFFF
   \                     ??CrossCallReturnLabel_348:
   \   000003   22           RET

   \                                 In  segment BANKED_CODE, align 1, keep-with-next
   \                     ??Subroutine276_0:
   \   000000   A3           INC       DPTR
   \   000001   A3           INC       DPTR
   \   000002                REQUIRE ??Subroutine277_0
   \   000002                ; // Fall through to label ??Subroutine277_0

   \                                 In  segment BANKED_CODE, align 1, keep-with-next
   \                     ??Subroutine277_0:
   \   000000   EA           MOV       A,R2
   \   000001   F0           MOVX      @DPTR,A
   \   000002   A3           INC       DPTR
   \   000003   EB           MOV       A,R3
   \   000004   F0           MOVX      @DPTR,A
   \   000005   22           RET
    772          
    773          #ifdef ZCL_DISCOVER
    774          /*********************************************************************
    775           * @fn          zcl_registerCmdList
    776           *
    777           * @brief       Register a Command List with ZCL Foundation
    778           *
    779           * @param       endpoint - endpoint the attribute list belongs to
    780           * @param       newCmdList - array of command records
    781           *
    782           * @return      ZSuccess if OK
    783           */

   \                                 In  segment BANKED_CODE, align 1, keep-with-next
    784          ZStatus_t zcl_registerCmdList( uint8 endpoint, CONST uint8 cmdListSize, CONST zclCommandRec_t newCmdList[] )
   \                     zcl_registerCmdList:
    785          {
   \   000000                REQUIRE ?V0
   \   000000                REQUIRE ?V1
   \   000000                REQUIRE ?V2
   \   000000                REQUIRE ?V3
   \   000000   74F4         MOV       A,#-0xc
   \   000002   12....       LCALL     ?BANKED_ENTER_XDATA
   \   000005                ; Saved register size: 12
   \   000005                ; Auto size: 0
   \   000005   12....       LCALL     ?Subroutine140 & 0xFFFF
    786            zclCmdRecsList_t *pNewItem;
    787            zclCmdRecsList_t *pLoop;
    788          
    789            // Fill in the new profile list
    790            pNewItem = zcl_mem_alloc( sizeof( zclCmdRecsList_t ) );
    791            if ( pNewItem == NULL )
   \                     ??CrossCallReturnLabel_364:
   \   000008   7004         JNZ       ??zcl_registerCmdList_0
    792            {
    793              return (ZMemError);
   \   00000A   7910         MOV       R1,#0x10
   \   00000C   8022         SJMP      ??CrossCallReturnLabel_28
    794            }
    795          
    796            pNewItem->pNext = (zclCmdRecsList_t *)NULL;
   \                     ??zcl_registerCmdList_0:
   \   00000E   12....       LCALL     ?Subroutine15 & 0xFFFF
    797            pNewItem->endpoint = endpoint;
    798            pNewItem->numCommands = cmdListSize;
    799            pNewItem->pCmdRecs = newCmdList;
    800          
    801            // Find spot in list
    802            if ( gpCmdList == NULL )
   \                     ??CrossCallReturnLabel_2:
   \   000011   90....       MOV       DPTR,#gpCmdList
   \   000014   12....       LCALL     ??Subroutine220_0 & 0xFFFF
   \                     ??CrossCallReturnLabel_384:
   \   000017   90....       MOV       DPTR,#gpCmdList
   \   00001A   6011         JZ        ??zcl_registerCmdList_1
    803            {
    804              gpCmdList = pNewItem;
    805            }
    806            else
    807            {
    808              // Look for end of list
    809              pLoop = gpCmdList;
   \   00001C   12....       LCALL     ?Subroutine127 & 0xFFFF
   \                     ??CrossCallReturnLabel_220:
   \   00001F   8003         SJMP      ??zcl_registerCmdList_2
    810              while ( pLoop->pNext != NULL )
    811              {
    812                pLoop = pLoop->pNext;
   \                     ??zcl_registerCmdList_3:
   \   000021   EA           MOV       A,R2
   \   000022   FC           MOV       R4,A
   \   000023   EB           MOV       A,R3
    813              }
   \                     ??zcl_registerCmdList_2:
   \   000024   12....       LCALL     ?Subroutine51 & 0xFFFF
   \                     ??CrossCallReturnLabel_378:
   \   000027   70F8         JNZ       ??zcl_registerCmdList_3
    814          
    815              // Put new item at end of list
    816              pLoop->pNext = pNewItem;
   \   000029   8C82         MOV       DPL,R4
   \   00002B   8D83         MOV       DPH,R5
    817            }
   \                     ??zcl_registerCmdList_1:
   \   00002D   12....       LCALL     ?Subroutine29 & 0xFFFF
    818          
    819            return ( ZSuccess );
   \                     ??CrossCallReturnLabel_28:
   \   000030   02....       LJMP      ??Subroutine216_0 & 0xFFFF
    820          }

   \                                 In  segment BANKED_CODE, align 1, keep-with-next
   \                     ?Subroutine140:
   \   000000   89..         MOV       ?V0,R1
   \   000002   8A..         MOV       ?V1,R2
   \   000004   EC           MOV       A,R4
   \   000005   FE           MOV       R6,A
   \   000006   ED           MOV       A,R5
   \   000007   FF           MOV       R7,A
   \   000008                ; Setup parameters for call to function osal_mem_alloc
   \   000008                ; Setup parameters for call to function osal_mem_alloc
   \   000008   7A06         MOV       R2,#0x6
   \   00000A                REQUIRE ??Subroutine215_0
   \   00000A                ; // Fall through to label ??Subroutine215_0

   \                                 In  segment BANKED_CODE, align 1, keep-with-next
   \                     ?Subroutine15:
   \   000000   12....       LCALL     ?Subroutine165 & 0xFFFF
   \                     ??CrossCallReturnLabel_285:
   \   000003   8A82         MOV       DPL,R2
   \   000005   8B83         MOV       DPH,R3
   \   000007   A3           INC       DPTR
   \   000008   A3           INC       DPTR
   \   000009   A3           INC       DPTR
   \   00000A   E5..         MOV       A,?V1
   \   00000C   12....       LCALL     ?Subroutine168 & 0xFFFF
   \                     ??CrossCallReturnLabel_288:
   \   00000F   A3           INC       DPTR
   \   000010   A3           INC       DPTR
   \   000011   A3           INC       DPTR
   \   000012   EE           MOV       A,R6
   \   000013   F0           MOVX      @DPTR,A
   \   000014   A3           INC       DPTR
   \   000015   EF           MOV       A,R7
   \   000016   F0           MOVX      @DPTR,A
   \   000017   22           RET
    821          #endif  // ZCL_DISCOVER
    822          
    823          /*********************************************************************
    824           * @fn          zcl_registerAttrList
    825           *
    826           * @brief       Register an Attribute List with ZCL Foundation
    827           *
    828           * @param       endpoint - endpoint the attribute list belongs to
    829           * @param       numAttr - number of attributes in list
    830           * @param       newAttrList - array of Attribute records.
    831           *                            NOTE: THE ATTRIBUTE IDs (FOR A CLUSTER) MUST BE IN
    832           *                            ASCENDING ORDER. OTHERWISE, THE DISCOVERY RESPONSE
    833           *                            COMMAND WILL NOT HAVE THE RIGHT ATTRIBUTE INFO
    834           *
    835           * @return      ZSuccess if OK
    836           */

   \                                 In  segment BANKED_CODE, align 1, keep-with-next
    837          ZStatus_t zcl_registerAttrList( uint8 endpoint, uint8 numAttr, CONST zclAttrRec_t newAttrList[] )
   \                     zcl_registerAttrList:
    838          {
   \   000000                REQUIRE ?V0
   \   000000                REQUIRE ?V1
   \   000000                REQUIRE ?V2
   \   000000                REQUIRE ?V3
   \   000000   74F4         MOV       A,#-0xc
   \   000002   12....       LCALL     ?BANKED_ENTER_XDATA
   \   000005                ; Saved register size: 12
   \   000005                ; Auto size: 0
   \   000005   89..         MOV       ?V0,R1
   \   000007   8A..         MOV       ?V1,R2
   \   000009   EC           MOV       A,R4
   \   00000A   FE           MOV       R6,A
   \   00000B   ED           MOV       A,R5
   \   00000C   FF           MOV       R7,A
    839            zclAttrRecsList *pNewItem;
    840            zclAttrRecsList *pLoop;
    841          
    842            // Fill in the new profile list
    843            pNewItem = zcl_mem_alloc( sizeof( zclAttrRecsList ) );
   \   00000D                ; Setup parameters for call to function osal_mem_alloc
   \   00000D   7A0A         MOV       R2,#0xa
   \   00000F   12....       LCALL     ??Subroutine215_0 & 0xFFFF
    844            if ( pNewItem == NULL )
   \                     ??CrossCallReturnLabel_367:
   \   000012   7004         JNZ       ??zcl_registerAttrList_0
    845            {
    846              return (ZMemError);
   \   000014   7910         MOV       R1,#0x10
   \   000016   803A         SJMP      ??CrossCallReturnLabel_29
    847            }
    848          
    849            pNewItem->next = (zclAttrRecsList *)NULL;
   \                     ??zcl_registerAttrList_0:
   \   000018   12....       LCALL     ?Subroutine28 & 0xFFFF
    850            pNewItem->endpoint = endpoint;
    851            pNewItem->pfnReadWriteCB = NULL;
   \                     ??CrossCallReturnLabel_26:
   \   00001B   8A82         MOV       DPL,R2
   \   00001D   8B83         MOV       DPH,R3
   \   00001F   A3           INC       DPTR
   \   000020   A3           INC       DPTR
   \   000021   A3           INC       DPTR
   \   000022   E4           CLR       A
   \   000023   F0           MOVX      @DPTR,A
   \   000024   A3           INC       DPTR
   \   000025   12....       LCALL     ?Subroutine19 & 0xFFFF
    852            pNewItem->numAttributes = numAttr;
   \                     ??CrossCallReturnLabel_12:
   \   000028   E5..         MOV       A,?V1
   \   00002A   12....       LCALL     ?Subroutine19 & 0xFFFF
    853            pNewItem->attrs = newAttrList;
   \                     ??CrossCallReturnLabel_13:
   \   00002D   A3           INC       DPTR
   \   00002E   EE           MOV       A,R6
   \   00002F   F0           MOVX      @DPTR,A
   \   000030   A3           INC       DPTR
   \   000031   EF           MOV       A,R7
   \   000032   F0           MOVX      @DPTR,A
    854          
    855            // Find spot in list
    856            if ( attrList == NULL )
   \   000033   90....       MOV       DPTR,#attrList
   \   000036   12....       LCALL     ??Subroutine220_0 & 0xFFFF
   \                     ??CrossCallReturnLabel_385:
   \   000039   90....       MOV       DPTR,#attrList
   \   00003C   6011         JZ        ??zcl_registerAttrList_1
    857            {
    858              attrList = pNewItem;
    859            }
    860            else
    861            {
    862              // Look for end of list
    863              pLoop = attrList;
   \   00003E   12....       LCALL     ?Subroutine127 & 0xFFFF
   \                     ??CrossCallReturnLabel_221:
   \   000041   8003         SJMP      ??zcl_registerAttrList_2
    864              while ( pLoop->next != NULL )
    865              {
    866                pLoop = pLoop->next;
   \                     ??zcl_registerAttrList_3:
   \   000043   EA           MOV       A,R2
   \   000044   FC           MOV       R4,A
   \   000045   EB           MOV       A,R3
    867              }
   \                     ??zcl_registerAttrList_2:
   \   000046   12....       LCALL     ?Subroutine51 & 0xFFFF
   \                     ??CrossCallReturnLabel_379:
   \   000049   70F8         JNZ       ??zcl_registerAttrList_3
    868          
    869              // Put new item at end of list
    870              pLoop->next = pNewItem;
   \   00004B   8C82         MOV       DPL,R4
   \   00004D   8D83         MOV       DPH,R5
    871            }
   \                     ??zcl_registerAttrList_1:
   \   00004F   12....       LCALL     ?Subroutine29 & 0xFFFF
    872          
    873            return ( ZSuccess );
   \                     ??CrossCallReturnLabel_29:
   \   000052   80..         SJMP      ??Subroutine216_0
    874          }
    875          
    876          /*********************************************************************
    877           * @fn          zcl_registerClusterOptionList
    878           *
    879           * @brief       Register a Cluster Option List with ZCL Foundation
    880           *
    881           * @param       endpoint - endpoint the option list belongs to
    882           * @param       numOption - number of options in list
    883           * @param       optionList - array of cluster option records.
    884           *
    885           *              NOTE: This API should be called to enable 'Application
    886           *                    Link Key' security and/or 'APS ACK' for a specific
    887           *                    Cluster. The 'Application Link Key' is discarded
    888           *                    if security isn't enabled on the device.
    889           *                    The default behavior is 'Network Key' when security
    890           *                    is enabled and no 'APS ACK' for the ZCL messages.
    891           *
    892           * @return      ZSuccess if OK
    893           */

   \                                 In  segment BANKED_CODE, align 1, keep-with-next
    894          ZStatus_t zcl_registerClusterOptionList( uint8 endpoint, uint8 numOption, zclOptionRec_t optionList[] )
   \                     zcl_registerClusterOptionList:
    895          {
   \   000000                REQUIRE ?V0
   \   000000                REQUIRE ?V1
   \   000000                REQUIRE ?V2
   \   000000                REQUIRE ?V3
   \   000000   74F4         MOV       A,#-0xc
   \   000002   12....       LCALL     ?BANKED_ENTER_XDATA
   \   000005                ; Saved register size: 12
   \   000005                ; Auto size: 0
   \   000005   12....       LCALL     ?Subroutine140 & 0xFFFF
    896            zclClusterOptionList *pNewItem;
    897            zclClusterOptionList *pLoop;
    898          
    899            // Fill in the new profile list
    900            pNewItem = zcl_mem_alloc( sizeof( zclClusterOptionList ) );
    901            if ( pNewItem == NULL )
   \                     ??CrossCallReturnLabel_365:
   \   000008   7004         JNZ       ??zcl_registerClusterOptionList_0
    902            {
    903              return (ZMemError);
   \   00000A   7910         MOV       R1,#0x10
   \   00000C   8022         SJMP      ??CrossCallReturnLabel_30
    904            }
    905          
    906            pNewItem->next = (zclClusterOptionList *)NULL;
   \                     ??zcl_registerClusterOptionList_0:
   \   00000E   12....       LCALL     ?Subroutine15 & 0xFFFF
    907            pNewItem->endpoint = endpoint;
    908            pNewItem->numOptions = numOption;
    909            pNewItem->options = optionList;
    910          
    911            // Find spot in list
    912            if ( clusterOptionList == NULL )
   \                     ??CrossCallReturnLabel_3:
   \   000011   90....       MOV       DPTR,#clusterOptionList
   \   000014   12....       LCALL     ??Subroutine220_0 & 0xFFFF
   \                     ??CrossCallReturnLabel_386:
   \   000017   90....       MOV       DPTR,#clusterOptionList
   \   00001A   6011         JZ        ??zcl_registerClusterOptionList_1
    913            {
    914              clusterOptionList = pNewItem;
    915            }
    916            else
    917            {
    918              // Look for end of list
    919              pLoop = clusterOptionList;
   \   00001C   12....       LCALL     ?Subroutine127 & 0xFFFF
   \                     ??CrossCallReturnLabel_222:
   \   00001F   8003         SJMP      ??zcl_registerClusterOptionList_2
    920              while ( pLoop->next != NULL )
    921              {
    922                pLoop = pLoop->next;
   \                     ??zcl_registerClusterOptionList_3:
   \   000021   EA           MOV       A,R2
   \   000022   FC           MOV       R4,A
   \   000023   EB           MOV       A,R3
    923              }
   \                     ??zcl_registerClusterOptionList_2:
   \   000024   12....       LCALL     ?Subroutine51 & 0xFFFF
   \                     ??CrossCallReturnLabel_380:
   \   000027   70F8         JNZ       ??zcl_registerClusterOptionList_3
    924          
    925              // Put new item at end of list
    926              pLoop->next = pNewItem;
   \   000029   8C82         MOV       DPL,R4
   \   00002B   8D83         MOV       DPH,R5
    927            }
   \                     ??zcl_registerClusterOptionList_1:
   \   00002D   12....       LCALL     ?Subroutine29 & 0xFFFF
    928          
    929            return ( ZSuccess );
   \                     ??CrossCallReturnLabel_30:
   \   000030   80..         SJMP      ??Subroutine216_0
    930          }
    931          
    932          /*********************************************************************
    933           * @fn          zcl_registerValidateAttrData
    934           *
    935           * @brief       Add a validation function for attribute data
    936           *
    937           * @param       pfnValidateAttrData - function pointer to validate routine
    938           *
    939           * @return      ZSuccess if OK
    940           */

   \                                 In  segment BANKED_CODE, align 1, keep-with-next
    941          ZStatus_t zcl_registerValidateAttrData( zclValidateAttrData_t pfnValidateAttrData )
   \                     zcl_registerValidateAttrData:
    942          {
   \   000000   C082         PUSH      DPL
   \   000002   C083         PUSH      DPH
   \   000004                ; Saved register size: 2
   \   000004                ; Auto size: 0
    943            zcl_ValidateAttrDataCB = pfnValidateAttrData;
   \   000004   90....       MOV       DPTR,#zcl_ValidateAttrDataCB
   \   000007   12....       LCALL     ??Subroutine277_0 & 0xFFFF
    944          
    945            return ( ZSuccess );
   \                     ??CrossCallReturnLabel_698:
   \   00000A   7900         MOV       R1,#0x0
   \   00000C                REQUIRE ?Subroutine0
   \   00000C                ; // Fall through to label ?Subroutine0
    946          }
    947          
    948          /*********************************************************************
    949           * @fn          zcl_registerReadWriteCB
    950           *
    951           * @brief       Register the application's callback function to read/write
    952           *              attribute data, and authorize read/write operation.
    953           *
    954           *              Note: The pfnReadWriteCB callback function is only required
    955           *                    when the attribute data format is unknown to ZCL. The
    956           *                    callback function gets called when the pointer 'dataPtr'
    957           *                    to the attribute value is NULL in the attribute database
    958           *                    registered with the ZCL.
    959           *
    960           *              Note: The pfnAuthorizeCB callback function is only required
    961           *                    when the Read/Write operation on an attribute requires
    962           *                    authorization (i.e., attributes with ACCESS_CONTROL_AUTH_READ
    963           *                    or ACCESS_CONTROL_AUTH_WRITE access permissions).
    964           *
    965           * @param       endpoint - application's endpoint
    966           * @param       pfnReadWriteCB - function pointer to read/write routine
    967           * @param       pfnAuthorizeCB - function pointer to authorize read/write operation
    968           *
    969           * @return      ZSuccess if successful. ZFailure, otherwise.
    970           */

   \                                 In  segment BANKED_CODE, align 1, keep-with-next
    971          ZStatus_t zcl_registerReadWriteCB( uint8 endpoint, zclReadWriteCB_t pfnReadWriteCB,
   \                     zcl_registerReadWriteCB:
    972                                             zclAuthorizeCB_t pfnAuthorizeCB )
    973          {
   \   000000                REQUIRE ?V0
   \   000000                REQUIRE ?V1
   \   000000                REQUIRE ?V2
   \   000000                REQUIRE ?V4
   \   000000                REQUIRE ?V5
   \   000000   74F2         MOV       A,#-0xe
   \   000002   12....       LCALL     ?BANKED_ENTER_XDATA
   \   000005                ; Saved register size: 14
   \   000005                ; Auto size: 0
   \   000005   EA           MOV       A,R2
   \   000006   FE           MOV       R6,A
   \   000007   EB           MOV       A,R3
   \   000008   FF           MOV       R7,A
   \   000009   8C..         MOV       ?V0,R4
   \   00000B   8D..         MOV       ?V1,R5
    974            zclAttrRecsList *pRec = zclFindAttrRecsList( endpoint );
   \   00000D                ; Setup parameters for call to function zclFindAttrRecsList
   \   00000D   12....       LCALL     `??zclFindAttrRecsList::?relay`; Banked call to: zclFindAttrRecsList
   \   000010   8B..         MOV       ?V5,R3
   \   000012   A9..         MOV       R1,?V5
    975          
    976            if ( pRec != NULL )
   \   000014   EA           MOV       A,R2
   \   000015   49           ORL       A,R1
   \   000016   6019         JZ        ??zcl_registerReadWriteCB_0
    977            {
    978              pRec->pfnReadWriteCB = pfnReadWriteCB;
   \   000018   8A82         MOV       DPL,R2
   \   00001A   8B83         MOV       DPH,R3
   \   00001C   A3           INC       DPTR
   \   00001D   A3           INC       DPTR
   \   00001E   A3           INC       DPTR
   \   00001F   EE           MOV       A,R6
   \   000020   F0           MOVX      @DPTR,A
   \   000021   A3           INC       DPTR
   \   000022   EF           MOV       A,R7
   \   000023   12....       LCALL     ?Subroutine35 & 0xFFFF
    979              pRec->pfnAuthorizeCB = pfnAuthorizeCB;
   \                     ??CrossCallReturnLabel_42:
   \   000026   E5..         MOV       A,?V0
   \   000028   F0           MOVX      @DPTR,A
   \   000029   A3           INC       DPTR
   \   00002A   E5..         MOV       A,?V1
   \   00002C   F0           MOVX      @DPTR,A
    980          
    981              return ( ZSuccess );
   \   00002D   7900         MOV       R1,#0x0
   \   00002F   8002         SJMP      ??zcl_registerReadWriteCB_1
    982            }
    983          
    984            return ( ZFailure );
   \                     ??zcl_registerReadWriteCB_0:
   \   000031   7901         MOV       R1,#0x1
   \                     ??zcl_registerReadWriteCB_1:
   \   000033   02....       LJMP      ?Subroutine4 & 0xFFFF
    985          }

   \                                 In  segment BANKED_CODE, align 1, keep-with-next
   \                     ?Subroutine35:
   \   000000   12....       LCALL     ?Subroutine167 & 0xFFFF
   \                     ??CrossCallReturnLabel_287:
   \   000003   22           RET

   \                                 In  segment BANKED_CODE, align 1, keep-with-next
   \                     ?Subroutine4:
   \   000000   7F06         MOV       R7,#0x6
   \   000002   02....       LJMP      ?BANKED_LEAVE_XDATA
    986          
    987          /*********************************************************************
    988           * @fn      zcl_DeviceOperational
    989           *
    990           * @brief   Used to see whether or not the device can send or respond
    991           *          to application level commands.
    992           *
    993           * @param   srcEP - source endpoint
    994           * @param   clusterID - cluster ID
    995           * @param   frameType - command type
    996           * @param   cmd - command ID
    997           *
    998           * @return  TRUE if device is operational, FALSE otherwise
    999           */

   \                                 In  segment BANKED_CODE, align 1, keep-with-next
   \                     ?Subroutine3:
   \   000000   12....       LCALL     ?DEALLOC_XSTACK8
   \   000003                REQUIRE ??Subroutine216_0
   \   000003                ; // Fall through to label ??Subroutine216_0

   \                                 In  segment BANKED_CODE, align 1, keep-with-next
   1000          static uint8 zcl_DeviceOperational( uint8 srcEP, uint16 clusterID,
   \                     zcl_DeviceOperational:
   1001                                              uint8 frameType, uint8 cmd, uint16 profileID )
   1002          {
   \   000000                REQUIRE ?V0
   \   000000                REQUIRE ?V2
   \   000000                REQUIRE ?V3
   \   000000   74F4         MOV       A,#-0xc
   \   000002   12....       LCALL     ?BANKED_ENTER_XDATA
   \   000005                ; Saved register size: 12
   \   000005                ; Auto size: 9
   \   000005   74F7         MOV       A,#-0x9
   \   000007   12....       LCALL     ?ALLOC_XSTACK8
   \   00000A   E9           MOV       A,R1
   \   00000B   FE           MOV       R6,A
   1003            zclAttrRec_t attrRec;
   1004            uint8 deviceEnabled = DEVICE_ENABLED; // default value
   \   00000C   85..82       MOV       DPL,?XSP + 0
   \   00000F   85..83       MOV       DPH,?XSP + 1
   \   000012   7401         MOV       A,#0x1
   \   000014   F0           MOVX      @DPTR,A
   1005          
   1006            (void)profileID;  // Intentionally unreferenced parameter
   1007          
   1008            // If the device is Disabled (DeviceEnabled attribute is set to Disabled), it
   1009            // cannot send or respond to application level commands, other than commands
   1010            // to read or write attributes. Note that the Identify cluster cannot be
   1011            // disabled, and remains functional regardless of this setting.
   1012            if ( zcl_ProfileCmd( frameType ) && cmd <= ZCL_CMD_WRITE_NO_RSP )
   \   000015   EC           MOV       A,R4
   \   000016   7006         JNZ       ??zcl_DeviceOperational_0
   \   000018   ED           MOV       A,R5
   \   000019   C3           CLR       C
   \   00001A   9406         SUBB      A,#0x6
   \   00001C   404D         JC        ??zcl_DeviceOperational_1
   1013            {
   1014              return ( TRUE );
   1015            }
   1016          
   1017            if ( clusterID == ZCL_CLUSTER_ID_GEN_IDENTIFY )
   \                     ??zcl_DeviceOperational_0:
   \   00001E   7403         MOV       A,#0x3
   \   000020   6A           XRL       A,R2
   \   000021   4B           ORL       A,R3
   \   000022   6047         JZ        ??zcl_DeviceOperational_1
   1018            {
   1019              return ( TRUE );
   1020            }
   1021          
   1022            // Is device enabled?
   1023            if ( zclFindAttrRec( srcEP, ZCL_CLUSTER_ID_GEN_BASIC,
   1024                                 ATTRID_BASIC_DEVICE_ENABLED, &attrRec ) )
   \   000024                ; Setup parameters for call to function zclFindAttrRec
   \   000024   7401         MOV       A,#0x1
   \   000026   12....       LCALL     ?XSTACK_DISP100_8
   \   000029   88..         MOV       ?V2,R0
   \   00002B   89..         MOV       ?V3,R1
   \   00002D   78..         MOV       R0,#?V2
   \   00002F   12....       LCALL     ?PUSH_XSTACK_I_TWO
   \   000032   7C12         MOV       R4,#0x12
   \   000034   7D00         MOV       R5,#0x0
   \   000036   7A00         MOV       R2,#0x0
   \   000038   7B00         MOV       R3,#0x0
   \   00003A   EE           MOV       A,R6
   \   00003B   12....       LCALL     ?Subroutine151 & 0xFFFF
   \                     ??CrossCallReturnLabel_368:
   \   00003E   12....       LCALL     ?DEALLOC_XSTACK8
   \   000041   E9           MOV       A,R1
   \   000042   601C         JZ        ??zcl_DeviceOperational_2
   1025            {
   1026          #ifdef ZCL_READ
   1027              zclReadAttrData( &deviceEnabled, &attrRec, NULL );
   \   000044                ; Setup parameters for call to function zclReadAttrData
   \   000044   E4           CLR       A
   \   000045   F5..         MOV       ?V2,A
   \   000047   F5..         MOV       ?V3,A
   \   000049   78..         MOV       R0,#?V2
   \   00004B   12....       LCALL     ?PUSH_XSTACK_I_TWO
   \   00004E   7403         MOV       A,#0x3
   \   000050   12....       LCALL     ?XSTACK_DISP102_8
   \   000053   7402         MOV       A,#0x2
   \   000055   12....       LCALL     ?XSTACK_DISP101_8
   \   000058   12....       LCALL     `??zclReadAttrData::?relay`; Banked call to: zclReadAttrData
   \   00005B   7402         MOV       A,#0x2
   \   00005D   12....       LCALL     ?DEALLOC_XSTACK8
   1028          #endif
   1029            }
   1030          
   1031            return ( deviceEnabled == DEVICE_ENABLED ? TRUE : FALSE );
   \                     ??zcl_DeviceOperational_2:
   \   000060   85..82       MOV       DPL,?XSP + 0
   \   000063   85..83       MOV       DPH,?XSP + 1
   \   000066   E0           MOVX      A,@DPTR
   \   000067   6401         XRL       A,#0x1
   \   000069   7004         JNZ       ??zcl_DeviceOperational_3
   \                     ??zcl_DeviceOperational_1:
   \   00006B   7901         MOV       R1,#0x1
   \   00006D   8002         SJMP      ??zcl_DeviceOperational_4
   \                     ??zcl_DeviceOperational_3:
   \   00006F   7900         MOV       R1,#0x0
   \                     ??zcl_DeviceOperational_4:
   \   000071   7409         MOV       A,#0x9
   \   000073   02....       LJMP      ?Subroutine3 & 0xFFFF
   1032          }

   \                                 In  segment BANKED_CODE, align 1, keep-with-next
   \                     ?Subroutine151:
   \   000000   F9           MOV       R1,A
   \   000001                REQUIRE ??Subroutine217_0
   \   000001                ; // Fall through to label ??Subroutine217_0

   \                                 In  segment BANKED_CODE, align 1, keep-with-next
   \                     ??Subroutine217_0:
   \   000000   12....       LCALL     `??zclFindAttrRec::?relay`; Banked call to: zclFindAttrRec
   \   000003   7402         MOV       A,#0x2
   \   000005   22           RET
   1033          
   1034          /*********************************************************************
   1035           * @fn      zcl_SendCommand
   1036           *
   1037           * @brief   Used to send Profile and Cluster Specific Command messages.
   1038           *
   1039           *          NOTE: The calling application is responsible for incrementing
   1040           *                the Sequence Number.
   1041           *
   1042           * @param   srcEp - source endpoint
   1043           * @param   destAddr - destination address
   1044           * @param   clusterID - cluster ID
   1045           * @param   cmd - command ID
   1046           * @param   specific - whether the command is Cluster Specific
   1047           * @param   direction - client/server direction of the command
   1048           * @param   disableDefaultRsp - disable Default Response command
   1049           * @param   manuCode - manufacturer code for proprietary extensions to a profile
   1050           * @param   seqNumber - identification number for the transaction
   1051           * @param   cmdFormatLen - length of the command to be sent
   1052           * @param   cmdFormat - command to be sent
   1053           *
   1054           * @return  ZSuccess if OK
   1055           */

   \                                 In  segment BANKED_CODE, align 1, keep-with-next
   1056          ZStatus_t zcl_SendCommand( uint8 srcEP, afAddrType_t *destAddr,
   \                     zcl_SendCommand:
   1057                                     uint16 clusterID, uint8 cmd, uint8 specific, uint8 direction,
   1058                                     uint8 disableDefaultRsp, uint16 manuCode, uint8 seqNum,
   1059                                     uint16 cmdFormatLen, uint8 *cmdFormat )
   1060          {
   \   000000                REQUIRE ?V0
   \   000000                REQUIRE ?V1
   \   000000                REQUIRE ?V2
   \   000000                REQUIRE ?V3
   \   000000                REQUIRE ?V4
   \   000000                REQUIRE ?V5
   \   000000                REQUIRE ?V6
   \   000000                REQUIRE ?V7
   \   000000                REQUIRE ?V8
   \   000000                REQUIRE ?V9
   \   000000                REQUIRE ?V10
   \   000000                REQUIRE ?V12
   \   000000                REQUIRE ?V13
   \   000000                REQUIRE ?V14
   \   000000                REQUIRE ?V15
   \   000000   74E8         MOV       A,#-0x18
   \   000002   12....       LCALL     ?BANKED_ENTER_XDATA
   \   000005                ; Saved register size: 24
   \   000005                ; Auto size: 6
   \   000005   74FA         MOV       A,#-0x6
   \   000007   12....       LCALL     ?ALLOC_XSTACK8
   \   00000A   89..         MOV       ?V10,R1
   \   00000C   8A..         MOV       ?V14,R2
   \   00000E   8B..         MOV       ?V15,R3
   \   000010   8C..         MOV       ?V0,R4
   \   000012   8D..         MOV       ?V1,R5
   1061            endPointDesc_t *epDesc;
   1062            zclFrameHdr_t hdr;
   1063            uint8 *msgBuf;
   1064            uint16 msgLen;
   1065            uint8 *pBuf;
   1066            uint8 options;
   1067            ZStatus_t status;
   1068          
   1069            epDesc = afFindEndPointDesc( srcEP );
   \   000014                ; Setup parameters for call to function afFindEndPointDesc
   \   000014   12....       LCALL     `??afFindEndPointDesc::?relay`; Banked call to: afFindEndPointDesc
   \   000017   8A..         MOV       ?V12,R2
   \   000019   8B..         MOV       ?V13,R3
   1070            if ( epDesc == NULL )
   \   00001B   EA           MOV       A,R2
   \   00001C   4B           ORL       A,R3
   \   00001D   7005         JNZ       ??zcl_SendCommand_0
   1071            {
   1072              return ( ZInvalidParameter ); // EMBEDDED RETURN
   \   00001F   7902         MOV       R1,#0x2
   \   000021   02....       LJMP      ??zcl_SendCommand_1 & 0xFFFF
   1073            }
   1074          
   1075          #if defined ( INTER_PAN )
   1076            if ( StubAPS_InterPan( destAddr->panId, destAddr->endPoint ) )
   1077            {
   1078              options = AF_TX_OPTIONS_NONE;
   1079            }
   1080            else
   1081          #endif
   1082            {
   1083              options = zclGetClusterOption( srcEP, clusterID );
   \                     ??zcl_SendCommand_0:
   \   000024                ; Setup parameters for call to function zclGetClusterOption
   \   000024   AA..         MOV       R2,?V0
   \   000026   AB..         MOV       R3,?V1
   \   000028   A9..         MOV       R1,?V10
   \   00002A   12....       LCALL     `??zclGetClusterOption::?relay`; Banked call to: zclGetClusterOption
   \   00002D   E9           MOV       A,R1
   \   00002E   F5..         MOV       ?V7,A
   1084          
   1085              // The cluster might not have been defined to use security but if this message
   1086              // is in response to another message that was using APS security this message
   1087              // will be sent with APS security
   1088              if ( !( options & AF_EN_SECURITY ) )
   \   000030   A2E6         MOV       C,0xE0 /* A   */.6
   \   000032   401C         JC        ??zcl_SendCommand_2
   1089              {
   1090                afIncomingMSGPacket_t *origPkt = zcl_getRawAFMsg();
   \   000034   90....       MOV       DPTR,#rawAFMsg
   \   000037   12....       LCALL     ??Subroutine239_0 & 0xFFFF
   1091          
   1092                if ( ( origPkt != NULL ) && ( origPkt->SecurityUse == TRUE ) )
   \                     ??CrossCallReturnLabel_471:
   \   00003A   6014         JZ        ??zcl_SendCommand_2
   \   00003C   E8           MOV       A,R0
   \   00003D   2419         ADD       A,#0x19
   \   00003F   F582         MOV       DPL,A
   \   000041   E4           CLR       A
   \   000042   39           ADDC      A,R1
   \   000043   F583         MOV       DPH,A
   \   000045   E0           MOVX      A,@DPTR
   \   000046   6401         XRL       A,#0x1
   \   000048   7006         JNZ       ??zcl_SendCommand_2
   1093                {
   1094                  options |= AF_EN_SECURITY;
   \   00004A   E5..         MOV       A,?V7
   \   00004C   D2E6         SETB      0xE0 /* A   */.6
   \   00004E   F5..         MOV       ?V7,A
   1095                }
   1096              }
   1097            }
   1098          
   1099            zcl_memset( &hdr, 0, sizeof( zclFrameHdr_t ) );
   \                     ??zcl_SendCommand_2:
   \   000050                ; Setup parameters for call to function osal_memset
   \   000050   7C06         MOV       R4,#0x6
   \   000052   7D00         MOV       R5,#0x0
   \   000054   7900         MOV       R1,#0x0
   \   000056   AA..         MOV       R2,?XSP + 0
   \   000058   AB..         MOV       R3,?XSP + 1
   \   00005A   12....       LCALL     `??osal_memset::?relay`; Banked call to: osal_memset
   1100          
   1101            // Not Profile wide command (like READ, WRITE)
   1102            if ( specific )
   \   00005D   741F         MOV       A,#0x1f
   \   00005F   12....       LCALL     ?XSTACK_DISP0_8
   \   000062   12....       LCALL     ?Subroutine129 & 0xFFFF
   \                     ??CrossCallReturnLabel_227:
   \   000065   6009         JZ        ??zcl_SendCommand_3
   1103            {
   1104              hdr.fc.type = ZCL_FRAME_TYPE_SPECIFIC_CMD;
   \   000067   E0           MOVX      A,@DPTR
   \   000068   54FC         ANL       A,#0xfc
   \   00006A   F0           MOVX      @DPTR,A
   \   00006B   E0           MOVX      A,@DPTR
   \   00006C   4401         ORL       A,#0x1
   \   00006E   8003         SJMP      ??zcl_SendCommand_4
   1105            }
   1106            else
   1107            {
   1108              hdr.fc.type = ZCL_FRAME_TYPE_PROFILE_CMD;
   \                     ??zcl_SendCommand_3:
   \   000070   E0           MOVX      A,@DPTR
   \   000071   54FC         ANL       A,#0xfc
   1109            }
   \                     ??zcl_SendCommand_4:
   \   000073   12....       LCALL     ?Subroutine206 & 0xFFFF
   1110          
   1111            if ( ( epDesc->simpleDesc == NULL ) ||
   1112                 ( zcl_DeviceOperational( srcEP, clusterID, hdr.fc.type,
   1113                                          cmd, epDesc->simpleDesc->AppProfId ) == FALSE ) )
   \                     ??CrossCallReturnLabel_350:
   \   000076   A3           INC       DPTR
   \   000077   12....       LCALL     ??Subroutine238_0 & 0xFFFF
   \                     ??CrossCallReturnLabel_482:
   \   00007A   602B         JZ        ??zcl_SendCommand_5
   \   00007C   741E         MOV       A,#0x1e
   \   00007E   12....       LCALL     ?XSTACK_DISP0_8
   \   000081   E0           MOVX      A,@DPTR
   \   000082   FE           MOV       R6,A
   \   000083                ; Setup parameters for call to function zcl_DeviceOperational
   \   000083   8882         MOV       DPL,R0
   \   000085   8983         MOV       DPH,R1
   \   000087   A3           INC       DPTR
   \   000088   12....       LCALL     ?PUSH_XSTACK8_X_TWO
   \   00008B   EE           MOV       A,R6
   \   00008C   FD           MOV       R5,A
   \   00008D   7402         MOV       A,#0x2
   \   00008F   12....       LCALL     ?XSTACK_DISP0_8
   \   000092   E0           MOVX      A,@DPTR
   \   000093   5403         ANL       A,#0x3
   \   000095   FC           MOV       R4,A
   \   000096   AA..         MOV       R2,?V0
   \   000098   AB..         MOV       R3,?V1
   \   00009A   A9..         MOV       R1,?V10
   \   00009C   12....       LCALL     `??zcl_DeviceOperational::?relay`; Banked call to: zcl_DeviceOperational
   \   00009F   7402         MOV       A,#0x2
   \   0000A1   12....       LCALL     ?DEALLOC_XSTACK8
   \   0000A4   E9           MOV       A,R1
   \   0000A5   7005         JNZ       ??zcl_SendCommand_6
   1114            {
   1115              return ( ZFailure ); // EMBEDDED RETURN
   \                     ??zcl_SendCommand_5:
   \   0000A7   7901         MOV       R1,#0x1
   \   0000A9   02....       LJMP      ??zcl_SendCommand_1 & 0xFFFF
   1116            }
   \                     ??zcl_SendCommand_6:
   \   0000AC   7422         MOV       A,#0x22
   \   0000AE   12....       LCALL     ?XSTACK_DISP0_8
   \   0000B1   12....       LCALL     ??Subroutine239_0 & 0xFFFF
   1117          
   1118            // Fill in the Maufacturer Code
   1119            if ( manuCode != 0 )
   \                     ??CrossCallReturnLabel_472:
   \   0000B4   6012         JZ        ??CrossCallReturnLabel_488
   1120            {
   1121              hdr.fc.manuSpecific = 1;
   \   0000B6   85..82       MOV       DPL,?XSP + 0
   \   0000B9   85..83       MOV       DPH,?XSP + 1
   \   0000BC   E0           MOVX      A,@DPTR
   \   0000BD   4404         ORL       A,#0x4
   \   0000BF   F0           MOVX      @DPTR,A
   1122              hdr.manuCode = manuCode;
   \   0000C0   7402         MOV       A,#0x2
   \   0000C2   12....       LCALL     ?XSTACK_DISP0_8
   \   0000C5   12....       LCALL     ??Subroutine240_0 & 0xFFFF
   1123            }
   1124          
   1125            // Set the Command Direction
   1126            if ( direction )
   \                     ??CrossCallReturnLabel_488:
   \   0000C8   7420         MOV       A,#0x20
   \   0000CA   12....       LCALL     ?XSTACK_DISP0_8
   \   0000CD   12....       LCALL     ?Subroutine129 & 0xFFFF
   \                     ??CrossCallReturnLabel_228:
   \   0000D0   6005         JZ        ??zcl_SendCommand_7
   1127            {
   1128              hdr.fc.direction = ZCL_FRAME_SERVER_CLIENT_DIR;
   \   0000D2   E0           MOVX      A,@DPTR
   \   0000D3   4408         ORL       A,#0x8
   \   0000D5   8003         SJMP      ??zcl_SendCommand_8
   1129            }
   1130            else
   1131            {
   1132              hdr.fc.direction = ZCL_FRAME_CLIENT_SERVER_DIR;
   \                     ??zcl_SendCommand_7:
   \   0000D7   E0           MOVX      A,@DPTR
   \   0000D8   54F7         ANL       A,#0xf7
   \                     ??zcl_SendCommand_8:
   \   0000DA   F0           MOVX      @DPTR,A
   1133            }
   1134          
   1135            // Set the Disable Default Response field
   1136            if ( disableDefaultRsp )
   \   0000DB   7421         MOV       A,#0x21
   \   0000DD   12....       LCALL     ?XSTACK_DISP0_8
   \   0000E0   12....       LCALL     ?Subroutine129 & 0xFFFF
   \                     ??CrossCallReturnLabel_229:
   \   0000E3   6005         JZ        ??zcl_SendCommand_9
   1137            {
   1138              hdr.fc.disableDefaultRsp = 1;
   \   0000E5   E0           MOVX      A,@DPTR
   \   0000E6   4410         ORL       A,#0x10
   \   0000E8   8003         SJMP      ??zcl_SendCommand_10
   1139            }
   1140            else
   1141            {
   1142              hdr.fc.disableDefaultRsp = 0;
   \                     ??zcl_SendCommand_9:
   \   0000EA   E0           MOVX      A,@DPTR
   \   0000EB   54EF         ANL       A,#0xef
   \                     ??zcl_SendCommand_10:
   \   0000ED   F0           MOVX      @DPTR,A
   1143            }
   1144          
   1145            // Fill in the Transaction Sequence Number
   1146            hdr.transSeqNum = seqNum;
   \   0000EE   7424         MOV       A,#0x24
   \   0000F0   12....       LCALL     ?XSTACK_DISP0_8
   \   0000F3   E0           MOVX      A,@DPTR
   \   0000F4   C0E0         PUSH      A
   \   0000F6   7404         MOV       A,#0x4
   \   0000F8   12....       LCALL     ?XSTACK_DISP0_8
   \   0000FB   D0E0         POP       A
   \   0000FD   F0           MOVX      @DPTR,A
   1147          
   1148            // Fill in the command
   1149            hdr.commandID = cmd;
   \   0000FE   7405         MOV       A,#0x5
   \   000100   12....       LCALL     ?XSTACK_DISP0_8
   \   000103   EE           MOV       A,R6
   \   000104   F0           MOVX      @DPTR,A
   1150          
   1151            // calculate the needed buffer size
   1152            msgLen = zclCalcHdrSize( &hdr );
   \   000105   7803         MOV       R0,#0x3
   \   000107   85..82       MOV       DPL,?XSP + 0
   \   00010A   85..83       MOV       DPH,?XSP + 1
   \   00010D   E0           MOVX      A,@DPTR
   \   00010E   5404         ANL       A,#0x4
   \   000110   6002         JZ        ??zcl_SendCommand_11
   \   000112   7805         MOV       R0,#0x5
   \                     ??zcl_SendCommand_11:
   \   000114   7425         MOV       A,#0x25
   \   000116   12....       LCALL     ?XSTACK_DISP0_8
   \   000119   12....       LCALL     ?Subroutine124 & 0xFFFF
   1153            msgLen += cmdFormatLen;
   \                     ??CrossCallReturnLabel_216:
   \   00011C   25..         ADD       A,?V8
   \   00011E   FE           MOV       R6,A
   \   00011F   E4           CLR       A
   \   000120   35..         ADDC      A,?V9
   \   000122   FF           MOV       R7,A
   1154          
   1155            // Allocate the buffer needed
   1156            msgBuf = zcl_mem_alloc( msgLen );
   \   000123                ; Setup parameters for call to function osal_mem_alloc
   \   000123   12....       LCALL     ?Subroutine144 & 0xFFFF
   1157            if ( msgBuf != NULL )
   \                     ??CrossCallReturnLabel_248:
   \   000126   6063         JZ        ??zcl_SendCommand_12
   1158            {
   1159              // Fill in the ZCL Header
   1160              pBuf = zclBuildHdr( &hdr, msgBuf );
   \   000128                ; Setup parameters for call to function zclBuildHdr
   \   000128   AC..         MOV       R4,?V2
   \   00012A   AD..         MOV       R5,?V3
   \   00012C   AA..         MOV       R2,?XSP + 0
   \   00012E   AB..         MOV       R3,?XSP + 1
   \   000130   12....       LCALL     `??zclBuildHdr::?relay`; Banked call to: zclBuildHdr
   1161          
   1162              // Fill in the command frame
   1163              zcl_memcpy( pBuf, cmdFormat, cmdFormatLen );
   \   000133                ; Setup parameters for call to function osal_memcpy
   \   000133   7427         MOV       A,#0x27
   \   000135   12....       LCALL     ?XSTACK_DISP0_8
   \   000138   12....       LCALL     ?Subroutine64 & 0xFFFF
   \                     ??CrossCallReturnLabel_106:
   \   00013B   12....       LCALL     ?PUSH_XSTACK_I_THREE
   \   00013E   AC..         MOV       R4,?V8
   \   000140   AD..         MOV       R5,?V9
   \   000142   12....       LCALL     ??Subroutine247_0 & 0xFFFF
   \                     ??CrossCallReturnLabel_533:
   \   000145   12....       LCALL     ?DEALLOC_XSTACK8
   1164          
   1165              status = AF_DataRequest( destAddr, epDesc, clusterID, msgLen, msgBuf,
   1166                                       &zcl_TransID, options, AF_DEFAULT_RADIUS );
   \   000148                ; Setup parameters for call to function AF_DataRequest
   \   000148   75..1E       MOV       ?V4,#0x1e
   \   00014B   78..         MOV       R0,#?V4
   \   00014D   12....       LCALL     ?PUSH_XSTACK_I_ONE
   \   000150   75....       MOV       ?V4,#zcl_TransID & 0xff
   \   000153   75....       MOV       ?V5,#(zcl_TransID >> 8) & 0xff
   \   000156   78..         MOV       R0,#?V4
   \   000158   12....       LCALL     ?PUSH_XSTACK_I_TWO
   \   00015B   78..         MOV       R0,#?V2
   \   00015D   12....       LCALL     ?PUSH_XSTACK_I_TWO
   \   000160   8E..         MOV       ?V4,R6
   \   000162   8F..         MOV       ?V5,R7
   \   000164   78..         MOV       R0,#?V4
   \   000166   12....       LCALL     ?PUSH_XSTACK_I_TWO
   \   000169   78..         MOV       R0,#?V0
   \   00016B   12....       LCALL     ?PUSH_XSTACK_I_TWO
   \   00016E   A9..         MOV       R1,?V7
   \   000170   AC..         MOV       R4,?V12
   \   000172   AD..         MOV       R5,?V13
   \   000174   AA..         MOV       R2,?V14
   \   000176   AB..         MOV       R3,?V15
   \   000178   12....       LCALL     `??AF_DataRequest::?relay`; Banked call to: AF_DataRequest
   \   00017B   7409         MOV       A,#0x9
   \   00017D   12....       LCALL     ?DEALLOC_XSTACK8
   \   000180   E9           MOV       A,R1
   \   000181   FE           MOV       R6,A
   1167              zcl_mem_free ( msgBuf );
   \   000182                ; Setup parameters for call to function osal_mem_free
   \   000182   AA..         MOV       R2,?V2
   \   000184   AB..         MOV       R3,?V3
   \   000186   12....       LCALL     `??osal_mem_free::?relay`; Banked call to: osal_mem_free
   \   000189   8002         SJMP      ??zcl_SendCommand_13
   1168            }
   1169            else
   1170            {
   1171              status = ZMemError;
   \                     ??zcl_SendCommand_12:
   \   00018B   7E10         MOV       R6,#0x10
   1172            }
   1173          
   1174            return ( status );
   \                     ??zcl_SendCommand_13:
   \   00018D   EE           MOV       A,R6
   \   00018E   F9           MOV       R1,A
   \                     ??zcl_SendCommand_1:
   \   00018F   7406         MOV       A,#0x6
   \   000191   02....       LJMP      ?Subroutine5 & 0xFFFF
   1175          }

   \                                 In  segment BANKED_CODE, align 1, keep-with-next
   \                     ?Subroutine129:
   \   000000   12....       LCALL     ?Subroutine207 & 0xFFFF
   \                     ??CrossCallReturnLabel_353:
   \   000003   22           RET

   \                                 In  segment BANKED_CODE, align 1, keep-with-next
   \                     ?Subroutine207:
   \   000000   E0           MOVX      A,@DPTR
   \   000001   85..82       MOV       DPL,?XSP + 0
   \   000004   85..83       MOV       DPH,?XSP + 1
   \   000007   22           RET

   \                                 In  segment BANKED_CODE, align 1, keep-with-next
   \                     ?Subroutine144:
   \   000000   EE           MOV       A,R6
   \   000001   FA           MOV       R2,A
   \   000002   EF           MOV       A,R7
   \   000003   FB           MOV       R3,A
   \   000004   12....       LCALL     `??osal_mem_alloc::?relay`; Banked call to: osal_mem_alloc
   \   000007   8A..         MOV       ?V2,R2
   \   000009   8B..         MOV       ?V3,R3
   \   00000B   EA           MOV       A,R2
   \   00000C   4B           ORL       A,R3
   \   00000D   22           RET

   \                                 In  segment BANKED_CODE, align 1, keep-with-next
   \                     ?Subroutine206:
   \   000000   F0           MOVX      @DPTR,A
   \   000001   85..82       MOV       DPL,?V12
   \   000004   85..83       MOV       DPH,?V13
   \   000007   A3           INC       DPTR
   \   000008   22           RET

   \                                 In  segment BANKED_CODE, align 1, keep-with-next
   \                     ?Subroutine182:
   \   000000   E0           MOVX      A,@DPTR
   \   000001   F5..         MOV       ?V4,A
   \   000003   A3           INC       DPTR
   \   000004   E0           MOVX      A,@DPTR
   \   000005   F5..         MOV       ?V5,A
   \   000007   22           RET

   \                                 In  segment BANKED_CODE, align 1, keep-with-next
   \                     ??Subroutine238_0:
   \   000000   A3           INC       DPTR
   \   000001   A3           INC       DPTR
   \   000002                REQUIRE ??Subroutine239_0
   \   000002                ; // Fall through to label ??Subroutine239_0

   \                                 In  segment BANKED_CODE, align 1, keep-with-next
   \                     ??Subroutine240_0:
   \   000000   E8           MOV       A,R0
   \   000001                REQUIRE ??Subroutine241_0
   \   000001                ; // Fall through to label ??Subroutine241_0

   \                                 In  segment BANKED_CODE, align 1, keep-with-next
   \                     ??Subroutine241_0:
   \   000000   F0           MOVX      @DPTR,A
   \   000001   A3           INC       DPTR
   \   000002   E9           MOV       A,R1
   \   000003   F0           MOVX      @DPTR,A
   \   000004   22           RET

   \                                 In  segment BANKED_CODE, align 1, keep-with-next
   \                     ?Subroutine64:
   \   000000   12....       LCALL     ?Subroutine182 & 0xFFFF
   \                     ??CrossCallReturnLabel_314:
   \   000003   75..00       MOV       ?V6,#0x0
   \   000006   78..         MOV       R0,#?V4
   \   000008   22           RET

   \                                 In  segment BANKED_CODE, align 1, keep-with-next
   \                     ??Subroutine247_0:
   \   000000   12....       LCALL     `??osal_memcpy::?relay`; Banked call to: osal_memcpy
   \   000003   7403         MOV       A,#0x3
   \   000005   22           RET

   \                                 In  segment BANKED_CODE, align 1, keep-with-next
   \                     ?Subroutine5:
   \   000000   12....       LCALL     ?DEALLOC_XSTACK8
   \   000003                REQUIRE ??Subroutine260_0
   \   000003                ; // Fall through to label ??Subroutine260_0

   \                                 In  segment BANKED_CODE, align 1, keep-with-next
   \                     ??Subroutine260_0:
   \   000000   7F10         MOV       R7,#0x10
   \   000002   02....       LJMP      ?BANKED_LEAVE_XDATA
   1176          
   1177          #ifdef ZCL_READ
   1178          /*********************************************************************
   1179           * @fn      zcl_SendRead
   1180           *
   1181           * @brief   Send a Read command
   1182           *
   1183           * @param   srcEP - Application's endpoint
   1184           * @param   dstAddr - destination address
   1185           * @param   clusterID - cluster ID
   1186           * @param   readCmd - read command to be sent
   1187           * @param   direction - direction of the command
   1188           * @param   seqNum - transaction sequence number
   1189           *
   1190           * @return  ZSuccess if OK
   1191           */

   \                                 In  segment BANKED_CODE, align 1, keep-with-next
   1192          ZStatus_t zcl_SendRead( uint8 srcEP, afAddrType_t *dstAddr,
   \                     zcl_SendRead:
   1193                                  uint16 clusterID, zclReadCmd_t *readCmd,
   1194                                  uint8 direction, uint8 disableDefaultRsp, uint8 seqNum)
   1195          {
   \   000000                REQUIRE ?V0
   \   000000                REQUIRE ?V1
   \   000000                REQUIRE ?V2
   \   000000                REQUIRE ?V3
   \   000000                REQUIRE ?V4
   \   000000                REQUIRE ?V5
   \   000000                REQUIRE ?V6
   \   000000                REQUIRE ?V7
   \   000000                REQUIRE ?V8
   \   000000                REQUIRE ?V9
   \   000000                REQUIRE ?V10
   \   000000                REQUIRE ?V11
   \   000000   74EC         MOV       A,#-0x14
   \   000002   12....       LCALL     ?BANKED_ENTER_XDATA
   \   000005                ; Saved register size: 20
   \   000005                ; Auto size: 0
   \   000005   89..         MOV       ?V2,R1
   \   000007   8A..         MOV       ?V8,R2
   \   000009   8B..         MOV       ?V9,R3
   \   00000B   EC           MOV       A,R4
   \   00000C   FE           MOV       R6,A
   \   00000D   ED           MOV       A,R5
   \   00000E   FF           MOV       R7,A
   \   00000F   7414         MOV       A,#0x14
   \   000011   12....       LCALL     ?XSTACK_DISP0_8
   \   000014   12....       LCALL     ?Subroutine62 & 0xFFFF
   1196            uint16 dataLen;
   1197            uint8 *buf;
   1198            uint8 *pBuf;
   1199            ZStatus_t status;
   1200          
   1201            dataLen = readCmd->numAttr * 2; // Attribute ID
   \                     ??CrossCallReturnLabel_103:
   \   000017   25E0         ADD       A,0xE0 /* A   */
   \   000019   F5..         MOV       ?V6,A
   \   00001B   E4           CLR       A
   \   00001C   33           RLC       A
   \   00001D   12....       LCALL     ?Subroutine139 & 0xFFFF
   1202          
   1203            buf = zcl_mem_alloc( dataLen );
   1204            if ( buf != NULL )
   \                     ??CrossCallReturnLabel_665:
   \   000020   7003         JNZ       $+5
   \   000022   02....       LJMP      ??zcl_SendRead_0 & 0xFFFF
   1205            {
   1206              uint8 i;
   1207          
   1208              // Load the buffer - serially
   1209              pBuf = buf;
   \   000025   A8..         MOV       R0,?V0
   \   000027   A9..         MOV       R1,?V1
   1210              for (i = 0; i < readCmd->numAttr; i++)
   \   000029   7C00         MOV       R4,#0x0
   \   00002B   801D         SJMP      ??zcl_SendRead_1
   1211              {
   1212                *pBuf++ = LO_UINT16( readCmd->attrID[i] );
   \                     ??zcl_SendRead_2:
   \   00002D   EC           MOV       A,R4
   \   00002E   25E0         ADD       A,0xE0 /* A   */
   \   000030   FA           MOV       R2,A
   \   000031   E4           CLR       A
   \   000032   33           RLC       A
   \   000033   FB           MOV       R3,A
   \   000034   12....       LCALL     ?Subroutine197 & 0xFFFF
   1213                *pBuf++ = HI_UINT16( readCmd->attrID[i] );
   1214              }
   \                     ??CrossCallReturnLabel_337:
   \   000037   AA82         MOV       R2,DPL
   \   000039   AB83         MOV       R3,DPH
   \   00003B   12....       LCALL     ?Subroutine112 & 0xFFFF
   \                     ??CrossCallReturnLabel_189:
   \   00003E   12....       LCALL     ?Subroutine30 & 0xFFFF
   \                     ??CrossCallReturnLabel_31:
   \   000041   F0           MOVX      @DPTR,A
   \   000042   E8           MOV       A,R0
   \   000043   2402         ADD       A,#0x2
   \   000045   F8           MOV       R0,A
   \   000046   5001         JNC       ??zcl_SendRead_3
   \   000048   09           INC       R1
   \                     ??zcl_SendRead_3:
   \   000049   0C           INC       R4
   \                     ??zcl_SendRead_1:
   \   00004A   85..82       MOV       DPL,?V4
   \   00004D   85..83       MOV       DPH,?V5
   \   000050   E0           MOVX      A,@DPTR
   \   000051   FA           MOV       R2,A
   \   000052   EC           MOV       A,R4
   \   000053   C3           CLR       C
   \   000054   9A           SUBB      A,R2
   \   000055   40D6         JC        ??zcl_SendRead_2
   1215          
   1216              status = zcl_SendCommand( srcEP, dstAddr, clusterID, ZCL_CMD_READ, FALSE,
   1217                                        direction, disableDefaultRsp, 0, seqNum, dataLen, buf );
   \   000057                ; Setup parameters for call to function zcl_SendCommand
   \   000057   78..         MOV       R0,#?V0
   \   000059   12....       LCALL     ?PUSH_XSTACK_I_TWO
   \   00005C   78..         MOV       R0,#?V6
   \   00005E   12....       LCALL     ?PUSH_XSTACK_I_TWO
   \   000061   741C         MOV       A,#0x1c
   \   000063   12....       LCALL     ?XSTACK_DISP0_8
   \   000066   12....       LCALL     ?Subroutine57 & 0xFFFF
   \                     ??CrossCallReturnLabel_74:
   \   000069   12....       LCALL     ?PUSH_XSTACK_I_ONE
   \   00006C   E4           CLR       A
   \   00006D   F5..         MOV       ?V4,A
   \   00006F   F5..         MOV       ?V5,A
   \   000071   78..         MOV       R0,#?V4
   \   000073   12....       LCALL     ?PUSH_XSTACK_I_TWO
   \   000076   741E         MOV       A,#0x1e
   \   000078   12....       LCALL     ?XSTACK_DISP0_8
   \   00007B   12....       LCALL     ?Subroutine57 & 0xFFFF
   \                     ??CrossCallReturnLabel_75:
   \   00007E   12....       LCALL     ?PUSH_XSTACK_I_ONE
   \   000081   741E         MOV       A,#0x1e
   \   000083   12....       LCALL     ?XSTACK_DISP0_8
   \   000086   12....       LCALL     ?Subroutine57 & 0xFFFF
   \                     ??CrossCallReturnLabel_76:
   \   000089   12....       LCALL     ?PUSH_XSTACK_I_ONE
   \   00008C   75..00       MOV       ?V3,#0x0
   \   00008F   78..         MOV       R0,#?V3
   \   000091   12....       LCALL     ?PUSH_XSTACK_I_ONE
   \   000094   78..         MOV       R0,#?V3
   \   000096   12....       LCALL     ?PUSH_XSTACK_I_ONE
   \   000099   12....       LCALL     ?Subroutine141 & 0xFFFF
   \                     ??CrossCallReturnLabel_413:
   \   00009C   12....       LCALL     ?DEALLOC_XSTACK8
   \   00009F   E9           MOV       A,R1
   \   0000A0   FE           MOV       R6,A
   1218              zcl_mem_free( buf );
   \   0000A1                ; Setup parameters for call to function osal_mem_free
   \   0000A1   AA..         MOV       R2,?V0
   \   0000A3   AB..         MOV       R3,?V1
   \   0000A5   12....       LCALL     `??osal_mem_free::?relay`; Banked call to: osal_mem_free
   \   0000A8   8002         SJMP      ??zcl_SendRead_4
   1219            }
   1220            else
   1221            {
   1222              status = ZMemError;
   \                     ??zcl_SendRead_0:
   \   0000AA   7E10         MOV       R6,#0x10
   1223            }
   1224          
   1225            return ( status );
   \                     ??zcl_SendRead_4:
   \   0000AC                REQUIRE ?Subroutine10
   \   0000AC                ; // Fall through to label ?Subroutine10
   1226          }

   \                                 In  segment BANKED_CODE, align 1, keep-with-next
   \                     ?Subroutine10:
   \   000000   EE           MOV       A,R6
   \   000001   F9           MOV       R1,A
   \   000002   02....       LJMP      ??Subroutine259_0 & 0xFFFF

   \                                 In  segment BANKED_CODE, align 1, keep-with-next
   \                     ?Subroutine62:
   \   000000   12....       LCALL     ?Subroutine179 & 0xFFFF
   \                     ??CrossCallReturnLabel_306:
   \   000003   E0           MOVX      A,@DPTR
   \   000004   22           RET

   \                                 In  segment BANKED_CODE, align 1, keep-with-next
   \                     ?Subroutine30:
   \   000000   12....       LCALL     ?Subroutine168 & 0xFFFF
   \                     ??CrossCallReturnLabel_290:
   \   000003   12....       LCALL     ?Subroutine180 & 0xFFFF
   \                     ??CrossCallReturnLabel_310:
   \   000006   22           RET

   \                                 In  segment BANKED_CODE, align 1, keep-with-next
   \                     ?Subroutine180:
   \   000000   12....       LCALL     ?Subroutine210 & 0xFFFF
   \                     ??CrossCallReturnLabel_402:
   \   000003   A3           INC       DPTR
   \   000004   22           RET

   \                                 In  segment BANKED_CODE, align 1, keep-with-next
   \                     ?Subroutine57:
   \   000000   E0           MOVX      A,@DPTR
   \   000001   F5..         MOV       ?V3,A
   \   000003   78..         MOV       R0,#?V3
   \   000005   22           RET

   \                                 In  segment BANKED_CODE, align 1, keep-with-next
   \                     ?Subroutine197:
   \   000000   E5..         MOV       A,?V4
   \   000002   2A           ADD       A,R2
   \   000003   F582         MOV       DPL,A
   \   000005   E5..         MOV       A,?V5
   \   000007   3B           ADDC      A,R3
   \   000008   F583         MOV       DPH,A
   \   00000A   A3           INC       DPTR
   \   00000B   22           RET

   \                                 In  segment BANKED_CODE, align 1, keep-with-next
   \                     ?Subroutine141:
   \   000000   EE           MOV       A,R6
   \   000001   FC           MOV       R4,A
   \   000002   EF           MOV       A,R7
   \   000003   FD           MOV       R5,A
   \   000004   AA..         MOV       R2,?V8
   \   000006   AB..         MOV       R3,?V9
   \   000008                REQUIRE ??Subroutine226_0
   \   000008                ; // Fall through to label ??Subroutine226_0

   \                                 In  segment BANKED_CODE, align 1, keep-with-next
   \                     ??Subroutine226_0:
   \   000000   A9..         MOV       R1,?V2
   \   000002                REQUIRE ??Subroutine227_0
   \   000002                ; // Fall through to label ??Subroutine227_0

   \                                 In  segment BANKED_CODE, align 1, keep-with-next
   \                     ?Subroutine112:
   \   000000   12....       LCALL     ?Subroutine210 & 0xFFFF
   \                     ??CrossCallReturnLabel_401:
   \   000003   22           RET

   \                                 In  segment BANKED_CODE, align 1, keep-with-next
   \                     ?Subroutine210:
   \   000000   E0           MOVX      A,@DPTR
   \   000001   8882         MOV       DPL,R0
   \   000003   8983         MOV       DPH,R1
   \   000005   22           RET

   \                                 In  segment BANKED_CODE, align 1, keep-with-next
   \                     ?Subroutine179:
   \   000000   E0           MOVX      A,@DPTR
   \   000001   F5..         MOV       ?V4,A
   \   000003   A3           INC       DPTR
   \   000004   E0           MOVX      A,@DPTR
   \   000005   F5..         MOV       ?V5,A
   \   000007   85..82       MOV       DPL,?V4
   \   00000A   F583         MOV       DPH,A
   \   00000C   22           RET

   \                                 In  segment BANKED_CODE, align 1, keep-with-next
   \                     ??Subroutine259_0:
   \   000000   7F0C         MOV       R7,#0xc
   \   000002   02....       LJMP      ?BANKED_LEAVE_XDATA

   \                                 In  segment BANKED_CODE, align 1, keep-with-next
   \                     ?Subroutine139:
   \   000000   F5..         MOV       ?V7,A
   \   000002                ; Setup parameters for call to function osal_mem_alloc
   \   000002                ; Setup parameters for call to function osal_mem_alloc
   \   000002                ; Setup parameters for call to function osal_mem_alloc
   \   000002                ; Setup parameters for call to function osal_mem_alloc
   \   000002   AA..         MOV       R2,?V6
   \   000004                REQUIRE ??Subroutine269_0
   \   000004                ; // Fall through to label ??Subroutine269_0

   \                                 In  segment BANKED_CODE, align 1, keep-with-next
   \                     ??Subroutine269_0:
   \   000000   FB           MOV       R3,A
   \   000001                REQUIRE ??Subroutine270_0
   \   000001                ; // Fall through to label ??Subroutine270_0

   \                                 In  segment BANKED_CODE, align 1, keep-with-next
   \                     ??Subroutine270_0:
   \   000000   12....       LCALL     `??osal_mem_alloc::?relay`; Banked call to: osal_mem_alloc
   \   000003   8A..         MOV       ?V0,R2
   \   000005   8B..         MOV       ?V1,R3
   \   000007   EA           MOV       A,R2
   \   000008   4B           ORL       A,R3
   \   000009   22           RET
   1227          
   1228          /*********************************************************************
   1229           * @fn      zcl_SendReadRsp
   1230           *
   1231           * @brief   Send a Read Response command.
   1232           *
   1233           * @param   srcEP - Application's endpoint
   1234           * @param   dstAddr - destination address
   1235           * @param   clusterID - cluster ID
   1236           * @param   readRspCmd - read response command to be sent
   1237           * @param   direction - direction of the command
   1238           * @param   seqNum - transaction sequence number
   1239           *
   1240           * @return  ZSuccess if OK
   1241           */

   \                                 In  segment BANKED_CODE, align 1, keep-with-next
   1242          ZStatus_t zcl_SendReadRsp( uint8 srcEP, afAddrType_t *dstAddr,
   \                     zcl_SendReadRsp:
   1243                                     uint16 clusterID, zclReadRspCmd_t *readRspCmd,
   1244                                     uint8 direction, uint8 disableDefaultRsp, uint8 seqNum )
   1245          {
   \   000000                REQUIRE ?V0
   \   000000                REQUIRE ?V1
   \   000000                REQUIRE ?V2
   \   000000                REQUIRE ?V3
   \   000000                REQUIRE ?V4
   \   000000                REQUIRE ?V5
   \   000000                REQUIRE ?V6
   \   000000                REQUIRE ?V7
   \   000000                REQUIRE ?V8
   \   000000                REQUIRE ?V9
   \   000000                REQUIRE ?V10
   \   000000                REQUIRE ?V11
   \   000000                REQUIRE ?V12
   \   000000                REQUIRE ?V13
   \   000000   74EA         MOV       A,#-0x16
   \   000002   12....       LCALL     ?BANKED_ENTER_XDATA
   \   000005                ; Saved register size: 22
   \   000005                ; Auto size: 2
   \   000005   74FE         MOV       A,#-0x2
   \   000007   12....       LCALL     ?ALLOC_XSTACK8
   \   00000A   89..         MOV       ?V3,R1
   \   00000C   8A..         MOV       ?V12,R2
   \   00000E   8B..         MOV       ?V13,R3
   \   000010   8C..         MOV       ?V6,R4
   \   000012   8D..         MOV       ?V7,R5
   1246            uint8 *buf;
   1247            uint16 len = 0;
   \   000014   7E00         MOV       R6,#0x0
   \   000016   7F00         MOV       R7,#0x0
   1248            ZStatus_t status;
   1249            uint8 i;
   1250          
   1251            // calculate the size of the command
   1252            for ( i = 0; i < readRspCmd->numAttr; i++ )
   \   000018   75..00       MOV       ?V2,#0x0
   \   00001B   7418         MOV       A,#0x18
   \   00001D   12....       LCALL     ?XSTACK_DISP0_8
   \   000020   12....       LCALL     ??Subroutine254_0 & 0xFFFF
   \                     ??CrossCallReturnLabel_588:
   \   000023   8011         SJMP      ??zcl_SendReadRsp_0
   1253            {
   1254              zclReadRspStatus_t *statusRec = &(readRspCmd->attrList[i]);
   1255          
   1256              len += 2 + 1; // Attribute ID + Status
   1257          
   1258              if ( statusRec->status == ZCL_STATUS_SUCCESS )
   1259              {
   1260                len++; // Attribute Data Type length
   1261          
   1262                // Attribute Data length
   1263                if ( statusRec->data != NULL )
   1264                {
   1265                  len += zclGetAttrDataLength( statusRec->dataType, statusRec->data );
   1266                }
   1267                else
   1268                {
   1269                  len += zclGetAttrDataLengthUsingCB( srcEP, clusterID, statusRec->attrID );
   \                     ??zcl_SendReadRsp_1:
   \   000025                ; Setup parameters for call to function zclGetAttrDataLengthUsingCB
   \   000025   12....       LCALL     ?Subroutine94 & 0xFFFF
   1270                }
   \                     ??CrossCallReturnLabel_161:
   \   000028   12....       LCALL     `??zclGetAttrDataLengthUsingCB::?relay`; Banked call to: zclGetAttrDataLengthUsingCB
   \                     ??zcl_SendReadRsp_2:
   \   00002B   8B..         MOV       ?V1,R3
   \   00002D   EE           MOV       A,R6
   \   00002E   2A           ADD       A,R2
   \   00002F   FE           MOV       R6,A
   \   000030   EF           MOV       A,R7
   \   000031   35..         ADDC      A,?V1
   \   000033   FF           MOV       R7,A
   \                     ??zcl_SendReadRsp_3:
   \   000034   05..         INC       ?V2
   \                     ??zcl_SendReadRsp_0:
   \   000036   12....       LCALL     ?Subroutine70 & 0xFFFF
   \                     ??CrossCallReturnLabel_586:
   \   000039   502E         JNC       ??zcl_SendReadRsp_4
   \   00003B   E5..         MOV       A,?V2
   \   00003D   75F006       MOV       B,#0x6
   \   000040   12....       LCALL     ?Subroutine156 & 0xFFFF
   \                     ??CrossCallReturnLabel_268:
   \   000043   2403         ADD       A,#0x3
   \   000045   FE           MOV       R6,A
   \   000046   E4           CLR       A
   \   000047   3F           ADDC      A,R7
   \   000048   FF           MOV       R7,A
   \   000049   A3           INC       DPTR
   \   00004A   A3           INC       DPTR
   \   00004B   E0           MOVX      A,@DPTR
   \   00004C   70E6         JNZ       ??zcl_SendReadRsp_3
   \   00004E   0E           INC       R6
   \   00004F   EE           MOV       A,R6
   \   000050   7001         JNZ       ??zcl_SendReadRsp_5
   \   000052   0F           INC       R7
   \                     ??zcl_SendReadRsp_5:
   \   000053   8882         MOV       DPL,R0
   \   000055   8983         MOV       DPH,R1
   \   000057   A3           INC       DPTR
   \   000058   A3           INC       DPTR
   \   000059   A3           INC       DPTR
   \   00005A   A3           INC       DPTR
   \   00005B   12....       LCALL     ??Subroutine220_0 & 0xFFFF
   \                     ??CrossCallReturnLabel_387:
   \   00005E   8882         MOV       DPL,R0
   \   000060   8983         MOV       DPH,R1
   \   000062   60C1         JZ        ??zcl_SendReadRsp_1
   \   000064                ; Setup parameters for call to function zclGetAttrDataLength
   \   000064   12....       LCALL     ??Subroutine218_0 & 0xFFFF
   1271              }
   1272            }
   \                     ??CrossCallReturnLabel_374:
   \   000067   80C2         SJMP      ??zcl_SendReadRsp_2
   1273          
   1274            buf = zcl_mem_alloc( len );
   \                     ??zcl_SendReadRsp_4:
   \   000069                ; Setup parameters for call to function osal_mem_alloc
   \   000069   EE           MOV       A,R6
   \   00006A   FA           MOV       R2,A
   \   00006B   EF           MOV       A,R7
   \   00006C   FB           MOV       R3,A
   \   00006D   12....       LCALL     `??osal_mem_alloc::?relay`; Banked call to: osal_mem_alloc
   \   000070   8A..         MOV       ?V0,R2
   \   000072   8B..         MOV       ?V1,R3
   \   000074   8A..         MOV       ?V4,R2
   \   000076   8B..         MOV       ?V5,R3
   1275            if ( buf != NULL )
   \   000078   EA           MOV       A,R2
   \   000079   4B           ORL       A,R3
   \   00007A   7003         JNZ       $+5
   \   00007C   02....       LJMP      ??zcl_SendReadRsp_6 & 0xFFFF
   1276            {
   1277              // Load the buffer - serially
   1278              uint8 *pBuf = buf;
   1279          
   1280              for ( i = 0; i < readRspCmd->numAttr; i++ )
   \   00007F   75..00       MOV       ?V2,#0x0
   \   000082   8030         SJMP      ??zcl_SendReadRsp_7
   1281              {
   1282                zclReadRspStatus_t *statusRec = &(readRspCmd->attrList[i]);
   1283          
   1284                *pBuf++ = LO_UINT16( statusRec->attrID );
   1285                *pBuf++ = HI_UINT16( statusRec->attrID );
   1286                *pBuf++ = statusRec->status;
   1287          
   1288                if ( statusRec->status == ZCL_STATUS_SUCCESS )
   1289                {
   1290                  *pBuf++ = statusRec->dataType;
   1291          
   1292                  if ( statusRec->data != NULL )
   1293                  {
   1294                    // Copy attribute data to the buffer to be sent out
   1295                    pBuf = zclSerializeData( statusRec->dataType, statusRec->data, pBuf );
   1296                  }
   1297                  else
   1298                  {
   1299                    uint16 dataLen;
   1300          
   1301                    // Read attribute data directly into the buffer to be sent out
   1302                    zclReadAttrDataUsingCB( srcEP, clusterID, statusRec->attrID, pBuf, &dataLen );
   \                     ??zcl_SendReadRsp_8:
   \   000084                ; Setup parameters for call to function zclReadAttrDataUsingCB
   \   000084   A8..         MOV       R0,?XSP + 0
   \   000086   A9..         MOV       R1,?XSP + 1
   \   000088   88..         MOV       ?V10,R0
   \   00008A   89..         MOV       ?V11,R1
   \   00008C   78..         MOV       R0,#?V10
   \   00008E   12....       LCALL     ?PUSH_XSTACK_I_TWO
   \   000091   78..         MOV       R0,#?V0
   \   000093   12....       LCALL     ?PUSH_XSTACK_I_TWO
   \   000096   8A82         MOV       DPL,R2
   \   000098   8B83         MOV       DPH,R3
   \   00009A   12....       LCALL     ?Subroutine94 & 0xFFFF
   \                     ??CrossCallReturnLabel_162:
   \   00009D   12....       LCALL     `??zclReadAttrDataUsingCB::?relay`; Banked call to: zclReadAttrDataUsingCB
   \   0000A0   7404         MOV       A,#0x4
   \   0000A2   12....       LCALL     ?DEALLOC_XSTACK8
   1303                    pBuf += dataLen;
   \   0000A5   12....       LCALL     ?Subroutine106 & 0xFFFF
   1304                  }
   \                     ??CrossCallReturnLabel_564:
   \   0000A8   E5..         MOV       A,?V0
   \   0000AA   28           ADD       A,R0
   \   0000AB   F5..         MOV       ?V0,A
   \   0000AD   E5..         MOV       A,?V1
   \   0000AF   39           ADDC      A,R1
   \   0000B0   F5..         MOV       ?V1,A
   \                     ??zcl_SendReadRsp_9:
   \   0000B2   05..         INC       ?V2
   \                     ??zcl_SendReadRsp_7:
   \   0000B4   12....       LCALL     ?Subroutine70 & 0xFFFF
   \                     ??CrossCallReturnLabel_587:
   \   0000B7   5071         JNC       ??zcl_SendReadRsp_10
   \   0000B9   E5..         MOV       A,?V2
   \   0000BB   75F006       MOV       B,#0x6
   \   0000BE   12....       LCALL     ?Subroutine199 & 0xFFFF
   \                     ??CrossCallReturnLabel_341:
   \   0000C1   12....       LCALL     ?Subroutine157 & 0xFFFF
   \                     ??CrossCallReturnLabel_270:
   \   0000C4   12....       LCALL     ?Subroutine208 & 0xFFFF
   \                     ??CrossCallReturnLabel_355:
   \   0000C7   12....       LCALL     ?Subroutine37 & 0xFFFF
   \                     ??CrossCallReturnLabel_47:
   \   0000CA   12....       LCALL     ?Subroutine130 & 0xFFFF
   \                     ??CrossCallReturnLabel_230:
   \   0000CD   F0           MOVX      @DPTR,A
   \   0000CE   12....       LCALL     ?Subroutine135 & 0xFFFF
   \                     ??CrossCallReturnLabel_240:
   \   0000D1   12....       LCALL     ?Subroutine130 & 0xFFFF
   \                     ??CrossCallReturnLabel_231:
   \   0000D4   A3           INC       DPTR
   \   0000D5   F0           MOVX      @DPTR,A
   \   0000D6   E5..         MOV       A,?V0
   \   0000D8   2403         ADD       A,#0x3
   \   0000DA   F5..         MOV       ?V0,A
   \   0000DC   5002         JNC       ??zcl_SendReadRsp_11
   \   0000DE   05..         INC       ?V1
   \                     ??zcl_SendReadRsp_11:
   \   0000E0   8882         MOV       DPL,R0
   \   0000E2   8983         MOV       DPH,R1
   \   0000E4   E0           MOVX      A,@DPTR
   \   0000E5   70CB         JNZ       ??zcl_SendReadRsp_9
   \   0000E7   EA           MOV       A,R2
   \   0000E8   2403         ADD       A,#0x3
   \   0000EA   08           INC       R0
   \   0000EB   E4           CLR       A
   \   0000EC   3B           ADDC      A,R3
   \   0000ED   F9           MOV       R1,A
   \   0000EE   8882         MOV       DPL,R0
   \   0000F0   F583         MOV       DPH,A
   \   0000F2   12....       LCALL     ?Subroutine208 & 0xFFFF
   \                     ??CrossCallReturnLabel_356:
   \   0000F5   F0           MOVX      @DPTR,A
   \   0000F6   A3           INC       DPTR
   \   0000F7   8582..       MOV       ?V0,DPL
   \   0000FA   8583..       MOV       ?V1,DPH
   \   0000FD   8A82         MOV       DPL,R2
   \   0000FF   8B83         MOV       DPH,R3
   \   000101   A3           INC       DPTR
   \   000102   A3           INC       DPTR
   \   000103   A3           INC       DPTR
   \   000104   A3           INC       DPTR
   \   000105   12....       LCALL     ?Subroutine127 & 0xFFFF
   \                     ??CrossCallReturnLabel_223:
   \   000108   8C82         MOV       DPL,R4
   \   00010A   F583         MOV       DPH,A
   \   00010C   E582         MOV       A,DPL
   \   00010E   4583         ORL       A,DPH
   \   000110   7003         JNZ       $+5
   \   000112   02....       LJMP      ??zcl_SendReadRsp_8 & 0xFFFF
   \   000115                ; Setup parameters for call to function zclSerializeData
   \   000115   AC..         MOV       R4,?V0
   \   000117   AD..         MOV       R5,?V1
   \   000119   AA82         MOV       R2,DPL
   \   00011B   AB83         MOV       R3,DPH
   \   00011D   8882         MOV       DPL,R0
   \   00011F   8983         MOV       DPH,R1
   \   000121   12....       LCALL     ??Subroutine222_0 & 0xFFFF
   1305                }
   1306              } // for loop
   \                     ??CrossCallReturnLabel_395:
   \   000124   8A..         MOV       ?V0,R2
   \   000126   8B..         MOV       ?V1,R3
   \   000128   8088         SJMP      ??zcl_SendReadRsp_9
   1307          
   1308              status = zcl_SendCommand( srcEP, dstAddr, clusterID, ZCL_CMD_READ_RSP, FALSE,
   1309                                        direction, disableDefaultRsp, 0, seqNum, len, buf );
   \                     ??zcl_SendReadRsp_10:
   \   00012A                ; Setup parameters for call to function zcl_SendCommand
   \   00012A   78..         MOV       R0,#?V4
   \   00012C   12....       LCALL     ?PUSH_XSTACK_I_TWO
   \   00012F   8E..         MOV       ?V0,R6
   \   000131   8F..         MOV       ?V1,R7
   \   000133   78..         MOV       R0,#?V0
   \   000135   12....       LCALL     ?PUSH_XSTACK_I_TWO
   \   000138   7420         MOV       A,#0x20
   \   00013A   12....       LCALL     ?XSTACK_DISP0_8
   \   00013D   12....       LCALL     ?Subroutine60 & 0xFFFF
   \                     ??CrossCallReturnLabel_89:
   \   000140   12....       LCALL     ?PUSH_XSTACK_I_ONE
   \   000143   E4           CLR       A
   \   000144   F5..         MOV       ?V0,A
   \   000146   F5..         MOV       ?V1,A
   \   000148   78..         MOV       R0,#?V0
   \   00014A   12....       LCALL     ?PUSH_XSTACK_I_TWO
   \   00014D   7422         MOV       A,#0x22
   \   00014F   12....       LCALL     ?XSTACK_DISP0_8
   \   000152   12....       LCALL     ?Subroutine60 & 0xFFFF
   \                     ??CrossCallReturnLabel_90:
   \   000155   12....       LCALL     ?PUSH_XSTACK_I_ONE
   \   000158   7422         MOV       A,#0x22
   \   00015A   12....       LCALL     ?XSTACK_DISP0_8
   \   00015D   12....       LCALL     ?Subroutine60 & 0xFFFF
   \                     ??CrossCallReturnLabel_91:
   \   000160   12....       LCALL     ?PUSH_XSTACK_I_ONE
   \   000163   75..00       MOV       ?V0,#0x0
   \   000166   78..         MOV       R0,#?V0
   \   000168   12....       LCALL     ?PUSH_XSTACK_I_ONE
   \   00016B   75..01       MOV       ?V0,#0x1
   \   00016E   78..         MOV       R0,#?V0
   \   000170   12....       LCALL     ?PUSH_XSTACK_I_ONE
   \   000173   AC..         MOV       R4,?V6
   \   000175   AD..         MOV       R5,?V7
   \   000177   AA..         MOV       R2,?V12
   \   000179   AB..         MOV       R3,?V13
   \   00017B   A9..         MOV       R1,?V3
   \   00017D   12....       LCALL     ??Subroutine227_0 & 0xFFFF
   \                     ??CrossCallReturnLabel_418:
   \   000180   12....       LCALL     ?DEALLOC_XSTACK8
   \   000183   E9           MOV       A,R1
   \   000184   FE           MOV       R6,A
   1310              zcl_mem_free( buf );
   \   000185                ; Setup parameters for call to function osal_mem_free
   \   000185   AA..         MOV       R2,?V4
   \   000187   AB..         MOV       R3,?V5
   \   000189   12....       LCALL     `??osal_mem_free::?relay`; Banked call to: osal_mem_free
   \   00018C   8002         SJMP      ??zcl_SendReadRsp_12
   1311            }
   1312            else
   1313            {
   1314              status = ZMemError;
   \                     ??zcl_SendReadRsp_6:
   \   00018E   7E10         MOV       R6,#0x10
   1315            }
   1316          
   1317            return ( status );
   \                     ??zcl_SendReadRsp_12:
   \   000190   EE           MOV       A,R6
   \   000191   F9           MOV       R1,A
   \   000192   02....       LJMP      ?Subroutine7 & 0xFFFF
   1318          }

   \                                 In  segment BANKED_CODE, align 1, keep-with-next
   \                     ?Subroutine130:
   \   000000   12....       LCALL     ?Subroutine192 & 0xFFFF
   \                     ??CrossCallReturnLabel_328:
   \   000003   22           RET

   \                                 In  segment BANKED_CODE, align 1, keep-with-next
   \                     ?Subroutine192:
   \   000000   12....       LCALL     ?Subroutine208 & 0xFFFF
   \                     ??CrossCallReturnLabel_357:
   \   000003   A3           INC       DPTR
   \   000004   22           RET

   \                                 In  segment BANKED_CODE, align 1, keep-with-next
   \                     ?Subroutine208:
   \   000000   E0           MOVX      A,@DPTR
   \   000001   85..82       MOV       DPL,?V0
   \   000004   85..83       MOV       DPH,?V1
   \   000007   22           RET

   \                                 In  segment BANKED_CODE, align 1, keep-with-next
   \                     ?Subroutine94:
   \   000000   12....       LCALL     ??Subroutine265_0 & 0xFFFF
   \                     ??CrossCallReturnLabel_630:
   \   000003   AA..         MOV       R2,?V6
   \   000005   AB..         MOV       R3,?V7
   \   000007   A9..         MOV       R1,?V3
   \   000009   22           RET

   \                                 In  segment BANKED_CODE, align 1, keep-with-next
   \                     ??Subroutine218_0:
   \   000000   A3           INC       DPTR
   \   000001   A3           INC       DPTR
   \   000002   A3           INC       DPTR
   \   000003                REQUIRE ??Subroutine219_0
   \   000003                ; // Fall through to label ??Subroutine219_0

   \                                 In  segment BANKED_CODE, align 1, keep-with-next
   \                     ??Subroutine219_0:
   \   000000   E0           MOVX      A,@DPTR
   \   000001   F9           MOV       R1,A
   \   000002   12....       LCALL     `??zclGetAttrDataLength::?relay`; Banked call to: zclGetAttrDataLength
   \   000005   22           RET

   \                                 In  segment BANKED_CODE, align 1, keep-with-next
   \                     ??Subroutine222_0:
   \   000000   E0           MOVX      A,@DPTR
   \   000001   F9           MOV       R1,A
   \   000002   12....       LCALL     `??zclSerializeData::?relay`; Banked call to: zclSerializeData
   \   000005   22           RET

   \                                 In  segment BANKED_CODE, align 1, keep-with-next
   \                     ?Subroutine156:
   \   000000   12....       LCALL     ?Subroutine199 & 0xFFFF
   \                     ??CrossCallReturnLabel_344:
   \   000003   12....       LCALL     ?Subroutine198 & 0xFFFF
   \                     ??CrossCallReturnLabel_340:
   \   000006   EE           MOV       A,R6
   \   000007   22           RET

   \                                 In  segment BANKED_CODE, align 1, keep-with-next
   \                     ?Subroutine199:
   \   000000   A4           MUL       AB
   \   000001   F8           MOV       R0,A
   \   000002   A9F0         MOV       R1,B
   \   000004   E5..         MOV       A,?V8
   \   000006   28           ADD       A,R0
   \   000007   F582         MOV       DPL,A
   \   000009   E5..         MOV       A,?V9
   \   00000B   22           RET

   \                                 In  segment BANKED_CODE, align 1, keep-with-next
   \                     ?Subroutine198:
   \   000000   12....       LCALL     ?Subroutine212 & 0xFFFF
   \                     ??CrossCallReturnLabel_363:
   \   000003   A882         MOV       R0,DPL
   \   000005   A983         MOV       R1,DPH
   \   000007   22           RET

   \                                 In  segment BANKED_CODE, align 1, keep-with-next
   \                     ?Subroutine7:
   \   000000   7402         MOV       A,#0x2
   \   000002   12....       LCALL     ?DEALLOC_XSTACK8
