###############################################################################
#
# IAR C/C++ Compiler V10.20.1.5333 for 8051               03/May/2018  18:05:49
# Copyright 2004-2018 IAR Systems AB.
# PC-locked license - IAR Embedded Workbench for 8051
#
#    Core               =  plain
#    Code model         =  banked
#    Data model         =  large
#    Calling convention =  xdata reentrant
#    Constant location  =  data_rom
#    Dptr setup         =  1,16
#                          
#    Source file        =  
#        C:\Texas Instruments\Z-Stack 3.0.1\Components\stack\zdo\ZDObject.c
#    Command line       =  
#        -f C:\Users\yao\AppData\Local\Temp\EWF032.tmp ("C:\Texas
#        Instruments\Z-Stack 3.0.1\Components\stack\zdo\ZDObject.c" -D SECURE=1
#        -D TC_LINKKEY_JOIN -D NV_INIT -D NV_RESTORE -D xZTOOL_P1 -D xMT_TASK
#        -D xMT_APP_FUNC -D xMT_SYS_FUNC -D xMT_ZDO_FUNC -D xMT_ZDO_MGMT -D
#        xMT_APP_CNF_FUNC -D LEGACY_LCD_DEBUG -D LCD_SUPPORTED=DEBUG -D
#        MULTICAST_ENABLED=FALSE -D ZCL_READ -D ZCL_WRITE -D ZCL_BASIC -D
#        ZCL_IDENTIFY -D ZCL_SCENES -D ZCL_GROUPS -lC "C:\Texas
#        Instruments\Z-Stack
#        3.0.1\Projects\zstack\HomeAutomation\GenericApp\CC2530DB\CoordinatorEB\List"
#        -lA "C:\Texas Instruments\Z-Stack
#        3.0.1\Projects\zstack\HomeAutomation\GenericApp\CC2530DB\CoordinatorEB\List"
#        --diag_suppress Pe001,Pa010 -o "C:\Texas Instruments\Z-Stack
#        3.0.1\Projects\zstack\HomeAutomation\GenericApp\CC2530DB\CoordinatorEB\Obj"
#        -e --debug --core=plain --dptr=16,1 --data_model=large
#        --code_model=banked --calling_convention=xdata_reentrant
#        --place_constants=data_rom --nr_virtual_regs 16 -f "C:\Texas
#        Instruments\Z-Stack
#        3.0.1\Projects\zstack\HomeAutomation\GenericApp\CC2530DB\..\..\..\Tools\CC2530DB\f8wCoord.cfg"
#        (-DCPU32MHZ -DROOT=__near_func -DMAC_CFG_APP_PENDING_QUEUE=TRUE
#        -DMAC_CFG_TX_DATA_MAX=5 -DMAC_CFG_TX_MAX=8 -DMAC_CFG_RX_MAX=5
#        -DZDO_COORDINATOR -DRTR_NWK) -f "C:\Texas Instruments\Z-Stack
#        3.0.1\Projects\zstack\HomeAutomation\GenericApp\CC2530DB\..\..\..\Tools\CC2530DB\f8wConfig.cfg"
#        (-DZIGBEEPRO -DSECURE=1 -DZG_SECURE_DYNAMIC=0 -DREFLECTOR
#        -DDEFAULT_CHANLIST=0x00000800 -DZDAPP_CONFIG_PAN_ID=0x16D1
#        -DNWK_START_DELAY=100 -DEXTENDED_JOINING_RANDOM_MASK=0x007F
#        -DBEACON_REQUEST_DELAY=100 -DBEACON_REQ_DELAY_MASK=0x00FF
#        -DLINK_STATUS_JITTER_MASK=0x007F -DROUTE_EXPIRY_TIME=30
#        -DAPSC_ACK_WAIT_DURATION_POLLED=3000 -DNWK_INDIRECT_MSG_TIMEOUT=7
#        -DMAX_RREQ_ENTRIES=8 -DAPSC_MAX_FRAME_RETRIES=3
#        -DNWK_MAX_DATA_RETRIES=2 -DMAX_POLL_FAILURE_RETRIES=2 -DMAX_BCAST=9
#        -DAPS_MAX_GROUPS=16 -DMAX_RTG_ENTRIES=40 -DNWK_MAX_BINDING_ENTRIES=4
#        -DMAX_BINDING_CLUSTER_IDS=4 -DDEFAULT_KEY={0} -DMAC_MAX_FRAME_SIZE=116
#        -DZDNWKMGR_MIN_TRANSMISSIONS=20 "-DCONST=const __code"
#        -DGENERIC=__generic -DRFD_RCVC_ALWAYS_ON=FALSE -DPOLL_RATE=1000
#        -DQUEUED_POLL_RATE=100 -DRESPONSE_POLL_RATE=100 -DREJOIN_POLL_RATE=440
#        -DREJOIN_BACKOFF=900000 -DREJOIN_SCAN=900000 -DENABLE_LED4_DISABLE_S1)
#        -f "C:\Texas Instruments\Z-Stack
#        3.0.1\Projects\zstack\HomeAutomation\GenericApp\CC2530DB\..\..\..\Tools\CC2530DB\f8wZCL.cfg"
#        -I "C:\Texas Instruments\Z-Stack
#        3.0.1\Projects\zstack\HomeAutomation\GenericApp\CC2530DB\" -I
#        "C:\Texas Instruments\Z-Stack
#        3.0.1\Projects\zstack\HomeAutomation\GenericApp\CC2530DB\..\Source\"
#        -I "C:\Texas Instruments\Z-Stack
#        3.0.1\Projects\zstack\HomeAutomation\GenericApp\CC2530DB\..\..\Source\"
#        -I "C:\Texas Instruments\Z-Stack
#        3.0.1\Projects\zstack\HomeAutomation\GenericApp\CC2530DB\..\..\..\ZMain\TI2530DB\"
#        -I "C:\Texas Instruments\Z-Stack
#        3.0.1\Projects\zstack\HomeAutomation\GenericApp\CC2530DB\..\..\..\..\..\Components\hal\include\"
#        -I "C:\Texas Instruments\Z-Stack
#        3.0.1\Projects\zstack\HomeAutomation\GenericApp\CC2530DB\..\..\..\..\..\Components\hal\target\CC2530EB\"
#        -I "C:\Texas Instruments\Z-Stack
#        3.0.1\Projects\zstack\HomeAutomation\GenericApp\CC2530DB\..\..\..\..\..\Components\mac\include\"
#        -I "C:\Texas Instruments\Z-Stack
#        3.0.1\Projects\zstack\HomeAutomation\GenericApp\CC2530DB\..\..\..\..\..\Components\mac\high_level\"
#        -I "C:\Texas Instruments\Z-Stack
#        3.0.1\Projects\zstack\HomeAutomation\GenericApp\CC2530DB\..\..\..\..\..\Components\mac\low_level\srf04\"
#        -I "C:\Texas Instruments\Z-Stack
#        3.0.1\Projects\zstack\HomeAutomation\GenericApp\CC2530DB\..\..\..\..\..\Components\mac\low_level\srf04\single_chip\"
#        -I "C:\Texas Instruments\Z-Stack
#        3.0.1\Projects\zstack\HomeAutomation\GenericApp\CC2530DB\..\..\..\..\..\Components\mt\"
#        -I "C:\Texas Instruments\Z-Stack
#        3.0.1\Projects\zstack\HomeAutomation\GenericApp\CC2530DB\..\..\..\..\..\Components\osal\include\"
#        -I "C:\Texas Instruments\Z-Stack
#        3.0.1\Projects\zstack\HomeAutomation\GenericApp\CC2530DB\..\..\..\..\..\Components\services\saddr\"
#        -I "C:\Texas Instruments\Z-Stack
#        3.0.1\Projects\zstack\HomeAutomation\GenericApp\CC2530DB\..\..\..\..\..\Components\services\sdata\"
#        -I "C:\Texas Instruments\Z-Stack
#        3.0.1\Projects\zstack\HomeAutomation\GenericApp\CC2530DB\..\..\..\..\..\Components\stack\af\"
#        -I "C:\Texas Instruments\Z-Stack
#        3.0.1\Projects\zstack\HomeAutomation\GenericApp\CC2530DB\..\..\..\..\..\Components\stack\bdb\"
#        -I "C:\Texas Instruments\Z-Stack
#        3.0.1\Projects\zstack\HomeAutomation\GenericApp\CC2530DB\..\..\..\..\..\Components\stack\gp\"
#        -I "C:\Texas Instruments\Z-Stack
#        3.0.1\Projects\zstack\HomeAutomation\GenericApp\CC2530DB\..\..\..\..\..\Components\stack\nwk\"
#        -I "C:\Texas Instruments\Z-Stack
#        3.0.1\Projects\zstack\HomeAutomation\GenericApp\CC2530DB\..\..\..\..\..\Components\stack\sapi\"
#        -I "C:\Texas Instruments\Z-Stack
#        3.0.1\Projects\zstack\HomeAutomation\GenericApp\CC2530DB\..\..\..\..\..\Components\stack\sec\"
#        -I "C:\Texas Instruments\Z-Stack
#        3.0.1\Projects\zstack\HomeAutomation\GenericApp\CC2530DB\..\..\..\..\..\Components\stack\sys\"
#        -I "C:\Texas Instruments\Z-Stack
#        3.0.1\Projects\zstack\HomeAutomation\GenericApp\CC2530DB\..\..\..\..\..\Components\stack\zcl\"
#        -I "C:\Texas Instruments\Z-Stack
#        3.0.1\Projects\zstack\HomeAutomation\GenericApp\CC2530DB\..\..\..\..\..\Components\stack\zdo\"
#        -I "C:\Texas Instruments\Z-Stack
#        3.0.1\Projects\zstack\HomeAutomation\GenericApp\CC2530DB\..\..\..\..\..\Components\zmac\"
#        -I "C:\Texas Instruments\Z-Stack
#        3.0.1\Projects\zstack\HomeAutomation\GenericApp\CC2530DB\..\..\..\..\..\Components\zmac\f8w\"
#        -Ohz --require_prototypes)
#    Locale             =  Chinese (Simplified)_CHN.936
#    List file          =  
#        C:\Texas Instruments\Z-Stack
#        3.0.1\Projects\zstack\HomeAutomation\GenericApp\CC2530DB\CoordinatorEB\List\ZDObject.lst
#    Object file        =  
#        C:\Texas Instruments\Z-Stack
#        3.0.1\Projects\zstack\HomeAutomation\GenericApp\CC2530DB\CoordinatorEB\Obj\ZDObject.r51
#
###############################################################################

C:\Texas Instruments\Z-Stack 3.0.1\Components\stack\zdo\ZDObject.c
      1          /**************************************************************************************************
      2            Filename:       ZDObject.c
      3            Revised:        $Date: 2015-10-01 15:01:50 -0700 (Thu, 01 Oct 2015) $
      4            Revision:       $Revision: 44513 $
      5          
      6            Description:    This is the Zigbee Device Object.
      7          
      8          
      9            Copyright 2004-2015 Texas Instruments Incorporated. All rights reserved.
     10          
     11            IMPORTANT: Your use of this Software is limited to those specific rights
     12            granted under the terms of a software license agreement between the user
     13            who downloaded the software, his/her employer (which must be your employer)
     14            and Texas Instruments Incorporated (the "License"). You may not use this
     15            Software unless you agree to abide by the terms of the License. The License
     16            limits your use, and you acknowledge, that the Software may not be modified,
     17            copied or distributed unless embedded on a Texas Instruments microcontroller
     18            or used solely and exclusively in conjunction with a Texas Instruments radio
     19            frequency transceiver, which is integrated into your product. Other than for
     20            the foregoing purpose, you may not use, reproduce, copy, prepare derivative
     21            works of, modify, distribute, perform, display or sell this Software and/or
     22            its documentation for any purpose.
     23          
     24            YOU FURTHER ACKNOWLEDGE AND AGREE THAT THE SOFTWARE AND DOCUMENTATION ARE
     25            PROVIDED "AS IS" WITHOUT WARRANTY OF ANY KIND, EITHER EXPRESS OR IMPLIED,
     26            INCLUDING WITHOUT LIMITATION, ANY WARRANTY OF MERCHANTABILITY, TITLE,
     27            NON-INFRINGEMENT AND FITNESS FOR A PARTICULAR PURPOSE. IN NO EVENT SHALL
     28            TEXAS INSTRUMENTS OR ITS LICENSORS BE LIABLE OR OBLIGATED UNDER CONTRACT,
     29            NEGLIGENCE, STRICT LIABILITY, CONTRIBUTION, BREACH OF WARRANTY, OR OTHER
     30            LEGAL EQUITABLE THEORY ANY DIRECT OR INDIRECT DAMAGES OR EXPENSES
     31            INCLUDING BUT NOT LIMITED TO ANY INCIDENTAL, SPECIAL, INDIRECT, PUNITIVE
     32            OR CONSEQUENTIAL DAMAGES, LOST PROFITS OR LOST DATA, COST OF PROCUREMENT
     33            OF SUBSTITUTE GOODS, TECHNOLOGY, SERVICES, OR ANY CLAIMS BY THIRD PARTIES
     34            (INCLUDING BUT NOT LIMITED TO ANY DEFENSE THEREOF), OR OTHER SIMILAR COSTS.
     35          
     36            Should you have any questions regarding your right to use this Software,
     37            contact Texas Instruments Incorporated at www.TI.com.
     38          **************************************************************************************************/
     39          
     40          /*********************************************************************
     41           * INCLUDES
     42           */
     43          #include "ZComDef.h"
     44          #include "OSAL.h"
     45          #include "OSAL_Nv.h"
     46          #include "rtg.h"
     47          #include "NLMEDE.h"
     48          #include "nwk_globals.h"
     49          #include "APS.h"
     50          #include "APSMEDE.h"
     51          #include "AssocList.h"
     52          #include "BindingTable.h"
     53          #include "AddrMgr.h"
     54          #include "AF.h"
     55          #include "ZDObject.h"
     56          #include "ZDProfile.h"
     57          #include "ZDConfig.h"
     58          #include "ZDSecMgr.h"
     59          #include "ZDApp.h"
     60          #include "nwk_util.h"   // NLME_IsAddressBroadcast()
     61          #include "ZGlobals.h"
     62          #if defined MT_ZDO_CB_FUNC
     63          #include "MT.h"
     64          #endif
     65          
     66          #include "bdb.h"
     67          
     68          #if !defined (DISABLE_GREENPOWER_BASIC_PROXY) && (ZG_BUILD_RTR_TYPE)
     69          #include "gp_common.h"
     70          #endif
     71           
     72          #if defined( LCD_SUPPORTED )
     73            #include "OnBoard.h"
     74          #endif
     75          
     76          /* HAL */
     77          #include "hal_lcd.h"
     78          
     79          /*********************************************************************
     80           * MACROS
     81           */
     82          
     83          /*********************************************************************
     84           * CONSTANTS
     85           */
     86          // NLME Stub Implementations
     87          #define ZDO_ProcessMgmtPermitJoinTimeout NLME_PermitJoiningTimeout
     88          
     89          /*********************************************************************
     90           * TYPEDEFS
     91           */
     92          #if defined ( REFLECTOR )
     93          typedef struct
     94          {
     95            byte SrcTransSeq;
     96            zAddrType_t SrcAddr;
     97            uint16 LocalCoordinator;
     98            byte epIntf;
     99            uint16 ProfileID;
    100            byte numInClusters;
    101            uint16 *inClusters;
    102            byte numOutClusters;
    103            uint16 *outClusters;
    104            byte SecurityUse;
    105            byte status;
    106          } ZDO_EDBind_t;
    107          #endif // defined ( REFLECTOR )
    108          
    109          enum
    110          {
    111            ZDMATCH_INIT,           // Initialized
    112            ZDMATCH_WAIT_REQ,       // Received first request, waiting for second
    113            ZDMATCH_SENDING_BINDS   // Received both requests, sending unbind/binds
    114          };
    115          
    116          enum
    117          {
    118            ZDMATCH_SENDING_NOT,
    119            ZDMATCH_SENDING_UNBIND,
    120            ZDMATCH_SENDING_BIND
    121          };
    122          
    123          /*********************************************************************
    124           * GLOBAL VARIABLES
    125           */
    126          
    127          /*********************************************************************
    128           * EXTERNAL VARIABLES
    129           */
    130          
    131          extern bool  requestNewTrustCenterLinkKey;   
    132             
    133          /*********************************************************************
    134           * EXTERNAL FUNCTIONS
    135           */
    136          
    137          /*********************************************************************
    138           * LOCAL VARIABLES
    139           */

   \                                 In  segment XDATA_Z, align 1, keep-with-next
    140          static uint16 ZDOBuildBuf[26];  // temp area to build data without allocation
   \                     ZDOBuildBuf:
   \   000000                DS 52
   \   000034                REQUIRE __INIT_XDATA_Z
    141          
    142          #if defined ( REFLECTOR )

   \                                 In  segment XDATA_Z, align 1, keep-with-next
    143          static ZDO_EDBind_t *ZDO_EDBind;     // Null when not used
   \                     ZDO_EDBind:
   \   000000                DS 2
   \   000002                REQUIRE __INIT_XDATA_Z
    144          #endif
    145          
    146          #if defined ( MANAGED_SCAN )
    147            uint32 managedScanNextChannel = 0;
    148            uint32 managedScanChannelMask = 0;
    149            uint8  managedScanTimesPerChannel = 0;
    150          #endif
    151          

   \                                 In  segment XDATA_Z, align 1, keep-with-next
    152          ZDMatchEndDeviceBind_t *matchED = (ZDMatchEndDeviceBind_t *)NULL;
   \                     matchED:
   \   000000                DS 2
   \   000002                REQUIRE __INIT_XDATA_Z
    153          

   \                                 In  segment XDATA_Z, align 1, keep-with-next
    154          uint32 apsChannelMask = 0;
   \                     apsChannelMask:
   \   000000                DS 4
   \   000004                REQUIRE __INIT_XDATA_Z
    155          

   \                                 In  segment XDATA_I, align 1, keep-with-next
    156          int16 zdpExternalStateTaskID = -1;
   \                     zdpExternalStateTaskID:
   \   000000                DS 2
   \   000002                REQUIRE `?<Initializer for zdpExternalStateTaskID>`
   \   000002                REQUIRE __INIT_XDATA_I
    157          
    158          /*********************************************************************
    159           * LOCAL FUNCTIONS
    160           */
    161          static void ZDODeviceSetup( void );
    162          #if defined ( MANAGED_SCAN )
    163            static void ZDOManagedScan_Next( void );
    164          #endif
    165          #if defined ( REFLECTOR )
    166            static void ZDO_RemoveEndDeviceBind( void );
    167            static void ZDO_SendEDBindRsp( byte TransSeq, zAddrType_t *dstAddr, byte Status, byte secUse );
    168          #endif
    169          #if ( ZG_BUILD_COORDINATOR_TYPE )
    170            static byte ZDO_CompareClusterLists( byte numList1, uint16 *list1,
    171                                                 byte numList2, uint16 *list2, uint16 *pMatches );
    172            static void ZDO_RemoveMatchMemory( void );
    173            static uint8 ZDO_CopyMatchInfo( ZDEndDeviceBind_t *destReq, ZDEndDeviceBind_t *srcReq );
    174            static void ZDO_EndDeviceBindMatchTimeoutCB( void );
    175          #endif
    176          uint8 *ZDO_ConvertOTAClusters( uint8 cnt, uint8 *inBuf, uint16 *outList );
    177          static void zdoSendStateChangeMsg(uint8 state, uint8 taskId);
    178          
    179          /*********************************************************************
    180           * @fn          ZDO_Init
    181           *
    182           * @brief       ZDObject and ZDProfile initialization.
    183           *
    184           * @param       none
    185           *
    186           * @return      none
    187           */

   \                                 In  segment BANKED_CODE, align 1, keep-with-next
    188          void ZDO_Init( void )
   \                     ZDO_Init:
    189          {
   \   000000   C082         PUSH      DPL
   \   000002   C083         PUSH      DPH
   \   000004                ; Saved register size: 2
   \   000004                ; Auto size: 0
    190            // Initialize ZD items
    191            #if defined ( REFLECTOR )
    192            ZDO_EDBind = NULL;
   \   000004   90....       MOV       DPTR,#ZDO_EDBind
   \   000007   E4           CLR       A
   \   000008   F0           MOVX      @DPTR,A
   \   000009   A3           INC       DPTR
   \   00000A   F0           MOVX      @DPTR,A
    193            #endif
    194          
    195            // Initialize default ZDO_UseExtendedPANID to the APS one.
    196            osal_cpyExtAddr( ZDO_UseExtendedPANID, AIB_apsUseExtendedPANID );
   \   00000B                ; Setup parameters for call to function sAddrExtCpy
   \   00000B   7C..         MOV       R4,#AIB_apsUseExtendedPANID & 0xff
   \   00000D   7D..         MOV       R5,#(AIB_apsUseExtendedPANID >> 8) & 0xff
   \   00000F   7A..         MOV       R2,#ZDO_UseExtendedPANID & 0xff
   \   000011   7B..         MOV       R3,#(ZDO_UseExtendedPANID >> 8) & 0xff
   \   000013   12....       LCALL     `??sAddrExtCpy::?relay`; Banked call to: sAddrExtCpy
    197          
    198            // Setup the device - type of device to create.
    199            ZDODeviceSetup();
   \   000016                ; Setup parameters for call to function NLME_CoordinatorInit
   \   000016   12....       LCALL     `??NLME_CoordinatorInit::?relay`; Banked call to: NLME_CoordinatorInit
   \   000019                ; Setup parameters for call to function APS_ReflectorInit
   \   000019   12....       LCALL     `??APS_ReflectorInit::?relay`; Banked call to: APS_ReflectorInit
    200          }
   \   00001C   02....       LJMP      ?Subroutine0 & 0xFFFF

   \                                 In  segment BANKED_CODE, align 1, keep-with-next
   \                     ?Subroutine0:
   \   000000   D083         POP       DPH
   \   000002   D082         POP       DPL
   \   000004   02....       LJMP      ?BRET
    201          
    202          #if defined ( MANAGED_SCAN )
    203          /*********************************************************************
    204           * @fn      ZDOManagedScan_Next()
    205           *
    206           * @brief   Setup a managed scan.
    207           *
    208           * @param   none
    209           *
    210           * @return  none
    211           */
    212          static void ZDOManagedScan_Next( void )
    213          {
    214            // Is it the first time
    215            if ( managedScanNextChannel == 0 && managedScanTimesPerChannel == 0 )
    216            {
    217              // Setup the defaults
    218              managedScanNextChannel  = 1;
    219          
    220              while( managedScanNextChannel && (runtimeChannel & managedScanNextChannel) == 0 )
    221                managedScanNextChannel <<= 1;
    222          
    223              managedScanChannelMask = managedScanNextChannel;
    224              managedScanTimesPerChannel = MANAGEDSCAN_TIMES_PRE_CHANNEL;
    225            }
    226            else
    227            {
    228              // Do we need to go to the next channel
    229              if ( managedScanTimesPerChannel == 0 )
    230              {
    231                // Find next active channel
    232                managedScanChannelMask  = managedScanNextChannel;
    233                managedScanTimesPerChannel = MANAGEDSCAN_TIMES_PRE_CHANNEL;
    234              }
    235              else
    236              {
    237                managedScanTimesPerChannel--;
    238          
    239                if ( managedScanTimesPerChannel == 0 )
    240                {
    241                  managedScanNextChannel  <<= 1;
    242                  while( managedScanNextChannel && (runtimeChannel & managedScanNextChannel) == 0 )
    243                    managedScanNextChannel <<= 1;
    244          
    245                  if ( managedScanNextChannel == 0 )
    246                    zdoDiscCounter  = NUM_DISC_ATTEMPTS + 1; // Stop
    247                }
    248              }
    249            }
    250          }
    251          #endif // MANAGED_SCAN
    252          
    253          /*********************************************************************
    254           * @fn      ZDODeviceSetup()
    255           *
    256           * @brief   Call set functions depending on the type of device compiled.
    257           *
    258           * @param   none
    259           *
    260           * @return  none
    261           */
    262          static void ZDODeviceSetup( void )
    263          {
    264            if ( ZG_BUILD_COORDINATOR_TYPE )
    265            {
    266              NLME_CoordinatorInit();
    267            }
    268          
    269          #if defined ( REFLECTOR )
    270            APS_ReflectorInit();
    271          #endif
    272          
    273            if ( ZG_BUILD_JOINING_TYPE )
    274            {
    275              NLME_DeviceJoiningInit();
    276            }
    277          }
    278          
    279          
    280          
    281          
    282          /*********************************************************************
    283           * @fn          ZDO_StartDevice
    284           *
    285           * @brief       This function starts a device in a network. Added distributed network for router devices
    286           *
    287           * @param       logicalType     - Device type to start
    288           *              startMode       - indicates mode of device startup
    289           *              beaconOrder     - indicates time betwen beacons
    290           *              superframeOrder - indicates length of active superframe
    291           *              distributed     - indicates if the network will be formed
    292           *
    293           * @return      none
    294           */

   \                                 In  segment BANKED_CODE, align 1, keep-with-next
    295          void ZDO_StartDevice( byte logicalType, devStartModes_t startMode, byte beaconOrder, byte superframeOrder )
   \                     ZDO_StartDevice:
    296          {
   \   000000                REQUIRE ?V0
   \   000000                REQUIRE ?V1
   \   000000                REQUIRE ?V2
   \   000000                REQUIRE ?V3
   \   000000   74F4         MOV       A,#-0xc
   \   000002   12....       LCALL     ?BANKED_ENTER_XDATA
   \   000005                ; Saved register size: 12
   \   000005                ; Auto size: 0
   \   000005   EB           MOV       A,R3
   \   000006   FE           MOV       R6,A
   \   000007   8C..         MOV       ?V1,R4
    297            ZStatus_t ret;
    298          #if defined ( ZIGBEE_FREQ_AGILITY )
    299            static uint8 discRetries = 0;
    300          #endif
    301          #if defined ( ZIGBEE_COMMISSIONING )
    302            static uint8 scanCnt = 0;
    303          #endif
    304          
    305            ret = ZUnsupportedMode;
    306          
    307            if ( ZG_BUILD_COORDINATOR_TYPE && logicalType == NODETYPE_COORDINATOR )
   \   000009   E9           MOV       A,R1
   \   00000A   7070         JNZ       ??ZDO_StartDevice_0
    308            {
    309              if ( startMode == MODE_HARD )
   \   00000C   7402         MOV       A,#0x2
   \   00000E   6A           XRL       A,R2
   \   00000F   7049         JNZ       ??ZDO_StartDevice_1
    310              {
    311                ZDApp_ChangeState( DEV_COORD_STARTING );
   \   000011                ; Setup parameters for call to function ZDApp_ChangeState
   \   000011   7908         MOV       R1,#0x8
   \   000013   12....       LCALL     `??ZDApp_ChangeState::?relay`; Banked call to: ZDApp_ChangeState
    312                ret = NLME_NetworkFormationRequest( zgConfigPANID, zgApsUseExtendedPANID, runtimeChannel,
    313                                                    zgDefaultStartingScanDuration, beaconOrder,
    314                                                    superframeOrder, false, false, 0 );
   \   000016                ; Setup parameters for call to function NLME_NetworkFormationRequest
   \   000016   E4           CLR       A
   \   000017   F5..         MOV       ?V2,A
   \   000019   F5..         MOV       ?V3,A
   \   00001B   78..         MOV       R0,#?V2
   \   00001D   12....       LCALL     ?PUSH_XSTACK_I_TWO
   \   000020   78..         MOV       R0,#?V2
   \   000022   12....       LCALL     ?PUSH_XSTACK_I_ONE
   \   000025   78..         MOV       R0,#?V2
   \   000027   12....       LCALL     ?PUSH_XSTACK_I_ONE
   \   00002A   E5..         MOV       A,?V1
   \   00002C   F5..         MOV       ?V2,A
   \   00002E   78..         MOV       R0,#?V2
   \   000030   12....       LCALL     ?PUSH_XSTACK_I_ONE
   \   000033   EE           MOV       A,R6
   \   000034   F5..         MOV       ?V2,A
   \   000036   78..         MOV       R0,#?V2
   \   000038   12....       LCALL     ?PUSH_XSTACK_I_ONE
   \   00003B   90....       MOV       DPTR,#runtimeChannel
   \   00003E   12....       LCALL     ?PUSH_XSTACK8_X_FOUR
   \   000041   90....       MOV       DPTR,#bdbAttributes + 13
   \   000044   E0           MOVX      A,@DPTR
   \   000045   F9           MOV       R1,A
   \   000046   7C..         MOV       R4,#zgApsUseExtendedPANID & 0xff
   \   000048   7D..         MOV       R5,#(zgApsUseExtendedPANID >> 8) & 0xff
   \   00004A   90....       MOV       DPTR,#zgConfigPANID
   \   00004D   12....       LCALL     ??Subroutine198_0 & 0xFFFF
    315              }
   \                     ??CrossCallReturnLabel_376:
   \   000050   12....       LCALL     `??NLME_NetworkFormationRequest::?relay`; Banked call to: NLME_NetworkFormationRequest
   \   000053   740A         MOV       A,#0xa
   \   000055   12....       LCALL     ?DEALLOC_XSTACK8
   \   000058   8012         SJMP      ??ZDO_StartDevice_2
    316              else if ( startMode == MODE_RESUME )
   \                     ??ZDO_StartDevice_1:
   \   00005A   7401         MOV       A,#0x1
   \   00005C   6A           XRL       A,R2
   \   00005D   7012         JNZ       ??ZDO_StartDevice_3
    317              {
    318                // Just start the coordinator
    319                ZDApp_ChangeState( DEV_COORD_STARTING );
   \   00005F                ; Setup parameters for call to function ZDApp_ChangeState
   \   00005F   7908         MOV       R1,#0x8
   \   000061   12....       LCALL     `??ZDApp_ChangeState::?relay`; Banked call to: ZDApp_ChangeState
    320                ret = NLME_StartRouterRequest( beaconOrder, beaconOrder, false );
   \   000064                ; Setup parameters for call to function NLME_StartRouterRequest
   \   000064   7B00         MOV       R3,#0x0
   \   000066   EE           MOV       A,R6
   \   000067   FA           MOV       R2,A
   \   000068   F9           MOV       R1,A
   \   000069   12....       LCALL     `??NLME_StartRouterRequest::?relay`; Banked call to: NLME_StartRouterRequest
   \                     ??ZDO_StartDevice_2:
   \   00006C   E9           MOV       A,R1
    321              }
    322              else
    323              {
    324          #if defined( LCD_SUPPORTED )
    325                HalLcdWriteScreen( "StartDevice ERR", "MODE unknown" );
    326          #endif
    327              }
    328            }
    329          
    330            if ( ZG_BUILD_JOINING_TYPE && (logicalType == NODETYPE_ROUTER || logicalType == NODETYPE_DEVICE) )
    331            {
    332              if ( (startMode == MODE_JOIN) || (startMode == MODE_REJOIN) )
    333              {
    334                if(APSME_IsDistributedSecurity() && (startMode != MODE_REJOIN))
    335                {
    336                        ret = NLME_NetworkFormationRequest( zgConfigPANID, zgApsUseExtendedPANID, runtimeChannel,
    337                                                    zgDefaultStartingScanDuration, beaconOrder,
    338                                                    superframeOrder, false, true, osal_rand() );
    339                  
    340                }
    341                else
    342                {
    343                  ZDApp_ChangeState( DEV_NWK_DISC );
    344          
    345                #if defined( MANAGED_SCAN )
    346                  ZDOManagedScan_Next();
    347                  ret = NLME_NetworkDiscoveryRequest( managedScanChannelMask, BEACON_ORDER_15_MSEC );
    348                #else
    349                  ret = NLME_NetworkDiscoveryRequest( runtimeChannel, zgDefaultStartingScanDuration );
    350                  #if defined ( ZIGBEE_FREQ_AGILITY )
    351                  if ( !( ZDO_Config_Node_Descriptor.CapabilityFlags & CAPINFO_RCVR_ON_IDLE ) &&
    352                      ( ret == ZSuccess ) && ( ++discRetries == 4 ) )
    353                  {
    354                    // For devices with RxOnWhenIdle equals to FALSE, any network channel
    355                    // change will not be recieved. On these devices or routers that have
    356                    // lost the network, an active scan shall be conducted on the Default
    357                    // Channel list using the extended PANID to find the network. If the
    358                    // extended PANID isn't found using the Default Channel list, an scan
    359                    // should be completed using all channels.
    360                    runtimeChannel = MAX_CHANNELS_24GHZ;
    361                  }
    362                  #endif // ZIGBEE_FREQ_AGILITY
    363                  #if defined ( ZIGBEE_COMMISSIONING )
    364                  if (startMode == MODE_REJOIN && scanCnt++ >= 5 )
    365                  {
    366                    // When ApsUseExtendedPanID is commissioned to a non zero value via
    367                    // application specific means, the device shall conduct an active scan
    368                    // on the Default Channel list and join the PAN with the same
    369                    // ExtendedPanID. If the PAN is not found, an scan should be completed
    370                    // on all channels.
    371                    // When devices rejoin the network and the PAN is not found from
    372                    runtimeChannel = MAX_CHANNELS_24GHZ;
    373                  }
    374                  #endif // ZIGBEE_COMMISSIONING
    375                #endif
    376                }
    377              }
    378              else if ( startMode == MODE_RESUME )
    379              {
    380                if ( logicalType == NODETYPE_ROUTER )
    381                {
    382                  uint16 panID;
    383                  
    384                  ZDApp_ChangeState( DEV_NWK_ORPHAN );
    385                  
    386                  // Stop the rejoin timeout
    387                  osal_stop_timerEx( NWK_TaskID, NWK_REJOIN_TIMEOUT_EVT );
    388                  ZMacGetReq( ZMacPanId, (uint8 *)&( panID ) );
    389                  
    390                  _NIB.nwkPanId = panID;
    391                  NLME_JoinConfirm(  _NIB.nwkPanId, ZSuccess );
    392          
    393                  ret = ZSuccess;
    394                }
    395                else
    396                {
    397                  ZDApp_ChangeState( DEV_NWK_ORPHAN );
    398                  //set timer for scan and rejoin
    399                  osal_start_timerEx( ZDAppTaskID, ZDO_REJOIN_BACKOFF, zgDefaultRejoinScan );
    400                  ret = NLME_OrphanJoinRequest( runtimeChannel,
    401                                                zgDefaultStartingScanDuration );
    402                }
    403              }
    404              else
    405              {
    406          #if defined( LCD_SUPPORTED )
    407                HalLcdWriteScreen( "StartDevice ERR", "MODE unknown" );
    408          #endif
    409              }
    410            }
    411          
    412            if ( ret != ZSuccess )
   \   00006D   700D         JNZ       ??ZDO_StartDevice_0
   \   00006F   8022         SJMP      ??ZDO_StartDevice_4
   \                     ??ZDO_StartDevice_3:
   \   000071                ; Setup parameters for call to function HalLcdWriteScreen
   \   000071   7C..         MOV       R4,#`?<Constant "MODE unknown">` & 0xff
   \   000073   7D..         MOV       R5,#(`?<Constant "MODE unknown">` >> 8) & 0xff
   \   000075   7A..         MOV       R2,#`?<Constant "StartDevice ERR">` & 0xff
   \   000077   7B..         MOV       R3,#(`?<Constant "StartDevice ERR">` >> 8) & 0xff
   \   000079   12....       LCALL     `??HalLcdWriteScreen::?relay`; Banked call to: HalLcdWriteScreen
    413            {
    414              osal_start_timerEx(ZDAppTaskID, ZDO_NETWORK_INIT, NWK_RETRY_DELAY );
   \                     ??ZDO_StartDevice_0:
   \   00007C                ; Setup parameters for call to function osal_start_timerEx
   \   00007C   90....       MOV       DPTR,#__Constant_3e8
   \   00007F   12....       LCALL     ?PUSH_XSTACK8_X_FOUR
   \   000082   7A01         MOV       R2,#0x1
   \   000084   7B00         MOV       R3,#0x0
   \   000086   90....       MOV       DPTR,#ZDAppTaskID
   \   000089   E0           MOVX      A,@DPTR
   \   00008A   F9           MOV       R1,A
   \   00008B   12....       LCALL     `??osal_start_timerEx::?relay`; Banked call to: osal_start_timerEx
   \   00008E   7404         MOV       A,#0x4
   \   000090   12....       LCALL     ?DEALLOC_XSTACK8
    415            }
    416          }
   \                     ??ZDO_StartDevice_4:
   \   000093   80..         SJMP      ??Subroutine184_0

   \                                 In  segment BANKED_CODE, align 1, keep-with-next
   \                     ??Subroutine184_0:
   \   000000   7F04         MOV       R7,#0x4
   \   000002   02....       LJMP      ?BANKED_LEAVE_XDATA

   \                                 In  segment BANKED_CODE, align 1, keep-with-next
   \                     ??Subroutine198_0:
   \   000000   12....       LCALL     ?Subroutine155 & 0xFFFF
   \                     ??CrossCallReturnLabel_393:
   \   000003   22           RET

   \                                 In  segment BANKED_CODE, align 1, keep-with-next
   \                     ?Subroutine155:
   \   000000   E0           MOVX      A,@DPTR
   \   000001   FA           MOV       R2,A
   \   000002   A3           INC       DPTR
   \   000003   E0           MOVX      A,@DPTR
   \   000004   FB           MOV       R3,A
   \   000005   22           RET
    417          
    418          /**************************************************************************************************
    419           * @fn          zdoSendStateChangeMsg
    420           *
    421           * @brief       Helper function for ZDO_UpdateNwkStatus.
    422           *
    423           * input parameters
    424           *
    425           * @param       taskId - The OSAL task identifier to which to send the ZDO_STATE_CHANGE_EVT.
    426           * @param       state - The current device state.
    427           *
    428           * output parameters
    429           *
    430           * None.
    431           *
    432           * @return      None.
    433           **************************************************************************************************
    434           */

   \                                 In  segment BANKED_CODE, align 1, keep-with-next
    435          static void zdoSendStateChangeMsg(uint8 state, uint8 taskId)
   \                     zdoSendStateChangeMsg:
    436          {
   \   000000                REQUIRE ?V0
   \   000000                REQUIRE ?V1
   \   000000   74F6         MOV       A,#-0xa
   \   000002   12....       LCALL     ?BANKED_ENTER_XDATA
   \   000005                ; Saved register size: 10
   \   000005                ; Auto size: 0
   \   000005   E9           MOV       A,R1
   \   000006   FF           MOV       R7,A
   \   000007   EA           MOV       A,R2
   \   000008   FE           MOV       R6,A
    437            osal_event_hdr_t *pMsg = (osal_event_hdr_t *)osal_msg_find(taskId, ZDO_STATE_CHANGE);
   \   000009                ; Setup parameters for call to function osal_msg_find
   \   000009   7AD1         MOV       R2,#-0x2f
   \   00000B   F9           MOV       R1,A
   \   00000C   12....       LCALL     `??osal_msg_find::?relay`; Banked call to: osal_msg_find
   \   00000F   8A82         MOV       DPL,R2
   \   000011   8B83         MOV       DPH,R3
    438          
    439            if (NULL == pMsg)
   \   000013   E582         MOV       A,DPL
   \   000015   4583         ORL       A,DPH
   \   000017   702A         JNZ       ??zdoSendStateChangeMsg_0
    440            {
    441              if (NULL == (pMsg = (osal_event_hdr_t *)osal_msg_allocate(sizeof(osal_event_hdr_t))))
   \   000019                ; Setup parameters for call to function osal_msg_allocate
   \   000019   7A02         MOV       R2,#0x2
   \   00001B   7B00         MOV       R3,#0x0
   \   00001D   12....       LCALL     `??osal_msg_allocate::?relay`; Banked call to: osal_msg_allocate
   \   000020   EA           MOV       A,R2
   \   000021   4B           ORL       A,R3
   \   000022   700E         JNZ       ??zdoSendStateChangeMsg_1
    442              {
    443                // Upon failure to notify any EndPoint of the state change, re-set the ZDO event to
    444                // try again later when more Heap may be available.
    445                osal_set_event(ZDAppTaskID, ZDO_STATE_CHANGE_EVT);
   \   000024                ; Setup parameters for call to function osal_set_event
   \   000024   7A10         MOV       R2,#0x10
   \   000026   7B00         MOV       R3,#0x0
   \   000028   90....       MOV       DPTR,#ZDAppTaskID
   \   00002B   E0           MOVX      A,@DPTR
   \   00002C   F9           MOV       R1,A
   \   00002D   12....       LCALL     `??osal_set_event::?relay`; Banked call to: osal_set_event
   \   000030   8014         SJMP      ??zdoSendStateChangeMsg_2
    446              }
    447              else
    448              {
    449                pMsg->event = ZDO_STATE_CHANGE;
   \                     ??zdoSendStateChangeMsg_1:
   \   000032   8A82         MOV       DPL,R2
   \   000034   8B83         MOV       DPH,R3
   \   000036   74D1         MOV       A,#-0x2f
   \   000038   F0           MOVX      @DPTR,A
    450                pMsg->status = state;
   \   000039   EF           MOV       A,R7
   \   00003A   A3           INC       DPTR
   \   00003B   F0           MOVX      @DPTR,A
    451          
    452                (void)osal_msg_send(taskId, (uint8 *)pMsg);
   \   00003C                ; Setup parameters for call to function osal_msg_send
   \   00003C   EE           MOV       A,R6
   \   00003D   F9           MOV       R1,A
   \   00003E   12....       LCALL     `??osal_msg_send::?relay`; Banked call to: osal_msg_send
   \   000041   8003         SJMP      ??zdoSendStateChangeMsg_2
    453              }
    454            }
    455            else
    456            {
    457              // Modify in place the status of an existing ZDO_STATE_CHANGE message to the EndPoint.
    458              pMsg->status = state;
   \                     ??zdoSendStateChangeMsg_0:
   \   000043   EF           MOV       A,R7
   \   000044   A3           INC       DPTR
   \   000045   F0           MOVX      @DPTR,A
    459            }
    460          }
   \                     ??zdoSendStateChangeMsg_2:
   \   000046   02....       LJMP      ??Subroutine188_0 & 0xFFFF

   \                                 In  segment BANKED_CODE, align 1, keep-with-next
   \                     ??Subroutine188_0:
   \   000000   7F02         MOV       R7,#0x2
   \   000002   02....       LJMP      ?BANKED_LEAVE_XDATA
    461          
    462          /**************************************************************************************************
    463           * @fn          ZDO_UpdateNwkStatus
    464           *
    465           * @brief       This function sends a ZDO_STATE_CHANGE message to the task of every EndPoint
    466           *              registered with AF (except, of course, the ZDO_EP). Even if a single task has more
    467           *              than one registered EndPoint, it will only receive one notification per state
    468           *              change. Although the device may go through a sequence of state changes, the
    469           *              Application task may only receive notification of the final, steady-state state
    470           *              because it has the lowest priority and never even runs to receive the intermediate
    471           *              state change notifications.
    472           *
    473           * input parameters
    474           *
    475           * @param       state - The current device state.
    476           *
    477           * output parameters
    478           *
    479           * None.
    480           *
    481           * @return      None.
    482           **************************************************************************************************
    483           */

   \                                 In  segment BANKED_CODE, align 1, keep-with-next
    484          void ZDO_UpdateNwkStatus(devStates_t state)
   \                     ZDO_UpdateNwkStatus:
    485          {
   \   000000                REQUIRE ?V0
   \   000000   74F7         MOV       A,#-0x9
   \   000002   12....       LCALL     ?BANKED_ENTER_XDATA
   \   000005                ; Saved register size: 9
   \   000005                ; Auto size: 0
   \   000005   89..         MOV       ?V0,R1
    486            epList_t *pItem = epList;
   \   000007   90....       MOV       DPTR,#epList
   \   00000A   12....       LCALL     ??Subroutine225_0 & 0xFFFF
   \                     ??CrossCallReturnLabel_521:
   \   00000D   801D         SJMP      ??ZDO_UpdateNwkStatus_0
    487          
    488          #if defined MT_ZDO_CB_FUNC
    489            if ( zdpExternalStateTaskID == -1 )
    490            {
    491              zdpExternalStateTaskID = MT_TaskID;
    492            }
    493          #endif
    494          
    495            while (pItem != NULL)
    496            {
    497              if (pItem->epDesc->endPoint != ZDO_EP)
   \                     ??ZDO_UpdateNwkStatus_1:
   \   00000F   8E82         MOV       DPL,R6
   \   000011   8F83         MOV       DPH,R7
   \   000013   12....       LCALL     ?Subroutine100 & 0xFFFF
   \                     ??CrossCallReturnLabel_162:
   \   000016   E0           MOVX      A,@DPTR
   \   000017   6009         JZ        ??ZDO_UpdateNwkStatus_2
    498              {
    499                zdoSendStateChangeMsg(state, *(pItem->epDesc->task_id));
   \   000019                ; Setup parameters for call to function zdoSendStateChangeMsg
   \   000019   12....       LCALL     ?Subroutine83 & 0xFFFF
    500              }
   \                     ??CrossCallReturnLabel_309:
   \   00001C   FA           MOV       R2,A
   \   00001D   A9..         MOV       R1,?V0
   \   00001F   12....       LCALL     `??zdoSendStateChangeMsg::?relay`; Banked call to: zdoSendStateChangeMsg
    501          
    502              pItem = pItem->nextDesc;
   \                     ??ZDO_UpdateNwkStatus_2:
   \   000022   8E82         MOV       DPL,R6
   \   000024   8F83         MOV       DPH,R7
   \   000026   12....       LCALL     ??Subroutine196_0 & 0xFFFF
    503            }
   \                     ??CrossCallReturnLabel_352:
   \   000029   E8           MOV       A,R0
   \   00002A   FE           MOV       R6,A
   \   00002B   E9           MOV       A,R1
   \                     ??ZDO_UpdateNwkStatus_0:
   \   00002C   FF           MOV       R7,A
   \   00002D   EE           MOV       A,R6
   \   00002E   4F           ORL       A,R7
   \   00002F   70DE         JNZ       ??ZDO_UpdateNwkStatus_1
    504          
    505            if ( zdpExternalStateTaskID != -1 )
   \   000031   90....       MOV       DPTR,#zdpExternalStateTaskID
   \   000034   E0           MOVX      A,@DPTR
   \   000035   F4           CPL       A
   \   000036   7003         JNZ       ??ZDO_UpdateNwkStatus_3
   \   000038   A3           INC       DPTR
   \   000039   E0           MOVX      A,@DPTR
   \   00003A   F4           CPL       A
   \                     ??ZDO_UpdateNwkStatus_3:
   \   00003B   600A         JZ        ??ZDO_UpdateNwkStatus_4
    506            {
    507              zdoSendStateChangeMsg( state, zdpExternalStateTaskID );
   \   00003D                ; Setup parameters for call to function zdoSendStateChangeMsg
   \   00003D   90....       MOV       DPTR,#zdpExternalStateTaskID
   \   000040   E0           MOVX      A,@DPTR
   \   000041   FA           MOV       R2,A
   \   000042   A9..         MOV       R1,?V0
   \   000044   12....       LCALL     `??zdoSendStateChangeMsg::?relay`; Banked call to: zdoSendStateChangeMsg
    508            }
    509          
    510            ZDAppNwkAddr.addr.shortAddr = NLME_GetShortAddr();
   \                     ??ZDO_UpdateNwkStatus_4:
   \   000047                ; Setup parameters for call to function NLME_GetShortAddr
   \   000047   12....       LCALL     `??NLME_GetShortAddr::?relay`; Banked call to: NLME_GetShortAddr
   \   00004A   90....       MOV       DPTR,#ZDAppNwkAddr
   \   00004D   12....       LCALL     ??Subroutine192_0 & 0xFFFF
    511            (void)NLME_GetExtAddr();  // Load the saveExtAddr pointer.
   \                     ??CrossCallReturnLabel_332:
   \   000050                ; Setup parameters for call to function NLME_GetExtAddr
   \   000050   12....       LCALL     `??NLME_GetExtAddr::?relay`; Banked call to: NLME_GetExtAddr
    512          }
   \   000053                REQUIRE ?Subroutine3
   \   000053                ; // Fall through to label ?Subroutine3

   \                                 In  segment BANKED_CODE, align 1, keep-with-next
   \                     ?Subroutine3:
   \   000000   7F01         MOV       R7,#0x1
   \   000002   02....       LJMP      ?BANKED_LEAVE_XDATA

   \                                 In  segment BANKED_CODE, align 1, keep-with-next
   \                     ?Subroutine83:
   \   000000   A3           INC       DPTR
   \   000001   A3           INC       DPTR
   \   000002                REQUIRE ??Subroutine185_0
   \   000002                ; // Fall through to label ??Subroutine185_0

   \                                 In  segment BANKED_CODE, align 1, keep-with-next
   \                     ??Subroutine185_0:
   \   000000   12....       LCALL     ?Subroutine154 & 0xFFFF
   \                     ??CrossCallReturnLabel_314:
   \   000003   22           RET

   \                                 In  segment BANKED_CODE, align 1, keep-with-next
   \                     ?Subroutine154:
   \   000000   12....       LCALL     ??Subroutine214_0 & 0xFFFF
   \                     ??CrossCallReturnLabel_512:
   \   000003   F583         MOV       DPH,A
   \   000005   8882         MOV       DPL,R0
   \   000007   E0           MOVX      A,@DPTR
   \   000008   22           RET

   \                                 In  segment BANKED_CODE, align 1, keep-with-next
   \                     ?Subroutine100:
   \   000000   A3           INC       DPTR
   \   000001   A3           INC       DPTR
   \   000002   12....       LCALL     ?Subroutine177 & 0xFFFF
   \                     ??CrossCallReturnLabel_297:
   \   000005   22           RET

   \                                 In  segment BANKED_CODE, align 1, keep-with-next
   \                     ?Subroutine177:
   \   000000   E0           MOVX      A,@DPTR
   \   000001   F8           MOV       R0,A
   \   000002   A3           INC       DPTR
   \   000003   E0           MOVX      A,@DPTR
   \   000004   8882         MOV       DPL,R0
   \   000006   F583         MOV       DPH,A
   \   000008   22           RET

   \                                 In  segment BANKED_CODE, align 1, keep-with-next
   \                     ??Subroutine192_0:
   \   000000   EA           MOV       A,R2
   \   000001                REQUIRE ??Subroutine193_0
   \   000001                ; // Fall through to label ??Subroutine193_0

   \                                 In  segment BANKED_CODE, align 1, keep-with-next
   \                     ??Subroutine193_0:
   \   000000   F0           MOVX      @DPTR,A
   \   000001   A3           INC       DPTR
   \   000002   EB           MOV       A,R3
   \   000003   F0           MOVX      @DPTR,A
   \   000004   22           RET

   \                                 In  segment BANKED_CODE, align 1, keep-with-next
   \                     ??Subroutine196_0:
   \   000000   12....       LCALL     ?Subroutine164 & 0xFFFF
   \                     ??CrossCallReturnLabel_484:
   \   000003   22           RET

   \                                 In  segment BANKED_CODE, align 1, keep-with-next
   \                     ?Subroutine164:
   \   000000   12....       LCALL     ??Subroutine214_0 & 0xFFFF
   \                     ??CrossCallReturnLabel_515:
   \   000003   F9           MOV       R1,A
   \   000004   22           RET

   \                                 In  segment BANKED_CODE, align 1, keep-with-next
   \                     ??Subroutine214_0:
   \   000000   E0           MOVX      A,@DPTR
   \   000001   F8           MOV       R0,A
   \   000002   A3           INC       DPTR
   \   000003   E0           MOVX      A,@DPTR
   \   000004   22           RET

   \                                 In  segment BANKED_CODE, align 1, keep-with-next
   \                     ??Subroutine225_0:
   \   000000   E0           MOVX      A,@DPTR
   \   000001   FE           MOV       R6,A
   \   000002   A3           INC       DPTR
   \   000003   E0           MOVX      A,@DPTR
   \   000004   22           RET
    513          
    514          #if defined ( REFLECTOR )
    515          /*********************************************************************
    516           * @fn          ZDO_RemoveEndDeviceBind
    517           *
    518           * @brief       Remove the end device bind
    519           *
    520           * @param  none
    521           *
    522           * @return      none
    523           */
    524          static void ZDO_RemoveEndDeviceBind( void )
    525          {
    526            if ( ZDO_EDBind != NULL )
    527            {
    528              // Free the RAM
    529              if ( ZDO_EDBind->inClusters != NULL )
    530              {
    531                osal_mem_free( ZDO_EDBind->inClusters );
    532              }
    533              if ( ZDO_EDBind->outClusters != NULL )
    534              {
    535                osal_mem_free( ZDO_EDBind->outClusters );
    536              }
    537              osal_mem_free( ZDO_EDBind );
    538              ZDO_EDBind = NULL;
    539            }
    540          }
    541          #endif // REFLECTOR
    542          
    543          #if defined ( REFLECTOR )
    544          /*********************************************************************
    545           * @fn          ZDO_SendEDBindRsp
    546           *
    547           * @brief       Send the end device bind response
    548           *
    549           * @param  none
    550           *
    551           * @return      none
    552           */
    553          static void ZDO_SendEDBindRsp( byte TransSeq, zAddrType_t *dstAddr, byte Status, byte secUse )
    554          {
    555            ZDP_EndDeviceBindRsp( TransSeq, dstAddr, Status, secUse );
    556          
    557          #if defined( LCD_SUPPORTED )
    558            HalLcdWriteString( "End Device Bind", HAL_LCD_LINE_1 );
    559            if ( Status == ZDP_SUCCESS )
    560            {
    561              HalLcdWriteString( "Success Sent", HAL_LCD_LINE_2 );
    562            }
    563            else
    564            {
    565              HalLcdWriteString( "Timeout", HAL_LCD_LINE_2 );
    566            }
    567          #endif
    568          
    569          }
    570          #endif // REFLECTOR
    571          
    572          #if ( ZG_BUILD_COORDINATOR_TYPE )
    573          /*********************************************************************
    574           * @fn          ZDO_CompareClusterLists
    575           *
    576           * @brief       Compare one list to another list
    577           *
    578           * @param       numList1 - number of items in list 1
    579           * @param       list1 - first list of cluster IDs
    580           * @param       numList2 - number of items in list 2
    581           * @param       list2 - second list of cluster IDs
    582           * @param       pMatches - buffer to put matches
    583           *
    584           * @return      number of matches
    585           */

   \                                 In  segment BANKED_CODE, align 1, keep-with-next
    586          static byte ZDO_CompareClusterLists( byte numList1, uint16 *list1,
   \                     ZDO_CompareClusterLists:
    587                                    byte numList2, uint16 *list2, uint16 *pMatches )
    588          {
   \   000000                REQUIRE ?V0
   \   000000                REQUIRE ?V1
   \   000000                REQUIRE ?V2
   \   000000                REQUIRE ?V3
   \   000000                REQUIRE ?V4
   \   000000                REQUIRE ?V6
   \   000000                REQUIRE ?V7
   \   000000   74F0         MOV       A,#-0x10
   \   000002   12....       LCALL     ?BANKED_ENTER_XDATA
   \   000005                ; Saved register size: 16
   \   000005                ; Auto size: 0
   \   000005   89..         MOV       ?V3,R1
   \   000007   8C..         MOV       ?V4,R4
    589            byte x, y;
    590            uint16 z;
    591            byte numMatches = 0;
   \   000009   75..00       MOV       ?V1,#0x0
    592          
    593            // Check the first in against the seconds out
    594            for ( x = 0; x < numList1; x++ )
   \   00000C   75..00       MOV       ?V0,#0x0
   \   00000F   7410         MOV       A,#0x10
   \   000011   12....       LCALL     ?XSTACK_DISP0_8
   \   000014   12....       LCALL     ??Subroutine196_0 & 0xFFFF
   \                     ??CrossCallReturnLabel_353:
   \   000017   7412         MOV       A,#0x12
   \   000019   12....       LCALL     ?XSTACK_DISP0_8
   \   00001C   12....       LCALL     ??Subroutine204_0 & 0xFFFF
   \                     ??CrossCallReturnLabel_410:
   \   00001F   8046         SJMP      ??ZDO_CompareClusterLists_0
    595            {
    596              for ( y = 0; y < numList2; y++ )
    597              {
    598                z = list2[y];
   \                     ??ZDO_CompareClusterLists_1:
   \   000021   12....       LCALL     ?Subroutine103 & 0xFFFF
   \                     ??CrossCallReturnLabel_166:
   \   000024   12....       LCALL     ?Subroutine92 & 0xFFFF
   \                     ??CrossCallReturnLabel_150:
   \   000027   F5..         MOV       ?V7,A
    599                if ( list1[x] == z )
   \   000029   AE..         MOV       R6,?V0
   \   00002B   EE           MOV       A,R6
   \   00002C   2E           ADD       A,R6
   \   00002D   FE           MOV       R6,A
   \   00002E   E4           CLR       A
   \   00002F   33           RLC       A
   \   000030   FF           MOV       R7,A
   \   000031   EA           MOV       A,R2
   \   000032   2E           ADD       A,R6
   \   000033   F582         MOV       DPL,A
   \   000035   EB           MOV       A,R3
   \   000036   12....       LCALL     ??Subroutine200_0 & 0xFFFF
   \                     ??CrossCallReturnLabel_394:
   \   000039   65..         XRL       A,?V6
   \   00003B   7004         JNZ       ??ZDO_CompareClusterLists_2
   \   00003D   A3           INC       DPTR
   \   00003E   E0           MOVX      A,@DPTR
   \   00003F   65..         XRL       A,?V7
   \                     ??ZDO_CompareClusterLists_2:
   \   000041   7019         JNZ       ??ZDO_CompareClusterLists_3
    600                {
    601                  pMatches[numMatches++] = z;
   \   000043   AE..         MOV       R6,?V1
   \   000045   EE           MOV       A,R6
   \   000046   2E           ADD       A,R6
   \   000047   FE           MOV       R6,A
   \   000048   E4           CLR       A
   \   000049   33           RLC       A
   \   00004A   FF           MOV       R7,A
   \   00004B   EC           MOV       A,R4
   \   00004C   2E           ADD       A,R6
   \   00004D   F582         MOV       DPL,A
   \   00004F   ED           MOV       A,R5
   \   000050   3F           ADDC      A,R7
   \   000051   F583         MOV       DPH,A
   \   000053   E5..         MOV       A,?V6
   \   000055   F0           MOVX      @DPTR,A
   \   000056   A3           INC       DPTR
   \   000057   E5..         MOV       A,?V7
   \   000059   F0           MOVX      @DPTR,A
   \   00005A   05..         INC       ?V1
    602                }
    603              }
   \                     ??ZDO_CompareClusterLists_3:
   \   00005C   05..         INC       ?V2
   \                     ??ZDO_CompareClusterLists_4:
   \   00005E   E5..         MOV       A,?V2
   \   000060   C3           CLR       C
   \   000061   95..         SUBB      A,?V4
   \   000063   40BC         JC        ??ZDO_CompareClusterLists_1
   \   000065   05..         INC       ?V0
   \                     ??ZDO_CompareClusterLists_0:
   \   000067   E5..         MOV       A,?V0
   \   000069   C3           CLR       C
   \   00006A   95..         SUBB      A,?V3
   \   00006C   5005         JNC       ??ZDO_CompareClusterLists_5
   \   00006E   75..00       MOV       ?V2,#0x0
   \   000071   80EB         SJMP      ??ZDO_CompareClusterLists_4
    604            }
    605          
    606            return ( numMatches );
   \                     ??ZDO_CompareClusterLists_5:
   \   000073   A9..         MOV       R1,?V1
   \   000075   02....       LJMP      ??Subroutine201_0 & 0xFFFF
    607          }

   \                                 In  segment BANKED_CODE, align 1, keep-with-next
   \                     ?Subroutine103:
   \   000000   AE..         MOV       R6,?V2
   \   000002   EE           MOV       A,R6
   \   000003   2E           ADD       A,R6
   \   000004   FE           MOV       R6,A
   \   000005   E4           CLR       A
   \   000006   33           RLC       A
   \   000007   FF           MOV       R7,A
   \   000008   E8           MOV       A,R0
   \   000009   2E           ADD       A,R6
   \   00000A   F582         MOV       DPL,A
   \   00000C   E9           MOV       A,R1
   \   00000D   3F           ADDC      A,R7
   \   00000E   F583         MOV       DPH,A
   \   000010   22           RET

   \                                 In  segment BANKED_CODE, align 1, keep-with-next
   \                     ??Subroutine200_0:
   \   000000   3F           ADDC      A,R7
   \   000001   F583         MOV       DPH,A
   \   000003   E0           MOVX      A,@DPTR
   \   000004   22           RET

   \                                 In  segment BANKED_CODE, align 1, keep-with-next
   \                     ??Subroutine201_0:
   \   000000   7F08         MOV       R7,#0x8
   \   000002   02....       LJMP      ?BANKED_LEAVE_XDATA

   \                                 In  segment BANKED_CODE, align 1, keep-with-next
   \                     ??Subroutine204_0:
   \   000000   E0           MOVX      A,@DPTR
   \   000001   FC           MOV       R4,A
   \   000002   A3           INC       DPTR
   \   000003   E0           MOVX      A,@DPTR
   \   000004   FD           MOV       R5,A
   \   000005   22           RET

   \                                 In  segment BANKED_CODE, align 1, keep-with-next
   \                     ?Subroutine92:
   \   000000   E0           MOVX      A,@DPTR
   \   000001   F5..         MOV       ?V6,A
   \   000003   A3           INC       DPTR
   \   000004   E0           MOVX      A,@DPTR
   \   000005   22           RET
    608          #endif // ZG_BUILD_COORDINATOR_TYPE
    609          
    610          /*********************************************************************
    611           * Utility functions
    612           */
    613          
    614          /*********************************************************************
    615           * @fn          ZDO_CompareByteLists
    616           *
    617           * @brief       Compares two lists for matches.
    618           *
    619           * @param       ACnt  - number of entries in list A
    620           * @param       AList  - List A
    621           * @param       BCnt  - number of entries in list B
    622           * @param       BList  - List B
    623           *
    624           * @return      true if a match is found
    625           */

   \                                 In  segment BANKED_CODE, align 1, keep-with-next
    626          byte ZDO_AnyClusterMatches( byte ACnt, uint16 *AList, byte BCnt, uint16 *BList )
   \                     ZDO_AnyClusterMatches:
    627          {
   \   000000                REQUIRE ?V0
   \   000000                REQUIRE ?V1
   \   000000                REQUIRE ?V2
   \   000000                REQUIRE ?V3
   \   000000   74F4         MOV       A,#-0xc
   \   000002   12....       LCALL     ?BANKED_ENTER_XDATA
   \   000005                ; Saved register size: 12
   \   000005                ; Auto size: 0
   \   000005   89..         MOV       ?V3,R1
    628            byte x, y;
    629          
    630            for ( x = 0; x < ACnt; x++ )
   \   000007   7D00         MOV       R5,#0x0
   \   000009   740C         MOV       A,#0xc
   \   00000B   12....       LCALL     ?XSTACK_DISP0_8
   \   00000E   12....       LCALL     ??Subroutine196_0 & 0xFFFF
   \                     ??CrossCallReturnLabel_354:
   \   000011   8001         SJMP      ??ZDO_AnyClusterMatches_0
   \                     ??ZDO_AnyClusterMatches_1:
   \   000013   0D           INC       R5
   \                     ??ZDO_AnyClusterMatches_0:
   \   000014   ED           MOV       A,R5
   \   000015   C3           CLR       C
   \   000016   95..         SUBB      A,?V3
   \   000018   502F         JNC       ??ZDO_AnyClusterMatches_2
    631            {
    632              for ( y = 0; y < BCnt; y++ )
   \   00001A   75..00       MOV       ?V2,#0x0
   \   00001D   8002         SJMP      ??ZDO_AnyClusterMatches_3
   \                     ??ZDO_AnyClusterMatches_4:
   \   00001F   05..         INC       ?V2
   \                     ??ZDO_AnyClusterMatches_3:
   \   000021   E5..         MOV       A,?V2
   \   000023   C3           CLR       C
   \   000024   9C           SUBB      A,R4
   \   000025   50EC         JNC       ??ZDO_AnyClusterMatches_1
    633              {
    634                if ( AList[x] == BList[y] )
   \   000027   ED           MOV       A,R5
   \   000028   25E0         ADD       A,0xE0 /* A   */
   \   00002A   FE           MOV       R6,A
   \   00002B   E4           CLR       A
   \   00002C   33           RLC       A
   \   00002D   FF           MOV       R7,A
   \   00002E   EA           MOV       A,R2
   \   00002F   2E           ADD       A,R6
   \   000030   F582         MOV       DPL,A
   \   000032   EB           MOV       A,R3
   \   000033   3F           ADDC      A,R7
   \   000034   12....       LCALL     ?Subroutine69 & 0xFFFF
   \                     ??CrossCallReturnLabel_317:
   \   000037   12....       LCALL     ?Subroutine103 & 0xFFFF
   \                     ??CrossCallReturnLabel_167:
   \   00003A   E0           MOVX      A,@DPTR
   \   00003B   65..         XRL       A,?V0
   \   00003D   7004         JNZ       ??ZDO_AnyClusterMatches_5
   \   00003F   A3           INC       DPTR
   \   000040   E0           MOVX      A,@DPTR
   \   000041   65..         XRL       A,?V1
   \                     ??ZDO_AnyClusterMatches_5:
   \   000043   70DA         JNZ       ??ZDO_AnyClusterMatches_4
    635                {
    636                  return true;
   \   000045   7901         MOV       R1,#0x1
   \   000047   8002         SJMP      ??ZDO_AnyClusterMatches_6
    637                }
    638              }
    639            }
    640          
    641            return false;
   \                     ??ZDO_AnyClusterMatches_2:
   \   000049   7900         MOV       R1,#0x0
   \                     ??ZDO_AnyClusterMatches_6:
   \   00004B   02....       LJMP      ??Subroutine184_0 & 0xFFFF
    642          }

   \                                 In  segment BANKED_CODE, align 1, keep-with-next
   \                     ?Subroutine69:
   \   000000   F583         MOV       DPH,A
   \   000002                REQUIRE ??Subroutine186_0
   \   000002                ; // Fall through to label ??Subroutine186_0

   \                                 In  segment BANKED_CODE, align 1, keep-with-next
   \                     ??Subroutine186_0:
   \   000000   12....       LCALL     ?Subroutine163 & 0xFFFF
   \                     ??CrossCallReturnLabel_322:
   \   000003   F5..         MOV       ?V1,A
   \   000005   22           RET

   \                                 In  segment BANKED_CODE, align 1, keep-with-next
   \                     ?Subroutine163:
   \   000000   E0           MOVX      A,@DPTR
   \   000001   F5..         MOV       ?V0,A
   \   000003   A3           INC       DPTR
   \   000004   E0           MOVX      A,@DPTR
   \   000005   22           RET
    643          
    644          /*********************************************************************
    645           * Callback functions from ZDProfile
    646           */
    647          
    648          
    649          /*********************************************************************
    650           * @fn          ZDO_ProcessNodeDescRsp
    651           *
    652           * @brief       This function processes the Node_Desc_rsp and request
    653           *              Update the TC Link key if the TC supports it.
    654           *
    655           * @param       inMsg - incoming message
    656           *
    657           * @return      none
    658           */

   \                                 In  segment BANKED_CODE, align 1, keep-with-next
    659          void ZDO_ProcessNodeDescRsp ( zdoIncomingMsg_t *inMsg )
   \                     ZDO_ProcessNodeDescRsp:
    660          {
   \   000000                ; Saved register size: 0
   \   000000                ; Auto size: 0
    661          }
   \   000000   02....       LJMP      ?BRET
    662          
    663          
    664          
    665          /*********************************************************************
    666           * @fn          ZDO_ProcessNodeDescReq
    667           *
    668           * @brief       This function processes and responds to the
    669           *              Node_Desc_req message.
    670           *
    671           * @param       inMsg - incoming message
    672           *
    673           * @return      none
    674           */

   \                                 In  segment BANKED_CODE, align 1, keep-with-next
    675          void ZDO_ProcessNodeDescReq( zdoIncomingMsg_t *inMsg )
   \                     ZDO_ProcessNodeDescReq:
    676          {
   \   000000                REQUIRE ?V0
   \   000000                REQUIRE ?V1
   \   000000   74F6         MOV       A,#-0xa
   \   000002   12....       LCALL     ?BANKED_ENTER_XDATA
   \   000005                ; Saved register size: 10
   \   000005                ; Auto size: 0
   \   000005   12....       LCALL     ?Subroutine57 & 0xFFFF
    677            uint16 aoi = BUILD_UINT16( inMsg->asdu[0], inMsg->asdu[1] );
    678            NodeDescriptorFormat_t *desc = NULL;
    679          
    680            if ( aoi == ZDAppNwkAddr.addr.shortAddr )
   \                     ??CrossCallReturnLabel_90:
   \   000008   7003         JNZ       ??ZDO_ProcessNodeDescReq_0
   \   00000A   A3           INC       DPTR
   \   00000B   E0           MOVX      A,@DPTR
   \   00000C   6D           XRL       A,R5
   \                     ??ZDO_ProcessNodeDescReq_0:
   \   00000D   7017         JNZ       ??ZDO_ProcessNodeDescReq_1
    681            {
    682              desc = &ZDO_Config_Node_Descriptor;
    683            }
    684          
    685            if ( desc != NULL )
    686            {
    687              ZDP_NodeDescMsg( inMsg, aoi, desc );
   \   00000F                ; Setup parameters for call to function ZDP_NodeDescMsg
   \   00000F   75....       MOV       ?V0,#ZDO_Config_Node_Descriptor & 0xff
   \   000012   75....       MOV       ?V1,#(ZDO_Config_Node_Descriptor >> 8) & 0xff
   \   000015   78..         MOV       R0,#?V0
   \   000017   12....       LCALL     ?PUSH_XSTACK_I_TWO
   \   00001A   EE           MOV       A,R6
   \   00001B   FA           MOV       R2,A
   \   00001C   12....       LCALL     `??ZDP_NodeDescMsg::?relay`; Banked call to: ZDP_NodeDescMsg
   \   00001F   7402         MOV       A,#0x2
   \   000021   12....       LCALL     ?DEALLOC_XSTACK8
   \   000024   801A         SJMP      ??ZDO_ProcessNodeDescReq_2
    688            }
    689            else
    690            {
    691              ZDP_GenericRsp( inMsg->TransSeq, &(inMsg->srcAddr),
    692                        ZDP_INVALID_REQTYPE, aoi, Node_Desc_rsp, inMsg->SecurityUse );
   \                     ??ZDO_ProcessNodeDescReq_1:
   \   000026                ; Setup parameters for call to function ZDP_GenericRsp
   \   000026   75..02       MOV       ?V0,#0x2
   \   000029   75..80       MOV       ?V1,#-0x80
   \   00002C   78..         MOV       R0,#?V0
   \   00002E   12....       LCALL     ?PUSH_XSTACK_I_TWO
   \   000031   8A..         MOV       ?V0,R2
   \   000033   89..         MOV       ?V1,R1
   \   000035   78..         MOV       R0,#?V0
   \   000037   12....       LCALL     ?PUSH_XSTACK_I_TWO
   \   00003A   12....       LCALL     ?Subroutine58 & 0xFFFF
    693            }
   \                     ??CrossCallReturnLabel_92:
   \   00003D   12....       LCALL     ?DEALLOC_XSTACK8
    694          }
   \                     ??ZDO_ProcessNodeDescReq_2:
   \   000040   02....       LJMP      ??Subroutine188_0 & 0xFFFF

   \                                 In  segment BANKED_CODE, align 1, keep-with-next
   \                     ?Subroutine58:
   \   000000   EE           MOV       A,R6
   \   000001   240E         ADD       A,#0xe
   \   000003   F582         MOV       DPL,A
   \   000005   E4           CLR       A
   \   000006   3F           ADDC      A,R7
   \   000007   F583         MOV       DPH,A
   \   000009   E0           MOVX      A,@DPTR
   \   00000A   FD           MOV       R5,A
   \   00000B   7C80         MOV       R4,#-0x80
   \   00000D   EE           MOV       A,R6
   \   00000E   2402         ADD       A,#0x2
   \   000010   FA           MOV       R2,A
   \   000011   E4           CLR       A
   \   000012   3F           ADDC      A,R7
   \   000013   FB           MOV       R3,A
   \   000014   EE           MOV       A,R6
   \   000015   240F         ADD       A,#0xf
   \   000017   F582         MOV       DPL,A
   \   000019   E4           CLR       A
   \   00001A   3F           ADDC      A,R7
   \   00001B   F583         MOV       DPH,A
   \   00001D   E0           MOVX      A,@DPTR
   \   00001E   F9           MOV       R1,A
   \   00001F   12....       LCALL     `??ZDP_GenericRsp::?relay`; Banked call to: ZDP_GenericRsp
   \   000022   7404         MOV       A,#0x4
   \   000024   22           RET

   \                                 In  segment BANKED_CODE, align 1, keep-with-next
   \                     ?Subroutine57:
   \   000000   12....       LCALL     ?Subroutine157 & 0xFFFF
   \                     ??CrossCallReturnLabel_270:
   \   000003   F8           MOV       R0,A
   \   000004   E4           CLR       A
   \   000005   C8           XCH       A,R0
   \   000006   F9           MOV       R1,A
   \   000007   EA           MOV       A,R2
   \   000008   28           ADD       A,R0
   \   000009   FC           MOV       R4,A
   \   00000A   E4           CLR       A
   \   00000B   39           ADDC      A,R1
   \   00000C   FD           MOV       R5,A
   \   00000D   90....       MOV       DPTR,#ZDAppNwkAddr
   \   000010   E0           MOVX      A,@DPTR
   \   000011   6C           XRL       A,R4
   \   000012   22           RET

   \                                 In  segment BANKED_CODE, align 1, keep-with-next
   \                     ?Subroutine157:
   \   000000   EA           MOV       A,R2
   \   000001   FE           MOV       R6,A
   \   000002   EB           MOV       A,R3
   \   000003   FF           MOV       R7,A
   \   000004   EA           MOV       A,R2
   \   000005   12....       LCALL     ?Subroutine179 & 0xFFFF
   \                     ??CrossCallReturnLabel_300:
   \   000008   12....       LCALL     ?Subroutine177 & 0xFFFF
   \                     ??CrossCallReturnLabel_298:
   \   00000B   E0           MOVX      A,@DPTR
   \   00000C   FA           MOV       R2,A
   \   00000D   A3           INC       DPTR
   \   00000E   E0           MOVX      A,@DPTR
   \   00000F   22           RET

   \                                 In  segment BANKED_CODE, align 1, keep-with-next
   \                     ?Subroutine179:
   \   000000   2413         ADD       A,#0x13
   \   000002   F582         MOV       DPL,A
   \   000004   E4           CLR       A
   \   000005   3F           ADDC      A,R7
   \   000006   F583         MOV       DPH,A
   \   000008   22           RET
    695          
    696          /*********************************************************************
    697           * @fn          ZDO_ProcessPowerDescReq
    698           *
    699           * @brief       This function processes and responds to the
    700           *              Node_Power_req message.
    701           *
    702           * @param       inMsg  - incoming request
    703           *
    704           * @return      none
    705           */

   \                                 In  segment BANKED_CODE, align 1, keep-with-next
    706          void ZDO_ProcessPowerDescReq( zdoIncomingMsg_t *inMsg )
   \                     ZDO_ProcessPowerDescReq:
    707          {
   \   000000                REQUIRE ?V0
   \   000000                REQUIRE ?V1
   \   000000   74F6         MOV       A,#-0xa
   \   000002   12....       LCALL     ?BANKED_ENTER_XDATA
   \   000005                ; Saved register size: 10
   \   000005                ; Auto size: 0
   \   000005   12....       LCALL     ?Subroutine57 & 0xFFFF
    708            uint16 aoi = BUILD_UINT16( inMsg->asdu[0], inMsg->asdu[1] );
    709            NodePowerDescriptorFormat_t *desc = NULL;
    710          
    711            if ( aoi == ZDAppNwkAddr.addr.shortAddr )
   \                     ??CrossCallReturnLabel_91:
   \   000008   7003         JNZ       ??ZDO_ProcessPowerDescReq_0
   \   00000A   A3           INC       DPTR
   \   00000B   E0           MOVX      A,@DPTR
   \   00000C   6D           XRL       A,R5
   \                     ??ZDO_ProcessPowerDescReq_0:
   \   00000D   7017         JNZ       ??ZDO_ProcessPowerDescReq_1
    712            {
    713              desc = &ZDO_Config_Power_Descriptor;
    714            }
    715          
    716            if ( desc != NULL )
    717            {
    718              ZDP_PowerDescMsg( inMsg, aoi, desc );
   \   00000F                ; Setup parameters for call to function ZDP_PowerDescMsg
   \   00000F   75....       MOV       ?V0,#ZDO_Config_Power_Descriptor & 0xff
   \   000012   75....       MOV       ?V1,#(ZDO_Config_Power_Descriptor >> 8) & 0xff
   \   000015   78..         MOV       R0,#?V0
   \   000017   12....       LCALL     ?PUSH_XSTACK_I_TWO
   \   00001A   EE           MOV       A,R6
   \   00001B   FA           MOV       R2,A
   \   00001C   12....       LCALL     `??ZDP_PowerDescMsg::?relay`; Banked call to: ZDP_PowerDescMsg
   \   00001F   7402         MOV       A,#0x2
   \   000021   12....       LCALL     ?DEALLOC_XSTACK8
   \   000024   801A         SJMP      ??ZDO_ProcessPowerDescReq_2
    719            }
    720            else
    721            {
    722              ZDP_GenericRsp( inMsg->TransSeq, &(inMsg->srcAddr),
    723                        ZDP_INVALID_REQTYPE, aoi, Power_Desc_rsp, inMsg->SecurityUse );
   \                     ??ZDO_ProcessPowerDescReq_1:
   \   000026                ; Setup parameters for call to function ZDP_GenericRsp
   \   000026   75..03       MOV       ?V0,#0x3
   \   000029   75..80       MOV       ?V1,#-0x80
   \   00002C   78..         MOV       R0,#?V0
   \   00002E   12....       LCALL     ?PUSH_XSTACK_I_TWO
   \   000031   8A..         MOV       ?V0,R2
   \   000033   89..         MOV       ?V1,R1
   \   000035   78..         MOV       R0,#?V0
   \   000037   12....       LCALL     ?PUSH_XSTACK_I_TWO
   \   00003A   12....       LCALL     ?Subroutine58 & 0xFFFF
    724            }
   \                     ??CrossCallReturnLabel_93:
   \   00003D   12....       LCALL     ?DEALLOC_XSTACK8
    725          }
   \                     ??ZDO_ProcessPowerDescReq_2:
   \   000040   80..         SJMP      ??Subroutine188_0
    726          
    727          /*********************************************************************
    728           * @fn          ZDO_ProcessSimpleDescReq
    729           *
    730           * @brief       This function processes and responds to the
    731           *              Simple_Desc_req message.
    732           *
    733           * @param       inMsg - incoming message (request)
    734           *
    735           * @return      none
    736           */

   \                                 In  segment BANKED_CODE, align 1, keep-with-next
   \                     ?Subroutine2:
   \   000000   7402         MOV       A,#0x2
   \   000002                REQUIRE ??Subroutine187_0
   \   000002                ; // Fall through to label ??Subroutine187_0

   \                                 In  segment BANKED_CODE, align 1, keep-with-next
   \                     ??Subroutine187_0:
   \   000000   12....       LCALL     ?DEALLOC_XSTACK8
   \   000003                REQUIRE ??Subroutine188_0
   \   000003                ; // Fall through to label ??Subroutine188_0

   \                                 In  segment BANKED_CODE, align 1, keep-with-next
    737          void ZDO_ProcessSimpleDescReq( zdoIncomingMsg_t *inMsg )
   \                     ZDO_ProcessSimpleDescReq:
    738          {
   \   000000                REQUIRE ?V0
   \   000000                REQUIRE ?V1
   \   000000   74F6         MOV       A,#-0xa
   \   000002   12....       LCALL     ?BANKED_ENTER_XDATA
   \   000005                ; Saved register size: 10
   \   000005                ; Auto size: 2
   \   000005   74FE         MOV       A,#-0x2
   \   000007   12....       LCALL     ?ALLOC_XSTACK8
   \   00000A   EA           MOV       A,R2
   \   00000B   FE           MOV       R6,A
   \   00000C   EB           MOV       A,R3
   \   00000D   FF           MOV       R7,A
    739            SimpleDescriptionFormat_t *sDesc = NULL;
   \   00000E   85..82       MOV       DPL,?XSP + 0
   \   000011   85..83       MOV       DPH,?XSP + 1
   \   000014   E4           CLR       A
   \   000015   F0           MOVX      @DPTR,A
   \   000016   A3           INC       DPTR
   \   000017   F0           MOVX      @DPTR,A
    740            uint16 aoi = BUILD_UINT16( inMsg->asdu[0], inMsg->asdu[1] );
   \   000018   12....       LCALL     ?Subroutine112 & 0xFFFF
   \                     ??CrossCallReturnLabel_186:
   \   00001B   12....       LCALL     ?Subroutine77 & 0xFFFF
   \                     ??CrossCallReturnLabel_127:
   \   00001E   FB           MOV       R3,A
   \   00001F   EC           MOV       A,R4
   \   000020   FA           MOV       R2,A
    741            byte endPoint = inMsg->asdu[2];
   \   000021   8882         MOV       DPL,R0
   \   000023   8983         MOV       DPH,R1
   \   000025   A3           INC       DPTR
   \   000026   A3           INC       DPTR
   \   000027   E0           MOVX      A,@DPTR
   \   000028   F9           MOV       R1,A
    742            byte free = false;
   \   000029   75..00       MOV       ?V1,#0x0
    743            byte stat = ZDP_SUCCESS;
   \   00002C   75..00       MOV       ?V0,#0x0
    744          
    745            if ( (endPoint == ZDO_EP) || (endPoint > MAX_ENDPOINTS) )
   \   00002F   6005         JZ        ??ZDO_ProcessSimpleDescReq_0
   \   000031   74FF         MOV       A,#-0x1
   \   000033   69           XRL       A,R1
   \   000034   7005         JNZ       ??ZDO_ProcessSimpleDescReq_1
    746            {
    747              stat = ZDP_INVALID_EP;
   \                     ??ZDO_ProcessSimpleDescReq_0:
   \   000036   75..82       MOV       ?V0,#-0x7e
   \   000039   802F         SJMP      ??ZDO_ProcessSimpleDescReq_2
    748            }
    749            else if ( aoi == ZDAppNwkAddr.addr.shortAddr )
   \                     ??ZDO_ProcessSimpleDescReq_1:
   \   00003B   90....       MOV       DPTR,#ZDAppNwkAddr
   \   00003E   E0           MOVX      A,@DPTR
   \   00003F   6A           XRL       A,R2
   \   000040   7003         JNZ       ??ZDO_ProcessSimpleDescReq_3
   \   000042   A3           INC       DPTR
   \   000043   E0           MOVX      A,@DPTR
   \   000044   6B           XRL       A,R3
   \                     ??ZDO_ProcessSimpleDescReq_3:
   \   000045   7015         JNZ       ??ZDO_ProcessSimpleDescReq_4
    750            {
    751              free = afFindSimpleDesc( &sDesc, endPoint );
   \   000047                ; Setup parameters for call to function afFindSimpleDesc
   \   000047   AA..         MOV       R2,?XSP + 0
   \   000049   AB..         MOV       R3,?XSP + 1
   \   00004B   12....       LCALL     `??afFindSimpleDesc::?relay`; Banked call to: afFindSimpleDesc
   \   00004E   E9           MOV       A,R1
   \   00004F   FA           MOV       R2,A
    752              if ( sDesc == NULL )
   \   000050   12....       LCALL     ?Subroutine51 & 0xFFFF
   \                     ??CrossCallReturnLabel_424:
   \   000053   7003         JNZ       ??ZDO_ProcessSimpleDescReq_5
    753              {
    754                stat = ZDP_NOT_ACTIVE;
   \   000055   75..83       MOV       ?V0,#-0x7d
   \                     ??ZDO_ProcessSimpleDescReq_5:
   \   000058   8A..         MOV       ?V1,R2
   \   00005A   800E         SJMP      ??ZDO_ProcessSimpleDescReq_2
    755              }
    756            }
    757            else
    758            {
    759              if ( ZSTACK_ROUTER_BUILD )
    760              {
    761                //If child found, then no descriptor
    762                if(AssocIsChild(aoi))
   \                     ??ZDO_ProcessSimpleDescReq_4:
   \   00005C                ; Setup parameters for call to function AssocIsChild
   \   00005C   12....       LCALL     `??AssocIsChild::?relay`; Banked call to: AssocIsChild
   \   00005F   E9           MOV       A,R1
   \   000060   6005         JZ        ??ZDO_ProcessSimpleDescReq_6
    763                {
    764                  stat = ZDP_NO_DESCRIPTOR;
   \   000062   75..89       MOV       ?V0,#-0x77
   \   000065   8003         SJMP      ??ZDO_ProcessSimpleDescReq_2
    765                }
    766                //Otherwise no device found
    767                else
    768                {
    769                  stat = ZDP_DEVICE_NOT_FOUND;
   \                     ??ZDO_ProcessSimpleDescReq_6:
   \   000067   75..81       MOV       ?V0,#-0x7f
    770                }
    771              }
    772              else if ( ZSTACK_END_DEVICE_BUILD )
    773              {
    774                stat = ZDP_INVALID_REQTYPE;
    775              }
    776            }
    777          
    778            ZDP_SimpleDescMsg( inMsg, stat, sDesc );
   \                     ??ZDO_ProcessSimpleDescReq_2:
   \   00006A                ; Setup parameters for call to function ZDP_SimpleDescMsg
   \   00006A   12....       LCALL     ?Subroutine91 & 0xFFFF
   \                     ??CrossCallReturnLabel_412:
   \   00006D   A9..         MOV       R1,?V0
   \   00006F   EE           MOV       A,R6
   \   000070   FA           MOV       R2,A
   \   000071   EF           MOV       A,R7
   \   000072   FB           MOV       R3,A
   \   000073   12....       LCALL     `??ZDP_SimpleDescMsg::?relay`; Banked call to: ZDP_SimpleDescMsg
    779          
    780            if ( free && sDesc )
   \   000076   E5..         MOV       A,?V1
   \   000078   600E         JZ        ??CrossCallReturnLabel_115
   \   00007A   12....       LCALL     ?Subroutine51 & 0xFFFF
   \                     ??CrossCallReturnLabel_425:
   \   00007D   6009         JZ        ??CrossCallReturnLabel_115
    781            {
    782              osal_mem_free( sDesc );
   \   00007F                ; Setup parameters for call to function osal_mem_free
   \   00007F   85..82       MOV       DPL,?XSP + 0
   \   000082   85..83       MOV       DPH,?XSP + 1
   \   000085   12....       LCALL     ?Subroutine71 & 0xFFFF
    783            }
    784          }
   \                     ??CrossCallReturnLabel_115:
   \   000088   02....       LJMP      ?Subroutine2 & 0xFFFF

   \                                 In  segment BANKED_CODE, align 1, keep-with-next
   \                     ?Subroutine71:
   \   000000   12....       LCALL     ?Subroutine155 & 0xFFFF
   \                     ??CrossCallReturnLabel_388:
   \   000003   12....       LCALL     `??osal_mem_free::?relay`; Banked call to: osal_mem_free
   \   000006   22           RET

   \                                 In  segment BANKED_CODE, align 1, keep-with-next
   \                     ?Subroutine112:
   \   000000   12....       LCALL     ?Subroutine180 & 0xFFFF
   \                     ??CrossCallReturnLabel_542:
   \   000003   3F           ADDC      A,R7
   \   000004   22           RET

   \                                 In  segment BANKED_CODE, align 1, keep-with-next
   \                     ?Subroutine77:
   \   000000   12....       LCALL     ?Subroutine162 & 0xFFFF
   \                     ??CrossCallReturnLabel_276:
   \   000003   FC           MOV       R4,A
   \   000004   A3           INC       DPTR
   \   000005   E0           MOVX      A,@DPTR
   \   000006   22           RET

   \                                 In  segment BANKED_CODE, align 1, keep-with-next
   \                     ?Subroutine91:
   \   000000   85..82       MOV       DPL,?XSP + 0
   \   000003   85..83       MOV       DPH,?XSP + 1
   \   000006                REQUIRE ??Subroutine204_0
   \   000006                ; // Fall through to label ??Subroutine204_0

   \                                 In  segment BANKED_CODE, align 1, keep-with-next
   \                     ?Subroutine51:
   \   000000   85..82       MOV       DPL,?XSP + 0
   \   000003   85..83       MOV       DPH,?XSP + 1
   \   000006                REQUIRE ??Subroutine205_0
   \   000006                ; // Fall through to label ??Subroutine205_0

   \                                 In  segment BANKED_CODE, align 1, keep-with-next
   \                     ??Subroutine205_0:
   \   000000   12....       LCALL     ?Subroutine164 & 0xFFFF
   \                     ??CrossCallReturnLabel_485:
   \   000003   E8           MOV       A,R0
   \   000004   49           ORL       A,R1
   \   000005   22           RET

   \                                 In  segment BANKED_CODE, align 1, keep-with-next
   \                     ?Subroutine180:
   \   000000   EA           MOV       A,R2
   \   000001                REQUIRE ??Subroutine222_0
   \   000001                ; // Fall through to label ??Subroutine222_0

   \                                 In  segment BANKED_CODE, align 1, keep-with-next
   \                     ??Subroutine222_0:
   \   000000   2413         ADD       A,#0x13
   \   000002   F582         MOV       DPL,A
   \   000004   E4           CLR       A
   \   000005   22           RET

   \                                 In  segment BANKED_CODE, align 1, keep-with-next
   \                     ?Subroutine162:
   \   000000   F583         MOV       DPH,A
   \   000002   12....       LCALL     ??Subroutine214_0 & 0xFFFF
   \                     ??CrossCallReturnLabel_511:
   \   000005   F9           MOV       R1,A
   \   000006   8882         MOV       DPL,R0
   \   000008   F583         MOV       DPH,A
   \   00000A   E0           MOVX      A,@DPTR
   \   00000B   22           RET
    785          
    786          /*********************************************************************
    787           * @fn          ZDO_ProcessSimpleDescRsp
    788           *
    789           * @brief       This function processes and responds to the
    790           *              Simple_Desc_rsp message.
    791           *
    792           * @param       inMsg - incoming message (request)
    793           *
    794           * @return      none
    795           */

   \                                 In  segment BANKED_CODE, align 1, keep-with-next
    796          void ZDO_ProcessSimpleDescRsp( zdoIncomingMsg_t *inMsg )
   \                     ZDO_ProcessSimpleDescRsp:
    797          {
   \   000000                ; Saved register size: 0
   \   000000                ; Auto size: 0
    798          
    799          }
   \   000000   02....       LJMP      ?BRET
    800          
    801          /*********************************************************************
    802           * @fn          ZDO_ProcessActiveEPReq
    803           *
    804           * @brief       This function processes and responds to the
    805           *              Active_EP_req message.
    806           *
    807           * @param       inMsg  - incoming message (request)
    808           *
    809           * @return      none
    810           */

   \                                 In  segment BANKED_CODE, align 1, keep-with-next
    811          void ZDO_ProcessActiveEPReq( zdoIncomingMsg_t *inMsg )
   \                     ZDO_ProcessActiveEPReq:
    812          {
   \   000000                REQUIRE ?V0
   \   000000                REQUIRE ?V1
   \   000000                REQUIRE ?V2
   \   000000                REQUIRE ?V3
   \   000000                REQUIRE ?V4
   \   000000                REQUIRE ?V5
   \   000000   74F2         MOV       A,#-0xe
   \   000002   12....       LCALL     ?BANKED_ENTER_XDATA
   \   000005                ; Saved register size: 14
   \   000005                ; Auto size: 0
   \   000005   EA           MOV       A,R2
   \   000006   FE           MOV       R6,A
   \   000007   EB           MOV       A,R3
   \   000008   FF           MOV       R7,A
    813            byte cnt = 0;
   \   000009   75..00       MOV       ?V0,#0x0
    814            uint16 aoi;
    815            byte stat = ZDP_SUCCESS;
   \   00000C   75..00       MOV       ?V1,#0x0
    816          
    817            aoi = BUILD_UINT16( inMsg->asdu[0], inMsg->asdu[1] );
   \   00000F   EA           MOV       A,R2
   \   000010   2413         ADD       A,#0x13
   \   000012   12....       LCALL     ??Subroutine199_0 & 0xFFFF
   \                     ??CrossCallReturnLabel_395:
   \   000015   F8           MOV       R0,A
   \   000016   A3           INC       DPTR
   \   000017   E0           MOVX      A,@DPTR
   \   000018   8882         MOV       DPL,R0
   \   00001A   12....       LCALL     ?Subroutine55 & 0xFFFF
    818          
    819            if ( aoi == NLME_GetShortAddr() )
   \                     ??CrossCallReturnLabel_324:
   \   00001D                ; Setup parameters for call to function NLME_GetShortAddr
   \   00001D   12....       LCALL     `??NLME_GetShortAddr::?relay`; Banked call to: NLME_GetShortAddr
   \   000020   EA           MOV       A,R2
   \   000021   65..         XRL       A,?V2
   \   000023   7003         JNZ       ??ZDO_ProcessActiveEPReq_0
   \   000025   EB           MOV       A,R3
   \   000026   65..         XRL       A,?V3
   \                     ??ZDO_ProcessActiveEPReq_0:
   \   000028   7012         JNZ       ??ZDO_ProcessActiveEPReq_1
    820            {
    821              cnt = afNumEndPoints() - 1;  // -1 for ZDO endpoint descriptor
   \   00002A                ; Setup parameters for call to function afNumEndPoints
   \   00002A   12....       LCALL     `??afNumEndPoints::?relay`; Banked call to: afNumEndPoints
   \   00002D   E9           MOV       A,R1
   \   00002E   14           DEC       A
   \   00002F   F5..         MOV       ?V0,A
    822              afEndPoints( (uint8 *)ZDOBuildBuf, true );
   \   000031                ; Setup parameters for call to function afEndPoints
   \   000031   7901         MOV       R1,#0x1
   \   000033   7A..         MOV       R2,#ZDOBuildBuf & 0xff
   \   000035   7B..         MOV       R3,#(ZDOBuildBuf >> 8) & 0xff
   \   000037   12....       LCALL     `??afEndPoints::?relay`; Banked call to: afEndPoints
   \   00003A   8003         SJMP      ??ZDO_ProcessActiveEPReq_2
    823            }
    824            else
    825            {
    826              if(ZG_BUILD_ENDDEVICE_TYPE)
    827              {
    828                stat = ZDP_INVALID_REQTYPE;
    829              }
    830              else
    831              {
    832                stat = ZDP_DEVICE_NOT_FOUND;
   \                     ??ZDO_ProcessActiveEPReq_1:
   \   00003C   75..81       MOV       ?V1,#-0x7f
    833              }
    834            }
    835          
    836            ZDP_ActiveEPRsp( inMsg->TransSeq, &(inMsg->srcAddr), stat,
    837                            aoi, cnt, (uint8 *)ZDOBuildBuf, inMsg->SecurityUse );
   \                     ??ZDO_ProcessActiveEPReq_2:
   \   00003F                ; Setup parameters for call to function ZDP_EPRsp
   \   00003F   12....       LCALL     ?Subroutine105 & 0xFFFF
   \                     ??CrossCallReturnLabel_401:
   \   000042   F5..         MOV       ?V4,A
   \   000044   78..         MOV       R0,#?V4
   \   000046   12....       LCALL     ?PUSH_XSTACK_I_ONE
   \   000049   75....       MOV       ?V4,#ZDOBuildBuf & 0xff
   \   00004C   75....       MOV       ?V5,#(ZDOBuildBuf >> 8) & 0xff
   \   00004F   78..         MOV       R0,#?V4
   \   000051   12....       LCALL     ?PUSH_XSTACK_I_TWO
   \   000054   78..         MOV       R0,#?V0
   \   000056   12....       LCALL     ?PUSH_XSTACK_I_ONE
   \   000059   78..         MOV       R0,#?V2
   \   00005B   12....       LCALL     ?PUSH_XSTACK_I_TWO
   \   00005E   E5..         MOV       A,?V1
   \   000060   F5..         MOV       ?V0,A
   \   000062   78..         MOV       R0,#?V0
   \   000064   12....       LCALL     ?PUSH_XSTACK_I_ONE
   \   000067   12....       LCALL     ?Subroutine120 & 0xFFFF
   \                     ??CrossCallReturnLabel_205:
   \   00006A   12....       LCALL     ??Subroutine199_0 & 0xFFFF
   \                     ??CrossCallReturnLabel_396:
   \   00006D   F9           MOV       R1,A
   \   00006E   7A05         MOV       R2,#0x5
   \   000070   7B80         MOV       R3,#-0x80
   \   000072   12....       LCALL     `??ZDP_EPRsp::?relay`; Banked call to: ZDP_EPRsp
   \   000075   7407         MOV       A,#0x7
   \   000077   12....       LCALL     ?DEALLOC_XSTACK8
    838          }
   \   00007A   02....       LJMP      ?Subroutine5 & 0xFFFF

   \                                 In  segment BANKED_CODE, align 1, keep-with-next
   \                     ?Subroutine55:
   \   000000   F583         MOV       DPH,A
   \   000002                REQUIRE ??Subroutine189_0
   \   000002                ; // Fall through to label ??Subroutine189_0

   \                                 In  segment BANKED_CODE, align 1, keep-with-next
   \                     ??Subroutine189_0:
   \   000000   E0           MOVX      A,@DPTR
   \   000001   FA           MOV       R2,A
   \   000002   A3           INC       DPTR
   \   000003   E0           MOVX      A,@DPTR
   \   000004   F8           MOV       R0,A
   \   000005   E4           CLR       A
   \   000006   C8           XCH       A,R0
   \   000007   F9           MOV       R1,A
   \   000008   EA           MOV       A,R2
   \   000009   28           ADD       A,R0
   \   00000A   F5..         MOV       ?V2,A
   \   00000C   E4           CLR       A
   \   00000D   39           ADDC      A,R1
   \   00000E   F5..         MOV       ?V3,A
   \   000010   22           RET

   \                                 In  segment BANKED_CODE, align 1, keep-with-next
   \                     ?Subroutine120:
   \   000000   EE           MOV       A,R6
   \   000001   2402         ADD       A,#0x2
   \   000003   FC           MOV       R4,A
   \   000004   E4           CLR       A
   \   000005   3F           ADDC      A,R7
   \   000006   FD           MOV       R5,A
   \   000007   EE           MOV       A,R6
   \   000008   240F         ADD       A,#0xf
   \   00000A   22           RET

   \                                 In  segment BANKED_CODE, align 1, keep-with-next
   \                     ?Subroutine105:
   \   000000   EE           MOV       A,R6
   \   000001   240E         ADD       A,#0xe
   \   000003                REQUIRE ??Subroutine199_0
   \   000003                ; // Fall through to label ??Subroutine199_0

   \                                 In  segment BANKED_CODE, align 1, keep-with-next
   \                     ??Subroutine199_0:
   \   000000   F582         MOV       DPL,A
   \   000002   E4           CLR       A
   \   000003                REQUIRE ??Subroutine200_0
   \   000003                ; // Fall through to label ??Subroutine200_0

   \                                 In  segment BANKED_CODE, align 1, keep-with-next
   \                     ?Subroutine5:
   \   000000   7F06         MOV       R7,#0x6
   \   000002   02....       LJMP      ?BANKED_LEAVE_XDATA
    839          
    840          /*********************************************************************
    841           * @fn          ZDO_ConvertOTAClusters
    842           *
    843           * @brief       This function will convert the over-the-air cluster list
    844           *              format to an internal format.
    845           *
    846           * @param       inMsg  - incoming message (request)
    847           *
    848           * @return      pointer to incremented inBuf
    849           */

   \                                 In  segment BANKED_CODE, align 1, keep-with-next
    850          uint8 *ZDO_ConvertOTAClusters( uint8 cnt, uint8 *inBuf, uint16 *outList )
   \                     ZDO_ConvertOTAClusters:
    851          {
   \   000000                REQUIRE ?V0
   \   000000                REQUIRE ?V1
   \   000000   74F6         MOV       A,#-0xa
   \   000002   12....       LCALL     ?BANKED_ENTER_XDATA
   \   000005                ; Saved register size: 10
   \   000005                ; Auto size: 0
   \   000005   E9           MOV       A,R1
   \   000006   FF           MOV       R7,A
    852            uint8 x;
    853          
    854            for ( x = 0; x < cnt; x++ )
   \   000007   7E00         MOV       R6,#0x0
   \   000009   8030         SJMP      ??ZDO_ConvertOTAClusters_0
    855            {
    856              // convert ota format to internal
    857              outList[x] = BUILD_UINT16( inBuf[0], inBuf[1] );
   \                     ??ZDO_ConvertOTAClusters_1:
   \   00000B   8A82         MOV       DPL,R2
   \   00000D   8B83         MOV       DPH,R3
   \   00000F   12....       LCALL     ?Subroutine163 & 0xFFFF
   \                     ??CrossCallReturnLabel_319:
   \   000012   F8           MOV       R0,A
   \   000013   E4           CLR       A
   \   000014   C8           XCH       A,R0
   \   000015   F9           MOV       R1,A
   \   000016   E5..         MOV       A,?V0
   \   000018   28           ADD       A,R0
   \   000019   E4           CLR       A
   \   00001A   39           ADDC      A,R1
   \   00001B   F5..         MOV       ?V1,A
   \   00001D   EE           MOV       A,R6
   \   00001E   25E0         ADD       A,0xE0 /* A   */
   \   000020   F8           MOV       R0,A
   \   000021   E4           CLR       A
   \   000022   33           RLC       A
   \   000023   F9           MOV       R1,A
   \   000024   EC           MOV       A,R4
   \   000025   28           ADD       A,R0
   \   000026   F582         MOV       DPL,A
   \   000028   ED           MOV       A,R5
   \   000029   39           ADDC      A,R1
   \   00002A   F583         MOV       DPH,A
   \   00002C   E5..         MOV       A,?V0
   \   00002E   F0           MOVX      @DPTR,A
   \   00002F   A3           INC       DPTR
   \   000030   E5..         MOV       A,?V1
   \   000032   F0           MOVX      @DPTR,A
    858              inBuf += sizeof( uint16 );
   \   000033   EA           MOV       A,R2
   \   000034   2402         ADD       A,#0x2
   \   000036   FA           MOV       R2,A
   \   000037   5001         JNC       ??ZDO_ConvertOTAClusters_2
   \   000039   0B           INC       R3
    859            }
   \                     ??ZDO_ConvertOTAClusters_2:
   \   00003A   0E           INC       R6
   \                     ??ZDO_ConvertOTAClusters_0:
   \   00003B   EE           MOV       A,R6
   \   00003C   C3           CLR       C
   \   00003D   9F           SUBB      A,R7
   \   00003E   40CB         JC        ??ZDO_ConvertOTAClusters_1
    860            return ( inBuf );
   \   000040   02....       LJMP      ??Subroutine188_0 & 0xFFFF
    861          }
    862          
    863          /*********************************************************************
    864           * @fn          ZDO_ProcessMatchDescReq
    865           *
    866           * @brief       This function processes and responds to the
    867           *              Match_Desc_req message.
    868           *
    869           * @param       inMsg  - incoming message (request)
    870           *
    871           * @return      none
    872           */

   \                                 In  segment BANKED_CODE, align 1, keep-with-next
    873          void ZDO_ProcessMatchDescReq( zdoIncomingMsg_t *inMsg )
   \                     ZDO_ProcessMatchDescReq:
    874          {
   \   000000                REQUIRE ?V0
   \   000000                REQUIRE ?V1
   \   000000                REQUIRE ?V2
   \   000000                REQUIRE ?V3
   \   000000                REQUIRE ?V4
   \   000000                REQUIRE ?V5
   \   000000                REQUIRE ?V6
   \   000000                REQUIRE ?V7
   \   000000                REQUIRE ?V8
   \   000000                REQUIRE ?V9
   \   000000                REQUIRE ?V10
   \   000000                REQUIRE ?V11
   \   000000                REQUIRE ?V12
   \   000000                REQUIRE ?V13
   \   000000                REQUIRE ?V14
   \   000000                REQUIRE ?V15
   \   000000   74E8         MOV       A,#-0x18
   \   000002   12....       LCALL     ?BANKED_ENTER_XDATA
   \   000005                ; Saved register size: 24
   \   000005                ; Auto size: 8
   \   000005   74F8         MOV       A,#-0x8
   \   000007   12....       LCALL     ?ALLOC_XSTACK8
   \   00000A   7402         MOV       A,#0x2
   \   00000C   12....       LCALL     ?XSTACK_DISP0_8
   \   00000F   12....       LCALL     ??Subroutine192_0 & 0xFFFF
    875            uint8 epCnt = 0;
   \                     ??CrossCallReturnLabel_333:
   \   000012   75..00       MOV       ?V7,#0x0
    876            uint8 numInClusters;
    877            uint16 *inClusters = NULL;
   \   000015   75..00       MOV       ?V14,#0x0
   \   000018   75..00       MOV       ?V15,#0x0
    878            uint8 numOutClusters;
    879            uint16 *outClusters = NULL;
   \   00001B   75..00       MOV       ?V12,#0x0
   \   00001E   75..00       MOV       ?V13,#0x0
    880            epList_t *epDesc;
    881            SimpleDescriptionFormat_t *sDesc = NULL;
    882            uint8 allocated;
    883            uint8 *msg;
    884            uint16 aoi;
    885            uint16 profileID;
    886          
    887            // Parse the incoming message
    888            msg = inMsg->asdu;
   \   000021   7402         MOV       A,#0x2
   \   000023   12....       LCALL     ?XSTACK_DISP0_8
   \   000026   E0           MOVX      A,@DPTR
   \   000027   12....       LCALL     ?Subroutine99 & 0xFFFF
    889            aoi = BUILD_UINT16( msg[0], msg[1] );
   \                     ??CrossCallReturnLabel_328:
   \   00002A   8E82         MOV       DPL,R6
   \   00002C   12....       LCALL     ?Subroutine55 & 0xFFFF
    890            profileID = BUILD_UINT16( msg[2], msg[3] );
   \                     ??CrossCallReturnLabel_325:
   \   00002F   8E82         MOV       DPL,R6
   \   000031   8F83         MOV       DPH,R7
   \   000033   A3           INC       DPTR
   \   000034   A3           INC       DPTR
   \   000035   E0           MOVX      A,@DPTR
   \   000036   FA           MOV       R2,A
   \   000037   8E82         MOV       DPL,R6
   \   000039   8F83         MOV       DPH,R7
   \   00003B   A3           INC       DPTR
   \   00003C   A3           INC       DPTR
   \   00003D   A3           INC       DPTR
   \   00003E   E0           MOVX      A,@DPTR
   \   00003F   F9           MOV       R1,A
   \   000040   EA           MOV       A,R2
   \   000041   F5..         MOV       ?V0,A
   \   000043   E4           CLR       A
   \   000044   39           ADDC      A,R1
   \   000045   F5..         MOV       ?V1,A
    891            msg += 4;
    892          
    893            if ( ADDR_BCAST_NOT_ME == NLME_IsAddressBroadcast(aoi) )
   \   000047   7402         MOV       A,#0x2
   \   000049   12....       LCALL     ?XSTACK_DISP0_8
   \   00004C   E0           MOVX      A,@DPTR
   \   00004D   240F         ADD       A,#0xf
   \   00004F   F8           MOV       R0,A
   \   000050   A3           INC       DPTR
   \   000051   E0           MOVX      A,@DPTR
   \   000052   3400         ADDC      A,#0x0
   \   000054   F9           MOV       R1,A
   \   000055   7406         MOV       A,#0x6
   \   000057   12....       LCALL     ?XSTACK_DISP0_8
   \   00005A   12....       LCALL     ??Subroutine237_0 & 0xFFFF
   \                     ??CrossCallReturnLabel_599:
   \   00005D   7402         MOV       A,#0x2
   \   00005F   12....       LCALL     ?XSTACK_DISP0_8
   \   000062   E0           MOVX      A,@DPTR
   \   000063   2402         ADD       A,#0x2
   \   000065   F8           MOV       R0,A
   \   000066   A3           INC       DPTR
   \   000067   E0           MOVX      A,@DPTR
   \   000068   3400         ADDC      A,#0x0
   \   00006A   F9           MOV       R1,A
   \   00006B   85..82       MOV       DPL,?XSP + 0
   \   00006E   85..83       MOV       DPH,?XSP + 1
   \   000071   12....       LCALL     ??Subroutine237_0 & 0xFFFF
   \                     ??CrossCallReturnLabel_600:
   \   000074   7402         MOV       A,#0x2
   \   000076   12....       LCALL     ?XSTACK_DISP0_8
   \   000079   E0           MOVX      A,@DPTR
   \   00007A   240E         ADD       A,#0xe
   \   00007C   F8           MOV       R0,A
   \   00007D   A3           INC       DPTR
   \   00007E   E0           MOVX      A,@DPTR
   \   00007F   3400         ADDC      A,#0x0
   \   000081   F9           MOV       R1,A
   \   000082   7404         MOV       A,#0x4
   \   000084   12....       LCALL     ?XSTACK_DISP0_8
   \   000087   12....       LCALL     ??Subroutine237_0 & 0xFFFF
   \                     ??CrossCallReturnLabel_601:
   \   00008A                ; Setup parameters for call to function NLME_IsAddressBroadcast
   \   00008A   AA..         MOV       R2,?V2
   \   00008C   AB..         MOV       R3,?V3
   \   00008E   12....       LCALL     `??NLME_IsAddressBroadcast::?relay`; Banked call to: NLME_IsAddressBroadcast
   \   000091   E9           MOV       A,R1
   \   000092   6401         XRL       A,#0x1
   \   000094   703B         JNZ       ??ZDO_ProcessMatchDescReq_0
    894            {
    895              ZDP_MatchDescRsp( inMsg->TransSeq, &(inMsg->srcAddr), ZDP_INVALID_REQTYPE,
    896                                    aoi, 0, NULL, inMsg->SecurityUse );
   \   000096                ; Setup parameters for call to function ZDP_EPRsp
   \   000096   7404         MOV       A,#0x4
   \   000098   12....       LCALL     ?XSTACK_DISP0_8
   \   00009B   12....       LCALL     ?Subroutine53 & 0xFFFF
   \                     ??CrossCallReturnLabel_84:
   \   00009E   12....       LCALL     ?PUSH_XSTACK_I_ONE
   \   0000A1   E4           CLR       A
   \   0000A2   F5..         MOV       ?V0,A
   \   0000A4   F5..         MOV       ?V1,A
   \   0000A6   78..         MOV       R0,#?V0
   \   0000A8   12....       LCALL     ?PUSH_XSTACK_I_TWO
   \   0000AB   78..         MOV       R0,#?V0
   \   0000AD   12....       LCALL     ?PUSH_XSTACK_I_ONE
   \   0000B0   78..         MOV       R0,#?V2
   \   0000B2   12....       LCALL     ?PUSH_XSTACK_I_TWO
   \   0000B5   75..80       MOV       ?V0,#-0x80
   \   0000B8   78..         MOV       R0,#?V0
   \   0000BA   12....       LCALL     ?PUSH_XSTACK_I_ONE
   \   0000BD   7407         MOV       A,#0x7
   \   0000BF   12....       LCALL     ?XSTACK_DISP0_8
   \   0000C2   12....       LCALL     ?Subroutine67 & 0xFFFF
   \                     ??CrossCallReturnLabel_109:
   \   0000C5   12....       LCALL     ?XSTACK_DISP0_8
   \   0000C8   12....       LCALL     ?Subroutine50 & 0xFFFF
   \                     ??CrossCallReturnLabel_80:
   \   0000CB   12....       LCALL     ?DEALLOC_XSTACK8
    897              return;
   \   0000CE   02....       LJMP      ??ZDO_ProcessMatchDescReq_1 & 0xFFFF
    898            }
    899            else if ( (ADDR_NOT_BCAST == NLME_IsAddressBroadcast(aoi)) && (aoi != ZDAppNwkAddr.addr.shortAddr) )
   \                     ??ZDO_ProcessMatchDescReq_0:
   \   0000D1                ; Setup parameters for call to function NLME_IsAddressBroadcast
   \   0000D1   AA..         MOV       R2,?V2
   \   0000D3   AB..         MOV       R3,?V3
   \   0000D5   12....       LCALL     `??NLME_IsAddressBroadcast::?relay`; Banked call to: NLME_IsAddressBroadcast
   \   0000D8   E9           MOV       A,R1
   \   0000D9   7053         JNZ       ??ZDO_ProcessMatchDescReq_2
   \   0000DB   90....       MOV       DPTR,#ZDAppNwkAddr
   \   0000DE   E0           MOVX      A,@DPTR
   \   0000DF   65..         XRL       A,?V2
   \   0000E1   7004         JNZ       ??ZDO_ProcessMatchDescReq_3
   \   0000E3   A3           INC       DPTR
   \   0000E4   E0           MOVX      A,@DPTR
   \   0000E5   65..         XRL       A,?V3
   \                     ??ZDO_ProcessMatchDescReq_3:
   \   0000E7   6045         JZ        ??ZDO_ProcessMatchDescReq_2
    900            {
    901          #if (ZG_BUILD_ENDDEVICE_TYPE)
    902              if(ZG_DEVICE_ENDDEVICE_TYPE)
    903              {    
    904              ZDP_MatchDescRsp( inMsg->TransSeq, &(inMsg->srcAddr), ZDP_INVALID_REQTYPE,
    905                                       aoi, 0, NULL, inMsg->SecurityUse );
    906              }
    907          #else 
    908              if (ZG_DEVICE_RTR_TYPE)
   \   0000E9   90....       MOV       DPTR,#zgDeviceLogicalType
   \   0000EC   E0           MOVX      A,@DPTR
   \   0000ED   6004         JZ        ??ZDO_ProcessMatchDescReq_4
   \   0000EF   6401         XRL       A,#0x1
   \   0000F1   7038         JNZ       ??ZDO_ProcessMatchDescReq_5
    909              {
    910              ZDP_MatchDescRsp( inMsg->TransSeq, &(inMsg->srcAddr), ZDP_DEVICE_NOT_FOUND,
    911                                       aoi, 0, NULL, inMsg->SecurityUse );
   \                     ??ZDO_ProcessMatchDescReq_4:
   \   0000F3                ; Setup parameters for call to function ZDP_EPRsp
   \   0000F3   7404         MOV       A,#0x4
   \   0000F5   12....       LCALL     ?XSTACK_DISP0_8
   \   0000F8   12....       LCALL     ?Subroutine53 & 0xFFFF
    912              }
   \                     ??CrossCallReturnLabel_85:
   \   0000FB   12....       LCALL     ?PUSH_XSTACK_I_ONE
   \   0000FE   E4           CLR       A
   \   0000FF   F5..         MOV       ?V0,A
   \   000101   F5..         MOV       ?V1,A
   \   000103   78..         MOV       R0,#?V0
   \   000105   12....       LCALL     ?PUSH_XSTACK_I_TWO
   \   000108   78..         MOV       R0,#?V0
   \   00010A   12....       LCALL     ?PUSH_XSTACK_I_ONE
   \   00010D   78..         MOV       R0,#?V2
   \   00010F   12....       LCALL     ?PUSH_XSTACK_I_TWO
   \   000112   75..81       MOV       ?V0,#-0x7f
   \   000115   78..         MOV       R0,#?V0
   \   000117   12....       LCALL     ?PUSH_XSTACK_I_ONE
   \   00011A   7407         MOV       A,#0x7
   \   00011C   12....       LCALL     ?XSTACK_DISP0_8
   \   00011F   12....       LCALL     ?Subroutine67 & 0xFFFF
   \                     ??CrossCallReturnLabel_110:
   \   000122   12....       LCALL     ?XSTACK_DISP0_8
   \   000125   12....       LCALL     ?Subroutine50 & 0xFFFF
   \                     ??CrossCallReturnLabel_81:
   \   000128   12....       LCALL     ?DEALLOC_XSTACK8
    913          #endif
    914              return;
   \                     ??ZDO_ProcessMatchDescReq_5:
   \   00012B   02....       LJMP      ??ZDO_ProcessMatchDescReq_1 & 0xFFFF
    915            }
    916          
    917            if ((numInClusters = *msg++) &&
    918                (inClusters = (uint16*)osal_mem_alloc( numInClusters * sizeof( uint16 ) )))
   \                     ??ZDO_ProcessMatchDescReq_2:
   \   00012E   8E82         MOV       DPL,R6
   \   000130   8F83         MOV       DPH,R7
   \   000132   A3           INC       DPTR
   \   000133   A3           INC       DPTR
   \   000134   A3           INC       DPTR
   \   000135   A3           INC       DPTR
   \   000136   E0           MOVX      A,@DPTR
   \   000137   F5..         MOV       ?V3,A
   \   000139   EE           MOV       A,R6
   \   00013A   2405         ADD       A,#0x5
   \   00013C   FE           MOV       R6,A
   \   00013D   5001         JNC       ??ZDO_ProcessMatchDescReq_6
   \   00013F   0F           INC       R7
   \                     ??ZDO_ProcessMatchDescReq_6:
   \   000140   E5..         MOV       A,?V3
   \   000142   6022         JZ        ??ZDO_ProcessMatchDescReq_7
   \   000144                ; Setup parameters for call to function osal_mem_alloc
   \   000144   12....       LCALL     ?Subroutine109 & 0xFFFF
   \                     ??CrossCallReturnLabel_176:
   \   000147   8A..         MOV       ?V14,R2
   \   000149   8B..         MOV       ?V15,R3
   \   00014B   EA           MOV       A,R2
   \   00014C   4B           ORL       A,R3
   \   00014D   6017         JZ        ??ZDO_ProcessMatchDescReq_7
    919            {
    920              msg = ZDO_ConvertOTAClusters( numInClusters, msg, inClusters );
   \   00014F                ; Setup parameters for call to function ZDO_ConvertOTAClusters
   \   00014F   AC..         MOV       R4,?V14
   \   000151   AD..         MOV       R5,?V15
   \   000153   EE           MOV       A,R6
   \   000154   FA           MOV       R2,A
   \   000155   EF           MOV       A,R7
   \   000156   FB           MOV       R3,A
   \   000157   A9..         MOV       R1,?V3
   \   000159   12....       LCALL     `??ZDO_ConvertOTAClusters::?relay`; Banked call to: ZDO_ConvertOTAClusters
   \   00015C   8A..         MOV       ?V4,R2
   \   00015E   8B..         MOV       ?V5,R3
   \   000160   AE..         MOV       R6,?V4
   \   000162   AF..         MOV       R7,?V5
   \   000164   8003         SJMP      ??ZDO_ProcessMatchDescReq_8
    921            }
    922            else
    923            {
    924              numInClusters = 0;
   \                     ??ZDO_ProcessMatchDescReq_7:
   \   000166   75..00       MOV       ?V3,#0x0
    925            }
    926          
    927            if ((numOutClusters = *msg++) &&
    928                (outClusters = (uint16 *)osal_mem_alloc( numOutClusters * sizeof( uint16 ) )))
   \                     ??ZDO_ProcessMatchDescReq_8:
   \   000169   8E82         MOV       DPL,R6
   \   00016B   8F83         MOV       DPH,R7
   \   00016D   E0           MOVX      A,@DPTR
   \   00016E   F5..         MOV       ?V2,A
   \   000170   A3           INC       DPTR
   \   000171   AE82         MOV       R6,DPL
   \   000173   AF83         MOV       R7,DPH
   \   000175   601A         JZ        ??ZDO_ProcessMatchDescReq_9
   \   000177                ; Setup parameters for call to function osal_mem_alloc
   \   000177   12....       LCALL     ?Subroutine109 & 0xFFFF
   \                     ??CrossCallReturnLabel_177:
   \   00017A   8A..         MOV       ?V12,R2
   \   00017C   8B..         MOV       ?V13,R3
   \   00017E   EA           MOV       A,R2
   \   00017F   4B           ORL       A,R3
   \   000180   600F         JZ        ??ZDO_ProcessMatchDescReq_9
    929            {
    930              msg = ZDO_ConvertOTAClusters( numOutClusters, msg, outClusters );
   \   000182                ; Setup parameters for call to function ZDO_ConvertOTAClusters
   \   000182   AC..         MOV       R4,?V12
   \   000184   AD..         MOV       R5,?V13
   \   000186   EE           MOV       A,R6
   \   000187   FA           MOV       R2,A
   \   000188   EF           MOV       A,R7
   \   000189   FB           MOV       R3,A
   \   00018A   A9..         MOV       R1,?V2
   \   00018C   12....       LCALL     `??ZDO_ConvertOTAClusters::?relay`; Banked call to: ZDO_ConvertOTAClusters
   \   00018F   8003         SJMP      ??ZDO_ProcessMatchDescReq_10
    931            }
    932            else
    933            {
    934              numOutClusters = 0;
   \                     ??ZDO_ProcessMatchDescReq_9:
   \   000191   75..00       MOV       ?V2,#0x0
    935            }
    936          
    937            // First count the number of endpoints that match.
    938            epDesc = epList;
   \                     ??ZDO_ProcessMatchDescReq_10:
   \   000194   90....       MOV       DPTR,#epList
   \   000197   8046         SJMP      ??ZDO_ProcessMatchDescReq_11
    939            while ( epDesc )
    940            {
    941              // Don't search endpoint 0 and check if response is allowed
    942              if ( epDesc->epDesc->endPoint != ZDO_EP && (epDesc->flags&eEP_AllowMatch) )
    943              {
    944                if ( epDesc->pfnDescCB )
    945                {
    946                  sDesc = (SimpleDescriptionFormat_t *)epDesc->pfnDescCB( AF_DESCRIPTOR_SIMPLE, epDesc->epDesc->endPoint );
    947                  allocated = TRUE;
    948                }
    949                else
    950                {
    951                  sDesc = epDesc->epDesc->simpleDesc;
    952                  allocated = FALSE;
    953                }
    954          
    955                // Allow specific ProfileId or Wildcard ProfileID
    956                if ( sDesc && ( ( sDesc->AppProfId == profileID ) || ( profileID == ZDO_WILDCARD_PROFILE_ID ) ) )
    957                {
    958                  uint8 *uint8Buf = (uint8 *)ZDOBuildBuf;
    959          
    960                  // Are there matching input clusters?
    961                  if ((ZDO_AnyClusterMatches( numInClusters, inClusters,
    962                             sDesc->AppNumInClusters, sDesc->pAppInClusterList )) ||
    963                      // Are there matching output clusters?
    964                      (ZDO_AnyClusterMatches( numOutClusters, outClusters,
    965                             sDesc->AppNumOutClusters, sDesc->pAppOutClusterList )))
    966                  {
    967                    // Notify the endpoint of the match.
    968                    uint8 bufLen = sizeof( ZDO_MatchDescRspSent_t ) + (numOutClusters + numInClusters) * sizeof(uint16);
    969                    ZDO_MatchDescRspSent_t *pRspSent = (ZDO_MatchDescRspSent_t *) osal_msg_allocate( bufLen );
    970          
    971                    if (pRspSent)
    972                    {
    973                      pRspSent->hdr.event = ZDO_MATCH_DESC_RSP_SENT;
    974                      pRspSent->nwkAddr = inMsg->srcAddr.addr.shortAddr;
    975                      pRspSent->numInClusters = numInClusters;
    976                      pRspSent->numOutClusters = numOutClusters;
    977          
    978                      if (numInClusters)
    979                      {
    980                        pRspSent->pInClusters = (uint16*) (pRspSent + 1);
    981                        osal_memcpy(pRspSent->pInClusters, inClusters, numInClusters * sizeof(uint16));
    982                      }
    983                      else
    984                      {
    985                        pRspSent->pInClusters = NULL;
    986                      }
    987          
    988                      if (numOutClusters)
    989                      {
    990                        pRspSent->pOutClusters = (uint16*)(pRspSent + 1) + numInClusters;
    991                        osal_memcpy(pRspSent->pOutClusters, outClusters, numOutClusters * sizeof(uint16));
    992                      }
    993                      else
    994                      {
    995                        pRspSent->pOutClusters = NULL;
   \                     ??ZDO_ProcessMatchDescReq_12:
   \   000199   E4           CLR       A
   \   00019A   F0           MOVX      @DPTR,A
   \   00019B   A3           INC       DPTR
   \   00019C   F0           MOVX      @DPTR,A
    996                      }
    997          
    998                      osal_msg_send( *epDesc->epDesc->task_id, (uint8 *)pRspSent );
   \                     ??ZDO_ProcessMatchDescReq_13:
   \   00019D                ; Setup parameters for call to function osal_msg_send
   \   00019D   EE           MOV       A,R6
   \   00019E   FA           MOV       R2,A
   \   00019F   EF           MOV       A,R7
   \   0001A0   FB           MOV       R3,A
   \   0001A1   85..82       MOV       DPL,?V10
   \   0001A4   85..83       MOV       DPH,?V11
   \   0001A7   A3           INC       DPTR
   \   0001A8   A3           INC       DPTR
   \   0001A9   E0           MOVX      A,@DPTR
   \   0001AA   12....       LCALL     ?Subroutine165 & 0xFFFF
   \                     ??CrossCallReturnLabel_428:
   \   0001AD   12....       LCALL     ?Subroutine83 & 0xFFFF
   \                     ??CrossCallReturnLabel_310:
   \   0001B0   F9           MOV       R1,A
   \   0001B1   12....       LCALL     `??osal_msg_send::?relay`; Banked call to: osal_msg_send
    999                    }
   1000          
   1001                    uint8Buf[epCnt++] = sDesc->EndPoint;
   \                     ??ZDO_ProcessMatchDescReq_14:
   \   0001B4   85..82       MOV       DPL,?V8
   \   0001B7   85..83       MOV       DPH,?V9
   \   0001BA   E0           MOVX      A,@DPTR
   \   0001BB   C0E0         PUSH      A
   \   0001BD   A8..         MOV       R0,?V7
   \   0001BF   74..         MOV       A,#ZDOBuildBuf & 0xff
   \   0001C1   28           ADD       A,R0
   \   0001C2   F582         MOV       DPL,A
   \   0001C4   E4           CLR       A
   \   0001C5   34..         ADDC      A,#(ZDOBuildBuf >> 8) & 0xff
   \   0001C7   F583         MOV       DPH,A
   \   0001C9   D0E0         POP       A
   \   0001CB   F0           MOVX      @DPTR,A
   \   0001CC   05..         INC       ?V7
   1002                  }
   1003                }
   1004          
   1005                if ( allocated )
   \                     ??ZDO_ProcessMatchDescReq_15:
   \   0001CE   A2..         MOV       C,?VB.0
   \   0001D0   5007         JNC       ??ZDO_ProcessMatchDescReq_16
   1006                {
   1007                  osal_mem_free( sDesc );
   \   0001D2                ; Setup parameters for call to function osal_mem_free
   \   0001D2   AA..         MOV       R2,?V8
   \   0001D4   AB..         MOV       R3,?V9
   \   0001D6   12....       LCALL     `??osal_mem_free::?relay`; Banked call to: osal_mem_free
   1008                }
   1009              }
   1010              epDesc = epDesc->nextDesc;
   \                     ??ZDO_ProcessMatchDescReq_16:
   \   0001D9   85..82       MOV       DPL,?V10
   \   0001DC   85..83       MOV       DPH,?V11
   \                     ??ZDO_ProcessMatchDescReq_11:
   \   0001DF   E0           MOVX      A,@DPTR
   \   0001E0   F5..         MOV       ?V10,A
   \   0001E2   A3           INC       DPTR
   \   0001E3   E0           MOVX      A,@DPTR
   \   0001E4   F5..         MOV       ?V11,A
   \   0001E6   E5..         MOV       A,?V10
   \   0001E8   45..         ORL       A,?V11
   \   0001EA   7003         JNZ       $+5
   \   0001EC   02....       LJMP      ??ZDO_ProcessMatchDescReq_17 & 0xFFFF
   \   0001EF   85..82       MOV       DPL,?V10
   \   0001F2   85..83       MOV       DPH,?V11
   \   0001F5   A3           INC       DPTR
   \   0001F6   A3           INC       DPTR
   \   0001F7   12....       LCALL     ??Subroutine196_0 & 0xFFFF
   \                     ??CrossCallReturnLabel_355:
   \   0001FA   E8           MOV       A,R0
   \   0001FB   FA           MOV       R2,A
   \   0001FC   E9           MOV       A,R1
   \   0001FD   8882         MOV       DPL,R0
   \   0001FF   F583         MOV       DPH,A
   \   000201   E0           MOVX      A,@DPTR
   \   000202   FC           MOV       R4,A
   \   000203   60D4         JZ        ??ZDO_ProcessMatchDescReq_16
   \   000205   85..82       MOV       DPL,?V10
   \   000208   85..83       MOV       DPH,?V11
   \   00020B   A3           INC       DPTR
   \   00020C   A3           INC       DPTR
   \   00020D   A3           INC       DPTR
   \   00020E   A3           INC       DPTR
   \   00020F   A3           INC       DPTR
   \   000210   A3           INC       DPTR
   \   000211   A3           INC       DPTR
   \   000212   A3           INC       DPTR
   \   000213   E0           MOVX      A,@DPTR
   \   000214   A2E0         MOV       C,0xE0 /* A   */.0
   \   000216   50C1         JNC       ??ZDO_ProcessMatchDescReq_16
   \   000218   85..82       MOV       DPL,?V10
   \   00021B   85..83       MOV       DPH,?V11
   \   00021E   A3           INC       DPTR
   \   00021F   A3           INC       DPTR
   \   000220   12....       LCALL     ?Subroutine100 & 0xFFFF
   \                     ??CrossCallReturnLabel_163:
   \   000223   E582         MOV       A,DPL
   \   000225   4583         ORL       A,DPH
   \   000227   600F         JZ        ??ZDO_ProcessMatchDescReq_18
   \   000229                ; Setup parameters for indirect call
   \   000229   EC           MOV       A,R4
   \   00022A   FA           MOV       R2,A
   \   00022B   7901         MOV       R1,#0x1
   \   00022D   12....       LCALL     ?CALL_IND
   \   000230   8A..         MOV       ?V8,R2
   \   000232   8B..         MOV       ?V9,R3
   \   000234   D2..         SETB      ?VB.0
   \   000236   8011         SJMP      ??ZDO_ProcessMatchDescReq_19
   \                     ??ZDO_ProcessMatchDescReq_18:
   \   000238   8A82         MOV       DPL,R2
   \   00023A   8983         MOV       DPH,R1
   \   00023C   A3           INC       DPTR
   \   00023D   A3           INC       DPTR
   \   00023E   A3           INC       DPTR
   \   00023F   A3           INC       DPTR
   \   000240   E0           MOVX      A,@DPTR
   \   000241   F5..         MOV       ?V8,A
   \   000243   A3           INC       DPTR
   \   000244   E0           MOVX      A,@DPTR
   \   000245   F5..         MOV       ?V9,A
   \   000247   C2..         CLR       ?VB.0
   \                     ??ZDO_ProcessMatchDescReq_19:
   \   000249   E5..         MOV       A,?V8
   \   00024B   45..         ORL       A,?V9
   \   00024D   7003         JNZ       $+5
   \   00024F   02....       LJMP      ??ZDO_ProcessMatchDescReq_15 & 0xFFFF
   \   000252   85..82       MOV       DPL,?V8
   \   000255   85..83       MOV       DPH,?V9
   \   000258   A3           INC       DPTR
   \   000259   E0           MOVX      A,@DPTR
   \   00025A   65..         XRL       A,?V0
   \   00025C   7004         JNZ       ??ZDO_ProcessMatchDescReq_20
   \   00025E   A3           INC       DPTR
   \   00025F   E0           MOVX      A,@DPTR
   \   000260   65..         XRL       A,?V1
   \                     ??ZDO_ProcessMatchDescReq_20:
   \   000262   600F         JZ        ??ZDO_ProcessMatchDescReq_21
   \   000264   74FF         MOV       A,#-0x1
   \   000266   65..         XRL       A,?V0
   \   000268   7004         JNZ       ??ZDO_ProcessMatchDescReq_22
   \   00026A   74FF         MOV       A,#-0x1
   \   00026C   65..         XRL       A,?V1
   \                     ??ZDO_ProcessMatchDescReq_22:
   \   00026E   6003         JZ        $+5
   \   000270   02....       LJMP      ??ZDO_ProcessMatchDescReq_15 & 0xFFFF
   \                     ??ZDO_ProcessMatchDescReq_21:
   \   000273                ; Setup parameters for call to function ZDO_AnyClusterMatches
   \   000273   85..82       MOV       DPL,?V8
   \   000276   85..83       MOV       DPH,?V9
   \   000279   A3           INC       DPTR
   \   00027A   A3           INC       DPTR
   \   00027B   A3           INC       DPTR
   \   00027C   A3           INC       DPTR
   \   00027D   A3           INC       DPTR
   \   00027E   A3           INC       DPTR
   \   00027F   A3           INC       DPTR
   \   000280   12....       LCALL     ?PUSH_XSTACK8_X_TWO
   \   000283   85..82       MOV       DPL,?V8
   \   000286   85..83       MOV       DPH,?V9
   \   000289   A3           INC       DPTR
   \   00028A   A3           INC       DPTR
   \   00028B   A3           INC       DPTR
   \   00028C   A3           INC       DPTR
   \   00028D   A3           INC       DPTR
   \   00028E   A3           INC       DPTR
   \   00028F   E0           MOVX      A,@DPTR
   \   000290   FC           MOV       R4,A
   \   000291   AA..         MOV       R2,?V14
   \   000293   AB..         MOV       R3,?V15
   \   000295   A9..         MOV       R1,?V3
   \   000297   12....       LCALL     `??ZDO_AnyClusterMatches::?relay`; Banked call to: ZDO_AnyClusterMatches
   \   00029A   7402         MOV       A,#0x2
   \   00029C   12....       LCALL     ?DEALLOC_XSTACK8
   \   00029F   E9           MOV       A,R1
   \   0002A0   7038         JNZ       ??ZDO_ProcessMatchDescReq_23
   \   0002A2                ; Setup parameters for call to function ZDO_AnyClusterMatches
   \   0002A2   85..82       MOV       DPL,?V8
   \   0002A5   85..83       MOV       DPH,?V9
   \   0002A8   A3           INC       DPTR
   \   0002A9   A3           INC       DPTR
   \   0002AA   A3           INC       DPTR
   \   0002AB   A3           INC       DPTR
   \   0002AC   A3           INC       DPTR
   \   0002AD   A3           INC       DPTR
   \   0002AE   A3           INC       DPTR
   \   0002AF   A3           INC       DPTR
   \   0002B0   A3           INC       DPTR
   \   0002B1   A3           INC       DPTR
   \   0002B2   12....       LCALL     ?PUSH_XSTACK8_X_TWO
   \   0002B5   85..82       MOV       DPL,?V8
   \   0002B8   85..83       MOV       DPH,?V9
   \   0002BB   A3           INC       DPTR
   \   0002BC   A3           INC       DPTR
   \   0002BD   A3           INC       DPTR
   \   0002BE   A3           INC       DPTR
   \   0002BF   A3           INC       DPTR
   \   0002C0   A3           INC       DPTR
   \   0002C1   A3           INC       DPTR
   \   0002C2   A3           INC       DPTR
   \   0002C3   A3           INC       DPTR
   \   0002C4   E0           MOVX      A,@DPTR
   \   0002C5   FC           MOV       R4,A
   \   0002C6   AA..         MOV       R2,?V12
   \   0002C8   AB..         MOV       R3,?V13
   \   0002CA   A9..         MOV       R1,?V2
   \   0002CC   12....       LCALL     `??ZDO_AnyClusterMatches::?relay`; Banked call to: ZDO_AnyClusterMatches
   \   0002CF   7402         MOV       A,#0x2
   \   0002D1   12....       LCALL     ?DEALLOC_XSTACK8
   \   0002D4   E9           MOV       A,R1
   \   0002D5   7003         JNZ       $+5
   \   0002D7   02....       LJMP      ??ZDO_ProcessMatchDescReq_15 & 0xFFFF
   \                     ??ZDO_ProcessMatchDescReq_23:
   \   0002DA                ; Setup parameters for call to function osal_msg_allocate
   \   0002DA   E5..         MOV       A,?V2
   \   0002DC   25..         ADD       A,?V3
   \   0002DE   C3           CLR       C
   \   0002DF   33           RLC       A
   \   0002E0   240A         ADD       A,#0xa
   \   0002E2   FA           MOV       R2,A
   \   0002E3   7B00         MOV       R3,#0x0
   \   0002E5   12....       LCALL     `??osal_msg_allocate::?relay`; Banked call to: osal_msg_allocate
   \   0002E8   8A..         MOV       ?V4,R2
   \   0002EA   8B..         MOV       ?V5,R3
   \   0002EC   AE..         MOV       R6,?V4
   \   0002EE   AF..         MOV       R7,?V5
   \   0002F0   EA           MOV       A,R2
   \   0002F1   4F           ORL       A,R7
   \   0002F2   7003         JNZ       $+5
   \   0002F4   02....       LJMP      ??ZDO_ProcessMatchDescReq_14 & 0xFFFF
   \   0002F7   8A82         MOV       DPL,R2
   \   0002F9   8B83         MOV       DPH,R3
   \   0002FB   74D2         MOV       A,#-0x2e
   \   0002FD   12....       LCALL     ?Subroutine13 & 0xFFFF
   \                     ??CrossCallReturnLabel_8:
   \   000300   12....       LCALL     ??Subroutine196_0 & 0xFFFF
   \                     ??CrossCallReturnLabel_356:
   \   000303   8A82         MOV       DPL,R2
   \   000305   8B83         MOV       DPH,R3
   \   000307   12....       LCALL     ?Subroutine31 & 0xFFFF
   \                     ??CrossCallReturnLabel_609:
   \   00030A   8A82         MOV       DPL,R2
   \   00030C   8B83         MOV       DPH,R3
   \   00030E   A3           INC       DPTR
   \   00030F   A3           INC       DPTR
   \   000310   A3           INC       DPTR
   \   000311   A3           INC       DPTR
   \   000312   E5..         MOV       A,?V3
   \   000314   12....       LCALL     ?Subroutine14 & 0xFFFF
   \                     ??CrossCallReturnLabel_10:
   \   000317   EA           MOV       A,R2
   \   000318   2405         ADD       A,#0x5
   \   00031A   F582         MOV       DPL,A
   \   00031C   E4           CLR       A
   \   00031D   3F           ADDC      A,R7
   \   00031E   F583         MOV       DPH,A
   \   000320   E5..         MOV       A,?V3
   \   000322   6021         JZ        ??ZDO_ProcessMatchDescReq_24
   \   000324   EA           MOV       A,R2
   \   000325   240A         ADD       A,#0xa
   \   000327   FA           MOV       R2,A
   \   000328   E4           CLR       A
   \   000329   3F           ADDC      A,R7
   \   00032A   12....       LCALL     ?Subroutine37 & 0xFFFF
   \                     ??CrossCallReturnLabel_339:
   \   00032D                ; Setup parameters for call to function osal_memcpy
   \   00032D   85....       MOV       ?V4,?V14
   \   000330   85....       MOV       ?V5,?V15
   \   000333   75..00       MOV       ?V6,#0x0
   \   000336   78..         MOV       R0,#?V4
   \   000338   12....       LCALL     ?PUSH_XSTACK_I_THREE
   \   00033B   AC..         MOV       R4,?V3
   \   00033D   12....       LCALL     ?Subroutine128 & 0xFFFF
   \                     ??CrossCallReturnLabel_572:
   \   000340   12....       LCALL     ?DEALLOC_XSTACK8
   \   000343   8004         SJMP      ??ZDO_ProcessMatchDescReq_25
   \                     ??ZDO_ProcessMatchDescReq_24:
   \   000345   E4           CLR       A
   \   000346   F0           MOVX      @DPTR,A
   \   000347   A3           INC       DPTR
   \   000348   F0           MOVX      @DPTR,A
   \                     ??ZDO_ProcessMatchDescReq_25:
   \   000349   EE           MOV       A,R6
   \   00034A   2408         ADD       A,#0x8
   \   00034C   F582         MOV       DPL,A
   \   00034E   E4           CLR       A
   \   00034F   3F           ADDC      A,R7
   \   000350   F583         MOV       DPH,A
   \   000352   E5..         MOV       A,?V2
   \   000354   7003         JNZ       $+5
   \   000356   02....       LJMP      ??ZDO_ProcessMatchDescReq_12 & 0xFFFF
   \   000359   A8..         MOV       R0,?V3
   \   00035B   E8           MOV       A,R0
   \   00035C   28           ADD       A,R0
   \   00035D   F8           MOV       R0,A
   \   00035E   E4           CLR       A
   \   00035F   33           RLC       A
   \   000360   F9           MOV       R1,A
   \   000361   EE           MOV       A,R6
   \   000362   28           ADD       A,R0
   \   000363   F8           MOV       R0,A
   \   000364   EF           MOV       A,R7
   \   000365   39           ADDC      A,R1
   \   000366   F9           MOV       R1,A
   \   000367   E8           MOV       A,R0
   \   000368   240A         ADD       A,#0xa
   \   00036A   FA           MOV       R2,A
   \   00036B   E4           CLR       A
   \   00036C   39           ADDC      A,R1
   \   00036D   12....       LCALL     ?Subroutine37 & 0xFFFF
   \                     ??CrossCallReturnLabel_340:
   \   000370                ; Setup parameters for call to function osal_memcpy
   \   000370   85....       MOV       ?V4,?V12
   \   000373   85....       MOV       ?V5,?V13
   \   000376   75..00       MOV       ?V6,#0x0
   \   000379   78..         MOV       R0,#?V4
   \   00037B   12....       LCALL     ?PUSH_XSTACK_I_THREE
   \   00037E   AC..         MOV       R4,?V2
   \   000380   12....       LCALL     ?Subroutine128 & 0xFFFF
   1011            }
   \                     ??CrossCallReturnLabel_573:
   \   000383   12....       LCALL     ?DEALLOC_XSTACK8
   \   000386   02....       LJMP      ??ZDO_ProcessMatchDescReq_13 & 0xFFFF
   1012          
   1013            if ( epCnt )
   \                     ??ZDO_ProcessMatchDescReq_17:
   \   000389   E5..         MOV       A,?V7
   \   00038B   6047         JZ        ??ZDO_ProcessMatchDescReq_26
   1014            {
   1015              // Send the message if at least one match found.
   1016              if ( ZSuccess == ZDP_MatchDescRsp( inMsg->TransSeq, &(inMsg->srcAddr), ZDP_SUCCESS,
   1017                        ZDAppNwkAddr.addr.shortAddr, epCnt, (uint8 *)ZDOBuildBuf, inMsg->SecurityUse ) )
   \   00038D                ; Setup parameters for call to function ZDP_EPRsp
   \   00038D   7404         MOV       A,#0x4
   \   00038F   12....       LCALL     ?XSTACK_DISP0_8
   \   000392   12....       LCALL     ?Subroutine53 & 0xFFFF
   \                     ??CrossCallReturnLabel_86:
   \   000395   12....       LCALL     ?PUSH_XSTACK_I_ONE
   \   000398   75....       MOV       ?V0,#ZDOBuildBuf & 0xff
   \   00039B   75....       MOV       ?V1,#(ZDOBuildBuf >> 8) & 0xff
   \   00039E   78..         MOV       R0,#?V0
   \   0003A0   12....       LCALL     ?PUSH_XSTACK_I_TWO
   \   0003A3   E5..         MOV       A,?V7
   \   0003A5   F5..         MOV       ?V0,A
   \   0003A7   78..         MOV       R0,#?V0
   \   0003A9   12....       LCALL     ?PUSH_XSTACK_I_ONE
   \   0003AC   90....       MOV       DPTR,#ZDAppNwkAddr
   \   0003AF   12....       LCALL     ?PUSH_XSTACK8_X_TWO
   \   0003B2   75..00       MOV       ?V0,#0x0
   \   0003B5   78..         MOV       R0,#?V0
   \   0003B7   12....       LCALL     ?PUSH_XSTACK_I_ONE
   \   0003BA   7407         MOV       A,#0x7
   \   0003BC   12....       LCALL     ?XSTACK_DISP0_8
   \   0003BF   12....       LCALL     ?Subroutine67 & 0xFFFF
   \                     ??CrossCallReturnLabel_111:
   \   0003C2   12....       LCALL     ?XSTACK_DISP0_8
   \   0003C5   12....       LCALL     ?Subroutine50 & 0xFFFF
   \                     ??CrossCallReturnLabel_82:
   \   0003C8   12....       LCALL     ?DEALLOC_XSTACK8
   \   0003CB   E9           MOV       A,R1
   \   0003CC   705B         JNZ       ??ZDO_ProcessMatchDescReq_27
   1018              {
   1019          #if defined( LCD_SUPPORTED )
   1020                HalLcdWriteScreen( "Match Desc Req", "Rsp Sent" );
   \   0003CE                ; Setup parameters for call to function HalLcdWriteScreen
   \   0003CE   7C..         MOV       R4,#`?<Constant "Rsp Sent">` & 0xff
   \   0003D0   7D..         MOV       R5,#(`?<Constant "Rsp Sent">` >> 8) & 0xff
   \   0003D2   804E         SJMP      ??ZDO_ProcessMatchDescReq_28
   1021          #endif
   1022              }
   1023            }
   1024            else
   1025            {
   1026              if (!inMsg->wasBroadcast)
   \                     ??ZDO_ProcessMatchDescReq_26:
   \   0003D4   7402         MOV       A,#0x2
   \   0003D6   12....       LCALL     ?XSTACK_DISP0_8
   \   0003D9   12....       LCALL     ?Subroutine72 & 0xFFFF
   \                     ??CrossCallReturnLabel_118:
   \   0003DC   7040         JNZ       ??ZDO_ProcessMatchDescReq_29
   1027              {
   1028                // send response message with match length = 0
   1029                ZDP_MatchDescRsp( inMsg->TransSeq, &(inMsg->srcAddr), ZDP_SUCCESS,
   1030                                  ZDAppNwkAddr.addr.shortAddr, 0, (uint8 *)ZDOBuildBuf, inMsg->SecurityUse );
   \   0003DE                ; Setup parameters for call to function ZDP_EPRsp
   \   0003DE   7404         MOV       A,#0x4
   \   0003E0   12....       LCALL     ?XSTACK_DISP0_8
   \   0003E3   12....       LCALL     ?Subroutine53 & 0xFFFF
   \                     ??CrossCallReturnLabel_87:
   \   0003E6   12....       LCALL     ?PUSH_XSTACK_I_ONE
   \   0003E9   75....       MOV       ?V0,#ZDOBuildBuf & 0xff
   \   0003EC   75....       MOV       ?V1,#(ZDOBuildBuf >> 8) & 0xff
   \   0003EF   78..         MOV       R0,#?V0
   \   0003F1   12....       LCALL     ?PUSH_XSTACK_I_TWO
   \   0003F4   75..00       MOV       ?V0,#0x0
   \   0003F7   78..         MOV       R0,#?V0
   \   0003F9   12....       LCALL     ?PUSH_XSTACK_I_ONE
   \   0003FC   90....       MOV       DPTR,#ZDAppNwkAddr
   \   0003FF   12....       LCALL     ?PUSH_XSTACK8_X_TWO
   \   000402   78..         MOV       R0,#?V0
   \   000404   12....       LCALL     ?PUSH_XSTACK_I_ONE
   \   000407   7407         MOV       A,#0x7
   \   000409   12....       LCALL     ?XSTACK_DISP0_8
   \   00040C   12....       LCALL     ?Subroutine67 & 0xFFFF
   \                     ??CrossCallReturnLabel_112:
   \   00040F   12....       LCALL     ?XSTACK_DISP0_8
   \   000412   12....       LCALL     ?Subroutine50 & 0xFFFF
   \                     ??CrossCallReturnLabel_83:
   \   000415   12....       LCALL     ?DEALLOC_XSTACK8
   1031          #if defined( LCD_SUPPORTED )
   1032                HalLcdWriteScreen( "Match Desc Req", "Rsp Non Matched" );
   \   000418                ; Setup parameters for call to function HalLcdWriteScreen
   \   000418   7C..         MOV       R4,#`?<Constant "Rsp Non Matched">` & 0xff
   \   00041A   7D..         MOV       R5,#(`?<Constant "Rsp Non Matched">` >> 8) & 0xff
   \   00041C   8004         SJMP      ??ZDO_ProcessMatchDescReq_28
   1033          #endif
   1034              }
   1035              else
   1036              {
   1037                // no response mesage for broadcast message
   1038          #if defined( LCD_SUPPORTED )
   1039                HalLcdWriteScreen( "Match Desc Req", "Non Matched" );
   \                     ??ZDO_ProcessMatchDescReq_29:
   \   00041E                ; Setup parameters for call to function HalLcdWriteScreen
   \   00041E   7C..         MOV       R4,#`?<Constant "Non Matched">` & 0xff
   \   000420   7D..         MOV       R5,#(`?<Constant "Non Matched">` >> 8) & 0xff
   \                     ??ZDO_ProcessMatchDescReq_28:
   \   000422   7A..         MOV       R2,#`?<Constant "Match Desc Req">` & 0xff
   \   000424   7B..         MOV       R3,#(`?<Constant "Match Desc Req">` >> 8) & 0xff
   \   000426   12....       LCALL     `??HalLcdWriteScreen::?relay`; Banked call to: HalLcdWriteScreen
   1040          #endif
   1041              }
   1042            }
   1043          
   1044            if ( inClusters != NULL )
   \                     ??ZDO_ProcessMatchDescReq_27:
   \   000429   E5..         MOV       A,?V14
   \   00042B   45..         ORL       A,?V15
   \   00042D   6007         JZ        ??ZDO_ProcessMatchDescReq_30
   1045            {
   1046              osal_mem_free( inClusters );
   \   00042F                ; Setup parameters for call to function osal_mem_free
   \   00042F   AA..         MOV       R2,?V14
   \   000431   AB..         MOV       R3,?V15
   \   000433   12....       LCALL     `??osal_mem_free::?relay`; Banked call to: osal_mem_free
   1047            }
   1048          
   1049            if ( outClusters != NULL )
   \                     ??ZDO_ProcessMatchDescReq_30:
   \   000436   E5..         MOV       A,?V12
   \   000438   45..         ORL       A,?V13
   \   00043A   6007         JZ        ??ZDO_ProcessMatchDescReq_1
   1050            {
   1051              osal_mem_free( outClusters );
   \   00043C                ; Setup parameters for call to function osal_mem_free
   \   00043C   AA..         MOV       R2,?V12
   \   00043E   AB..         MOV       R3,?V13
   \   000440   12....       LCALL     `??osal_mem_free::?relay`; Banked call to: osal_mem_free
   1052            }
   1053          }
   \                     ??ZDO_ProcessMatchDescReq_1:
   \   000443   7408         MOV       A,#0x8
   \   000445   02....       LJMP      ?Subroutine6 & 0xFFFF

   \                                 In  segment BANKED_CODE, align 1, keep-with-next
   \                     ?Subroutine99:
   \   000000   12....       LCALL     ??Subroutine227_0 & 0xFFFF
   \                     ??CrossCallReturnLabel_538:
   \   000003                REQUIRE ??Subroutine190_0
   \   000003                ; // Fall through to label ??Subroutine190_0

   \                                 In  segment BANKED_CODE, align 1, keep-with-next
   \                     ??Subroutine190_0:
   \   000000   F583         MOV       DPH,A
   \   000002                REQUIRE ??Subroutine191_0
   \   000002                ; // Fall through to label ??Subroutine191_0

   \                                 In  segment BANKED_CODE, align 1, keep-with-next
   \                     ??Subroutine191_0:
   \   000000   12....       LCALL     ??Subroutine225_0 & 0xFFFF
   \                     ??CrossCallReturnLabel_528:
   \   000003   FF           MOV       R7,A
   \   000004   22           RET

   \                                 In  segment BANKED_CODE, align 1, keep-with-next
   \                     ?Subroutine67:
   \   000000   E0           MOVX      A,@DPTR
   \   000001   FC           MOV       R4,A
   \   000002   A3           INC       DPTR
   \   000003   E0           MOVX      A,@DPTR
   \   000004   FD           MOV       R5,A
   \   000005   740D         MOV       A,#0xd
   \   000007   22           RET

   \                                 In  segment BANKED_CODE, align 1, keep-with-next
   \                     ?Subroutine53:
   \   000000   12....       LCALL     ?Subroutine154 & 0xFFFF
   \                     ??CrossCallReturnLabel_312:
   \   000003   F5..         MOV       ?V0,A
   \   000005   78..         MOV       R0,#?V0
   \   000007   22           RET

   \                                 In  segment BANKED_CODE, align 1, keep-with-next
   \                     ?Subroutine50:
   \   000000   12....       LCALL     ?Subroutine154 & 0xFFFF
   \                     ??CrossCallReturnLabel_311:
   \   000003   F9           MOV       R1,A
   \   000004   7A06         MOV       R2,#0x6
   \   000006   7B80         MOV       R3,#-0x80
   \   000008   12....       LCALL     `??ZDP_EPRsp::?relay`; Banked call to: ZDP_EPRsp
   \   00000B   7407         MOV       A,#0x7
   \   00000D   22           RET

   \                                 In  segment BANKED_CODE, align 1, keep-with-next
   \                     ?Subroutine37:
   \   000000   FB           MOV       R3,A
   \   000001                REQUIRE ??Subroutine192_0
   \   000001                ; // Fall through to label ??Subroutine192_0

   \                                 In  segment BANKED_CODE, align 1, keep-with-next
   \                     ?Subroutine173:
   \   000000   F0           MOVX      @DPTR,A
   \   000001   85..82       MOV       DPL,?XSP + 0
   \   000004   85..83       MOV       DPH,?XSP + 1
   \   000007   22           RET

   \                                 In  segment BANKED_CODE, align 1, keep-with-next
   \                     ?Subroutine6:
   \   000000   12....       LCALL     ?DEALLOC_XSTACK8
   \   000003                REQUIRE ??Subroutine206_0
   \   000003                ; // Fall through to label ??Subroutine206_0

   \                                 In  segment BANKED_CODE, align 1, keep-with-next
   \                     ??Subroutine206_0:
   \   000000   7F10         MOV       R7,#0x10
   \   000002   02....       LJMP      ?BANKED_LEAVE_XDATA

   \                                 In  segment BANKED_CODE, align 1, keep-with-next
   \                     ?Subroutine13:
   \   000000   12....       LCALL     ?Subroutine148 & 0xFFFF
   \                     ??CrossCallReturnLabel_258:
   \   000003   12....       LCALL     ?Subroutine165 & 0xFFFF
   \                     ??CrossCallReturnLabel_429:
   \   000006   22           RET

   \                                 In  segment BANKED_CODE, align 1, keep-with-next
   \                     ?Subroutine165:
   \   000000   F8           MOV       R0,A
   \   000001   A3           INC       DPTR
   \   000002                REQUIRE ??Subroutine207_0
   \   000002                ; // Fall through to label ??Subroutine207_0

   \                                 In  segment BANKED_CODE, align 1, keep-with-next
   \                     ??Subroutine207_0:
   \   000000   E0           MOVX      A,@DPTR
   \   000001   F583         MOV       DPH,A
   \   000003   8882         MOV       DPL,R0
   \   000005   22           RET

   \                                 In  segment BANKED_CODE, align 1, keep-with-next
   \                     ?Subroutine109:
   \   000000   12....       LCALL     ?Subroutine168 & 0xFFFF
   \                     ??CrossCallReturnLabel_281:
   \   000003   22           RET

   \                                 In  segment BANKED_CODE, align 1, keep-with-next
   \                     ?Subroutine168:
   \   000000   25E0         ADD       A,0xE0 /* A   */
   \   000002   FA           MOV       R2,A
   \   000003   E4           CLR       A
   \   000004   33           RLC       A
   \   000005   FB           MOV       R3,A
   \   000006   12....       LCALL     `??osal_mem_alloc::?relay`; Banked call to: osal_mem_alloc
   \   000009   22           RET

   \                                 In  segment BANKED_CODE, align 1, keep-with-next
   \                     ??Subroutine215_0:
   \   000000   F582         MOV       DPL,A
   \   000002   E4           CLR       A
   \   000003   38           ADDC      A,R0
   \   000004   F583         MOV       DPH,A
   \   000006   E0           MOVX      A,@DPTR
   \   000007   22           RET

   \                                 In  segment BANKED_CODE, align 1, keep-with-next
   \                     ?Subroutine148:
   \   000000   12....       LCALL     ?Subroutine173 & 0xFFFF
   \                     ??CrossCallReturnLabel_289:
   \   000003   E0           MOVX      A,@DPTR
   \   000004   22           RET

   \                                 In  segment BANKED_CODE, align 1, keep-with-next
   \                     ?Subroutine72:
   \   000000   12....       LCALL     ??Subroutine223_0 & 0xFFFF
   \                     ??CrossCallReturnLabel_504:
   \   000003   240B         ADD       A,#0xb
   \   000005   12....       LCALL     ??Subroutine215_0 & 0xFFFF
   \                     ??CrossCallReturnLabel_472:
   \   000008   22           RET

   \                                 In  segment BANKED_CODE, align 1, keep-with-next
   \                     ??Subroutine223_0:
   \   000000   12....       LCALL     ??Subroutine214_0 & 0xFFFF
   \                     ??CrossCallReturnLabel_516:
   \   000003   C8           XCH       A,R0
   \   000004   22           RET

   \                                 In  segment BANKED_CODE, align 1, keep-with-next
   \                     ??Subroutine227_0:
   \   000000   12....       LCALL     ??Subroutine222_0 & 0xFFFF
   \                     ??CrossCallReturnLabel_545:
   \   000003   3B           ADDC      A,R3
   \   000004   22           RET

   \                                 In  segment BANKED_CODE, align 1, keep-with-next
   \                     ?Subroutine143:
   \   000000   F0           MOVX      @DPTR,A
   \   000001   8A82         MOV       DPL,R2
   \   000003   8B83         MOV       DPH,R3
   \   000005   A3           INC       DPTR
   \   000006   A3           INC       DPTR
   \   000007   A3           INC       DPTR
   \   000008   22           RET

   \                                 In  segment BANKED_CODE, align 1, keep-with-next
   \                     ?Subroutine128:
   \   000000   EC           MOV       A,R4
   \   000001   2C           ADD       A,R4
   \   000002   FC           MOV       R4,A
   \   000003   E4           CLR       A
   \   000004   33           RLC       A
   \   000005   FD           MOV       R5,A
   \   000006                REQUIRE ??Subroutine234_0
   \   000006                ; // Fall through to label ??Subroutine234_0

   \                                 In  segment BANKED_CODE, align 1, keep-with-next
   \                     ??Subroutine234_0:
   \   000000   12....       LCALL     `??osal_memcpy::?relay`; Banked call to: osal_memcpy
   \   000003   7403         MOV       A,#0x3
   \   000005   22           RET

   \                                 In  segment BANKED_CODE, align 1, keep-with-next
   \                     ?Subroutine31:
   \   000000   A3           INC       DPTR
   \   000001   A3           INC       DPTR
   \   000002                REQUIRE ??Subroutine237_0
   \   000002                ; // Fall through to label ??Subroutine237_0

   \                                 In  segment BANKED_CODE, align 1, keep-with-next
   \                     ??Subroutine237_0:
   \   000000   E8           MOV       A,R0
   \   000001                REQUIRE ??Subroutine238_0
   \   000001                ; // Fall through to label ??Subroutine238_0

   \                                 In  segment BANKED_CODE, align 1, keep-with-next
   \                     ??Subroutine238_0:
   \   000000   F0           MOVX      @DPTR,A
   \   000001   A3           INC       DPTR
   \   000002   E9           MOV       A,R1
   \   000003   F0           MOVX      @DPTR,A
   \   000004   22           RET

   \                                 In  segment BANKED_CODE, align 1, keep-with-next
   \                     ?Subroutine14:
   \   000000   12....       LCALL     ?Subroutine143 & 0xFFFF
   \                     ??CrossCallReturnLabel_250:
   \   000003   A3           INC       DPTR
   \   000004   A3           INC       DPTR
   \   000005   A3           INC       DPTR
   \   000006   A3           INC       DPTR
   \   000007   E5..         MOV       A,?V2
   \   000009   F0           MOVX      @DPTR,A
   \   00000A   22           RET
   1054          
   1055          #if defined ( REFLECTOR )
   1056          /*********************************************************************
   1057           * @fn      ZDO_ProcessBindUnbindReq()
   1058           *
   1059           * @brief   Called to process a Bind or Unbind Request message.
   1060           *
   1061           * @param   inMsg  - incoming message (request)
   1062           * @param   pReq - place to put parsed information
   1063           *
   1064           * @return  none
   1065           */

   \                                 In  segment BANKED_CODE, align 1, keep-with-next
   1066          void ZDO_ProcessBindUnbindReq( zdoIncomingMsg_t *inMsg, ZDO_BindUnbindReq_t *pReq )
   \                     ZDO_ProcessBindUnbindReq:
   1067          {
   \   000000                REQUIRE ?V0
   \   000000                REQUIRE ?V1
   \   000000                REQUIRE ?V2
   \   000000                REQUIRE ?V3
   \   000000                REQUIRE ?V4
   \   000000                REQUIRE ?V5
   \   000000                REQUIRE ?V6
   \   000000                REQUIRE ?V7
   \   000000                REQUIRE ?V8
   \   000000   74EF         MOV       A,#-0x11
   \   000002   12....       LCALL     ?BANKED_ENTER_XDATA
   \   000005                ; Saved register size: 17
   \   000005                ; Auto size: 12
   \   000005   74F4         MOV       A,#-0xc
   \   000007   12....       LCALL     ?ALLOC_XSTACK8
   \   00000A   8A..         MOV       ?V0,R2
   \   00000C   8B..         MOV       ?V1,R3
   \   00000E   EC           MOV       A,R4
   \   00000F   FE           MOV       R6,A
   \   000010   ED           MOV       A,R5
   \   000011   FF           MOV       R7,A
   1068            zAddrType_t SourceAddr;       // Binding Source addres
   1069            byte bindStat;
   1070          
   1071            SourceAddr.addrMode = Addr64Bit;
   \   000012   740B         MOV       A,#0xb
   \   000014   12....       LCALL     ?XSTACK_DISP0_8
   \   000017   7403         MOV       A,#0x3
   \   000019   F0           MOVX      @DPTR,A
   1072            osal_cpyExtAddr( SourceAddr.addr.extAddr, pReq->srcAddress );
   \   00001A                ; Setup parameters for call to function sAddrExtCpy
   \   00001A   12....       LCALL     ?XSTACK_DISP101_8
   \   00001D   12....       LCALL     `??sAddrExtCpy::?relay`; Banked call to: sAddrExtCpy
   1073          
   1074            // If the local device is not the primary binding cache
   1075            // check the src address of the bind request.
   1076            // If it is not the local device's extended address
   1077            // discard the request.
   1078            if ( !osal_ExtAddrEqual( SourceAddr.addr.extAddr, NLME_GetExtAddr()) ||
   1079                  (pReq->dstAddress.addrMode != Addr64Bit &&
   1080                   pReq->dstAddress.addrMode != AddrGroup) )
   \   000020                ; Setup parameters for call to function NLME_GetExtAddr
   \   000020   12....       LCALL     ?Subroutine104 & 0xFFFF
   \                     ??CrossCallReturnLabel_168:
   \   000023   E5..         MOV       A,?V0
   \   000025   240C         ADD       A,#0xc
   \   000027   F5..         MOV       ?V4,A
   \   000029   E4           CLR       A
   \   00002A   35..         ADDC      A,?V1
   \   00002C   F5..         MOV       ?V5,A
   \   00002E                ; Setup parameters for call to function sAddrExtCmp
   \   00002E   7403         MOV       A,#0x3
   \   000030   12....       LCALL     ?XSTACK_DISP101_8
   \   000033   12....       LCALL     `??sAddrExtCmp::?relay`; Banked call to: sAddrExtCmp
   \   000036   E9           MOV       A,R1
   \   000037   601D         JZ        ??ZDO_ProcessBindUnbindReq_0
   \   000039   EE           MOV       A,R6
   \   00003A   2413         ADD       A,#0x13
   \   00003C   F5..         MOV       ?V2,A
   \   00003E   E4           CLR       A
   \   00003F   3F           ADDC      A,R7
   \   000040   F5..         MOV       ?V3,A
   \   000042   85..82       MOV       DPL,?V2
   \   000045   F583         MOV       DPH,A
   \   000047   E0           MOVX      A,@DPTR
   \   000048   F5..         MOV       ?V8,A
   \   00004A   7403         MOV       A,#0x3
   \   00004C   65..         XRL       A,?V8
   \   00004E   6011         JZ        ??ZDO_ProcessBindUnbindReq_1
   \   000050   7401         MOV       A,#0x1
   \   000052   65..         XRL       A,?V8
   \   000054   600B         JZ        ??ZDO_ProcessBindUnbindReq_1
   1081            {
   1082              bindStat = ZDP_NOT_SUPPORTED;
   \                     ??ZDO_ProcessBindUnbindReq_0:
   \   000056   85..82       MOV       DPL,?XSP + 0
   \   000059   85..83       MOV       DPH,?XSP + 1
   \   00005C   7484         MOV       A,#-0x7c
   \   00005E   02....       LJMP      ??ZDO_ProcessBindUnbindReq_2 & 0xFFFF
   1083            }
   1084            else
   1085            {
   1086              // Check source & destination endpoints
   1087              if ( (pReq->srcEndpoint == 0 || pReq->srcEndpoint > MAX_ENDPOINTS)
   1088                  || (( pReq->dstAddress.addrMode == Addr64Bit ) &&
   1089                      (pReq->dstEndpoint == 0 || pReq->dstEndpoint > MAX_ENDPOINTS)) )
   \                     ??ZDO_ProcessBindUnbindReq_1:
   \   000061   EE           MOV       A,R6
   \   000062   2408         ADD       A,#0x8
   \   000064   F8           MOV       R0,A
   \   000065   E4           CLR       A
   \   000066   3F           ADDC      A,R7
   \   000067   88..         MOV       ?V6,R0
   \   000069   F5..         MOV       ?V7,A
   \   00006B   8882         MOV       DPL,R0
   \   00006D   F583         MOV       DPH,A
   \   00006F   E0           MOVX      A,@DPTR
   \   000070   F9           MOV       R1,A
   \   000071   6023         JZ        ??ZDO_ProcessBindUnbindReq_3
   \   000073   74FF         MOV       A,#-0x1
   \   000075   69           XRL       A,R1
   \   000076   601E         JZ        ??ZDO_ProcessBindUnbindReq_3
   \   000078   EE           MOV       A,R6
   \   000079   2414         ADD       A,#0x14
   \   00007B   FA           MOV       R2,A
   \   00007C   E4           CLR       A
   \   00007D   3F           ADDC      A,R7
   \   00007E   FB           MOV       R3,A
   \   00007F   EA           MOV       A,R2
   \   000080   FC           MOV       R4,A
   \   000081   EB           MOV       A,R3
   \   000082   FD           MOV       R5,A
   \   000083   7403         MOV       A,#0x3
   \   000085   65..         XRL       A,?V8
   \   000087   7018         JNZ       ??ZDO_ProcessBindUnbindReq_4
   \   000089   8A82         MOV       DPL,R2
   \   00008B   8B83         MOV       DPH,R3
   \   00008D   E0           MOVX      A,@DPTR
   \   00008E   F8           MOV       R0,A
   \   00008F   6005         JZ        ??ZDO_ProcessBindUnbindReq_3
   \   000091   74FF         MOV       A,#-0x1
   \   000093   68           XRL       A,R0
   \   000094   700B         JNZ       ??ZDO_ProcessBindUnbindReq_4
   1090              {
   1091                bindStat = ZDP_INVALID_EP;
   \                     ??ZDO_ProcessBindUnbindReq_3:
   \   000096   85..82       MOV       DPL,?XSP + 0
   \   000099   85..83       MOV       DPH,?XSP + 1
   \   00009C   7482         MOV       A,#-0x7e
   \   00009E   02....       LJMP      ??ZDO_ProcessBindUnbindReq_2 & 0xFFFF
   1092              }
   1093              else
   1094              {
   1095                if ( inMsg->clusterID == Bind_req )
   \                     ??ZDO_ProcessBindUnbindReq_4:
   \   0000A1   EE           MOV       A,R6
   \   0000A2   2409         ADD       A,#0x9
   \   0000A4   FA           MOV       R2,A
   \   0000A5   E4           CLR       A
   \   0000A6   3F           ADDC      A,R7
   \   0000A7   FB           MOV       R3,A
   \   0000A8   EE           MOV       A,R6
   \   0000A9   240B         ADD       A,#0xb
   \   0000AB   FE           MOV       R6,A
   \   0000AC   5001         JNC       ??ZDO_ProcessBindUnbindReq_5
   \   0000AE   0F           INC       R7
   \                     ??ZDO_ProcessBindUnbindReq_5:
   \   0000AF   85..82       MOV       DPL,?V4
   \   0000B2   85..83       MOV       DPH,?V5
   \   0000B5   E0           MOVX      A,@DPTR
   \   0000B6   6421         XRL       A,#0x21
   \   0000B8   7002         JNZ       ??ZDO_ProcessBindUnbindReq_6
   \   0000BA   A3           INC       DPTR
   \   0000BB   E0           MOVX      A,@DPTR
   \                     ??ZDO_ProcessBindUnbindReq_6:
   \   0000BC   7065         JNZ       ??ZDO_ProcessBindUnbindReq_7
   1096                {
   1097                  // Assume the table is full
   1098                  bindStat = ZDP_TABLE_FULL;
   \   0000BE   85..82       MOV       DPL,?XSP + 0
   \   0000C1   85..83       MOV       DPH,?XSP + 1
   \   0000C4   748C         MOV       A,#-0x74
   \   0000C6   12....       LCALL     ?Subroutine15 & 0xFFFF
   1099          
   1100          #if defined( APP_TP ) || defined( APP_TP2 )
   1101                  // For ZigBee Conformance Testing
   1102                  if ( bindNumOfEntries() < gNWK_MAX_BINDING_ENTRIES )
   1103          #endif
   1104                  {
   1105          #if defined ( ZDP_BIND_VALIDATION )
   1106                    uint16 nwkAddr;
   1107          
   1108                    // Verifies that a valid NWK address exists for the device
   1109                    // before creating a Binding entry. If NWK address does not
   1110                    // exist the request is sent out and the BindReq is saved, to
   1111                    // create the Bind Entry once the NwkAddrRsp is received
   1112                    if ( ( pReq->dstAddress.addrMode == Addr64Bit ) &&
   1113                         ( APSME_LookupNwkAddr( pReq->dstAddress.addr.extAddr, &nwkAddr ) == FALSE ) )
   1114                    {
   1115                      // find an empty bind slot in the pending Bind Req list
   1116                      ZDO_PendingBindReq_t *pPendingBind;
   1117          
   1118                      if ( ( pPendingBind = ZDApp_GetEmptyPendingBindReq() ) != NULL )
   1119                      {
   1120                        // copy the received request into the empty slot and all required info
   1121                        osal_memcpy( &(pPendingBind->bindReq), pReq, sizeof( ZDO_BindUnbindReq_t ) );
   1122          
   1123                        pPendingBind->srcAddr = inMsg->srcAddr;
   1124                        pPendingBind->securityUse = inMsg->SecurityUse;
   1125                        pPendingBind->transSeq = inMsg->TransSeq;
   1126                        pPendingBind->age = MAX_TIME_ADDR_REQ;
   1127          
   1128                        // create an entry in Address Manager
   1129                        ( void )bindAddrIndexGet( &(pReq->dstAddress) );
   1130          
   1131                        ZDP_NwkAddrReq( pReq->dstAddress.addr.extAddr, ZDP_ADDR_REQTYPE_SINGLE, 0, 0 );
   1132          
   1133                        osal_start_timerEx( ZDAppTaskID, ZDO_PENDING_BIND_REQ_EVT,
   1134                                            AGE_OUT_PEND_BIND_REQ_DELAY );
   1135                        return;
   1136                      }
   1137                    }
   1138                    // Add Bind entry
   1139                    else if ( APSME_BindRequest( pReq->srcEndpoint, pReq->clusterID,
   1140                                                 &(pReq->dstAddress), pReq->dstEndpoint ) == ZSuccess )
   1141                    {
   1142                      // valid entry
   1143                      bindStat = ZDP_SUCCESS;
   1144          
   1145                      // Notify to save info into NV
   1146                      ZDApp_NVUpdate();
   1147                    }
   1148          #else // ZDP_BIND_VALIDATION  is not Defined
   1149                    // Create binding entry first independently of existance of  valid NWK addres
   1150                    // if NWK address does not exist a request is sent out
   1151                    if ( APSME_BindRequest( pReq->srcEndpoint, pReq->clusterID,
   1152                                   &(pReq->dstAddress), pReq->dstEndpoint ) == ZSuccess )
   \                     ??CrossCallReturnLabel_12:
   \   0000C9   E0           MOVX      A,@DPTR
   \   0000CA   F5..         MOV       ?V8,A
   \   0000CC   78..         MOV       R0,#?V8
   \   0000CE   12....       LCALL     ?PUSH_XSTACK_I_ONE
   \   0000D1   EE           MOV       A,R6
   \   0000D2   FC           MOV       R4,A
   \   0000D3   EF           MOV       A,R7
   \   0000D4   FD           MOV       R5,A
   \   0000D5   8A82         MOV       DPL,R2
   \   0000D7   8B83         MOV       DPH,R3
   \   0000D9   12....       LCALL     ??Subroutine198_0 & 0xFFFF
   \                     ??CrossCallReturnLabel_377:
   \   0000DC   85..82       MOV       DPL,?V6
   \   0000DF   85..83       MOV       DPH,?V7
   \   0000E2   E0           MOVX      A,@DPTR
   \   0000E3   F9           MOV       R1,A
   \   0000E4   12....       LCALL     `??APSME_BindRequest::?relay`; Banked call to: APSME_BindRequest
   \   0000E7   7401         MOV       A,#0x1
   \   0000E9   12....       LCALL     ?DEALLOC_XSTACK8
   \   0000EC   E9           MOV       A,R1
   \   0000ED   7066         JNZ       ??ZDO_ProcessBindUnbindReq_8
   1153                    {
   1154                      uint16 nwkAddr;
   1155          
   1156                      // valid entry
   1157                      bindStat = ZDP_SUCCESS;
   \   0000EF   85..82       MOV       DPL,?XSP + 0
   \   0000F2   85..83       MOV       DPH,?XSP + 1
   \   0000F5   E4           CLR       A
   \   0000F6   F0           MOVX      @DPTR,A
   1158          
   1159                      // Notify to save info into NV
   1160                      ZDApp_NVUpdate();
   \   0000F7                ; Setup parameters for call to function ZDApp_NVUpdate
   \   0000F7   12....       LCALL     `??ZDApp_NVUpdate::?relay`; Banked call to: ZDApp_NVUpdate
   1161          
   1162                      // Check for the destination address
   1163                      if ( pReq->dstAddress.addrMode == Addr64Bit )
   \   0000FA   85..82       MOV       DPL,?V2
   \   0000FD   85..83       MOV       DPH,?V3
   \   000100   E0           MOVX      A,@DPTR
   \   000101   6403         XRL       A,#0x3
   \   000103   7050         JNZ       ??ZDO_ProcessBindUnbindReq_8
   1164                      {
   1165                        if ( APSME_LookupNwkAddr( pReq->dstAddress.addr.extAddr, &nwkAddr ) == FALSE )
   \   000105                ; Setup parameters for call to function APSME_LookupNwkAddr
   \   000105   7401         MOV       A,#0x1
   \   000107   12....       LCALL     ?XSTACK_DISP102_8
   \   00010A   EE           MOV       A,R6
   \   00010B   FA           MOV       R2,A
   \   00010C   EF           MOV       A,R7
   \   00010D   FB           MOV       R3,A
   \   00010E   12....       LCALL     `??APSME_LookupNwkAddr::?relay`; Banked call to: APSME_LookupNwkAddr
   \   000111   E9           MOV       A,R1
   \   000112   7041         JNZ       ??ZDO_ProcessBindUnbindReq_8
   1166                        {
   1167                          ZDP_NwkAddrReq( pReq->dstAddress.addr.extAddr, ZDP_ADDR_REQTYPE_SINGLE, 0, 0 );
   \   000114                ; Setup parameters for call to function ZDP_NwkAddrReq
   \   000114   7D00         MOV       R5,#0x0
   \   000116   7C00         MOV       R4,#0x0
   \   000118   7900         MOV       R1,#0x0
   \   00011A   EE           MOV       A,R6
   \   00011B   FA           MOV       R2,A
   \   00011C   EF           MOV       A,R7
   \   00011D   FB           MOV       R3,A
   \   00011E   12....       LCALL     `??ZDP_NwkAddrReq::?relay`; Banked call to: ZDP_NwkAddrReq
   \   000121   8032         SJMP      ??ZDO_ProcessBindUnbindReq_8
   1168                        }
   1169                      }
   1170                    }
   1171          #endif
   1172                  }
   1173                }
   1174                else // Unbind_req
   1175                {
   1176                  if ( APSME_UnBindRequest( pReq->srcEndpoint, pReq->clusterID,
   1177                                 &(pReq->dstAddress), pReq->dstEndpoint ) == ZSuccess )
   \                     ??ZDO_ProcessBindUnbindReq_7:
   \   000123                ; Setup parameters for call to function APSME_UnBindRequest
   \   000123   8C82         MOV       DPL,R4
   \   000125   8D83         MOV       DPH,R5
   \   000127   E0           MOVX      A,@DPTR
   \   000128   F5..         MOV       ?V2,A
   \   00012A   78..         MOV       R0,#?V2
   \   00012C   12....       LCALL     ?PUSH_XSTACK_I_ONE
   \   00012F   EE           MOV       A,R6
   \   000130   FC           MOV       R4,A
   \   000131   EF           MOV       A,R7
   \   000132   FD           MOV       R5,A
   \   000133   8A82         MOV       DPL,R2
   \   000135   8B83         MOV       DPH,R3
   \   000137   12....       LCALL     ??Subroutine198_0 & 0xFFFF
   \                     ??CrossCallReturnLabel_378:
   \   00013A   12....       LCALL     `??APSME_UnBindRequest::?relay`; Banked call to: APSME_UnBindRequest
   \   00013D   7401         MOV       A,#0x1
   \   00013F   12....       LCALL     ?DEALLOC_XSTACK8
   \   000142   E9           MOV       A,R1
   \   000143   85..82       MOV       DPL,?XSP + 0
   \   000146   85..83       MOV       DPH,?XSP + 1
   \   000149   7007         JNZ       ??ZDO_ProcessBindUnbindReq_9
   1178                  {
   1179                    bindStat = ZDP_SUCCESS;
   \   00014B   E4           CLR       A
   \   00014C   F0           MOVX      @DPTR,A
   1180          
   1181                    // Notify to save info into NV
   1182                    ZDApp_NVUpdate();
   \   00014D                ; Setup parameters for call to function ZDApp_NVUpdate
   \   00014D   12....       LCALL     `??ZDApp_NVUpdate::?relay`; Banked call to: ZDApp_NVUpdate
   \   000150   8003         SJMP      ??ZDO_ProcessBindUnbindReq_8
   1183                  }
   1184                  else
   1185                    bindStat = ZDP_NO_ENTRY;
   \                     ??ZDO_ProcessBindUnbindReq_9:
   \   000152   7488         MOV       A,#-0x78
   \                     ??ZDO_ProcessBindUnbindReq_2:
   \   000154   F0           MOVX      @DPTR,A
   1186                }
   1187              }
   1188            }
   1189          
   1190            // Send back a response message
   1191            ZDP_SendData( &(inMsg->TransSeq), &(inMsg->srcAddr),
   1192                         (inMsg->clusterID | ZDO_RESPONSE_BIT), 1, &bindStat,
   1193                         inMsg->SecurityUse );
   \                     ??ZDO_ProcessBindUnbindReq_8:
   \   000155                ; Setup parameters for call to function ZDP_SendData
   \   000155   12....       LCALL     ?Subroutine118 & 0xFFFF
   \                     ??CrossCallReturnLabel_198:
   \   000158   F5..         MOV       ?V2,A
   \   00015A   78..         MOV       R0,#?V2
   \   00015C   12....       LCALL     ?PUSH_XSTACK_I_ONE
   \   00015F   7401         MOV       A,#0x1
   \   000161   12....       LCALL     ?XSTACK_DISP100_8
   \   000164   88..         MOV       ?V2,R0
   \   000166   89..         MOV       ?V3,R1
   \   000168   78..         MOV       R0,#?V2
   \   00016A   12....       LCALL     ?PUSH_XSTACK_I_TWO
   \   00016D   85..82       MOV       DPL,?V4
   \   000170   85..83       MOV       DPH,?V5
   \   000173   E0           MOVX      A,@DPTR
   \   000174   F5..         MOV       ?V2,A
   \   000176   A3           INC       DPTR
   \   000177   E0           MOVX      A,@DPTR
   \   000178   4480         ORL       A,#0x80
   \   00017A   F5..         MOV       ?V3,A
   \   00017C   78..         MOV       R0,#?V2
   \   00017E   12....       LCALL     ?PUSH_XSTACK_I_TWO
   \   000181   12....       LCALL     ?Subroutine116 & 0xFFFF
   \                     ??CrossCallReturnLabel_194:
   \   000184   12....       LCALL     ?DEALLOC_XSTACK8
   1194          }
   \   000187   740C         MOV       A,#0xc
   \   000189   12....       LCALL     ?DEALLOC_XSTACK8
   \   00018C   7F09         MOV       R7,#0x9
   \   00018E   02....       LJMP      ?BANKED_LEAVE_XDATA

   \                                 In  segment BANKED_CODE, align 1, keep-with-next
   \                     ?Subroutine116:
   \   000000   7901         MOV       R1,#0x1
   \   000002   E5..         MOV       A,?V0
   \   000004   2402         ADD       A,#0x2
   \   000006   FC           MOV       R4,A
   \   000007   E4           CLR       A
   \   000008   35..         ADDC      A,?V1
   \   00000A   FD           MOV       R5,A
   \   00000B   E5..         MOV       A,?V0
   \   00000D   240F         ADD       A,#0xf
   \   00000F   FA           MOV       R2,A
   \   000010   E4           CLR       A
   \   000011   35..         ADDC      A,?V1
   \   000013   FB           MOV       R3,A
   \   000014   12....       LCALL     `??ZDP_SendData::?relay`; Banked call to: ZDP_SendData
   \   000017   7405         MOV       A,#0x5
   \   000019   22           RET

   \                                 In  segment BANKED_CODE, align 1, keep-with-next
   \                     ?Subroutine104:
   \   000000   12....       LCALL     `??NLME_GetExtAddr::?relay`; Banked call to: NLME_GetExtAddr
   \   000003   8A..         MOV       ?V2,R2
   \   000005   8B..         MOV       ?V3,R3
   \   000007   AC..         MOV       R4,?V2
   \   000009   AD..         MOV       R5,?V3
   \   00000B   22           RET

   \                                 In  segment BANKED_CODE, align 1, keep-with-next
   \                     ?Subroutine15:
   \   000000   F0           MOVX      @DPTR,A
   \   000001                ; Setup parameters for call to function APSME_BindRequest
   \   000001   8C82         MOV       DPL,R4
   \   000003   8D83         MOV       DPH,R5
   \   000005   22           RET

   \                                 In  segment BANKED_CODE, align 1, keep-with-next
   \                     ?Subroutine118:
   \   000000   E5..         MOV       A,?V0
   \   000002   240E         ADD       A,#0xe
   \   000004   F582         MOV       DPL,A
   \   000006   E4           CLR       A
   \   000007   35..         ADDC      A,?V1
   \   000009   F583         MOV       DPH,A
   \   00000B   E0           MOVX      A,@DPTR
   \   00000C   22           RET
   1195          #endif // REFLECTOR
   1196          
   1197          /*********************************************************************
   1198           * @fn      ZDO_UpdateAddrManager
   1199           *
   1200           * @brief   Update the Address Manager.
   1201           *
   1202           * @param   nwkAddr - network address
   1203           * @param   extAddr - extended address
   1204           *
   1205           * @return  none
   1206           */

   \                                 In  segment BANKED_CODE, align 1, keep-with-next
   1207          void ZDO_UpdateAddrManager( uint16 nwkAddr, uint8 *extAddr )
   \                     ZDO_UpdateAddrManager:
   1208          {
   \   000000   C082         PUSH      DPL
   \   000002   C083         PUSH      DPH
   \   000004                ; Saved register size: 2
   \   000004                ; Auto size: 13
   \   000004   74F3         MOV       A,#-0xd
   \   000006   12....       LCALL     ?ALLOC_XSTACK8
   1209            AddrMgrEntry_t addrEntry;
   1210          
   1211            // Update the address manager
   1212            addrEntry.user = ADDRMGR_USER_DEFAULT;
   \   000009   85..82       MOV       DPL,?XSP + 0
   \   00000C   85..83       MOV       DPH,?XSP + 1
   \   00000F   E4           CLR       A
   \   000010   F0           MOVX      @DPTR,A
   1213            addrEntry.nwkAddr = nwkAddr;
   \   000011   04           INC       A
   \   000012   12....       LCALL     ?XSTACK_DISP0_8
   \   000015   12....       LCALL     ??Subroutine192_0 & 0xFFFF
   1214            AddrMgrExtAddrSet( addrEntry.extAddr, extAddr );
   \                     ??CrossCallReturnLabel_334:
   \   000018                ; Setup parameters for call to function AddrMgrExtAddrSet
   \   000018   7403         MOV       A,#0x3
   \   00001A   12....       LCALL     ?XSTACK_DISP0_8
   \   00001D   AA82         MOV       R2,DPL
   \   00001F   AB83         MOV       R3,DPH
   \   000021   12....       LCALL     `??AddrMgrExtAddrSet::?relay`; Banked call to: AddrMgrExtAddrSet
   1215            AddrMgrEntryUpdate( &addrEntry );
   \   000024                ; Setup parameters for call to function AddrMgrEntryUpdate
   \   000024   AA..         MOV       R2,?XSP + 0
   \   000026   AB..         MOV       R3,?XSP + 1
   \   000028   12....       LCALL     `??AddrMgrEntryUpdate::?relay`; Banked call to: AddrMgrEntryUpdate
   1216          }
   \   00002B   740D         MOV       A,#0xd
   \   00002D   12....       LCALL     ?DEALLOC_XSTACK8
   \   000030   02....       LJMP      ?Subroutine0 & 0xFFFF
   1217          
   1218          /*********************************************************************
   1219           * @fn      ZDO_ProcessServerDiscReq
   1220           *
   1221           * @brief   Process the Server_Discovery_req message.
   1222           *
   1223           * @param   inMsg  - incoming message (request)
   1224           *
   1225           * @return  none
   1226           */

   \                                 In  segment BANKED_CODE, align 1, keep-with-next
   1227          void ZDO_ProcessServerDiscReq( zdoIncomingMsg_t *inMsg )
   \                     ZDO_ProcessServerDiscReq:
   1228          {
   \   000000                REQUIRE ?V0
   \   000000                REQUIRE ?V1
   \   000000   74F6         MOV       A,#-0xa
   \   000002   12....       LCALL     ?BANKED_ENTER_XDATA
   \   000005                ; Saved register size: 10
   \   000005                ; Auto size: 0
   \   000005   12....       LCALL     ?Subroutine80 & 0xFFFF
   1229            uint16 serverMask = BUILD_UINT16( inMsg->asdu[0], inMsg->asdu[1] );
   1230            uint16 matchMask = serverMask & ZDO_Config_Node_Descriptor.ServerMask;
   \                     ??CrossCallReturnLabel_130:
   \   000008   F9           MOV       R1,A
   \   000009   EA           MOV       A,R2
   \   00000A   F8           MOV       R0,A
   \   00000B   90....       MOV       DPTR,#ZDO_Config_Node_Descriptor + 8
   \   00000E   E0           MOVX      A,@DPTR
   \   00000F   58           ANL       A,R0
   \   000010   F5..         MOV       ?V0,A
   \   000012   A3           INC       DPTR
   \   000013   E0           MOVX      A,@DPTR
   \   000014   59           ANL       A,R1
   \   000015   F5..         MOV       ?V1,A
   1231          
   1232            if ( matchMask )
   \   000017   E5..         MOV       A,?V0
   \   000019   45..         ORL       A,?V1
   \   00001B   6026         JZ        ??ZDO_ProcessServerDiscReq_0
   1233            {
   1234              ZDP_ServerDiscRsp( inMsg->TransSeq, &(inMsg->srcAddr), ZSUCCESS,
   1235                          ZDAppNwkAddr.addr.shortAddr, matchMask, inMsg->SecurityUse );
   \   00001D                ; Setup parameters for call to function ZDP_ServerDiscRsp
   \   00001D   78..         MOV       R0,#?V0
   \   00001F   12....       LCALL     ?PUSH_XSTACK_I_TWO
   \   000022   90....       MOV       DPTR,#ZDAppNwkAddr
   \   000025   12....       LCALL     ?PUSH_XSTACK8_X_TWO
   \   000028   12....       LCALL     ?Subroutine105 & 0xFFFF
   1236            }
   \                     ??CrossCallReturnLabel_402:
   \   00002B   FD           MOV       R5,A
   \   00002C   7C00         MOV       R4,#0x0
   \   00002E   EE           MOV       A,R6
   \   00002F   12....       LCALL     ?Subroutine122 & 0xFFFF
   \                     ??CrossCallReturnLabel_207:
   \   000032   3F           ADDC      A,R7
   \   000033   FB           MOV       R3,A
   \   000034   EE           MOV       A,R6
   \   000035   240F         ADD       A,#0xf
   \   000037   12....       LCALL     ??Subroutine199_0 & 0xFFFF
   \                     ??CrossCallReturnLabel_397:
   \   00003A   F9           MOV       R1,A
   \   00003B   12....       LCALL     `??ZDP_ServerDiscRsp::?relay`; Banked call to: ZDP_ServerDiscRsp
   \   00003E   7404         MOV       A,#0x4
   \   000040   12....       LCALL     ?DEALLOC_XSTACK8
   1237          }
   \                     ??ZDO_ProcessServerDiscReq_0:
   \   000043   02....       LJMP      ??Subroutine188_0 & 0xFFFF

   \                                 In  segment BANKED_CODE, align 1, keep-with-next
   \                     ?Subroutine122:
   \   000000   2402         ADD       A,#0x2
   \   000002   FA           MOV       R2,A
   \   000003   E4           CLR       A
   \   000004   22           RET

   \                                 In  segment BANKED_CODE, align 1, keep-with-next
   \                     ?Subroutine80:
   \   000000   12....       LCALL     ?Subroutine157 & 0xFFFF
   \                     ??CrossCallReturnLabel_271:
   \   000003   22           RET
   1238          
   1239          /*********************************************************************
   1240           * Call Back Functions from APS  - API
   1241           */
   1242          
   1243          /*********************************************************************
   1244           * @fn          ZDO_EndDeviceTimeoutCB
   1245           *
   1246           * @brief       This function handles the binding timer for the End
   1247           *              Device Bind command.
   1248           *
   1249           * @param       none
   1250           *
   1251           * @return      none
   1252           */

   \                                 In  segment BANKED_CODE, align 1, keep-with-next
   1253          void ZDO_EndDeviceTimeoutCB( void )
   \                     ZDO_EndDeviceTimeoutCB:
   1254          {
   \   000000                REQUIRE ?V0
   \   000000                REQUIRE ?V1
   \   000000   74F6         MOV       A,#-0xa
   \   000002   12....       LCALL     ?BANKED_ENTER_XDATA
   \   000005                ; Saved register size: 10
   \   000005                ; Auto size: 2
   \   000005   74FE         MOV       A,#-0x2
   \   000007   12....       LCALL     ?ALLOC_XSTACK8
   1255          #if defined ( REFLECTOR )
   1256            byte stat;
   1257            if ( ZDO_EDBind )
   \   00000A   90....       MOV       DPTR,#ZDO_EDBind
   \   00000D   12....       LCALL     ??Subroutine205_0 & 0xFFFF
   \                     ??CrossCallReturnLabel_414:
   \   000010   7003         JNZ       $+5
   \   000012   02....       LJMP      ??ZDO_EndDeviceTimeoutCB_0 & 0xFFFF
   1258            {
   1259              stat = ZDO_EDBind->status;
   1260          
   1261              // Send the response message to the first sent
   1262              ZDO_SendEDBindRsp( ZDO_EDBind->SrcTransSeq, &(ZDO_EDBind->SrcAddr),
   1263                                  stat, ZDO_EDBind->SecurityUse );
   \   000015   E8           MOV       A,R0
   \   000016   2416         ADD       A,#0x16
   \   000018   F582         MOV       DPL,A
   \   00001A   E4           CLR       A
   \   00001B   39           ADDC      A,R1
   \   00001C   F583         MOV       DPH,A
   \   00001E   E0           MOVX      A,@DPTR
   \   00001F   85..82       MOV       DPL,?XSP + 0
   \   000022   85..83       MOV       DPH,?XSP + 1
   \   000025   12....       LCALL     ?Subroutine43 & 0xFFFF
   \                     ??CrossCallReturnLabel_71:
   \   000028   F583         MOV       DPH,A
   \   00002A   8882         MOV       DPL,R0
   \   00002C   E0           MOVX      A,@DPTR
   \   00002D   C0E0         PUSH      A
   \   00002F   7401         MOV       A,#0x1
   \   000031   12....       LCALL     ?XSTACK_DISP0_8
   \   000034   D0E0         POP       A
   \   000036   12....       LCALL     ?Subroutine43 & 0xFFFF
   \                     ??CrossCallReturnLabel_70:
   \   000039   C8           XCH       A,R0
   \   00003A   2415         ADD       A,#0x15
   \   00003C   12....       LCALL     ?Subroutine132 & 0xFFFF
   \                     ??CrossCallReturnLabel_232:
   \   00003F   12....       LCALL     ?PUSH_XSTACK_I_ONE
   \   000042   7401         MOV       A,#0x1
   \   000044   12....       LCALL     ?XSTACK_DISP100_8
   \   000047   88..         MOV       ?V0,R0
   \   000049   89..         MOV       ?V1,R1
   \   00004B   78..         MOV       R0,#?V0
   \   00004D   12....       LCALL     ?PUSH_XSTACK_I_TWO
   \   000050   75..20       MOV       ?V0,#0x20
   \   000053   75..80       MOV       ?V1,#-0x80
   \   000056   78..         MOV       R0,#?V0
   \   000058   12....       LCALL     ?PUSH_XSTACK_I_TWO
   \   00005B   7901         MOV       R1,#0x1
   \   00005D   90....       MOV       DPTR,#ZDO_EDBind
   \   000060   E0           MOVX      A,@DPTR
   \   000061   29           ADD       A,R1
   \   000062   FC           MOV       R4,A
   \   000063   A3           INC       DPTR
   \   000064   E0           MOVX      A,@DPTR
   \   000065   3400         ADDC      A,#0x0
   \   000067   FD           MOV       R5,A
   \   000068   7406         MOV       A,#0x6
   \   00006A   12....       LCALL     ?XSTACK_DISP101_8
   \   00006D   12....       LCALL     ??Subroutine203_0 & 0xFFFF
   \                     ??CrossCallReturnLabel_407:
   \   000070   12....       LCALL     ?DEALLOC_XSTACK8
   \   000073                ; Setup parameters for call to function HalLcdWriteString
   \   000073   7901         MOV       R1,#0x1
   \   000075   7A..         MOV       R2,#`?<Constant "End Device Bind">` & 0xff
   \   000077   7B..         MOV       R3,#(`?<Constant "End Device Bind">` >> 8) & 0xff
   \   000079   12....       LCALL     `??HalLcdWriteString::?relay`; Banked call to: HalLcdWriteString
   \   00007C   85..82       MOV       DPL,?XSP + 0
   \   00007F   85..83       MOV       DPH,?XSP + 1
   \   000082   E0           MOVX      A,@DPTR
   \   000083   7902         MOV       R1,#0x2
   \   000085   7006         JNZ       ??ZDO_EndDeviceTimeoutCB_1
   \   000087                ; Setup parameters for call to function HalLcdWriteString
   \   000087   7A..         MOV       R2,#`?<Constant "Success Sent">` & 0xff
   \   000089   7B..         MOV       R3,#(`?<Constant "Success Sent">` >> 8) & 0xff
   \   00008B   8004         SJMP      ??ZDO_EndDeviceTimeoutCB_2
   \                     ??ZDO_EndDeviceTimeoutCB_1:
   \   00008D                ; Setup parameters for call to function HalLcdWriteString
   \   00008D   7A..         MOV       R2,#`?<Constant "Timeout">` & 0xff
   \   00008F   7B..         MOV       R3,#(`?<Constant "Timeout">` >> 8) & 0xff
   \                     ??ZDO_EndDeviceTimeoutCB_2:
   \   000091   12....       LCALL     `??HalLcdWriteString::?relay`; Banked call to: HalLcdWriteString
   1264          
   1265              ZDO_RemoveEndDeviceBind();
   \   000094   90....       MOV       DPTR,#ZDO_EDBind
   \   000097   12....       LCALL     ??Subroutine205_0 & 0xFFFF
   \                     ??CrossCallReturnLabel_415:
   \   00009A   602C         JZ        ??ZDO_EndDeviceTimeoutCB_0
   \   00009C   E8           MOV       A,R0
   \   00009D   2410         ADD       A,#0x10
   \   00009F   F582         MOV       DPL,A
   \   0000A1   E4           CLR       A
   \   0000A2   39           ADDC      A,R1
   \   0000A3   12....       LCALL     ??Subroutine194_0 & 0xFFFF
   \                     ??CrossCallReturnLabel_344:
   \   0000A6   6003         JZ        ??ZDO_EndDeviceTimeoutCB_3
   \   0000A8                ; Setup parameters for call to function osal_mem_free
   \   0000A8   12....       LCALL     `??osal_mem_free::?relay`; Banked call to: osal_mem_free
   \                     ??ZDO_EndDeviceTimeoutCB_3:
   \   0000AB   90....       MOV       DPTR,#ZDO_EDBind
   \   0000AE   12....       LCALL     ??Subroutine209_0 & 0xFFFF
   \                     ??CrossCallReturnLabel_430:
   \   0000B1   2413         ADD       A,#0x13
   \   0000B3   12....       LCALL     ?Subroutine52 & 0xFFFF
   \                     ??CrossCallReturnLabel_346:
   \   0000B6   6003         JZ        ??ZDO_EndDeviceTimeoutCB_4
   \   0000B8                ; Setup parameters for call to function osal_mem_free
   \   0000B8   12....       LCALL     `??osal_mem_free::?relay`; Banked call to: osal_mem_free
   \                     ??ZDO_EndDeviceTimeoutCB_4:
   \   0000BB                ; Setup parameters for call to function osal_mem_free
   \   0000BB   90....       MOV       DPTR,#ZDO_EDBind
   \   0000BE   12....       LCALL     ?Subroutine71 & 0xFFFF
   \                     ??CrossCallReturnLabel_117:
   \   0000C1   90....       MOV       DPTR,#ZDO_EDBind
   \   0000C4   E4           CLR       A
   \   0000C5   F0           MOVX      @DPTR,A
   \   0000C6   A3           INC       DPTR
   \   0000C7   F0           MOVX      @DPTR,A
   1266            }
   1267          #endif  // REFLECTOR
   1268          }
   \                     ??ZDO_EndDeviceTimeoutCB_0:
   \   0000C8   02....       LJMP      ?Subroutine2 & 0xFFFF

   \                                 In  segment BANKED_CODE, align 1, keep-with-next
   \                     ?Subroutine52:
   \   000000   F582         MOV       DPL,A
   \   000002   E4           CLR       A
   \   000003   38           ADDC      A,R0
