:020000040000FA
:06000000020B88020270F1
:03002B0002094285
:030033000206E3DF
:030053000201A502
:03006B000206BDCD
:100083000202040100F0FF0700080000FFFF000068
:10009300070400000F010147726F757000FF040031
:1000A300100502640A2FAC092FAC09C0C1C2C3C436
:1000B300C5C6C7C8C9CACBCCCDCECF5A69674265BE
:1000C30065416C6C69616E636530390100FFFFF255
:1000D300E0A1610000000000016388B00CB60CC20F
:1000E3000CBC0C0020FD000206FFFF015357343AFD
:1000F3002048656C702020202020202000CC140094
:1001030000000000000000000000000000000000EC
:10011300000000000010202020202020202020208C
:10012300202020202020010804010001000236883D
:1001330001618801040200001517000000E80300B4
:1001430000FFFF8D170103E803000064006400B89B
:1001530001A0BB0D00A0BB0D0002020207040101B8
:1001630001051E02051E020A0A010108090801030E
:10017300B80B02803E0102FEFFE8030A050001D12D
:10018300160A011401E00105030101FF0F10FEFF30
:100193004D2B00000000212A00000000FF0000009A
:1001A300FF00C0E074F1120487A2AFE433F509D273
:1001B300AF85A708AFA1EF5508FE74105E60061265
:1001C3000E9C75A1EF74085E6008120EA275A1F76C
:1001D3008024EFA2E092F0E508A2E082F0501790AD
:1001E3006198E0F89003B7E0C398A2D265D033508A
:1001F30002E8F075A1FEE509A2E092AF7F020204D6
:10020300E6C0E074F2120487A2AFE433FED2AF90EB
:1002130061A4E0F8759B00E5915854086008759156
:10022300F7120EF08023E59158541060087591EF92
:10023300120EF68014E591A2E092F0E8A2E082F0BB
:100243005007E0C2E0F01210409061A3E0F8E5E946
:10025300585404600E12101675E9FB906193E0A2E6
:10026300E640F2EEA2E092AF7F010204E6C0E07442
:10027300F2120487A2AFE433FED2AF9061A5E0F897
:10028300E5BF585404600675BFFB12105880D4C3F1
:10029300E498F8E499F91202D38026C3E49AFAE4C5
:1002A3009BFBE920E7E91202D3E498F8E499F922E9
:1002B300C3E498F8E499F91202D3E498F8E499F9BD
:1002C300C3E49AFAE49BFB22EB20E7CFE920E7E0C3
:1002D300B90010BB0008E88AF084F8AAF022E4FB16
:1002E300C8FA22EB70227B10C833C8C933C9335014
:1002F30007C39AC3DBF280069A50012ADBEAC833AC
:10030300F4C8C933F4C9FA2275F008E4C833C8C97C
:1003130033C933C99AC99B5004C92AC93BD5F0ECE8
:10032300FBC833F4C8E4C9FA22080808EAC0E0EBC2
:10033300C0E086F0E7A4FA180986F0E7A42AFA18C1
:100343000986F0E7A42AFA180986F0E7A42AFA191D
:1003530086F0E7A4FBE5F02AFA190886F0E7A42B58
:10036300FBE5F03AFA190886F0E7A42BFBE5F03A2F
:10037300FA18180986F0E7A4C5F02BFBE43AFA193A
:1003830008E7C5F0C6A426F6E5F03BFBE43AFA1805
:1003930086F0E7A4F6E5F00826F6E43B08F6E43A2F
:1003A30008F6D0E0FBD0E0FA22E4CFC0E0E4CEC010
:1003B300E0E4CDC0E0E4CCC0E075F020E626F6082A
:1003C300E633F608E633F608E633F6181818EC3386
:1003D300FCED33FDEE33FEEF33FFC3EC9709ED97EE
:1003E30009EE9709EF97191919400FFFEC97FC09CC
:1003F300ED97FD09EE97FE191906D5F0BFECF70945
:10040300EDF709EEF709EFF7191919D0E0FCD0E081
:10041300FDD0E0FED0E0FF222518C582C0E0E5193B
:1004230034FFC583C0E0E518C3958224F810AF08F4
:100433008583198582188008858319858218D2AF30
:10044300CEF0A3E520F0A37808E608F0A3DEFAEFE8
:10045300F0A3E58124FAF8E608F0A3E608F0A3E6A2
:1004630008F0A30808E608F0A3E608F0A315811531
:1004730081D0E0FED0E0F8158115811581E8C0E058
:10048300EEC0E022C0D02518C582C0E0E51934FFD4
:10049300C583C0E0E518C3958224F310AF088583B4
:1004A300198582188008858319858218D2AFC8F010
:1004B300A3E9F0A3EAF0A3EBF0A37908E709F0A31B
:1004C300D8FAECF0A3EDF0A3EEF0A3EFF0A3D0E0A5
:1004D300F0A3D0E0F0A3D0E0F0A3E520F0A3E5F093
:1004E300F0A322851983851882E0C0E0A3E0F9A375
:1004F300E0FAA3E0FBA37808E0F608A3DFFAE0FC48
:10050300A3E0FDA3E0FEA3E0FFA3E0C0E0A3E0C0FF
:10051300E0A3E0F5D0A3E0F520A3E0A3F5F010AF4E
:10052300088583198582188008858319858218D2E6
:10053300AFD082D083D0E0F8D0E032120C02B90001
:100543000302057DE490030178F179198002F0A399
:10055300D8FCD9FA7AF17B1B900086782079028047
:1005630015E493A3AD82AE838A828B83F0A3AA8220
:10057300AB838D828E83D8E9D9E77582907583C565
:1005830074061208B575821C75832874001208B5A9
:100593000375F0108E1A8F1B85821F85831E8518A5
:1005A30082851983E0CEA3E0CF851F82851E83EB6E
:1005B300C9EAC8EDCBECCAC3E833C8E933C9EA33A7
:1005C300CAEB33CBC3EA9EF51DEB9FF51CB3500476
:1005D300AB1CAA1DEC33CCED33CDD5F0DAAE1AAF9C
:1005E3001B22D083D082ECC0E0EDC0E0E493A3FCF7
:1005F300E493A3FDED4C600D120701EC24FFFCED29
:1006030034FFFD80EFE493A3FCE493A3FDED4C6082
:100613000D12079EEC24FFFCED34FFFD80EFD0E0CC
:10062300FDD0E0FCE493A3C0E0E493C0E022D083D8
:10063300D082E9C0E0E493A3C386F0C5F095F0F956
:1006430008E493A386F0C5F095F0700BE493A3C37D
:10065300994005E9048002A3E475F002A42582F51C
:1006630082E5F03583F583D0E0F9E493A3C0E0E4B9
:1006730093C0E022851983851882E0A3FEE0A3F5E9
:10068300207808E0A3F608DFFAE0A3FFE0A3C0E0C8
:10069300E0A3C0E0E0A3C0E0E0A3C0E0E0A3C0E0CB
:1006A30010AF088582188583198008858218858391
:1006B30019D2AFD083D0820208BBC0E074F2120417
:1006C30087A2AFE433FED2AFE589A2E15003120D56
:1006D300B2758900C2C5EEA2E092AF7F010204E6C3
:1006E300C0E074F2120487A2AFE433FED2AFE58B0D
:1006F300A2E05003120DB2758B00C2E880D8C0E0AF
:10070300C3E49396087401939618400FE4936670BC
:100713000808740193661870007019A3A3C3E493C7
:1007230096087401939618A3A3400DD0E0D0E0D0AF
:10073300E0020621A3A3A3A3A3A3D0E02274048011
:100743000474028000CCC0E0EDC0E0E518C39CCC8B
:10075300AD1950011D10AF068C188D1980068C1829
:100763008D19D2AF120837D0E0FDD0E0FC2274021D
:100773008000CCC0E0EDC0E0E518C39CCCAD1950BF
:10078300011D10AF068C188D1980068C188D19D297
:10079300AF120815D0E0FDD0E0FC22C0E0C0F08825
:1007A300F0E4936670080874019366187000A8F06B
:1007B300A3A3700BD0F0D0E0D0E0D0E0020621A3D9
:1007C300A3D0F0D0E022D083D082CCC0E0E493A3C6
:1007D30060061208581470FAE493A360061209D550
:1007E3001470FAD0E0FCE493A3C0E0E493C0E022E9
:1007F300A2E792D65002F40430F70663F0FF05F047
:10080300B3400384800384F40430D60563F0FF050A
:10081300F022CAC0E0E493A3C582CCC582C583CDD0
:10082300C583F0A3C582CCC582C583CDC583DAE574
:10083300D0E0CA22CAC0E0E0A3C582CCC582C5838A
:10084300CDC583F0A3C582CCC582C583CDC583DA6C
:10085300E6D0E0CA22C0E0E493A3D39C5010E49313
:10086300A3C39C400AD0E0D0E0D0E00207E6A3A3F4
:10087300A3D0E0227009080808226016181818C6C9
:10088300C333C608C633C608C633C608C633C6D57F
:10089300E0EA22C008C3E096F50808A3E096420800
:1008A30008A3E096420808A3E09645087001D3D058
:1008B3000822C09FF59FE473D09F22D083D082C0CB
:1008C3009FE493C0E0740193C0E0740293F59F2208
:1008D300C5822518C582C583351910AF07F519855B
:1008E30082188007F519858218D2AFC58322740454
:1008F300800A74038006740280027401C0E0F40469
:1009030012090CD0E0120BC5222518F58210AF088E
:10091300F518400C15198008F51840021519D2AFC7
:100923008519832200C0D0251810AF08F518500C84
:1009330005198008F51850020519D2AFD0D022C08E
:10094300E0C0D0E8C0E0A8A8D2AFC2C7E8A2E7924F
:10095300AFD0E0F8D0D0D0E032BB0102E722C082B2
:10096300C08389828A83BB0003E08002E493D0833F
:10097300D082226016080808C6C313C618C613C659
:1009830018C613C618C613C6D5E0EA222518F8E41C
:100993003519F9222518FAE43519FB222518FCE448
:1009A3003519FD22C3E0C696F608A3E0C696F608FD
:1009B300A3E0C696F608A3E0C696F622251810AF64
:1009C30008F518400C15198008F51840021519D2BE
:1009D300AF22C0E0E493A36C7009D0E0D0E0D0E094
:1009E3000207E6A3A3D0E022E76670100809E766D2
:1009F300700A0809E76670040809E76622E0667072
:100A03001008A3E066700A08A3E066700408A3E078
:100A13006622C3E09608A3E09608A3E09608A3E045
:100A230096A2D265D03322C3E096F008A3E096F0F5
:100A330008A3E096F008A3E096F022C3E493960897
:100A4300740193960874029396087403939622C3D1
:100A5300E697F60809E697F60809E697F60809E621
:100A630097F622E627F60809E637F60809E637F689
:100A73000809E637F622E026F608A3E036F608A3CF
:100A8300E036F608A3E036F622E493F60874019301
:100A9300F608740293F608740393F622E026F0082E
:100AA300A3E036F008A3E036F008A3E036F022E036
:100AB30056F008A3E056F008A3E056F008A3E0566A
:100AC300F022E046F608A3E046F608A3E046F6085F
:100AD300A3E046F622E647F60809E647F60809E6E4
:100AE30047F60809E647F622700422600D18C6C3CC
:100AF30033C608C633C6D5E0F41822E657F608090C
:100B0300E657F60809E657F60809E657F622E056CF
:100B1300F608A3E056F608A3E056F608A3E056F657
:100B230022E046F008A3E046F008A3E046F008A35D
:100B3300E046F022E4C396F608E496F608E496F657
:100B430008E496F622600D08C6A2E713C618C6137A
:100B5300C6D5E0F322C6F4C608C6F4C608C6F4C672
:100B630008C6F4C622C3E09608A3E09608A3E0965D
:100B730008A3E09622C3E7960809E7960809E796D3
:100B83000809E7962275D00075813F75180175191C
:100B9300030002053EE6F008A3E6F008A3E6F0082A
:100BA300A3E6F022600C08C6C313C618C613C6D545
:100BB300E0F422E0F608A3E0F608A3E0F608A3E0D9
:100BC300F622CAC0E0E6F0A308DAFAD0E0FA22E897
:100BD300F0A3E9F0A3EAF0A3EBF022E0F8A3E0F935
:100BE300A3E0FAA3E0FB22EAF0A3EBF0A3ECF0A36B
:100BF300EDF022E0FAA3E0FBA3E0FCA3E0FD22E595
:100C0300C754F84401F5C77901222518F582E43564
:100C130019F58322C2AF75D69F020000221208BEC7
:100C23002FE0051208BE74E0051208BEF9E00512B4
:100C330008BE45E1051208BED5E1051208BEADE2C6
:100C4300051208BEFEE2051208BE63E3051208BEE4
:100C5300E0E3051208BE16E4051208BE61E40512BE
:100C630008BE87E4051208BE17E5051208BEAEE507
:100C7300051208BEFAE5051208BE2BE6051208BEEA
:100C830062E6051208BEF3E7051208BEBDE80512C9
:100C930008BE97E9051208BE39C4041208BE6CC425
:100CA300041208BEB4C4041208BE87C6041208BEE8
:100CB300DEC8041208BE11C9041208BE01CC041216
:100CC30008BE98CE041208BE35CF041208BE5FD208
:100CD300041208BE2BD3041208BE9CD4041208BE0F
:100CE3001ED5041208BE04D6041208BE3CD8041252
:100CF30008BEBBD8041208BEB1DA041208BEDDDC9C
:100D0300041208BEF5DD041208BEF8DD041208BEA5
:100D13000BDE041208BE58DE041208BE19AA05121F
:100D230008BE9BAE051208BEFFAE051208BE20B07A
:100D3300051208BEE5B3051208BE94B7051208BE36
:100D43006EB9051208BEBCB9051208BE91BB0512E7
:100D530008BEEAD5061208BEFBD5061208BE99D610
:100D6300061208BEFD7F001208BEE77F001208BE10
:100D730053FF041208BE63FF041208BE7BFF041274
:100D830008BEE3FF041208BEEDD2061208BE70D3FC
:100D9300061208BED6D3061208BED4FD011208BE41
:100DA300F3FD011208BE60FE011208BEA5FE01128A
:100DB30008BEFEFE011208BE38A7061208BE4DA7E4
:100DC300061208BE58A8061208BE89A8061208BE55
:100DD300A3A8061208BE19A9061208BEFEA9061288
:100DE30008BE72AA061208BE8CAA061208BEA3AADF
:100DF300061208BEB1AA061208BEC9AA061208BE88
:100E0300DEAA061208BE03AB061208BE53AB0612D7
:100E130008BE0EB3061208BE1CB3061208BE95B375
:100E2300061208BE69B4061208BE3BB6061208BE17
:100E3300DED7061208BECCF8011208BEF8F801127C
:100E430008BE69FB011208BEA9FB011208BEE9FB3B
:100E5300011208BEFDFB011208BE16FC011208BEFA
:100E630007FD011208BEACFD011208BEC0FD011250
:100E730008BE9EFE021208BEC2FE021208BEDBFEC0
:100E8300021208BE0DFF021208BE3DFF021208BE89
:100E93006AFF021208BECCFF021208BEDBFF021279
:100EA30008BEE5FF021208BEF2FF021208BEEBC243
:100EB300061208BE0BC3061208BE4AC3061208BEBA
:100EC30065C3061208BE84C3061208BEEAC306122F
:100ED30008BEF3C3061208BE50C4061208BE5FC4A0
:100EE300061208BE83C4061208BE44C5061208BE15
:100EF30051C5061208BE62C5061208BE53D70612B4
:100F030008BE6BD7061208BE97D7061208BEE9A221
:100F1300061208BE43A4061208BE51A4061208BE58
:100F230064A4061208BE79A4061208BE8EA4061293
:100F330008BEA1A4061208BE15A5061208BE7AA50E
:100F4300061208BE1CA6061208BEE0A6061208BEBC
:100F5300F0A6061208BEFFA6061208BE44FF011241
:100F630008BE68FF011208BE90FF011208BEB8FF59
:100F7300011208BEADCA061208BED4CA061208BEC4
:100F8300F2CA061208BE65CB061208BE68BD061279
:100F930008BE81BD061208BE8DBD061208BEA1BDE6
:100FA300061208BEBFBD061208BEC9BD061208BEA2
:100FB300D3BD061208BEE6BD061208BE6CBE0612FD
:100FC30008BEE1BE061208BE10BF061208BE5EBF11
:100FD300061208BEADBF061208BEC8BF061208BE81
:100FE300D2BF061208BEE3BF061208BE26C0061211
:100FF30008BEB9D6061208BEB194061208BEDB9429
:10100300061208BEF894061208BE0B95061208BE17
:101013002195061208BE7F95061208BEB7950612E3
:1010230008BEAB99061208BEF09A061208BE239BAF
:10103300061208BE869B061208BEE69C061208BE70
:101043000E9D061208BE239D061208BE339D06128E
:1010530008BE779D061208BED29D061208BEE29D09
:10106300061208BEBDD1061208BED7D1061208BEAD
:10107300FFD1061208BE18D2061208BE3CD20612D1
:1010830008BE5AD2061208BE71D2061208BE9FD2FB
:10109300061208BEBAD2061208BE9AD7061208BEB6
:1010A300A0B6061208BEB0B6061208BEB5B7061241
:1010B30008BEE7B7061208BE17B8061208BE3AB84C
:1010C300061208BE51B8061208BE8BB8061208BE37
:1010D300F0B8061208BE32B9061208BE71B906127C
:1010E30008BEA2B9061208BECDB9061208BEF6FFA5
:1010F300031208BEF9FF031208BEFCFF031208BE69
:101103002AC8061208BE4AC8061208BE5EC90612DD
:1011130008BE7FCA061208BE34CF061208BE6ACFC5
:10112300061208BE84CF061208BEC6CF061208BE3A
:10113300D6CF061208BE70D0061208BE7AD00612A9
:1011430008BEE48A061208BEEE8A061208BE198B90
:10115300061208BE628B061208BECB8B061208BEAF
:10116300E88B061208BE018C061208BEA38C061279
:1011730008BE228F061208BE2B8F061208BE708F80
:10118300061208BE998F061208BEA68F061208BE65
:101193001790061208BEA290061208BEF09006121F
:1011A30008BE2E91061208BE9391061208BEB69190
:1011B300061208BE2D92061208BE8492061208BEBD
:1011C300BF92061208BEF492061208BE06930612D8
:1011D30008BE1893061208BE3793061208BE409342
:1011E300061208BEFB93061208BE4794061208BEF9
:1011F3008594061208BE7DD0061208BE8D7F0012AC
:1012030008BEFECC061208BE34CD061208BE7CCD45
:10121300061208BED5CE061208BE6396051208BE96
:101223008797051208BEC197051208BE6B99051270
:1012330008BE9599051208BE0A9C051208BE4A9C71
:10124300051208BEE09D051208BE7D9E051208BE6C
:10125300CF9E051208BE729F051208BEAA9F0512F3
:1012630008BEEC9F051208BE5BA1051208BEA9A229
:10127300051208BEDAA4051208BE08A5051208BEA9
:101283002FA5051208BE38A5051208BE88A50512AC
:1012930008BE1AA6051208BE49A9051208BECCA9A4
:1012A300051208BEDDFF011208BEF3FF011208BEDE
:1012B300D4FB031208BEEAFB031208BE8EFC031222
:1012C30008BECDFC031208BEEAFC031208BE1BFDD8
:1012D300031208BE68FD031208BE9BFD031208BE7D
:1012E300D6FD031208BECBFF031208BEEFD30612CE
:1012F30008BE4ED4061208BE8CD4061208BECDD446
:10130300061208BE16D6031208BE22D6031208BE62
:10131300AED7031208BEB8D7031208BE4AD80312C9
:1013230008BE86D8031208BE40D9031208BE90D95E
:10133300031208BEFBD9031208BE69DA031208BE02
:10134300A1DA031208BE21DB031208BEE2DC03129A
:1013530008BED9DE031208BEDBDF031208BE88E035
:10136300031208BE3EE5031208BE38E6031208BEA8
:10137300D2E6031208BEF7E6031208BE93E7031290
:1013830008BEA8E7031208BECCE7031208BE3DE877
:10139300031208BE5AE8031208BE84E8031208BE0B
:1013A3000CEA031208BEB2EA031208BEF9EA0312FA
:1013B30008BE5EEB031208BEDFEB031208BE43EC6C
:1013C300031208BE9FEC031208BE35ED031208BEDC
:1013D3009FED031208BED3ED031208BE37EE0312CE
:1013E30008BE90EF031208BE1FF1031208BECDF131
:1013F300031208BEFBF1031208BE00F4031208BE79
:101403008EF6031208BE9AF7031208BE8DE102128C
:1014130008BE1CE2021208BE92E2021208BE71E389
:10142300021208BE6CE4021208BEE9E4021208BE0E
:1014330027E6021208BEC2E6021208BE99E80212AB
:1014430008BE88E9021208BEA5E9021208BE87EAAF
:10145300021208BEC8EB021208BE6AEC021208BEF2
:101463009CEF021208BE98F1021208BE22F2021289
:1014730008BE7CF2021208BECAF2021208BE45F38D
:10148300021208BEC2F3021208BE03F4021208BE1F
:1014930081FA021208BED2FC021208BEA9FD021292
:1014A30008BE31C0061208BE8DC0061208BE9AC11E
:1014B300061208BE2EC2061208BE88C2061208BE55
:1014C300A8C2061208BED5C2061208BED8C20612AA
:1014D30008BE79D8061208BEA9CE051208BE33CFBE
:1014E300051208BEA6CF051208BE0ED3051208BE0C
:1014F30091D4051208BEB7D6051208BE07D8051247
:1015030008BE6FDA051208BE95DA051208BED7DAEF
:10151300051208BE52DB051208BEFDDB051208BE2C
:101523000EDC051208BE15DC051208BE92DC05129E
:1015330008BEE3DC051208BEEFD4061208BE3AD596
:10154300061208BEBDDE041208BEECDE041208BE9D
:101553006DDF041208BEBBE0041208BE95E104125D
:1015630008BE1CE3041208BE41E3041208BE93E361
:10157300041208BE15E4041208BE56E4041208BEA1
:1015830069E4041208BEC5E4041208BE02E50412AD
:1015930008BEE8E5041208BE23E6041208BE6DE7A0
:1015A300041208BE40E8041208BE84E9041208BE0F
:1015B3006BEA041208BEEAEA041208BE18EB04122E
:1015C30008BE32EB041208BE79EB041208BE99EB95
:1015D300041208BE61EC041208BE82ED041208BEB8
:1015E300DAED041208BE1EEE041208BE14EF041254
:1015F30008BEAAF1041208BEC9F1041208BE40F2E3
:10160300041208BE65F2041208BEE2F2041208BE18
:101613009DF3041208BEDAF3041208BE53F4041255
:1016230008BE47F5041208BE4AF5041208BE54F575
:10163300041208BE5EF5041208BE71F5041208BE5A
:10164300DBF5041208BE11F6041208BE39F60412C3
:1016530008BE60F6041208BE84F6041208BEBFF684
:10166300041208BE31F7041208BE59F7041208BE6B
:1016730063F7041208BE9FF7041208BED4F70412DE
:1016830008BEEAF7041208BE04D7061208BE1CD728
:10169300061208BEFA7F001208BE1DF8041208BE27
:1016A3006CF8041208BE0CFA041208BEC7FB04123D
:1016B30008BE09FC041208BE28FD041208BE32FE4F
:1016C300041208BE54FE041208BE9EFE041208BE95
:1016D3001FFF041208BE0080041208BE1F800412FC
:1016E30008BEBC80041208BE0581041208BE6C81CA
:1016F300041208BEE481041208BE4B82041208BE21
:101703004E82041208BE9182041208BE158304128D
:1017130008BEA083041208BEA383041208BE338448
:10172300041208BE7684041208BEF588041208BEAB
:10173300868A041208BED38A041208BE338E0412AA
:1017430008BE678F041208BE2F90041208BECE9005
:10175300041208BE1391041208BE8993041208BE32
:101763009C95041208BE7296041208BEF5980412E2
:1017730008BE6199041208BE529A041208BE819DE4
:10178300041208BE919D041208BEFD9E041208BEF9
:101793009C9F041208BEEAA0041208BE1BA20412F6
:1017A30008BE7BA3041208BEDCA3041208BE92A4E5
:1017B300041208BEF66A001208BE966B001208BE39
:1017C300006C001208BE826C001208BED86C0012B6
:1017D30008BE256D001208BE846D001208BE886E17
:1017E300001208BE9D71001208BECF72001208BE1F
:1017F3005073001208BE4F75001208BEFC7500122C
:1018030008BE9A76001208BE6577001208BE4A78B1
:10181300001208BE157A001208BE7D7B001208BEB6
:101823008D7C001208BE2F7D001208BE4E7E001272
:1018330008BE48A5041208BEC4A5041208BE0CA61F
:10184300041208BE4AA6041208BE91A6041208BEDA
:10185300DBA6041208BE39A7041208BE93A704121C
:1018630008BE02A9041208BE29A9041208BE1EAAB2
:10187300041208BE30AB041208BE8BAB041208BEC0
:10188300A2AC041208BECAAC041208BE0EAE041207
:1018930008BE1FAE041208BE37AE041208BE47AF1F
:1018A300041208BE51B0041208BE5AB0041208BE96
:1018B30071B0041208BEA3B0041208BEC0B0041273
:1018C30008BED7B0041208BEF9B1041208BEFDB2B7
:1018D300041208BE25B3041208BE2FB3041208BEB7
:1018E3009AB3041208BE79B4041208BED5B4041224
:1018F30008BE56B5041208BEA0B5041208BE1AB637
:10190300041208BED8B7041208BECEB8041208BE2B
:101913001CB9041208BE98BA041208BE19BC0412FA
:1019230008BE74BE041208BE1AC0041208BED1C099
:10193300041208BE37C1041208BE53C1041208BE04
:1019430043C2041208BE2FC3041208BE9CC3041270
:1019530008BE5EFC051208BECABB061208BE90BCD8
:10196300061208BEF4BC061208BE63AF061208BE18
:1019730081AF061208BEC5AF061208BEEBAF061252
:1019830008BE11B0061208BE29B0061208BE8CB0FC
:10199300061208BECEB0061208BEF0B1061208BE8B
:1019A300F9B1061208BE02B2061208BE0BB2061245
:1019B30008BE15B2061208BE129E061208BE2DA25C
:1019C300061208BE3BA2061208BE13E0051208BEAB
:1019D300B7C6061208BE4DD8061208BE16D80612A0
:1019E30008BEA4D8061208BED8FF031208BE0080A2
:1019F300031208BE3380031208BE9A80031208BE86
:101A03002681031208BECD81031208BE158203127C
:101A130008BE3A82031208BE5382031208BE7982BB
:101A2300031208BEB782031208BE0683031208BE60
:101A33002F83031208BE8E83031208BE678403122A
:101A430008BE1D85031208BE7B85031208BE4186AE
:101A5300031208BE8B86031208BEE286031208BE79
:101A63004D87031208BE8B87031208BEE18703125A
:101A730008BEFD87031208BE2888031208BE378AF2
:101A8300031208BE7D8B031208BEA98B031208BE86
:101A9300DD8B031208BEFE8B031208BE0D8C0312EE
:101AA30008BE188C031208BEC88C031208BE378DFB
:101AB300031208BEE48D031208BE208E031208BE73
:101AC300DE8E031208BEEB8F031208BE389003129A
:101AD30008BEC790031208BE2191031208BE669187
:101AE300031208BEF593031208BE4F95031208BEF6
:101AF3009B98031208BE7999031208BE509A0312E9
:101B030008BE799A031208BEEA9A031208BE809BA4
:101B1300031208BE6F9C031208BE949C031208BEF6
:101B2300F79D031208BE159E031208BE289E0312DA
:101B330008BED49E031208BEE49E031208BEDA9FB9
:101B4300031208BE56A0031208BE8FA0031208BEDC
:101B53009DA1031208BED9A1031208BEB4A30312A8
:101B630008BE95A7031208BE9FA7031208BEB3A71A
:101B7300031208BEBDA7031208BEC7A7031208BEFF
:101B8300D1A7031208BEEAA7031208BEF4A70312E3
:101B930008BE64A8031208BE6FA8031208BE97A864
:101BA300031208BEA2A8031208BEF0A8031208BEBF
:101BB300FAA8031208BE05A9031208BE29A9031235
:101BC30008BE4DA9031208BEAAA9031208BEF0A9B4
:101BD300031208BE0CAA031208BE93AA031208BE7E
:101BE300CAAA031208BE09AB031208BE56AB0312FE
:101BF30008BED8AB031208BE84AC031208BE60AEA5
:101C0300031208BECEAE031208BEFAAF031208BE1B
:101C130020B0031208BE79B1031208BED1B4031277
:101C230008BE0AB7031208BEE8B8031208BE81B99A
:101C3300031208BEA6BB031208BE5ABC031208BE99
:101C430093BC031208BEF9BC031208BE03BD031202
:101C530008BE2DBF031208BE38C0031208BE80C0E1
:101C6300031208BE34C1031208BED7C2031208BE52
:101C73005EC4031208BE7EC4031208BED1C403129D
:101C830008BED1C5031208BEF9C5031208BE5CC65F
:101C9300031208BE3FC7031208BEB1C7031208BE32
:101CA300C3C8031208BE47C9031208BE45CA0312BC
:101CB30008BEDBCC031208BEFACC031208BE45CE25
:101CC300031208BE13D0031208BE67D0031208BE66
:101CD3001FD1031208BECCD1031208BE25D20312B2
:101CE30008BEEAD2031208BE80D3031208BEE7D3AC
:101CF300031208BE29D4031208BE5AD4031208BE25
:101D0300BAD5031208BE0080021208BE3280021246
:101D130008BE6B80021208BE5682021208BE988269
:101D2300021208BE7C83021208BED483021208BECC
:101D33001785021208BE6385021208BE8F8802123D
:101D430008BE038C021208BE4B8D021208BEE18D41
:101D5300021208BEED8D021208BE2D8E021208BEBD
:101D6300C28F021208BEB690021208BEE0900212A1
:101D730008BE3791021208BE9091021208BE01926A
:101D8300021208BE3694021208BECD95021208BE96
:101D9300A196021208BEE897021208BE409A0212E8
:101DA30008BE119D021208BE209D021208BEA49D0A
:101DB300021208BE599E021208BE9C9E021208BE61
:101DC300E59E021208BE399F021208BE9E9F0212B0
:101DD30008BEFA9F021208BE16A0021208BE48A04F
:101DE300021208BE87A0021208BE6DA1021208BE2D
:101DF3001CA2021208BEA2A4021208BED8A5021297
:101E030008BEBFA6021208BE3FA7021208BE4CAB13
:101E1300021208BE8AAB021208BEF1AB021208BE60
:101E230024AC021208BEB7AC021208BEEAAC02121E
:101E330008BE85AD021208BED3AD021208BEA6AE1F
:101E4300021208BE6DAF021208BE0BB0021208BE2A
:101E530015B3021208BE29B4021208BECFB702128C
:101E630008BED1B8021208BED4B8021208BE03B924
:101E7300021208BE02BB021208BEDBBB021208BE7E
:101E830000BC021208BE7FBD021208BEFEBD0212D4
:101E930008BEF7BE021208BEADBF021208BEBEC125
:101EA300021208BE29C2021208BE71C2021208BE83
:101EB300CCC2021208BEA4C6021208BE99C70212FF
:101EC30008BE93C8021208BE64C9021208BE68CADB
:101ED300021208BE7CCA021208BE90CA021208BED1
:101EE300C6CA021208BEF6CA021208BEB4CC021257
:101EF30008BE44CD021208BEC8CD021208BEB9CF37
:101F0300021208BEE9CF021208BEA8D0021208BE10
:101F130045D1021208BEF0D2021208BEDBD3021270
:101F230008BE1AD4021208BE8CD4021208BED1D540
:101F3300021208BE84D6021208BEB8D6021208BE28
:101F4300D0D6021208BE73D7021208BE61DA02129B
:101F530008BE2CDC021208BE50DC021208BE6EDC86
:101F6300021208BE42DD021208BE6FE1021208BE71
:101F730088AB061208BEC8AB061208BE94AD0612A3
:101F830008BEA3AD061208BE0080051208BEC484B5
:101F9300051208BE1985051208BE5787051208BE2B
:101FA300FB88051208BE8B89051208BEE78B051254
:101FB30008BEEE8D051208BE458E051208BE399087
:101FC300051208BE6B90051208BEA390051208BE49
:101FD300C990051208BE2791051208BE4991051242
:101FE30008BE5091051208BE6891051208BE2C92D6
:101FF300051208BE2393051208BE6B88011208BEA2
:10200300A388011208BEBC8D011208BE028E011204
:1020130008BE548F011208BEC68F011208BE359147
:10202300011208BE2994011208BE4D95011208BE83
:102033006B9F011208BEF49F011208BE51A3011247
:1020430008BE60A4011208BEBBA4011208BE09A603
:10205300011208BEF3A6011208BE9EA9011208BE12
:1020630024AB011208BEB1AB011208BEB4AB01121E
:1020730008BEDFAB011208BE8AAC011208BE7AADFE
:10208300011208BE33AE011208BE51AE011208BEE2
:1020930066AE011208BE8FAE011208BEBCAE0112BD
:1020A30008BEFCB0011208BEC9B1011208BE0EB2CF
:1020B300011208BE85B2011208BE33B3011208BE75
:1020C30065B3011208BEABB3011208BEDEB3011241
:1020D30008BE23B4011208BE74B4011208BE79B459
:1020E300011208BECDB4011208BE36B5011208BEF6
:1020F300FFB5011208BE4AB6011208BEAFB60112FF
:1021030008BE0BB7011208BEA9B7011208BE15BB62
:10211300011208BE30BC011208BEBCBD011208BECC
:10212300DDC0011208BE7FC1011208BE90C40112B6
:1021330008BE4BC5011208BE93C5011208BE42C7B3
:10214300011208BE56C7011208BE60C7011208BEBD
:102153006AC7011208BE76C7011208BE9EC70112E4
:1021630008BE82C9011208BEDBC9011208BEE5C957
:10217300011208BEEFC9011208BE64CA011208BEEB
:10218300AFCA011208BEB0CB011208BE07CC0112C0
:1021930008BE11CD011208BE5ACD011208BE0ACEE7
:1021A300011208BEEDCE011208BEC0CF011208BE57
:1021B30012D1011208BE35D2011208BE2DD301126D
:1021C30008BE45D3011208BE7CD3011208BE86D3D4
:1021D300011208BE91D3011208BEAFD3011208BE8B
:1021E300F7D3011208BE55D4011208BE7CD40112E4
:1021F30008BE8ED4011208BE29D5011208BE5ED5D1
:10220300011208BE50D6011208BE92D6011208BEB2
:1022130076D7011208BE9DD7011208BE0AD8011253
:1022230008BE82D8011208BE06DA011208BE33DBEB
:10223300011208BE08DC011208BECBDC011208BE85
:1022430072DD011208BEB7DE011208BE75DF01128E
:1022530008BEE1DF011208BE9DE0011208BEEEE0F8
:10226300011208BE48E1011208BE19E2011208BEBC
:102273003CE2011208BEFDE2011208BE1FE3011297
:1022830008BE80E3011208BEC8E5011208BECCE611
:10229300011208BE83E7011208BEA4E9011208BEB9
:1022A300EEE9011208BE39EA011208BE94EA0112EE
:1022B30008BE01EB011208BE2FEB011208BE53EB5F
:1022C300011208BE88EB011208BEB5EB011208BE6D
:1022D300FBEB011208BE4FEC011208BEA3EC011286
:1022E30008BEC6ED011208BE66EF011208BEB1EFCB
:1022F300011208BEDAEF011208BE6DF0011208BE2A
:10230300E5F0011208BEF3F0011208BE17F1011245
:1023130008BE6EF1011208BE89F1011208BE46F231
:10232300011208BE72F2011208BEB5F2011208BE14
:1023330018F3011208BE08F5011208BE35F50112A3
:1023430008BE27F6011208BE34F7011208BEEDF7E6
:10235300011208BE70EA051208BEA8EA051208BEFB
:10236300C9EA051208BE0DEB051208BE71EB051292
:1023730008BE7BEB051208BE8BEB051208BEC2EB51
:10238300051208BEBAEF051208BEC8F1051208BE51
:10239300B5F3051208BE4CF4051208BEEEF405129F
:1023A30008BE9B2F001208BE4430001208BE1B312A
:1023B300001208BE2332001208BE4332001208BEC8
:1023C3005B33001208BE1535001208BE88350012B3
:1023D30008BE2536001208BE3C37001208BEA937D6
:1023E300001208BEE437001208BE3938001208BED6
:1023F3007438001208BEC138001208BE51390012E9
:1024030008BEDE39001208BEB33A001208BE8C3B88
:10241300001208BE1A3C001208BE3A3C001208BE65
:10242300673C001208BE983C001208BE6B3D0012C8
:1024330008BE7B3D001208BECA3D001208BED73D50
:10244300001208BEE03D001208BE503E001208BE56
:10245300B03E001208BEFB3E001208BE163F00123B
:1024630008BE3D3F001208BE5A3F001208BE663F39
:10247300001208BE1141001208BE2A41001208BE14
:10248300B341001208BEC641001208BEE541001266
:1024930008BE8042001208BEF043001208BE9745F2
:1024A300001208BE2646001208BE2946001208BEC6
:1024B3009946001208BEB746001208BE5C470012D8
:1024C30008BE9847001208BE9B47001208BE614829
:1024D300001208BEC448001208BEFD48001208BE20
:1024E3007249001208BE9049001208BEDE4900126C
:1024F30008BEB34A001208BE014B001208BE4F4B80
:10250300001208BEDC4B001208BE114C001208BEBC
:10251300464C001208BE544C001208BEB34C0012C5
:1025230008BE2B4D001208BE6C4D001208BEBC4DF8
:10253300001208BEE74D001208BE014E001208BE8D
:102543001B4E001208BEF64E001208BE004F0012CA
:1025530008BE414F001208BE994F001208BEAD4F8E
:10256300001208BEE350001208BEF850001208BE65
:102573008651001208BEEE51001208BEA15200128D
:1025830008BEAC52001208BEFC53001208BE185419
:10259300001208BE6454001208BED354001208BED1
:1025A3000C55001208BE2655001208BE86550012AF
:1025B30008BE2556001208BE7056001208BE3259D6
:1025C300001208BEE859001208BE785A001208BE6D
:1025D300C05C001208BED85C001208BEDB5C0012AF
:1025E30008BEE75C001208BEFB5C001208BE035D78
:1025F300001208BE365D001208BE295E001208BE36
:10260300B45E001208BE475F001208BEC05F00122E
:1026130008BE8460001208BEA660001208BE3F61B7
:10262300001208BE9C61001208BE9F61001208BE22
:102633001962001208BE6563001208BE70640012BE
:1026430008BEFB64001208BE0066001208BEC06626
:10265300001208BEF166001208BE1767001208BE1A
:102663002067001208BE4E67001208BEE66700121C
:1026730008BE9B68001208BE0C69001208BEB3694D
:10268300001208BE3A6A001208BE796A001208BE38
:10269300BC6A001208BE54FC051208BEEAFB051210
:1026A30008BED6FB051208BE2EFB051208BE37FA7C
:1026B300051208BE68F9051208BECEF6051208BE5B
:1026C30018F6051208BEC7F5051208BE91CE05120D
:1026D30008BE84CE051208BE7ACE051208BE07CE08
:1026E300051208BEBBCD051208BEF3CC051208BE09
:1026F300C7CC051208BE87CC051208BEE9C905126E
:1027030008BEE3C7051208BEB0C7051208BE42C71C
:10271300051208BE02C7051208BEEAC6051208BEA6
:10272300DEC6051208BEABC6051208BE89C4051273
:1027330008BE86C4051208BEF9DD051208BE6AC4C8
:10274300051208BECBDD051208BE98DD051208BED2
:102753001CDD051208BE97FF051208BE5FFF0512B8
:1027630008BE0CFF051208BE58C4051208BE25C4D6
:10277300051208BE68C2051208BEB1C1051208BE23
:10278300C4FD051208BEF2C0051208BE4DBF0512F6
:1027930008BEDFBD051208BE5EBD051208BE13BD2F
:1027A300051208BE05FD051208BE7CBC051208BE55
:1027B30040A2061208BE998A061208BE408A061273
:1027C30008BE028A061208BED589061208BEA18970
:1027D300061208BE4089061208BE2889061208BEE2
:1027E300F888061208BECD85061208BEA08306121D
:1027F30008BEA781061208BE2D81061208BEDC8022
:10280300061208BE9680061208BE68FC051208BEB2
:102813000080061208BE25BA0600000080FBE473A0
:102823008F000100F01C870001008D1935000400A2
:10283300B51C25000200B91C26000200BB1C2700A2
:102843000200BD1C28000100C71C29000100C81C90
:1028530084000400661986000100FF1B2A000100A2
:10286300C91C2B000100CA1C2C000100D01C2D0028
:10287300080073192E000100D11C2F000100D21C87
:1028830030000100D31C31000100D41C32000100D0
:102893007B19330001007C1934000100D51C36007C
:1028A30001007D1938000100D61C39000100CF1C3E
:1028B30083000200ED1C630001008819640001001D
:1028C300CB1C65000100CC1C6D000100891971004F
:1028D30008006B1966000100EC1C43000100DD1CBD
:1028E30044000200DE1C45000100E01C460002001B
:1028F300E11C47000800801948000100E31C4B005D
:102903000100E41C04000100EF1CA1000100F31C02
:1029130037000100F21C88000100F11C3C0001009B
:102923007E193D000100D71C49000200E51C670029
:1029330001008A194D000200E71C4E000100E91C4A
:102943004F000200EA1C3E000100DC1C51000100A4
:10295300D81C52000100D91C53000100DB1C540099
:1029630001007F190000000000000001363601015C
:102973000001020100010301000104010606050232
:102983000000070100340801000F090401010D01D3
:1029930000FF0E08000017020000190100FF1A01D2
:1029A30000011B0100FE1C0100081D0200001F01A5
:1029B300000120010001210200002301000F240275
:1029C30000002601000127010008280200FF2A0158
:1029D30000072B0102402C0100002D0100012E01F4
:1029E30000012F0100FF30010B1D310800003A01E7
:1029F30000083B01000F3C0100013D0100FF3E04C4
:102A0300000042040000460400004A0400004E0493
:102A1300000052040000560400005A0400000103A1
:102A230071030103010301030103010322030203F1
:102A3300010310030003000300030003000300036A
:102A430000034203000324030603000300030403FB
:102A530012032503230325032303040304030003B1
:102A6300000300034403000300032303000365037F
:102A73002100350381030003050300030003000362
:102A830000032503230303047104020460041104F7
:102A9300700402040204010402041004610400042B
:102AA30014046304730472046204430400041304EF
:102AB30006040004000404041204000400040004D7
:102AC30000045104640000040004000444040004EE
:102AD3000004000400046504000435048104640058
:102AE3000504000483040004030271023001600240
:102AF300110270020102020202028002100261024C
:102B03003A0041006302730272026202430200024E
:102B13001302380000020002040212020002000243
:102B23000002000204020402370037003C024402A0
:102B33000002390000020002650200023502810230
:102B430000020502820283020002030071003001C9
:102B53006000110070003102200350048000100057
:102B63006100000014006300730072006200430000
:102B73000000130006000000000004001200000023
:102B830000000000000004000400370037003C028E
:102B93004400000000000000000065000000350054
:102BA30081000000050000008300000001017101A5
:102BB3000101010111010101310101010101800143
:102BC300100161013B001400630173017201620192
:102BD30043010001130106013D0135000401120107
:102BE300000100010001000104010401330133016C
:102BF3003C0144013201360000010001650100017E
:102C030035008101000105018201830100012100DA
:102C1300100020810F1C21001100438100002100BE
:102C230012002083101C210013002083111C21009B
:102C330014002083121C2100150043813B03210053
:102C430016001A81131C210017001A81161C21007B
:102C5300200018833D0321002100F183191C21006A
:102C63002200F183291C2100FDFF2181391C000072
:102C7300030020016988000000002001678800002C
:102C830004004201768500000500420187850000AB
:102C93000600420154850000070030016A880000E5
:102CA30010004203831C000011003003E2160000F1
:102CB30012001003941C030000002103E31600001C
:102CC300FDFF21015F880300FDFF21015F883600BE
:102CD3000100060000000F000000000000000000DB
:102CE3000000000003FFFF00000403FFFF0000FFDC
:102CF300FF0FF4010005C4040320000100000B00D2
:102D03000000000000000003010F000000000000AD
:102D130000000000000000000000000000000000B0
:102D2300000000000000000000000000D613F413B0
:102D3300DC132213E213FA13E2130614E81322132B
:102D4300E213FA130000000000000000000000007E
:102D53000000000000000000EE132213000000003A
:102D63000000000000000000000000000000000060
:102D73000000000000000000000000000000000050
:102D83000000000000000000130054171F005A1732
:102D93001F8060170000DE170100DE170200001716
:102DA3000280FA160300061704000C17048012179A
:102DB30005001817060024173100361733003C1797
:102DC3003400421736004817FFFF00000A000000D6
:102DD30002000000040000000800000010000000D2
:102DE30020000000400000008000000000010000FF
:102DF30000020000000400000008000000100000B2
:102E03000020000000400000013620066620086014
:102E1300200B722010B81C023C20055420074220CE
:102E23000C1E200D2A2064CC1AFF000007ECFDFDC8
:102E3300FDECDCDCCCBCACAC9C9C8C7C7C6C6C5C1E
:102E43005C5C4C4C3C3C2C2C1C1C03EAF5E5D5D5B6
:102E5300C5B5A595958585757565655555454535FF
:102E630035252515150500160F00000B150B02005F
:102E730002220F3300000E0F0000000000000000CC
:102E830000000000000000005A6967426565416C5C
:102E93006C69616E63653039C0C1C2C3C4C5C6C73E
:102EA300C8C9CACBCCCDCECF003C40423A3F3F3914
:102EB3002F4730303016181920231A1C1E300003F8
:102EC3004D4C4651181A25050200011916181616FD
:102ED30018230300303017181921301B1D1F300C25
:102EE3000E020B040B0A0708000F02040201010182
:102EF30001090200BE040AE80300000E00E8030013
:102F0300000C0028007F0000000404040005030AED
:102F13000C100C081E080C28FF10000209033C0CBF
:102F2300050815091EE4F0A3F0A3F0A322122F282D
:102F3300F022125CB624081243D322122F4222E05D
:102F4300F508E4F509F50AF50B22E824FBF582E917
:102F530034FFF58322F583122F5E22E0F508A3E008
:102F6300F5092212268474041209277F08020677C2
:102F73007401F09003CFE0640F2274091209277FD4
:102F830004020677A3A3E024F5C39413229003EF6E
:102F9300125F307A147B0022C082C083901AD074EF
:102FA30002F0A37424F0A37414F0A37424F0901A11
:102FB300D474EAF0A37423F0A374E4F0A37423F0AD
:102FC300A37420F0A37424F0A37426F0A37424F054
:102FD300A3741AF0A37424F0A374D2F0A37423F09F
:102FE300901AE074F6F0A37423F0A374FCF0A374B6
:102FF30023F0A374F0F0A37423F0A3742CF0A37450
:1030030024F0901AF1124F9360061253E212121435
:10301300901AEE1248587408F0A3E4F0A3F0901B42
:103023009AF0901AF3F07C0BFDF97AF47B1A1211E3
:103033005A7C0B7D0079007AFF7B1A12115A0246E3
:10304300B074F712041B74F71209BFEAFEEBFF1208
:10305300460E74051231097403F01230DE1230E5A6
:103063002430FCE43FFD8C828D83E08882898312C7
:1030730030F2600812393F74FFF0A3F0EE242EE41F
:103083003F1C1CFD8C828D83A3E0C0E08A828B836E
:10309300124615D0E01230F288828983124EC4247E
:1030A30003125A5F1212FE7408120C0D7403F0908F
:1030B30003E4120744740212099F7903EEFAEFFB4B
:1030C3001225B87402120927E9F5087007EEFAEF22
:1030D300FB12249EA908740902394BEE2402FAE478
:1030E3003F22FB8A828B83123101124AADEE2212F8
:1030F3004EF0123101124AAD8C828D83E0221249C7
:10310300688A828B8322F0A3E4F012311122EE2429
:103113000DF582E43FF5832274F012041BEAFEEB03
:10312300FF8C0C8D0D890B1230DE12495F74101267
:103133000C0DE0F508A3E088828983F0E824FFF50D
:1031430082E9123509E508F0E824FEF582E9123533
:1031530009E50BF09003E9E0C0E0E824FDF582E91E
:10316300123509D0E0F09003E8E0C0E0E824FCF574
:1031730082E9123509D0E0F07412120C0D122F5AA5
:10318300122F4DE509F0E824FAF8E934FFF98882B3
:103193008983E508F0EE2404FCE43FFD88088A8275
:1031A3008B83E0F50E8C828D83E0250EC395081288
:1031B3004EF0124AA9850C82850D83A3A3A3A3A372
:1031C300A3A3A3E064037008124959F0A3E48003A6
:1031D30012350E12310C7409F07508F475091A755D
:1031E3000A0078081208F51234F712114874031212
:1031F30009277508FF7509FF78081208F9AC0CADAB
:103203000D7903EEFAEFFB1225B87402120927E9D0
:10321300F5087007EEFAEFFB12249EA908022F6E41
:10322300C082C083901B10E0C394084004740780DD
:1032330001E08A828B83F033333354F8F90246B0CA
:1032430074F012041B8A088B09890A8C0E8D0F7582
:103253000C00A2AFE433F50BC2AF901B0A804512FA
:10326300333F503D12334E64037036E50824F9F5BD
:1032730008E50934FFF5098E828F83A3A3E02405B3
:10328300FCA3E03400FDAA08AB091212FEE50824F2
:10329300FFF508E50934FFF5097410250CF50C1545
:1032A3000A12371C1269ADE50A6004EE4F70B0E5EF
:1032B3000BA2E092AFA2AFE433F50BC2AF901B0AAF
:1032C3008038124EBB1240B5850882850983124EA1
:1032D300F0123345A3A3E0C0E0E50824FFF582E53F
:1032E30009123509D0E0F0E50824FEF508E50934B4
:1032F300FFF509050C150A12371C123576602112E9
:10330300334E640270F112333FEE40B6124742A2CD
:10331300E550E4850E82850F837401F0E50A70D7CA
:10332300E50BA2E092AF850882850983E50CF0E501
:103333000824FFFAE50934FFFB022F6E12372BA294
:10334300E62212334922124EE5A3228E828F83A3F3
:10335300A312461912561C2274F012041B74F312A2
:1033630009BF7403120C0DE9F07402120C0DEAF09C
:103373008B0B851882851983E4F0041209971223B5
:10338300B4E9F89003CEE0292437F508FA7B00125C
:1033930011788A0C8B0DAE0CAF0DEE4F7003023417
:1033A300EEEE2402F50EE43FF50FA808EE28F8E44C
:1033B3003FF9850E82850F831252939003CEE0F975
:1033C300FAC3E49AFA95E0FB850E82850F83E02A1F
:1033D300F50CA3E03BF50D9003CC122F5A750A00B0
:1033E30078081208F5E9FC7D00AA0CAB0D12114810
:1033F3007403120927AC18AD197401120C0DE0F90E
:10340300E50C24FFFAE50D34FFFB1223BA8A828B05
:1034130083E4F0E50BC454F0F9901B9BE0C4333311
:1034230054C0F89003C8E0A2E0E4331313484944BE
:103433000FC0E0EA24FFF582EB123509D0E0F0EA91
:1034430024FEF50CEB34FFF50D7403120C0DE0F8BC
:103453007402120C0DE0C454F048850C82850D8370
:10346300F0A80C850E82850F83125C7F2AC3988E89
:10347300828F83A3A3A3A3F0850E82850F83E8F035
:10348300A3E50DF012350E12310CE4F0740C120C9E
:103493000DE4F07508FF75091A78081208F512345F
:1034A300F71211487403120927851882851983E0DE
:1034B3006009EE240E1247444408F01225A0E9F9EE
:1034C300E4F508F50978081208F9740612099FEE65
:1034D300FAEFFB1225B87402120927E97006EEFA17
:1034E300EFFB800BEEFAEFFB12117E7A007B007488
:1034F3000D022F6B7C0B7D00EE241BFAE43FFB22B5
:10350300EE24FFF582EF34FFF583221259D8E4F05D
:10351300A32274F212041B8A0C8B0DA2AFE433F5C1
:103523000AC2AF750800750900901B0A802C123778
:10353300365024850C82850D83A3A31259E28E8213
:103543008F83A3A31253E51225A6E9600A12372736
:10355300C2E6F08E088F0912371C12357670CFE55C
:10356300084509600612360FD2E6F0E50AA2E0929A
:10357300AF800DE0FEA3E0FFEE4F22740212092795
:103583007F0602067774F012041B8A0E8B0F8C0CD5
:103593008D0D750A00A2AFE433F50BC2AF7E007F39
:1035A30000901B0A8010AE08AF091236071247427B
:1035B300D2E7F012452F124545603412360FA2E7C9
:1035C30050F1850882850983A3A3120744AC0CAD8F
:1035D3000DAA0EAB0F1225AC7402120927E960D3B2
:1035E300EE4F60C21239D7700612361AD2E4F0E5F4
:1035F3000BA2E092AFEE4F6006122498750A01A960
:103603000A022F6E12372BD2E4F0EE22E50812598C
:10361300023509F583E0228E828F83A3A312461914
:10362300E02274F212041B74FE1209BF750C0075BC
:103633000D00851882851983E4F0A3F0A2AF33F55A
:103643000AC2AF901B0A1269AD8035EE24FBF582E6
:10365300EF34FF122F58780C1208F9EEFCEFFD7AC5
:103663000A7B1B1211AE7402120927EEFCEFFDAAAE
:1036730018AB1912119CAE08AF09901B10E014F09F
:10368300EE4F602B123736501DEE240BF8E43FF952
:1036930088828983E024FFF0A3E034FFF0888289E5
:1036A30083124F9360A58E0C8F0D12371C8097E504
:1036B3000AA2E092AF901B10E060319003CFE06468
:1036C3000F6006901B9AE070237AE87B1A1226900B
:1036D3009088521207407AE87B1A122684740412E7
:1036E3000927800874F0124B4912248CAA18AB19CD
:1036F3001211A28A088B09AE08AF09EE4F601312AC
:1037030023C6123727A2E28E828F83A350D674E991
:1037130080D402357E8E0A8F0BEE24FBF582EF34C4
:10372300FFF5832212372B22EE2411F582E43FF5B5
:1037330083E02212372BA2E72274F712041BEAFE5E
:10374300EBFF1223C6124612122821E964019003EB
:10375300EB700AE02401F8A3E034008003124592E1
:10376300F9124D1D124AA9901B10E070219003CF4E
:10377300E0640F70197AE87B1A122690908852122F
:1037830007407AE87B1A1226847404120927A8A832
:10379300C2AF901B10E004F0E8A2E78004E508A2A2
:1037A300E092AF024C0C74F712041BEAFEEBFF121B
:1037B30037DEF01223C6EEFCEFFD7A0A7B1B1211F3
:1037C300A8A8A8C2AF901B101241089003CFE064D1
:1037D3000F70057908122558024C0C12372BC2E4DE
:1037E3002274F712041B74EA1209BFEAFEEBFF907E
:1037F30003C8E0603C8518828519837401F0120CBC
:103803000DE41238B6120C0DAA82AB831212FE120B
:10381300361AC0E0740A120C0DD0E0125C9B740BD4
:10382300120C0DAA82AB831225D0AA18AB19121958
:10383300B8741602394B74F712041BEAFEEBFF123D
:1038430023A8E9F974DC69601E74DD69601974E406
:1038530069601474F369600F74DE69600A74DF6968
:10386300600574DB697007EEFAEFFB12255E024C0C
:103873000C74F712041B74EB1209BFEAFEEBFF850D
:10388300188285198374061238B6120C0DAA82ABFE
:10389300831212FEEE2408FCE43FFD740A120C0DA1
:1038A300AA82AB831225D0AA18AB191219B87415C2
:1038B30002394BF0EE2413FCE43FFD74022274F74B
:1038C30012041B74F71209BFEAFEEBFFEE24301259
:1038D300474460651241ABAA18AB191212FE740873
:1038E300120C0D7403F09003E412074412393F12D3
:1038F30007449003F7E0F9740412099FEEFAEFFB13
:103903001223AE7404120927E9F974DC6960237485
:10391300DD69601E74E469601974F369601474DE10
:1039230069600F74DF69600A74E869600574DB69B4
:103933007007EEFAEFFB12255E0230D9EE242EF566
:1039430082E43FF583227403120927024C0C74F2BC
:1039530012041B8A0C8B0D750A00750B007508E7A2
:10396300A2AFE433F509C2AF901B0A8003123718E4
:10397300123576603612373650F31239D770EEEEC1
:103983002432124744F88A828B83A3A3E06870DD54
:10399300780A1208F9EEFCEFFD7A0A7B1B1211AECE
:1039A3007402120927901B10E014F0E509A2E092BB
:1039B300AFEE4F6013EEFAEFFB1223C679F0EEFA87
:1039C300EFFB12255E750800A908AA0CAB0D1225A2
:1039D3005E023583123111E064012274F412041B78
:1039E30074F71209BFEAFEEBFF8E828F83A3E064B4
:1039F300F37003023A888E828F83A3E064DF70033F
:103A0300023A888E828F83A3E064E860788E828F87
:103A130083A3E064DB606E122408E9F508705EEEB0
:103A2300240E1247446056123A9212244AEA4B601B
:103A33004C7408120C0D123A9C1207447508FF755A
:103A430009FF78081208F98E828F83A3A3A3A3A387
:103A5300A3A3A3E0F9740412099F1223AE74041202
:103A63000927E9F50874F36508601274DF650860D7
:103A73000C74E86508600674DB6508700F8E828F2E
:103A830083A3E508F0EEFAEFFB122414022F7DEE78
:103A9300240FFAE43FFB79092274021253F474FFF2
:103AA300F0A3123AA922123AAD22124ECDA3A322B9
:103AB30074F112041BEAFEEBFF7508008E828F83FC
:103AC300A3A3A3A3A3A3122F8740037508E88E82A1
:103AD3008F83A3A3A3A3A3A3A3A3A3A3E0C394102C
:103AE30040057508E880138E828F83A3A3A3A3A345
:103AF300A3A3A3A3A3E0640F600B901B77E0540878
:103B030070037508E8EE240B124744F88E828F8306
:103B1300A3A3A3A3A3A3A3A3A3A3E0C398500DEEBE
:103B2300240B124744640F60037508E89003E8E030
:103B3300F47003A3E0F470037508EC7A237B00129E
:103B4300120E8A0A8B0BA80AA90B901AF1123B8654
:103B530060298E828F83A3A3A982AA83890C8A0DED
:103B6300750E00780C1208F57C237D00901AF1E0A5
:103B7300FA1211487403120927800375081AA90859
:103B83000259CB124AADE8492274F512041BEAFE2E
:103B9300EBFF8E828F83A3A3A3A3A3A3A3A3E0908E
:103BA30003CF1263539003EA1263399003CA12637B
:103BB30058901B9BF0F9120F9E901B9BE06018EE30
:103BC3002404FAE43FFB7950120F86EE2406FAE44C
:103BD3003FFB79E1120F86901B9A122F73600474D6
:103BE3000180027400901AF312633F1208F57C0BF4
:103BF3007D007AF47B1A1211487403120927EE240C
:103C030018F508E43FF50978081208F57C0B7D00E8
:103C13007AFF7B1A0248B774F712041BEAFEEBFF24
:103C23008E828F83A3E070061253E212240E124B8E
:103C33004312256A024C0C74F712041BEAFEEBFFD5
:103C4300901AF1124F93600D1253E2901AF1E4F0BF
:103C5300A3F01212148E828F837408124B49121927
:103C6300B8024C0C74F612041B901B9AE06013907C
:103C73001AF3E0700D123C881223C0EA4B60031262
:103C8300249E025FBB9003CAE0FB9003EAE0FA9034
:103C930003CFE0F92274F412041B74E71209BFEA9C
:103CA300FEEBFF750B018E828F83A3A3A3A3A3A3B4
:103CB300A3E0A2E25068EE242BF582E43F1259E020
:103CC300124BD41223CCE9705590878BE0640170BA
:103CD30005750B008048123D641208F57C0B7D00CE
:103CE300741112099712114874031209271225A09F
:103CF300E9FA740E12098F8808890978081208F9FD
:103D030075083075090078081208F9123D56120734
:103D130044125C6979011225BE74061209278518BD
:103D23008285198374101238B6120C0DAA82AB83E4
:103D33001212F2123D56125F2C740B120C0D124A22
:103D4300A9740D120C0DE50B1248F71219B874196A
:103D5300022F7F123D5A22EE242BF582E43FF58396
:103D630022EE240812634722C082C083901B9BE08B
:103D730060031226120246B0C082C083901B927465
:103D8300D0F0A3741AF0A374D4F0A3741AF0A3743C
:103D9300E0F0A3741AF0901D067489F0A3742AF05E
:103DA300901B7C74A2F0A37423F0901B1574D8F0BD
:103DB300A37423F0901B1774DEF0A37423F0901BFD
:103DC30077E044020241E1C082C083EAFCEBFD7963
:103DD30003024F3BC082C0837908026139C082C0AD
:103DE3008374FE1209BF901B1D7486F0A37424F024
:103DF300901B1F7480F0A37424F0800D7A0A7B1B40
:103E03001211A21248ED12258E901B0A124F9370C5
:103E1300EB901B0C124F93600F7A0C7B1B1211A2B9
:103E23001248ED12258E80E9901B0AE4F0A3F0906E
:103E33001B10F0A3F0A3F0901B2B74C2F0A3742407
:103E4300F07402800274111209270246B074F6124C
:103E5300041BE9FF74AB29F582E4342EF583E49364
:103E6300FEFA7B00121178EA4B6013EA2E12478D9B
:103E7300E8F0A3E9125CBBA3A3A3E4F0802C7A02CD
:103E83007B00121178EA4B601D74D72FF582E4345E
:103E93002EF583E4938A828B83F0A3741AF0901B2C
:103EA30072E0F91211847A007B00025FBBE9FC74B3
:103EB3000629F8EAA2E0501EE875F00A84E5F0F955
:103EC3006014740A28C399F8E9C394054004740A7A
:103ED30028F8740B28F8ECC3941340047914800277
:103EE3007906E82979002409F85001097A0A7B0048
:103EF3001202CBE8F90208BBC082C083901B77E0B3
:103F03005402600A1219BEE9600479018002790043
:103F13000246B0C082C083901B77E05402601690C3
:103F23001B10E0700C124F90600BE0C812453C5020
:103F3300047901800279000246B0C082C083908771
:103F430088E0F8901B12E0C39850051211788004A2
:103F53007A007B000246B0C082C08312258E7900AE
:103F63000246B0C082C08374FE1209BF85188285E1
:103F73001983EAF0A3EB1240E4A3A3A3A3A3E06095
:103F83000A14605D24FE60600240439003CFE06446
:103F93000F6018122564E97012851882851983123F
:103FA30053E5901B191246151228219003F7E0C020
:103FB300E0851882851983124E9DD0E01240E47487
:103FC3001412591CFCA3E0FD7A0C7B1B12119CA854
:103FD300A8C2AF901B121241087920122558023E45
:103FE300441240A8741580D91240A8A3A3A3A3E048
:103FF300604E1240A812361EC0E0851882851983D0
:10400300125C8E1240C2D0E012591C2402F8A3E0C5
:104013003400F988828983E02401FAA3E03400FBA9
:1040230088828983EAF0A3EB12591C1243DC8518BA
:104033008285198360131240B560051240CB404856
:10404300AA18AB1912258E80951240B560F2124062
:10405300CB50211240D8FA851882851983A3E0C872
:1040630024061243A7F874EC1250D5342EF583E4DA
:10407300936A60148518828519831240B5640870A9
:10408300BF1240D8640870B81240D8141240EC2410
:104093000AC0E0851882851983124615D0E01240C4
:1040A300EC04023FC4851882851983A3E0F5838855
:1040B30082221240B922124592C81240C2E0222441
:1040C30006F582E438F58322851882851983124028
:1040D300B9C3940A22851882851983123349A3E050
:1040E300221240F6F5838882221240F6C824061273
:1040F30043D322F085188285198312459222A8A8FA
:10410300C2AF901B11E004F0E8A2E792AF22C08295
:10411300C083901B21124F9360081240AF122821D5
:10412300800279000246B074F712041BEAFEEBFF2B
:10413300123111740112474C1259D01230ED24354B
:10414300124744C0E0EE2413F582E43FF583D0E048
:10415300F0EE2436124744C0E0EE2414F582E43F27
:10416300F583D0E0F0EE2438124744C0E0EE241883
:10417300F582E43FF583D0E0F0EE242FF582E43FAF
:10418300F5831207441241ABEE2431124744F9126E
:1041930025B87402120927E9F5087007EEFAEFFB58
:1041A30012249EA908024C0CEE2426FCE43FFD22B7
:1041B300C082C083122564E96004792080027901FA
:1041C3000246B0C082C083EA24111241D7D2E080F4
:1041D3000DEA240DF582E43BF583E022F0A3F0021F
:1041E30046B0C082C0831241D4640170111242737D
:1041F300400C8A828B83A3E0F912255E806FEA2448
:10420300101241D7A2E650128A828B83A3E0F99061
:104213001B1B12461512282180531241D4640170CE
:104223000D12427350088A828B83743080368A82DF
:104233008B83A3E0641B8A828B83700474228024A3
:10424300A3E0700D1241D4F874B61250D5342E8009
:104253000B1241D4F874D71250D5342EF583E4935E
:104263008A828B83F0901B72E0F91211840246B0AC
:10427300EA2410F582E43BF583E0A2E32274F7120B
:10428300041BE9FE124F9070030243A2EE60117407
:104293001B6E7013E0C81243A564057003024370DC
:1042A3001243ABE402437474E96E70611243CB7042
:1042B3000B1219C4E960051243E6606179EE120F2F
:1042C30008901B131243C8901B13603A1243E990E2
:1042D3001B13700B1243C814F01210BE0243A21238
:1042E30043DBC2E71245781243A56403700B125CEB
:1042F3008B24111243A7D2E2F079ED120F08124377
:10430300BB12282180751243AE74E9806474E16E98
:10431300703E1219C4E960551243E670509003F1E0
:10432300E0C0E0125C8B2412F582E438F583D0E020
:10433300F09003E0E0C0E0901B131243B71243B7C1
:10434300D0E0F09003E0E004F079011210A6804F72
:10435300741C6E7018901B131253E5901B231246A6
:1043630015122821901B13E4F0A3F080321243AB03
:10437300EEF0901B131253E512248C124559E054AE
:104383008060109003F7E0F9120FC29003F6E0F992
:10439300120FB6901B13E4F0A3F079101225580204
:1043A3004C0C240D1243D322901B131243B222123E
:1043B300461DA322124EE122901B131253E9901BB8
:1043C3001712461922E0F8A3E0C824121243D3229D
:1043D300F582E438F583E022E0F8A3E0C824101264
:1043E30043D322901B13124560E054042274F41249
:1043F300041B750A00750B00A2AFE433FEC2AF12B3
:104403004F9060030244E5124612122821E944103A
:10441300F8901B0A800985080A85090B12452F129B
:10442300454570030244E512360F586870E8780A70
:104433001208F9AC08AD097A0A7B1B1211AE74029B
:10444300120927901B13E508F0A3E509124578121A
:10445300453C50030244EC901B11E014F0EEA2E043
:1044630092AF901B13E0240EF8A3E03400F9E8FEAA
:10447300E9FF8E828F831253E5901B131240DEF9FE
:10448300122450E9901B0EF0A3125EADE05480603D
:1044930018125C8B24131243A7F9120FC2125C8B00
:1044A30024141243A7F9120FB6124559A3E054017D
:1044B300605F901B0E124F93604512456F60401270
:1044C300456FF87900901B0E1253E51202D3E8C032
:1044D300E012454DD0E012457DC3941340117402A0
:1044E300800FEEA2E092AF8037901B1002445D7400
:1044F30000C0E0901B14E0C8124526D0E0800D12E6
:10450300454D74011245781245267401F0790380F4
:104513000C901B131243DBA2E1B3E433F91210A690
:10452300022F82241AF582E438F58322E50824FB5E
:10453300F582E50934FFF583221259021243D6A20C
:10454300E722122F5EE508450922125CB32419F510
:1045530082E438F58322901B1312456022124592A0
:10456300C81245682212592C38F58322125CB324F1
:10457300181243D32212458AC82212458AF583882A
:1045830082A3A3A3A3E022F0901B1312459222E07F
:10459300F8A3E02274F712041BEAFEEBFF1225884E
:1045A300124741A2E3400A1239D7700590878680EB
:1045B30003908787E0F9EEFCEFFD7A0A7B1B12116B
:1045C300B4E96037EEFAEFFB901B1D124615122873
:1045D30021EE240E12474454047011124101124675
:1045E3000EA3E054017021122498801CEEFAEFFB15
:1045F300901B15124615122821800D8E828F83A3DE
:1046030074F1124B4912248C024C0C1259D822908B
:104613001B1F1246192212461D22E0F8A3E0F58360
:104623008882220246A974F712041BEAFEEBFF7983
:1046330000901B77E05402700CEE2433124744546D
:1046430004600279E8901B77E05460700CEE243329
:104653001247445402600279E88E828F83A3A3A396
:10466300A3E0F890878CE0C398500279E8EE2431F8
:10467300124744700CEE242E124744700479F580DF
:104683000BE9700512247AE9F9E96007EEFAEFFB0A
:1046930012255E024C0CC082C0838A828B83740D08
:1046A300F01219B88007C082C083122498D083D037
:1046B300820208BB74F412041BEAFEEBFF8E828FA6
:1046C30083E4F0A312474C54049087867012E0F8F9
:1046D300901B11E0C398401279F112255E022F82DC
:1046E300E0F8901B10E0C39850EE124752A3E05439
:1046F300016039EE2437124744C39405403CEE244D
:1047030033124744540570327A257B1B122690EEF0
:104713002437F582E43FF583122F3E78081208F11F
:104723007A257B1B1226847404120927EEFAEFFB09
:10473300901B72E0F912118480A379E8809CEE2427
:1047430010F582E43FF583E022F0124752E022EEB7
:104753002433F582E43FF5832274F612041BE9FE49
:104763002451FAE43400FB121178EA4B6015EE8A07
:10477300828B83A3A3A3A3F0EA245112478D124A89
:10478300A980047A007B00025FBBF8E43BF98A82CC
:104793008B83A3A3220246A9C082C083901B2E74DD
:1047A300ECF0A37424F0A3741CF0A37425F0A37499
:1047B300F2F0A37424F0A374F8F0A37424F0A374A8
:1047C30016F0A37425F0A3740AF0A37425F0A37460
:1047D30004F0A37425F0A37422F0A37425F0A3744A
:1047E30028F0A37425F0A3742EF0A37425F0A3740A
:1047F3003AF0A37425F0A374FEF0A37424F0A37419
:10480300E6F0A37424F0A374E0F0A37424F0901BE7
:104813004A7410F0A37425F0A37434F0A37425F044
:10482300A37448F0A37426F0A37440F0A37425F096
:10483300A37446F0A37425F0901B6EE4F0901B71F3
:10484300F0901B5A1248587402F0901B6312485898
:1048530074010241E17458F0A37425F0A32274F5A6
:1048630012041B74F11209BF85188285198374021F
:10487300F07401120C0DE9F060047AFF7BFF7402FF
:10488300120C0D126A3475086675091B750A0078D7
:10489300081208F57C0B7D007407120C0DAA82AB7D
:1048A300831211487403120927AA18AB191219B8F5
:1048B300740F800512114874031209277F0302063F
:1048C3007774F712041B74FD1209BF8518828519CA
:1048D30083740AF07401120C0DE9F07402120C0DCA
:1048E300EA1248F71219B8023949851882851983E3
:1048F300EAF0A3EBF0AA18AB192274F612041B74A6
:10490300F71209BFEAFEEBFF12495912310974028B
:10491300124A9AAA18AB191212F2EE2431125A470C
:1049230012495F8A828B83E8F0A3E912474C125A3B
:104933006C1208F9740212099F79831A1AEFFB1299
:1049430025B87402120927E9F5087007EEFAEFFBA0
:1049530012249E025FB41259D8740122FB8A828BFF
:104963008312496822E024FFF8A3E034FFF922749C
:10497300F012041B1264EF120BB67808790C1203C1
:104983002C78081208F17A5D7B1B022F6674F412EF
:10499300041B74C61209BF9003CFE0640F60108537
:1049A3001882851983742E1248F712256A80277A94
:1049B300547B1B122690122F901202D38808890968
:1049C300E4F50AF50B78081208F17A547B1B1226DA
:1049D300847404120927743A022F7F74F512041B9E
:1049E300EAFEEBFF8E828F83A3E0F86003024A8323
:1049F300EE243012474464026007E06403600278E7
:104A0300E8EE2426F582E43FF583122F89400478EB
:104A1300E88070E8706AEE2426FAE43FFB79E1123D
:104A23000F86EE2431FAE43FFB7950120F86EE2411
:104A33003012474464027014EE2428F582E43FF5F3
:104A430083125F2C9003DE124AA980129003DE7456
:104A5300FEF0A304124A9A7AD57B031212FEEE24C7
:104A63001B123D671208F57C0B7D007A667B1B12D7
:104A730011487403120927EEFAEFFB1224DAE9F85E
:104A8300E86011E88E828F83A3125EAE7417124B17
:104A93004912256A0248BFF0EE2428FCE43FFD22B8
:104AA300125F30901BEF124AAD22E8F0A3E9F02227
:104AB30074F612041B74F71209BF901B71E0703B6C
:104AC3007401F0F9121070AA18AB1912259A75081F
:104AD3006675091B78081208F975080175090078CD
:104AE300081208F99003E4120744740612099F7A26
:104AF3000379051225BE7406120927025FB674F7FF
:104B030012041BEAFEEBFF79011210768E828F836B
:104B1300E064207004A374EBF0901B71E0A2E250F8
:104B230003C2E2F0E0A2E15008124D5F1224D480E8
:104B33000C8E828F83742A124B4912256A024C0C05
:104B43008E828F83742CF0EEFAEFFB2274F412043E
:104B53001B74FE1209BFEAFEEBFF79011210767A8D
:104B6300547B1B1226907A5D7B1B122690124EA952
:104B7300851882851983124ED7E0F50B7011AA1898
:104B8300AB197953120F86124BD4794A120F86123E
:104B93003D641208F57C0B7D007A667B1B1211487D
:104BA30074031209278518828519831253E5A90B0B
:104BB3001224CE901B71E0A2E1500C7A008E828FFA
:104BC30083A3E0F91224D4901B71E4F07402022F42
:104BD3007FEE2413FAE43FFB2274F712041BEAFE70
:104BE300EBFF8E828F83A374EBF0901B71E0A2E145
:104BF30050077A0079EB1224D4EEFAEFFB12250A60
:104C03008007EEFAEFFB1226067F0102067774F7A0
:104C130012041BEAFEEBFF79011210767A547B1B18
:104C23001226907A5D7B1B122690901B6EE4F09007
:104C33001B71F07AFF7BFF8E828F83A3E0F912242E
:104C4300CE80C674F712041BEAFEEBFF1225048024
:104C5300B174F712041BEAFEEBFF79011210768E92
:104C6300828F83A3A3A3A3E060047400800274EB88
:104C7300124CA65003C2E2F0E0A2E15008124DA884
:104C83001224D48014A2E050108E828F83742AF0F1
:104C9300A374EB124B4912256AEEFAEFFB1224B010
:104CA300024C0C8E828F83A3F0901B71E0A2E22250
:104CB30074F612041BEAFEEBFF901B71E0D2E1F0E5
:104CC30079011210708E828F83A3E0703C1225A0AD
:104CD300E9FAEE240DF508E43FF50978081208F91E
:104CE30075080175090078081208F9124D1D12079D
:104CF30044EE2402FCE43FFD79051225BE7406123E
:104D03000927E98E828F83A3F08E828F83A3E060CD
:104D1300067A00F91224D4025FBB124D2122EE243D
:104D23000BF582E43FF5832274F712041BEAFEEBD2
:104D3300FF79011210768E828F83E064207004A3C2
:104D430074EBF0901B71E0A2E25003C2E2F0E0A228
:104D5300E15006124D5F1224D4024C0CC2E1F07AEA
:104D6300008E828F83A3E0F92274F712041BEAFEFC
:104D7300EBFF79011210767A547B1B1226908E82F8
:104D83008F83A3A3A3A3E060047400800274EB12D7
:104D93004CA65003C2E2F0E0A2E15006124DA81265
:104DA30024D4024C9CC2E1123AA9A3E0A2E4E43366
:104DB300FA8E828F83A3E0F92274F712041BEAFEB2
:104DC300EBFF79011210768E828F83A374EB124C62
:104DD300AB5003C2E2F0E0A2E15006124D5F122491
:104DE300D4024C0C74F712041BEAFEEBFF7A547BDB
:104DF3001B122690EEFAEFFB12252E024C0574F7D8
:104E030012041BEAFEEBFF7A547B1B122690EEFA88
:104E1300EFFB12252E024C0C74F712041B74EF12D5
:104E230009BFEAFEEBFF125C697AD57B031212EC31
:104E3300E960628518828519837409F07401120C84
:104E43000D74EFF0124EA9F87402120C0DE8124E15
:104E5300D7A3A3E0C0E07404120C0DD0E0124EC43B
:104E6300640870158E828F83A3A3124E9DE0C0E069
:104E73007405120C0DD0E080067405120C0DE412BB
:104E83005C9B7406120C0DAA82AB831225D0AA1860
:104E9300AB191219B8741102394B125CB62407F519
:104EA30082E438F58322EE124EBB125F308882898A
:104EB30083E0FCA3E0F9EC22125A55FB8A828B8330
:104EC30022124EC822124ECDE022F08E828F83A38F
:104ED300A3A3A322F0A3E9124EF0124EE122124E35
:104EE300E522E0F8A3E0F5838882A3A322F08A8277
:104EF3008B8322C082C0831226120246B0C082C0B6
:104F030083901B8E742EF0A3741BF0A3744AF0A33A
:104F1300741BF0901D0074AFF0A3742BF0A374EB1B
:104F2300F0A3742AF0901B7A74C8F0A37424F09051
:104F33001B77E044010241E11225760246B074F684
:104F430012041B74FE1209BF901B73124F93600768
:104F53007A737B1B12258E901B79E4F0900A9412CE
:104F63004F9360248007AA18AB1912258E901B72E9
:104F7300E0F91211908A088B09A808A909851882FB
:104F8300851983123B8670DE7402025FB8901B138F
:104F9300125F30E8492274F712041BE9FA7B009090
:104FA3001B72E0F91211BA024C0C74F712041B7451
:104FB300F01209BFEAFCEBFDE9FE8C828D83E0F879
:104FC30074E21250D5342EF583E493C0E0740112D9
:104FD3000C0DD0E0F0640B700DEE8C828D83A3F08A
:104FE3001225F40250D0E070030250D0640C600329
:104FF3000250C1741A6E700B7404120C0DE4F0A30A
:105003000250C07404120C0DECF0A3EDF0EC24324A
:10501300F582E43DF583E0C0E07403120C0DD0E0AB
:1050230012620E120BDE7406120C0D120BD28C825E
:105033008D83125F23740A120C0DE8F0A3E912505A
:10504300DAE054106009851882851983E48017EC2F
:105053002412F582E43DF583E0F89003F1E0C39870
:10506300851882851983F0E0C0E0740C120C0DD012
:10507300E0F0EC2415F582E43DF583E0C0E0740D27
:10508300120C0DD0E0F0EC2416F582E43DF583E03C
:10509300C0E0740E120C0DD0E0F0EC2417F582E49E
:1050A3003DF583E0C0E0740F120C0DD0E01250DA2E
:1050B300A3E0540160087401120C0D7411F0740222
:1050C300120C0DEEF074011209971219B874100244
:1050D300394B28F582E422F0EC12592C3DF583225A
:1050E300C082C083901B79E064037004790180025D
:1050F30079000246B074F712041B901B79E0125139
:105103007374FE28F582741C39F58312565EC2E768
:10511300F012517AA3E493FE25E0FCE433FD74FE20
:105123002CF582741C3D1259E0EC4D6005EE901B8A
:1051330079F08A828B83E025E0FCE433FDE82CF5EB
:1051430082E93DF583E493FCC4540F25E0F87488A9
:105153001250D5341BF583124F9370051225E2804C
:105163000CEC540F12517A124615122821024C0CE2
:1051730025E0F8E433F92225E0FCE82CF582E43954
:10518300F5832274F212041B74FE1209BF890B8A81
:10519300088B09125274FA7B001211788A0C8B0D5A
:1051A300AE0CAF0DEE4F602E8E828F83E50BF0A316
:1051B300E4F0F50A78081208F51252811230DFFB89
:1051C3001211487403120927EEFAEFFB901B72E0E9
:1051D300F91211848012851882851983E50BF07901
:1051E3001AAA18AB1912255E02357E74F012041B3D
:1051F30074FE1209BF890B8A0E8B0F125274F508C5
:10520300FA7B001211788A0C8B0DAE0CAF0DEE4FAA
:1052130060468E828F83E50BF0A3E4F0A808EE28A6
:10522300F8E43FF98E828F83A3A3125293850E086D
:10523300850F09F50A78081208F51252811234FC19
:105243001211487403120927EEFAEFFB901B72E068
:10525300F912118479008014851882851983E50B6E
:10526300F0791AAA18AB1912255E791A7402022F63
:105273006B74C129F582E4342EF583E49322A80BE1
:1052830074CC1250D5342EF583E493FC7D00EE22CA
:10529300124AAD8E828F83A3A3A3A3E4F022C0821C
:1052A300C083E9901B720241E174F612041B74FE81
:1052B3001209BFEAFEEBFFEE542070308039A8A834
:1052C300C2AF901B12E01412410A8A828B831253DD
:1052D300D5901B75126A3412256A85188285198345
:1052E300E0641560077A757B1B12258E7A0C7B1B95
:1052F3001211A2EA4B70C7EF54807012801C901BEE
:1053030075126A3412256A7A757B1B12258E901BDF
:1053130072E0F9121190EA4B70E4EE5410600E85BE
:105323001882851983742D1248F712256AEEA2E0BC
:10533300500E85188285198374241248F712256A42
:10534300EE5402600E85188285198374251248F77E
:1053530012256AEE5404600E85188285198374261B
:105363001248F712256AEE5408600E8518828519D3
:105373008374281248F712256AEE544060107401B2
:10538300120C0D1253EF742C1248F712256AEE54C7
:105393008060107401120C0D1253EF742F1248F732
:1053A30012256A901B73124F936020A8A8C2AF9076
:1053B3001B731253E5901B73E4F0A312410A126AA4
:1053C3003312256A7A757B1B12258E7A007B0002C5
:1053D3004F8B1253D922E0851882851983F02290CE
:1053E3001AF11253E922E0FAA3E0FB22E41253F488
:1053F30022F085188285198322C082C083901B7591
:10540300125F2CEA687002EB697007901B75E4F079
:10541300A3F00246B074F712041BEAFEEBFFEE4F53
:105423007003120D64A2AFE433F508C2AF8E828F0E
:1054330083124F936028E824FBFAE934FFFB901BA7
:10544300751259E2E86C7002E96D7007901B75E400
:10545300F0A3F08E828F83E4F0A3F01212140237CC
:10546300A0C082C083901B9C74D6F0A37425F0A3C4
:1054730074E8F0A37425F0A374EEF0A37425F0A3ED
:1054830074AAF0A37424F0A374F4F0A37425F0A316
:1054930074A4F0A37424F0A374B0F0A37424F09064
:1054A3001BAA7424F0A37426F0A374FAF0A3742542
:1054B300F0A37400F0A37426F0A3740CF0A3742675
:1054C300F0A37406F0A37426F0901B9BE40241E161
:1054D300C082C0839003DEE064FE7003A3E0F47037
:1054E300097CD57D031212F2801C8A828B83A3A3CD
:1054F300A3A3A3A3A3A37402F09003DE125F2C8AD9
:10550300828B83124AA90246B0C082C0839003E80B
:10551300C3E094FEA3E094FF400479038002790280
:105523000246B0C082C0831256678C828D831256A6
:105533001C687039740268701C8A828B83125575DB
:10554300E06870298A828B83A3125575A3E0687083
:105553001C7901801A7403687013EC2405FC500154
:105563000DEA2405FA50010B1212F88002790002A9
:1055730046B0A3A3A3A3A3E0F88C828D83A3A3A324
:10558300A3A32274F612041B7E00740A120C0DE00E
:10559300125610FF8A828B83A3A3A3A3A3A3A3A35F
:1055A300E06F706474026F704E8A828B83C082C016
:1055B3008388828983A3A3A3A3A3E0F508888289B0
:1055C30083A3A3A3A3A3A3E0FBAA08D083D082E071
:1055D3006A7003A3E06B703088828983A3A3A3E07E
:1055E300FA88828983A3A3A3A3E0F9EA6C7002E992
:1055F3006D70157E01801174036F700CE82405FC37
:10560300E439FD1212F8E9FEEEF9025FBBF8A3E0FC
:10561300F98882898312561C22A3E01313543F5442
:105623000322C082C0838A828B83A3A3A3A3A3A3E1
:10563300A3A3E0640270169003DE12565E68700343
:10564300A3E06970047901800F7900800BEAFCEB19
:10565300FD7AD57B031212EC0246B0125F308A82C8
:105663008B83E0228A828B8312561CF82274F012F9
:10567300041B74FC1209BFE9851882851983F07431
:1056830002120C0DECF0A3EDF08A0A8B0B750800E7
:105693007402120C0D122F35C0E07401120C0DD0E0
:1056A300E012591CA2E75008750EFF750FFF800A20
:1056B3009003E4E0F50EA3E0F50F851882851983C6
:1056C300E0C2E7125921542060071258EE74088093
:1056D300041258EEE4125921540460071258F97465
:1056E3008080051258F97410125921541060061263
:1056F30058D8E4800B9003F1E0C0E01258D8D0E012
:10570300125921A2E0500375082054086006741052
:105713004508F5088A828B83A3A3E024FFFEA3E058
:1057230034FFFFEA1258E3C39402E0400F640B60B6
:1057330009E0148E828F8312591274034508F50809
:10574300750900900404E0640170118A828B83A3BD
:10575300A3A3A3E0C394674003750910851882854A
:105763001983E0F50C750D00740E780C120AEBE545
:105773000D4509F509E0640270199003E91262030B
:10578300F09003E8E0C0E0123503D0E0F0EE24FE31
:10579300FE801CE06403701DEE24F9FEEF34FFFF6E
:1057A3007CF87D03EEFAEFFB1212FEEE24FF1EEFF0
:1057B30034FFFF8003E0602F7401120C0DE06018CA
:1057C3007414120C0DE0650E7004A3E0650F7008ED
:1057D30074404508F508800F8E828F83E50FF01221
:1057E3003503E50E1259087401120C0DE0F50C7522
:1057F3000D00740A780C120AEBE50D4509F509E072
:10580300640270237402120C0D1260778E828F83F0
:10581300F07402120C0D123620C0E0123503D0E0F2
:10582300F0EE24FEFE8020E064037021EE24F9FEF6
:10583300EF34FFFF7402120C0D1259E2EEFAEFFB84
:105843001212FEEE24FF1EEF34FFFF8003E0601907
:105853007414120C0D126202F07414120C0DE0C0D9
:10586300E0123503D0E0125908EEF8EFF9E824FF0F
:105873001EE934FFFFE50A1258E370059003D48054
:10588300039003E0E0FA04F0EA88828983125EAEB3
:10589300E5091259128E828F83E508F0E50A240484
:1058A300F8E4350BF9E50A2402FAE4350BFBEEFCC8
:1058B3008A828B83E0F50888828983E02508C39C6C
:1058C300124EF0EEF0A3EFF0850A82850B83A3E47A
:1058D300F0F9022F69EA2412F582E4350BF58322ED
:1058E300240DF582E4350BF583E022EA2410F582DA
:1058F300E4350BF58322EA125902350BF583222492
:1059030011F582E422F0EE24FEFEEF34FFFF22F0D5
:10591300EE24FF1EEF34FFFF221253F4E022F0EADD
:1059230012592C350BF583E022240EF582E4227400
:10593300F112041B74FE1209BF851882851983ECCA
:10594300F0A3EDF0890B8A0E750A1A7415120C0D6B
:1059530012688B12244A8A0C8B0DAE0CAF0DEE4FDE
:10596300605F7413120C0DE01259D0E8F0A3E91232
:10597300310CE50BF0750A0078081208F51234F7BC
:1059830012114874031209277411120C0D120744E3
:105993007402120C0D1259E2A90EEEFAEFFB122556
:1059A300B87402120927E9F50A7016E50B24F960A9
:1059B30003147006123727D2E5F0EEFAEFFB122438
:1059C3009EA90A74021209277F07020677F8A3E04B
:1059D300F91259D822EE12592C3FF58322F583E0B0
:1059E300FCA3E0FD2274F612041B74F71209BFEA4C
:1059F300FEEBFF7801EE2432124744600278051271
:105A0300460EE81231097404125A5F1212F2EE24A0
:105A13002F125A471230E52431124744125A6C129E
:105A230008F9740212099F79031A1AEFFB1225B8B9
:105A33007402120927E9F5087007EEFAEFFB122446
:105A43009E025FB4F582E43FF583122F5EEE125A95
:105A530055222402F8E43FF9E8FAE922F0EE24267D
:105A6300FCE43FFDAA18AB192288828983124EC831
:105A730004F078082274F212041B8A088B09ECFEE6
:105A8300EDFF8A828B837405F0EE24321247448A39
:105A9300828B83A3A3F0EA2403F50AE43509F50B0B
:105AA300850A82F583E0F50CA3E0F50DEE2425F5D8
:105AB30082E43FF583120BDEE50C125902350DF536
:105AC30083120BD2125C69AA0CAB0D1212F2850A77
:105AD30082850B8312607CFAA3E0FB88828983A30F
:105AE300A3A3126A2EEE242F124744C0E0125C7166
:105AF300D0E0125CA82415F582E438F583E4125C47
:105B0300A8124568E4125C9B850A82850B83E02416
:105B130016FAA3E03400FB1225D08E828F83A3A351
:105B2300A3A3A3A3A3E0C0E0850A82850B83125C31
:105B33008E240DF582E438F583D0E0125C92FAA34B
:105B4300E0FB850A82850B83125F2CE8240BFCE4BF
:105B530039FD8A828B83E08C828D83F0A3E4125C0F
:105B6300BBE0F50B8C828D83A3E0450B125CBBA3DA
:105B7300E0FCEA2403FA50010BECA2E7E433C0E0B3
:105B8300E8240FF582E439F583D0E0F074075C6014
:105B93000478018002780075F00374075CA428F888
:105BA300EA28FAE43BFBE5082405F8E43509F98A19
:105BB300828B83E088828983125CBBAA82AB838554
:105BC3000882850983126A2E88828983E0F50A2573
:105BD300E0540EFCE50AC4540FF50A750B00740378
:105BE300780A120AEBE50A5438F8EC28F8EA28F8A0
:105BF300E43BF9850882850983A3A3A3A3A3A3A3F5
:105C0300A3A3E8F0A3E9124EC4FA8E828F83A3A361
:105C1300E02AFAA3E03400FBC3EA98EB9940288E0C
:105C2300828F83A3A3E0F8850882850983A3A3A3B6
:105C3300A3A3A3A3A3A3125C7FC39A288508828589
:105C43000983A3A3A38016850882850983A3A3A33D
:105C5300A3A3A3A3A3E4F0850882850983A3A3A335
:105C6300A3A3F0023583EE2413FCE43FFD22125C70
:105C73007522E82410F582E439F58322E0FA8E8256
:105C83008F83A3A3A3A3E022901B13125CB622F07D
:105C93008E828F83A3A3E022125C9F22F0EE24085E
:105CA300FCE43FFD22F0850A82850B83125CB62259
:105CB300901B13124592C822124EF0A32274F512C0
:105CC300041B8C088D09750A0078081208F57C0BF3
:105CD3007D000248B70208BBC082C0837918122531
:105CE3005E0246B0C082C0838A828B83E0C3940B7A
:105CF30050031225DC0246B0C082C083791980DECE
:105D030074F712041BEAFEEBFF901B73124F9360B0
:105D130010901B731253E51225E87A737B1B12252F
:105D23008EEEFAEFFB122588901B73EEF0A3EFF0D3
:105D3300024C0C74F712041B74DE1209BFEAFEEB6B
:105D4300FF8E828F83E024FD601124FE601524ED15
:105D5300600924FA600D14600A803D7416120C0D5C
:105D6300E480077416120C0D7401F01241AB740B2E
:105D7300120C0DAA82AB831212FE7413120C0D12B5
:105D83005E11120C0D124AA9740A120C0D125E1D3B
:105D9300120C0D124AA980417416120C0D7402F0F4
:105DA300125C69740B120C0DAA82AB831212FE747F
:105DB30013120C0D125E11120C0D124AA9740A1261
:105DC3000C0D125E1D120C0DE8F0A3E9125E0B120E
:105DD3000C0DAA82AB831225D08518828519837492
:105DE3000B125EAEA3E0C0E07401120C0DD0E01202
:105DF3005E0B120C0DAA82AB831225D0AA18AB1925
:105E03001219B8742202394B125C9F74172274035F
:105E1300F09003E8125F307402227402F09003E4FE
:105E2300125F3074142274F712041BEAFEEBFF8E28
:105E3300828F83A3E0F5087036EE242F125E9E70E6
:105E430003A3E06960037508E8EE2426FAE43FFB48
:105E53001225B2E96032EE2432F582E43FF583E4A1
:105E6300F0E508700AEEFAEFFB1225C4E9F508E540
:105E73000860128E828F83A3E508125EAE74191236
:105E83004B4912256A024C0CEE243212474460D16E
:105E9300901B9AE070CB7508E880D8F582E43FF553
:105EA30083125F309003E4E06822E4F08E828F83F4
:105EB30022C082C08374F11209BF7402120C0D74E4
:105EC30004125CBBE0C0E07403120C0DD0E0F0EAF6
:105ED300242FF582E43BF583125F2C740D120C0D15
:105EE300124AA9EA2426FCE43BFD7404120C0DAA11
:105EF30082AB831212F27404120C0DAA82AB8312CA
:105F030025B2E9600E125F35120F869003DE74FF2F
:105F1300F0A3F074021209971219B8740F023E4AE3
:105F2300A3A3A3A3A3A3A3A3A3125F302212459207
:105F3300F92285188285198374FFF0A3F0AA18ABA0
:105F43001979532274F612041B74E81209BFEAFE8E
:105F5300EBFF7402120C0D7403F0EE2413F508E446
:105F63003FF509AC08FD7404120C0DAA82AB831231
:105F730012FE12361AC0E0740C120C0DD0E0125C43
:105F83009B740D120C0DAA82AB831225D0AA08AB09
:105F9300091225B2E9600E125F35120F869003DEF7
:105FA30074FFF0A3F074021209971219B8741880E1
:105FB30004A90874091209277F0202067774F612EE
:105FC300041B74D41209BFEAFEEBFF8E828F83A3F6
:105FD300A3126077A2E650179003E412607C687006
:105FE30003A3E0697009901B9BE0604812261274BA
:105FF3000B12098F7403120C0D1230EDFCEFFDAA86
:1060030018AB191225CA851882851983742B124877
:10601300F712256A9003C9E060087408120C0DE0BA
:10602300600E85188285198374051248F71219B812
:10603300742C80819003EDE060B5124BD41225B22D
:10604300E970ACEE2408F508E43FF5097808120876
:10605300F975080175090078081208F99003E4122C
:1060630007447CD57D037A0379061225BE74061294
:10607300092780BC1243B2E022125F30123D5AE07E
:1060830022C082C08374EF1209BF851882851983E9
:106093007409F07401120C0D74EE1248F71219B85A
:1060A300023E4874F712041BA2AFE433FFC2AFE908
:1060B3006003120F74120F029003F7E0F9120FC27C
:1060C3009003F6E0F9120FB6901B9BE0F9120F9EB6
:1060D3009003E41253E5120FA49003E81253E51260
:1060E3000FAA7AF87B03120FB07E0012612A124FB7
:1060F30093600912612A1246151228210EEEC394E9
:106103000740E8122660122552901BB4E4F01224D3
:10611300441225947AE77B037952120F86EFA2E0AB
:1061230092AF7900024C0CEE125173747A28F58207
:10613300741B39F583221225700246B0C082C083D6
:10614300901BB57430F0A37426F0A3744EF0A374BF
:1061530026F0A37454F0A37426F0A37436F0A3744A
:1061630026F0A37442F0A37426F0A3743CF0A37446
:1061730026F0901B88749CF0A3741BF0A374AAF000
:10618300A3741BF0A374B5F0A3741BF0901B77E406
:10619300F0A3F0120EFC0246B00208BB74F712041F
:1061A3001BEAFEEBFF8E828F837407126209126271
:1061B30003A3A3126209A3126202A3A3A3F08C8216
:1061C3008D83A3A3120BDE8E828F83A3A3A3A312BB
:1061D3000BD28E828F83A3A3A3A3A3A3A3A3E4F0D1
:1061E300EC2418F582E43DF583125F2C8E828F83B5
:1061F300A3A3A3A3A3A3A3A3A3124AA9024C0CA3DF
:10620300E08E828F832212620EA322F08C828D8312
:10621300A3A3A3A3A32274F412041BEAFEEBFF902F
:106223001BC2125EADA3A3A3A3A3A3E0C394064022
:1062330006901BC274E8F08E828F83A3A3A3A3A34B
:10624300A3A3E0C3940F40158E828F83A3A3A3A3BC
:10625300A3A3E064036015901BC274E8F08E828FE1
:1062630083A3A3A3A3A3A3E06403700E901B77E00F
:10627300A2E04006901BC274E8F0EEFCEFFD7AC189
:106283007B1B12262A8E828F83A3A37808120BB658
:10629300740A7808120976901BD57808120B988E29
:1062A300828F83A3A3A3A3A3A3A3E0901BD9126309
:1062B30053901BDA126358901BDB126339901BDC7B
:1062C300F0EE240C124744901BDDF0A3740AF09007
:1062D30003F7E0901BDFF0901BD2124858740412AE
:1062E300633F1208F57C0B7D007AE07B1B1211489B
:1062F3007403120927901BC2E0702A8E828F83A336
:10630300E07022901BC3E06006901BC274EAF09019
:106313001BC3E0F9120FCE8E828F837426F07904AB
:1063230012106A80078E828F837429F0EEFAEFFBD6
:1063330012256A022F82F0124D21E022F0EE240D85
:1063430012634722F508E43FF509750A007808222D
:1063530012635EE02212635EA3E022123AADA3A3AE
:10636300A32274F412041B74F71209BFEAFEEBFFB5
:10637300901BC3E07030901BDEE0640A6028120FAC
:10638300E0E9C0E0901BDEE0F8901BCAE028F8A328
:10639300E03400F9E824F5F582E9123509D0E0F09C
:1063A300901BC9E004F0901BD57808120BB674015A
:1063B3007808120976901BD57808120B98901BDE8B
:1063C300E004F0E508A2E04006E0C3941E40D7E0F5
:1063D300641E70030264617ADE7B1B79E1120F860F
:1063E3007408120C0D74021253F074FFF0A3F090B2
:1063F3001BC3E0600464027009EEFAEFFB12263C53
:106403008068E06401700679087A80800479077AED
:10641300837508E075091B78081208F9E4F508F597
:106423000978081208F97508FF7509FF780812083A
:10643300F9740612099F1225BE7406120927E9F89A
:1064430074DB68601474E568600F74F368600A7441
:10645300DF68600574E8687011E8901BC2F08E82F3
:106463008F837429124B4912256A022F7D74F0120F
:10647300041B750801750900750A00750B00901B54
:10648300DEE078081208777808120B58901BC5785D
:1064930008120AB2901BC3E06403700F1264EF1278
:1064A3000BB67808790C12032C8035750801750931
:1064B30000750A00750B00901BD9E0780812087765
:1064C3009087FA7808120A79908852780C120BB6E2
:1064D3007808790C12032C901BC3E07003120FDAB7
:1064E30078081208F17ACC7B1B022F669003F21214
:1064F3002F42908852780C2274F112041B74D41228
:1065030009BF8A088B09901BC3E06402600DE06435
:10651300016008E0640560030265F5901BC2E4F0C6
:10652300740B12098F7403120C0D124AA9AC08AD37
:1065330009AA18AB191225CA901BDAE0F8901BC9F7
:10654300E0C39850711269AC901BC9E0F50A802D25
:106553008E828F83125F237414120C0DE068700314
:10656300A3E069700F740B12099FEEFAEFFB12128E
:10657300ECE97042150AEE2421FE50010FE50A7082
:10658300CF740B12098F880C890D750E00780C12CD
:1065930008F57C217D00901BC9E08CF0A4F8A9F0DC
:1065A300A3E028FAA3E039FB121148740312092768
:1065B300901BC9E004F09003C9E0600E7408120C4C
:1065C3000DE07006901BDAE07007AA18AB191219D8
:1065D300B8901BDAE06021901BC9E0F8901BDAE069
:1065E3006870158508828509837429F0AA08AB09A8
:1065F300800312669812256A742C0259C874F61225
:10660300041B74FE1209BF8A088B09EA241BF58256
:10661300E43509F583E064037072EA2424F582E427
:106623003509F583E064037063EA2413FAE435095A
:10663300FB794A120F86850882850983A31269AC08
:106643001266A450010FAA18AB197950120F8612C3
:1066530066A450010FAA18AB19794B120F86EEFAF4
:10666300EFFB79E1120F868E828F83A31266B3F05C
:10667300A3E9125F3F120F86901BC2E4F0850882E4
:106683008509837429F0AA08AB098003126698125E
:10669300256A024F8B901BC274E8124EF07429F0E6
:1066A300228E828F831266B3124AAEEE2402FE223A
:1066B300E0FAA3E0F9EA85188285198322C082C033
:1066C300837ACC7B1B122690120FD4790412107696
:1066D300901BC3E064037006901BC2E060097ADF7D
:1066E3007B1B79E1120F867AC17B1B0246A4C08211
:1066F300C08374F51209BFEAFCEBFDAA18AB1912AB
:10670300262A7401120C0D74FC1248F71219B8747E
:106713000B023E4AC082C0837907026139C082C03E
:1067230083901BEBE4F0A3F0901BEDF0A3F0901D1E
:1067330008126743901D0C126743901BEF0241DF61
:10674300F0A3F0A374FFF0A3E4F02274F412041B8B
:10675300901BEFE4F0A3F0901BEB124F93602F908C
:106763001D087808120BB6126892120A15501F12F0
:106773000E848A088B098C0A8D0B126892120A15F3
:106783005006126892120B98901BEB124AA3901BAF
:10679300ED124F93901BEF601E124F93601112681E
:1067A30085120BB6901BED126895120A15500D90C9
:1067B3001BED124AA38005124F936021901D0878A8
:1067C30008120BB6901BEF126895120A15500E9023
:1067D3001BEF1243B7120BF6120E908003120E96A4
:1067E300022F8274F412041BA2AFE433FEC2AF90F3
:1067F3001BEF124F93700302687D126885120BB66C
:10680300901D087808120A15500B120D64901BEFA7
:10681300124F936065120E848A088B098C0A8D0BC4
:10682300901BEF126895120896504F9087DA7808FC
:10683300120BB6901BEF126895120A155003120D36
:1068430064901BEF12688B1226908508828509835A
:10685300A3A3A3A3A3A3A3A3E0F985088285098324
:10686300A3A3A3A3A3A3126AACEEA2E092AF122840
:1068730021A2AFE433FEC2AF8093EEA2E092AF0257
:106883002F82124EE8780822122F5EAA08FB22906C
:106893001BEB124EE178082274F012041B8A088B5A
:1068A300098C0A8D0B7410120C0D801C9087DA78FA
:1068B3000C120BB68E828F83A3A3780C120A155089
:1068C30003120D648E828F8312357660398E828F28
:1068D30083A3A37808120A9F901BEF125F2CEE6824
:1068E3007002EF6970C69087DA780C120BB68E824D
:1068F3008F83A3A3780C120A1550B18E828F83A3C2
:10690300A3122F3080BE022F6E74F312041BA2AFAA
:10691300E433F50CC2AF901BED1269AD901BEB1283
:106923000744901D087808120BB67808120B37AA93
:1069330008AB09AC0AAD0B12267274021209278048
:106943002F901D087808120BB68E828F83A3A3782D
:1069530008120A154013901D087808120BB68E8290
:106963008F83A3A37808120A2A8E828F831269ADBC
:10697300EE4F70CD901D0C7808120BB6901D087861
:1069830008120A006015901D0C120BDE901D0812F0
:106993000BD2901D08120BF6120E7E122666E50C22
:1069A300A2E092AF7F05020677A3E0FEA3E0FF22F9
:1069B30074F012041BA2AFE433FEC2AFECF8EDF99E
:1069C300880C890D8C828D83800C850E0C850F0DB0
:1069D300850E82850F83E0F50EA3E0F50FE50E45E6
:1069E3000F601A850E82850F83A3A37808120BB656
:1069F3008A828B83A3A37808120A1550CD850C8253
:106A0300850D83126A348A828B83E50EF0A3E50F2A
:106A1300F08C828D83125F2CEA687002EB6970033D
:106A2300122666EEA2E092AF022F6EA3A3A3A3A346
:106A3300A3EAF0A3EBF02274F412041BEAFEEBFFCB
:106A4300740C120C0DC082C083120E848A088B0949
:106A53008C0A8D0BD083D0827808120A798E828FAC
:106A630083A3A37808120B987CEB7D1BEEFAEFFB54
:106A730012267E022F8274F712041BEAFEEBFF8CB0
:106A8300828D83A882A983126AACE5824583601450
:106A9300EE65827003EF658370E9126AB4126A349B
:106AA300790180027900024C0C1253E98A828B83AC
:106AB300221253E9888289832274F712041BEAFEA7
:106AC300EBFFA2AFE433F508C2AF7CEB7D1B1226CC
:106AD3008AE9700B7CED7D1BEEFAEFFB12268A90A0
:106AE3001BEF125F2CEE687002EF697003122666CB
:106AF3000237A074F212041B74F41209BF8A088BC4
:106B030009ECFEEDFF890C7C0C7D007900AA18AB23
:106B13001912115A7409120C0DE4127841E0C0E005
:106B23007408120C0DD0E0F08E828F83126C6F12FA
:106B33007A0F901CB1E024FFF50AA3E034FFF50BB4
:106B4300850882850983E0850A82850B83F0750DAC
:106B53001E780D1208FD78081208F9780A1208F950
:106B6300E50C2401F508E43400F50978081208F966
:106B73007421120C0D1207449017DCE0F97CA47DFC
:106B83001C74091209971227E67409120927740C59
:106B9300026CD074F412041BE9FF901CB1127186CD
:106BA300E9FE740E120C0D127E40801F88828983C9
:106BB300E0850A82850B83126D1CA882A983850A4E
:106BC30082850B83A385820A85830B74FF2EFE04C3
:106BD30070DA7410120C0DE09017DC6004744080BE
:106BE30001E4F0740C120C0D120744EFF9127B351B
:106BF300120927E9F99017DCE4F0026C7D74F412B2
:106C0300041B74F71209BFEAFEEBFF890A8C0B9091
:106C13001CB1127E32FCEBFD7AAF7B1A1212F8E93B
:106C2300700A7408120C0D126D7480127408120C21
:106C33000D7402F09016EC126C6FE8F0A3E9F0EE1D
:106C4300FCEFFDAA08AB09127750E50AF0A3E50BA8
:106C5300F0E4F508F50978081208F9790A740212C4
:106C6300099F127B311209277409800B127D1DF9CC
:106C7300851882851983221209277F0402067774F7
:106C8300F612041B74F71209BF127E3B7408120C30
:106C93000D7402F0851882851983EAF0A3EBF0EAFC
:106CA30088828983F0EB126CC6F0EC88828983A317
:106CB300A3A3F075080175090078081208F979048F
:106CC300026CFFA3F0EE88828983A3A32212092713
:106CD3007F0602067774F612041B126CF312766AAF
:106CE30075080475090078081208F979030272C15E
:106CF300901CB112765DEC127802ED227402120937
:106D03009F127B3112092774091209277F02020699
:106D1300771209277F07020677126D202212732646
:106D2300A32274F612041B74F71209BFE9FE740858
:106D3300120C0D126D6F127656EA1277FEEBF0907D
:106D43001CB1E02402FAA3E03400FB1212FE127D10
:106D53001AC8240AF582E438F583EEF07508137532
:106D6300090078081208F9790B026CFF126D74F0B0
:106D730022740FF085188285198374FDF0A374FFC4
:106D83002274EA12041B8A0C8B0DECFEEDFF8910B2
:106D9300127E458C828D83A3A3A3A3A3A3A3A3E005
:106DA300640F700B8C828D8374FCF0A374FFF075F9
:106DB3000E017418120C0D127186741F650A70048B
:106DC3007480650B700B750E028A828B83E4127BD1
:106DD300608A088B098A828B83E9127B60750F00B6
:106DE3007416120C0DE0F514A3E0F51590178BE063
:106DF30075F00CA4F8A9F0E51428FCE51539FD128B
:106E030012FE90178BE004F07408250EF50EE06572
:106E13001070127401250F850882850983F090177D
:106E23008BE4F0804B050FE50FC3940A40BE850841
:106E330082850983740AF090178BE0C39510503054
:106E4300741F650A450B70051216828023741F6533
:106E53000A70047480650B701790884E1207407A8D
:106E6300007B40901715E0F91212C8740412092729
:106E7300780A1208F9A90EEEFCEFFDAA0CAB0D126D
:106E83007B3502780D74E812041B74EA1209BF8A79
:106E9300108B11750AFE750BFF7E007F00EA240C30
:106EA300F514E43511F515851482F583127E48EA4D
:106EB3004B70047C0880027C02E5102413F516E471
:106EC3003511F517851682F58312733B2CF582E491
:106ED30039F583E0F50DE510240BF512E43511F5D2
:106EE30013EA4B704DE8FEE9FFE8FCE9FD7AAF7B5E
:106EF3001A1212F8E960099016EC127186026FA259
:106F0300EEFAEFFB121A9CEA4B7003026FB28A820D
:106F13008B83A3A3A3A3E0F87401686008740268D9
:106F23006003026FB28A828B83127186E50D706CE7
:106F3300806D88828983E0FAA3E0F9EA2EF50AE4FA
:106F430039F50B9016ECE06A7003A3E06970067ED6
:106F5300AF7F1A804AAB0B121A968B09A909EA492B
:106F6300604D8A828B83A3A3A3A3E0640170407462
:106F730009120C0DE4127680A3127E407414120CD5
:106F83000D127A0F7409120997121A42E9600974F3
:106F93000C120C0DAE82AF83E50D6003750DFF740B
:106FA300FE650A700474FF650B6004EE4F700C8578
:106FB3001282851383E06003027166127170750E8D
:106FC3000B74FE650A700474FF650B6024EE4F605A
:106FD30020E50D60067401650D7005750C00803C9D
:106FE300750C80851282851383E06401702E027113
:106FF30066750C8112717B7008750AFF750BFF8033
:107003001B7C087D0079FF740112099712115A74D1
:107013000112098F88128913AE12AF138508828576
:107023000983E50CF0A3858208858309EEFCEFFD57
:10703300AA08AB091212FE8A088B09AE08AF098AA7
:10704300828B83E50AF0A3E50BF07401650D600301
:1070530002712D9016ECE0650A7004A3E0650B60E5
:107063000302712DE50C600302712D8518828519C9
:1070730083E4F0AA18AB19121AAEEE2402F8E43F27
:10708300F9E8FCE9FDEA4B700302712412717B708D
:1070930004780980027803851682851783E028F532
:1070A30008A3E03400850882F583E0F50825E0F8BD
:1070B300E433F9EA28F8EB39F9851882851983E076
:1070C300F509E508C39509500DE0C39508F0C333EE
:1070D300240BF50E8002E4F0E08C828D8312782F6E
:1070E300E508F0EE2404F508E43FF509050E050E66
:1070F3008021888289831276711272B612718E5042
:10710300020509E82402F8500109851882851983CC
:10711300E014F0851882851983E070D6121214806A
:107123000988828983E4F0750E0C9017DC7410F0E3
:10713300851482851583E0F508A3E04480F509787A
:10714300081208F9A90EE5102402FCE43511FDE547
:1071530010240FFAE43511FB127B3512092790171F
:10716300DCE4F074161209277F10020677901CB135
:10717300E0F508A3E0F509228514828515831273CF
:107183003F4922E0F50AA3E0F50B22850882850931
:1071930083A3F0E5082402F5082274F612041B9079
:1071A3001CB11279DD8E82F583E4F0ECA3F0ED8E51
:1071B300828F83A3A3F0740A120C0D12728C541FD6
:1071C3008E828F83A3A31272B58E828F83A3A3A310
:1071D300A3126D1C127828127296127823127296DB
:1071E3001278281272A11278231272A1A312727F4D
:1071F3001272BB12727FA3F0E82408FCE439FD8C01
:1072030082F583E0F508EE240BF582E43FF583E590
:107213000812753BE0C0E0EE240CF582E43FF583F1
:10722300D0E01272BBA3A3A3E0C0E0EE240DF5826D
:10723300E43FF583D0E0F0E8240BF582E439F583ED
:10724300E0C0E0EE240EF582E43FF583D0E0F0E801
:10725300240CF582E439F583E0C0E0EE240FF582D7
:10726300E43FF583D0E0F0750802750980780812D1
:1072730008F9791012732C50010B804A127829A354
:10728300A3A3A3A3A3A3A3A322127D1DF98882F51D
:1072930083E022A3A3A3A3A3126D20A3A322A3A3EA
:1072A300A3A3A3A3A31272AC22127326A3A3A3A323
:1072B300A322A3126D20E0221272ACA3A322EAFC44
:1072C300EBFD7A8A7B17127B35026D0C74F6120480
:1072D3001B127338FEE9FF8882F583E4F0EC127326
:1072E30046F0740A120C0D12728C8E828F83A3A344
:1072F300A3127326127173540FF9740C7808120BCE
:10730300A7E508C4498E828F83A3A3A3A3F07508BE
:107313000375098078081208F9790512732C500156
:107323000B80A3F08882898322EA2402FCE43BFDDC
:10733300EA240FFA22901CB112733F22E0F8A3E073
:10734300F9E822A3F0ED88828983A3A32274EC12C7
:10735300041B8A088B09127E3BEC2409F50CE43DDF
:10736300F50DEC2406F50EE43DF50FEE7023EC4D20
:10737300601F850C82850D83E0FA850E82850F835D
:10738300E02AC333240CFAC3944F400779100274E4
:10739300F47A04EE88828983F0E5082413F50AE47D
:1073A3003509F50B850A82F583E0FBA3E0F5838BB2
:1073B30082127817A312752CFBA3E0F5838B82A3AB
:1073C300127502F0E82403F582E439F583EAC394E5
:1073D3000550030274CD74FC2AF08C828D831275E0
:1073E3000212753985820A85830B1278171275424A
:1073F300F0EC2403F50AE43DF50B850A82F58312CC
:107403007502127542127539A3A3A3A3E0540F8822
:10741300828983A3A3A3A3A3A3A3A3A3F0850E821B
:10742300850F831279CEA3A3A3A3A3F0E8240BF8BB
:10743300500109850E82850F83E060317B00EC24C7
:1074430007F50AE43D850A10F5118014EB1274F96F
:107453001275191275EF1275191275085001090B7F
:10746300850E82850F83E0FFEBC39F40DF850C828F
:10747300850D831275EFA3A882A983850C82850DE0
:1074830083E060487B00EC240A50010DF50A8D0B64
:10749300850C82850D83E0FCEBC39C502FEB25E02C
:1074A300FCE433FD850A82850B83E02CFFA3E03DDA
:1074B3008F8212781512752C2CFFA3E03D8F82F575
:1074C300831275085001090B80C6E4F0750A047530
:1074D3000B80780A1208F9EAF9E5082402FCE4357E
:1074E30009FDE508240FFAE43509FB127B3512097F
:1074F300277F0C02067725E0F50AE433F50B221209
:10750300781DA3A32212750C22A3E088828983A38A
:10751300F0E82402F822851082851183E0250AFF12
:10752300A3E0350B8F82F58322127531E022F085BB
:107533000A82850B8322A3A3F08C828D83A322A3CB
:10754300A3A3A3A312783C1279D2A32274F1120449
:107553001B74FF1209BFE9851882851983F08A0A13
:107563008B0BECFEEDFF901CB11276797508047459
:1075730006650A70047480650B7005750910800335
:107583007509007410120C0D1275EF7411120C0DA5
:107593001276877413120C0DE0F98A828B83A3A3EE
:1075A300A3F06021740429F5087414120C0D127CE5
:1075B300721208F5E9FC7D00EA2404FA50010B126B
:1075C30075F6120927E5099017DCF0780A1208F915
:1075D300A908EEFCEFFD7402120997127B3512091C
:1075E30027E9F99017DCE4F004026D1412781DF01A
:1075F300227D0012114874032274F712041B74FFD6
:107603001209BFE9851882851983F0127656ECF0CA
:10761300740A120C0D127E40901CB1E0FCA3E0F53D
:10762300838C82A3E812766A127656A3A3A3E4F0AE
:10763300740C120C0D1207447904EAFCEBFD74027E
:10764300120997127B3512092774011209277F014A
:10765300020677901CB112765D2212766122E0F861
:10766300A3E0F583888222127802A3E9F022E08561
:1076730008828509832212733FFAE9FB22F08A828A
:107683008B83A322127C67A3127C84F022740112E1
:1076930009277F0A02067774EE12041B8A0E8B0FEA
:1076A3008C0C8D0D890B127E45750A0C7416120C09
:1076B3000D1279DDEE2408F508E43FF5098508820B
:1076C300F583E0F87403687005750A158008740182
:1076D300687003750A0E7412120C0D12775F12771D
:1076E300587414120C0D127687850882850983124B
:1076F3007B4E50010B850882850983E0F87403688B
:1077030070137418120C0DE0C0E0EEFCEFFD12775D
:1077130050D0E0801674016870128E828F83127BC2
:1077230044F08E828F83A3127B44A3F09017DC7402
:1077330010F0780E1208F9A90AAC0CAD0D127B31CA
:10774300120927E9F99017DCE4F00276951212FE8C
:107753008A828B8322127750E50BF022E0FCA3E0B0
:10776300FD2274F412041B74F71209BFEAFEEBFF47
:10777300127656E91277FEECF0EA4F606A8A828B42
:1077830083A3A3A3A3A3A3A3A3E0F8740268600540
:10779300740F6870528A828B83127E4074FF687004
:1077A3000374FF69601474FC68700374FF69600AF2
:1077B30074FD68700374FF69702D7408120C0D74E6
:1077C30002F0122144851882851983EAF0A3EBF0B5
:1077D300750A36750B00780A1208F97902E912095D
:1077E3009F127B31120927750A36750B00780A122E
:1077F30008F97902EEFCEFFD026C6512780222F0C3
:10780300901CB1127661A32274011209277F0E0224
:107813000677F58312781D22F583E0888289832217
:10782300127829A322A3E08E828F83221278332237
:10783300F08E828F83A3A3A322127531A322127821
:1078430033A3A3A3A3A32274EB12041B74FF120993
:10785300BFE9851882851983F08A128B138D1474FE
:1078630018120C0D1279DDEC601E127656EC1279AB
:10787300E31208F97901AC12AD13740212099712DD
:107883007B351209270279AF7417120C0DE0F50D41
:1078930075F016A42404F50E127B277005791002E7
:1078A30079AF8A828B83A385821085831185100823
:1078B300851109E4F0A3E514F07416120C0D127986
:1078C300C4F0850882850983A3A3A3E50DF0E50829
:1078D3002404F50850020509750C00027982EE2490
:1078E30002FCE43FFDAA08AB091212FEEE240AFCD7
:1078F300E43FFDE5082408FAE43509FB1212FE8A89
:10790300088B09A808A909EE2412FAE43FFB8A822E
:10791300127815127680127817A3F0E82402FAE49D
:1079230039FB127B3BF0EE2415F582E43FF583E04F
:10793300333354FCFC8A828B83E04CF0EE2416F53F
:1079430082E43FF583E0C454F0FC8A828B83E04CED
:10795300F0EE24171279B9F0EE24181279B9A3F0D6
:10796300EE2419F582E43FF5831279CEF0E824067C
:10797300F508E439F509EE241AFE50010F050CE56C
:107983000CC3950D50030278E1901CB1E510F0A3F0
:10799300E5111279E31208F9A90EAC12AD137402C2
:1079A300120997127B351209271279ED7401120916
:1079B300277F0D020677F582E43F12781BA3A3A36A
:1079C30022E0850882850983A3A3221279D222E0CB
:1079D30088828983A3A3A3A3A322E0FEA3E0FF22BB
:1079E300F0750831750980780822E9FEAA0AAB0B05
:1079F300127C55EEF9221279FD222401FAE43400B7
:107A0300FB12120E22127B48A3A3A322E8F0A3E9E0
:107A1300F02274EA12041B74FF1209BFE98518826D
:107A2300851983F08A148B158C128D0D7418120C22
:107A33000DE0F50C75F015A42404127B277005796D
:107A430010027B248A828B83A385820E85830FAAEF
:107A53000EAB0FE512F0A3E50DF07417120C0D1227
:107A63007B44A3A3127D22E50CF0EA2404FA50011F
:107A73000B7508047509007419120C0D1279DD8059
:107A830016740E2508F508127B67FA50010BEE24D5
:107A930015FE50010F0509E509C3950C505AEEFC7C
:107AA300EFFD1212FE8E828F83A3A3A3A3A3A3A32E
:107AB300A3127B44127B578882127B421272B58ACF
:107AC300828B83A3A3F0EE2413F8E43FF98882F5B5
:107AD30083127B4E50010BEE240BFCE43FFD8882A6
:107AE3008983E06403709A74152508F5081212FE61
:107AF300127B3B127B608096901CB1E50EF0A3E5F0
:107B03000FF0750E33750F80780E1208F9A908ACC3
:107B130014AD157402120997127B351209271279D5
:107B2300ED02780B1279FD8A0A8B0BEA4B227A8AD3
:107B33007B171217B4740222EE2414F582E43FF586
:107B430083127B4822E08A828B8322127A08F0EA2E
:107B53002404FA22F0EE2409F8E43FF922F0A3AA60
:107B630082AB83228C828D83127B48F08C828D833F
:107B7300A3127B48A3F0EA24022274EE12041B74BE
:107B8300FF1209BFE9851882851983F08A108B11CA
:107B93008C0F8D08740A2DF5091279F98A0A8B0B5B
:107BA300AE0AAF0BEA4F70057910027C4A8A828BCA
:107BB30083A385820A85830BE50F127B60741312FE
:107BC3000C0D1207401211E47404120927741712E2
:107BD3000C0D127C63F0E9A3F07419120C0D127CE6
:107BE30063A3A3127C7F127F88E508F0601C741BDB
:107BF300120C0D127C721208F5AC087D00EA240504
:107C0300FA50010B1275F6120927901CB1E50AF020
:107C1300A3E50BF0741D120C0DE09017DCF0750A50
:107C230038750B80780A1208F9A909AC10AD1174E4
:107C330002120997127B35120927E9F509127C4DC7
:107C43009017DCE4F0A909027690EEFAEFFB127CC0
:107C53005522121214901CB1748DF0A37417F022E4
:107C6300127C6722E0F8A3E0F9E88A828B8322E0A2
:107C7300F50CA3E0F50D750E00780C22127C84A39D
:107C830022F0E98A828B83A3A32274F212041B8954
:107C93000A8A088B099017DD1279DDEEF8EF80264A
:107CA30088828983A3A3E0650A701088828983A3ED
:107CB300A3A3E06A7003A3E06B6053E8FEE9FF88C7
:107CC300828983127D1DF9E84970D57A057B0012FC
:107CD300120E8A0C8B0DA80CA90DEA4960348A8216
:107CE3008B83A3A3E50A127D22E508F0A3E509F03F
:107CF3008A828B83E4F0A3F09017DD127E48EA4B6F
:107D030060068E828F8380039017DD127A0F7900CD
:107D130080027910026CD3901CB1E0F8A3E0221228
:107D23007D2622F08A828B83A3A3A32274EE1204FE
:107D33001B8A0A8B0B750C009017DD127E32241000
:107D4300F510E4350BF511027E24E50A240CF582C7
:107D5300E4350BF583127E40850882850983A3A34E
:107D6300A3127E48E86A7002E96B601B74FF6A70B5
:107D73000374FF6B6003027E1BE954807009741364
:107D830068496003027E1B851082851183E02417F6
:107D9300FAE43400FB1211788A0E8B0FAE0EAF0F8C
:107DA300EA4F6074850A0C850B0D750E00780C1272
:107DB30008F57C171275F412092785108285118343
:107DC300E0603AEE2417FAE43FFBEE2413F582E475
:107DD3003FF583EAF0A3EBF0E50A2413F582E435DB
:107DE3000BF583E0F50CA3E0F50D780C1208F5858F
:107DF3001082851183E0FC1275F41209278E828F9D
:107E03008374D3F0EEFAEFFB850882850983A3A37D
:107E1300E0F9121184750C018508828509831271BA
:107E230073E50845096003027D4DA90C027695E0D0
:107E3300F508A3E0F509EA22E9FE901CB1127D1DC5
:107E4300F922901CB1E0FAA3E0FB2274F612041BA2
:107E530074E91209BF7E00740A120C0D7402127FBA
:107E630088A3A3127E407402120C0D127A0FEA2427
:107E730015F582E43BF583E0C0E0740B120C0DD0E2
:107E8300E0127F88127E40740C120C0D127A0FEAF6
:107E93002419F582E43BF583E0C0E0740E120C0D67
:107EA300D0E0F0EA2420F582E43BF583E014C0E05F
:107EB3007410120C0DD0E0F0EA2422F8E43BF988A8
:107EC30082F583E02401FCA3E03400FD7413120C5B
:107ED3000DECF0A3ED127326127659E0C0E0740F97
:107EE300120C0DD0E0F0EA2412F582E43BF5831284
:107EF3007E407411120C0D127A0FEA2424F582E4E9
:107F03003BF583127E407415120C0D127A0FAA18DA
:107F1300AB19121826E9FC80010EEEF5087509006D
:107F230074027808120AEB748B2508F8742D35094E
:107F3300F98882F583E493C0E0740193F583D082DA
:107F4300AA82AB8374FF6A700374FF6B6028740C9E
:107F5300120C0DE06A7003A3E06B70BDAA18AB1995
:107F630088828983A3A3E493C0E0740193F583D04B
:107F730082122821800AEC7007AA18AB1912163A4C
:107F83007417026D0C127D26A322C082C0837A1659
:107F93007B0012120E900A94EAF0A3EBF07C167D9C
:107FA30000790012115A790012257C7901121FFA07
:107FB3007902121FE27903120D707904121D0C79F4
:107FC30005121D667906121544790712169A790867
:107FD30012130479091227AA790A1214A2D083D0A2
:107FE300820208BB7403F5D57455F5D47403F5D335
:0D7FF300745DF5D20208BB0208BB0208BB9A
:1080000007000A000C000D000E000F001000110008
:1080100012001300140019001B00000101010002EE
:10802000010202040004010403040404050406041C
:1080300000050206030604060506060607060806EE
:1080400009060A060B060C060D060E060F0610069C
:1080500011061206130604070009000B010B020BA0
:10806000030BFFFFFFFFFFFFFFFFFFFF00FFFFFF0F
:10807000FFFFFFFFFFFFFFFFFFFFFFFFFFFFFFFF10
:10808000FFFFFFFF000000000000000000000000F4
:1080900000000000000000000000000000000000E0
:1080A000000000FFFFFFFFFFFFFFFFFFFF00FFFFDC
:1080B000FFFFFFFFFFFFFFFFFFFFFFFFFFFFFFFFD0
:1080C000FFFFFFFFFF0000000000000000000000B5
:1080D00000000000000000000000000000000000A0
:1080E00000000000FFFFFFFFFFFFFFFFFFFF00FF9B
:1080F000FFFFFFFFFFFFFFFFFFFFFFFFFFFFFFFF90
:10810000FFFFFFFFFFFF0000000000000000000075
:10811000000000000000000000000000000000005F
:108120000000000000FFFFFFFFFFFFFFFFFFFF0059
:10813000FFFFFFFFFFFFFFFFFFFFFFFFFFFFFFFF4F
:10814000FFFFFFFFFFFFFF00000000000000000036
:10815000000000000000000000000000000000001F
:10816000000000000000FFFFFFFFFFFFFFFFFFFF19
:1081700000FFFFFFFFFFFFFFFFFFFFFFFFFFFFFF0E
:10818000FFFFFFFFFFFFFFFF0000000000000000F7
:1081900000000000000000000000000000000000DF
:1081A00000000000000000FFFFFFFFFFFFFFFFFFD8
:1081B000FF00FFFFFFFFFFFFFFFFFFFFFFFFFFFFCE
:1081C000FFFFFFFFFFFFFFFFFF00000000000000B8
:1081D000000000000000000000000000000000009F
:1081E0000000000000000000FFFFFFFFFFFFFFFF97
:1081F000FFFF00FFFFFFFFFFFFFFFFFFFFFFFFFF8E
:10820000FFFFFFFFFFFFFFFFFFFF00000000000078
:10821000000000000000000000000000000000005E
:10822000000000000000000000FFFFFFFFFFFFFF55
:10823000FFFFFF00FFFFFFFFFFFFFFFFFFFFFFFF4D
:10824000FFFFFFFFFFFFFFFFFFFFFF000000000039
:10825000000000000000000000000000000000001E
:1082600000000000000000000000FFFFFFFFFFFF14
:10827000FFFFFFFF00FFFFFFFFFFFFFFFFFFFFFF0D
:10828000FFFFFFFFFFFFFFFFFFFFFFFF00000000FA
:1082900000000000000000000000000000000000DE
:1082A0000000000000000000000000FFFFFFFFFFD3
:1082B000FFFFFFFFFF00FFFFFFFFFFFFFFFFFFFFCD
:1082C000FFFFFFFFFFFFFFFFFFFFFFFFFF000000BB
:1082D000000000000000000000000000000000009E
:1082E000000000000000000000000000FFFFFFFF92
:1082F000FFFFFFFFFFFF00FFFFFFFFFFFFFFFFFF8D
:10830000FFFFFFFFFFFFFFFFFFFFFFFFFFFF00007B
:10831000000000000000000000000000000000005D
:1083200000000000000000000000000000FFFFFF50
:10833000FFFFFFFFFFFFFF00FFFFFFFFFFFFFFFF4C
:10834000FFFFFFFFFFFFFFFFFFFFFFFFFFFFFF003C
:10835000000000000000000000000000000000001D
:108360000000000000000000000000000000FFFF0F
:10837000FFFFFFFFFFFFFFFF00FFFFFFFFFFFFFF0C
:10838000FFFFFFFFFFFFFFFFFFFFFFFFFFFFFFFFFD
:1083900000000000000000000000000000000000DD
:1083A000000000000000000000000000000000FFCE
:1083B000FFFFFFFFFFFFFFFFFF00FFFFFFFFFFFFCC
:1083C000FFFFFFFFFFFFFFFFFFFFFFFFFFFFFFFFBD
:1083D000FF0000000000000000000000000000009E
:1083E000000000000000000000000000000000008D
:1083F000FFFFFFFFFFFFFFFFFFFF00FFFFFFFFFF8C
:10840000FFFFFFFFFFFFFFFFFFFFFFFFFFFFFFFF7C
:10841000FFFF00000000000000000000000000005E
:10842000000000000000000000000000000000004C
:1084300000FFFFFFFFFFFFFFFFFFFF00FFFFFFFF4A
:10844000FFFFFFFFFFFFFFFFFFFFFFFFFFFFFFFF3C
:10845000FFFFFF000000000000000000000000001F
:10846000000000000000000000000000000000000C
:108470000000FFFFFFFFFFFFFFFFFFFF00FFFFFF09
:10848000FFFFFFFFFFFFFFFFFFFFFFFFFFFFFFFFFC
:10849000FFFFFFFF000000000000000000000000E0
:1084A00000000000000000000000000000000000CC
:1084B00000000000000000000000000000000000BC
:1084C00000000000000000000000000000000000AC
:1084D000000000000000000000000000000000009C
:1084E0000000000000000000050006000800090070
:1084F0001600020102020302000301030105020546
:1085000000060106040B14061506170600070107EE
:108510000207030700090509000000000000000031
:10852000000000000000000000000000000000004B
:108530000000000000000000000000000000822594
:108540000020E81F7C0D121DA81D5015A0160A134F
:10855000FC26A81410323030363038333120202039
:1085600020202020204E4D2D656E65726779206E8B
:108570006F7420757000105465786173496E737460
:1085800072756D656E74731054493030303120202F
:1085900020202020202020205465786173496E73AC
:1085A0007472756D656E7473005465786173496E8D
:1085B000737472756D656E747300FF0000000000C7
:1085C000000000000000000000005357313A47450A
:1085D0004E4150505F544F444F0053746172744485
:1085E00065766963652045525200527370204E6F64
:1085F0006E204D6174636865640000000000000037
:10860000000000000000000000004F727068616E02
:1086100020526573706F6E736500FF0000000000EC
:10862000000000000000000000004173736F632031
:10863000436E66206661696C005357323A2053746A
:1086400061727420424442004D6174636820446545
:10865000736320526571004173736F6320527370AE
:10866000206661696C00000000000000000000004E
:108670000000000000202047656E6572696320419C
:10868000707000456E65726779204C6576656C0088
:10869000000000000000000000000000004D4F44FA
:1086A0004520756E6B6E6F776E005A69674265651F
:1086B00020436F6F726400000000000000000000A3
:1086C0000000004E6F6E204D617463686564005356
:1086D00063616E204661696C6564004E6574776FF6
:1086E000726B2049443A00000000000000000000C6
:1086F00000FFFFFFFFFFFFFFFFFFFF4173736F638B
:1087000020436E660000000000000000000000FF33
:10871000FFFFFFFFFFFFFFFFFFFFFFFFFFFFFFFF69
:10872000FFFFFF000000000000000000000000004C
:108730000000000000005273702053656E7400FF4B
:10874000FFFFFFFFFFFFFF506172656E743A00FF8D
:10875000FFFFFFFFFFFFFF0000000000000000FF21
:10876000FFFFFFFFFFFFFFFF0000000000000053BE
:1087700075636365737300526F757465723A00496F
:108780004545453A20000508050008017446616921
:108790006C656400000000000000AB87B087A6870E
:1087A00082003A003B005A65643A005A433A20007E
:1087B0005A523A200053656E740001000080E803AD
:1087C000000014000000F4010000000000FFE71F9B
:1087D0000300F8FF00003C00000000000000FEFF66
:1087E000FFFF0B00000019E0FCFFE90300009751B8
:1087F00018001900000064000000010000004001A2
:108800000000FFFFFFFF1027000004000000000031
:10881000FF0000FF0000E204000058020000BC025C
:108820000000FF0000000000020000F8FF0760EAFF
:108830000000000001000000030088130000983AC7
:108840000000C80000003200000000E1F5050A0049
:108850000000300000003A2000200000000000016D
:1088600000000021003000010B010174F712041B0D
:10887000E9901A87F0901A3CE4F0121100901A9FC8
:10888000E4F0A3F0901A88F0A3F01222A0121A6C60
:10889000121BF212110690199CE4F0A3F012199A1F
:1088A00002B53174F012041B74D31209BF12DEAB8F
:1088B00054806068901A87E0F91211908A088B0939
:1088C000AE08AF09EE4F604C7C0080010CEC75F0F7
:1088D00003A4F8A9F0740B28F582742E39F583E40B
:1088E00093F46029E493F88E828F83E06870DDEC66
:1088F00075F003A4F8740C28F582742E39F583E41E
:1089000093C0E0740193F583D082122821EEFAEF30
:10891000FB12117E128D916480028D8585188285EF
:108920001983A3E0542060211220FC8A088B09AE31
:1089300008AF09EE4F600A12202AEEFAEFFB12117F
:108940007E128D916420028D85851882851983E0C1
:1089500054207003028C347A207B00901A87E0F94F
:108960001212DAEA4B4C4D701A901A9B120BDEE889
:10897000494A4B700E750801750900750A00750BA0
:1089800000806A750C00750D00750E00750F0012E1
:1089900012E68A088B098C0A8D0B901A9B120BDE4B
:1089A000E8494A4B6031901A9B7808120896400EAD
:1089B000750CFF750DFF750EFF750F7F801985080B
:1089C0000C85090D8C0E8D0F901A9B780C1209A73F
:1089D0007401780C120976850C08850D09850E0A3C
:1089E000850F0BE508128FBF7003028B727C007934
:1089F000047A007B001220C08A0C8B0DAE0CAF0DE8
:108A0000028AB97402120C0D74FFF07403120C0D7B
:108A100074FFF07404120C0D74FF12EDBF74071292
:108A2000099F12D312122126E96401706E12C07DD3
:108A30004480F8A3E0F97428120C0DE8F0A3E912C1
:108A4000EBB0E0C0E0742A120C0DD0E012B78C54E9
:108A50000860167428120C0DA3E04401128DA9C001
:108A6000E0742C120C0DD0E0F012B0C412D0DC6017
:108A70001212B50A12DE91E0F87416120C0DE8F02D
:108A8000A3E4F09087DA120740740612099F740B72
:108A9000120997121B5C74041209278E828F83A31C
:108AA000A3A3A3A3A3A3A3A37406128DA9F91220C1
:108AB000A27405120C0D12DEA5EE4F7003028B722C
:108AC0007C007904EEFAEFFB1220C07405120C0D45
:108AD000EAF0A3EB12C72712911FE4F50EF50F7809
:108AE00008790C120B784021EE2404F8E43FF98554
:108AF000080C85090D88828983C3E0950CF0A3E0FA
:108B0000950D12F23F70AA800C8E828F83A3A3A3CF
:108B1000A3E4F0A3F08E828F83A3A3A3A3A3A3A3B4
:108B2000A3A3A3E064018E828F83A3A3A3A3A3A323
:108B30007023E054046003028A038E828F83A3A310
:108B4000A3A3A3A3A3A3A37406F07AB7128D9C12C8
:108B50002012028AB1A3A3A3A3E06003028A038EBA
:108B6000828F83A3A3A3A3A3A3A3A3A37401F0024F
:108B70008AB11220907C0079017A007B001220C01B
:108B80008B0DEA450D600C7A207B00901A87E0F986
:108B90001211BA7C0079047A007B001220C0EA4BE3
:108BA0007014804E8A828B83A3A3A3A312BAD5C369
:108BB000EE98EF99400B8A828B83A3A3A3A312DEC6
:108BC000A57C0079041220C08B0BA90BEA4970D454
:108BD000C3E5089EE5099F500DC3EE9508FEEF958D
:108BE00009FFEE4F70157A207B00901A87E0F9128A
:108BF00011BA901A9B12AB1CF0802EEE2EFEEF33B2
:108C0000FF8E088F09E4F50AF50B78081208F17A4F
:108C1000207B00901A87E0F91212C8740412092709
:108C20001212E6901A9B120BEA851882851983E0CE
:108C300064208037E05410600E121C2E8518828547
:108C40001983E064108024E05440600E121CA0855B
:108C50001882851983E064408011E054806012120C
:108C60001B26851882851983E06480FAA3E0028DB3
:108C700085A3E05401600B122276128D91640102EB
:108C80008D85851882851983A3E054086047121BDF
:108C9000FE90197BE06401703490197CE0602EF541
:108CA00008E4F509F50AF50B9087BE780C120BB6AF
:108CB0007808790C12032C78081208F17A007B08E6
:108CC000901A87E0F91212CE7404120927128D91BE
:108CD0006408028D85851882851983A3E05410608D
:108CE00013901A99E06005E4F0121BFE128D916456
:108CF00010028D85851882851983A3E05440604554
:108D0000901AC012D0DE6036901CDCE06401702E38
:108D1000901AC112C976122821901AC612D0DE60AC
:108D20000612C9761228219087BE1207407A007B6E
:108D300040901A87E0F91212CE7404120927128D9E
:108D40009164408040851882851983A3E0540260B5
:108D50000A122270128D916402802A851882851968
:108D600083A3E05404602112CFA190198DE0640226
:108D700070031227327901901A3A12D68E121B7A9A
:108D8000128D916404FB80047A007B00742D02DB59
:108D90002B851882851983E0FAA3E0228E828F83C7
:108DA00012DE8912F4A6E0F92212B791A3A3E02201
:108DB000E8F0A3E9F0901A3A12BAD92274F7120433
:108DC0001B74DA1209BFEAFEEBFFEE4F602DAC1800
:108DD000AD191221267406120C0DE0601E741712D4
:108DE0000C0DE0FD7401120C0DE0FCEEFAEFFB79C6
:108DF00000121F52E9600479A480027900742602EF
:108E0000B52E74F412041B8A088B098A828B83A303
:108E1000A3A3A3A3A3E0544060508A828B8312943F
:108E2000211221DAE960067AFF7BFF80168508822D
:108E300085098312942174FE6A700374FF6B7003BA
:108E4000028EFF85088285098312C41812DEB112D2
:108E500021DAE98508828509837003028F1412DE06
:108E60008512F4DEE4F0A3028F18901A27E0A2E145
:108E70004003028EFF8A828B8312B51C12CEE1A3BF
:108E8000A3128F4BA3A312D9C38508828B83A3A3FC
:108E9000A3A3A3A3A3E05410600479408002790047
:108EA000750AFE750BFF780A1208F9128F41120736
:108EB00044EEFCEFFD8508828B83129421121C0482
:108EC0007404120927EE6A7002EF6B600F128F4173
:108ED000E06A7003A3E06B6003028E36750A0078C7
:108EE0000A1208FD790285088285098312B77FFC82
:108EF000A3E0FDEEFAEFFB12221C74011209277E9B
:108F0000CDEEFA850882850983128DA0122012E920
:108F1000601B802812F4CFE4F07C067D2085088257
:108F200085098312D68E121994E9FE70D4E508459E
:108F30000960097901AA08AB0912209CEEF902AC7C
:108F400085E50812C6DA3509F58322A3A3E0FA887D
:108F50008289832274F612041BE9FEEAFF7A0F7BF2
:108F600000121178EA4B601F8A828B83740CF0EE3A
:108F7000A3A3F0EF8A828B8312B27C901A87E0F968
:108F800012118479008034EEF91220C68A088B0908
:108F9000A808A909E849602188828983A3A3A3A31B
:108FA000A3A3A3A3A3740612E6C6A3A3A3A3A3E04B
:108FB000F9121CB2EEF91220A2791002C799EA4503
:108FC00009450A450B2274F212041BEAFEEBFF8CE2
:108FD000088D09890A740E120C0D12911F850C82DE
:108FE000F583E4F0A3F01291271221BCE96020126E
:108FF000D6811221DAE9640270158E828F83A3A3D1
:10900000A3A3A3A3A3A3A312DCC112CE068003755E
:109010000A00EE241D12B77914602E146043146008
:109020006414606C1460481470030290B324FE70E2
:10903000030290D01470030290D91470030290ECD4
:109040001470030290FA029110780C1208F9AC081F
:10905000AD09EEFAEFFB121C1674021209270290FA
:10906000F5AC08AD09EEFAEFFB121C1C02911A12C6
:10907000D6811221DAE96003029110EEFAEFFB12B9
:109080001C6402911AA90AEEFAEFFB1222228065F3
:10909000EE241712A97F64027076E50A700A12E2C4
:1090A000037003A3E0697072EEFAEFFBA90A1221C4
:1090B000B0804212E2037003A3E0697053EE2417FC
:1090C00012A97F64027049EEFAEFFB122198804AE0
:1090D000EEFAEFFB122294804112E2037003A3E048
:1090E00069702DEEFAEFFB12222E802EEEFAEFFBC6
:1090F000A90A12223AE9F50A8020901CDCE06401FA
:109100007009EEFAEFFB122240800F750A00800A08
:10911000750A007AD37B00121694A90A02AD75E095
:10912000F50CA3E0F50D22EE241DF582E43FF58356
:1091300012B783F92274F412041B74D61209BF8A81
:10914000088B098A828B83A3A3E0F91220C68A0ABE
:109150008B0BAE0AAF0BEE4F700302924A8508826A
:10916000850983A3A882A983E0C0E012C6E0D0E00D
:1091700012B0EC64F16033850882850983A3E06452
:10918000CD6027850882850983A3E0641A601B856A
:109190000882850983A3E064E9600F850882850958
:1091A00083A3E064E1600302931D8E828F83A3A3F7
:1091B000A3A3A3A3A3E0540870030292528E828F4C
:1091C00083A3A3A3A3A3A3A3A3A3740512D0E4E042
:1091D00064E96047901ABC12D0DE600612C97612AC
:1091E0002821901ABE12D0DE6031901A27E0A2E149
:1091F000502912D304A3A3A312BAE7888289831249
:10920000D68E1222D0EA4B6012850882850983A38C
:10921000E0F9901ABE12C4181228218E828F83A3FF
:10922000A3A3A3A3A3A3A3A3E0640270108E828FC1
:1092300083A3A3A3A3A3A3A3A3A37406F085088277
:10924000850983A3A3E0F91220A2122090742A02B8
:10925000AC82790012209CE9700302931D901A27BA
:10926000E0A2E140030292EB12D0D5607E8E828FA5
:109270008312D68E740412099F12D31212212685EE
:109280000882850983A3E064E9702012940C120817
:10929000FD850882850983A3E0F50A780A1208FD96
:1092A00012D9E312215C7402120927740D120C0DFD
:1092B00012D0CB12F16512CE067409120C0DE060CB
:1092C00004794080027900740F120C0D12BAE77411
:1092D0000D120C0D12D68E121C10E9600E8E828FAC
:1092E00083A3A3A3A3A3A3E04420F0EE2404F50AE0
:1092F000E43FF50B8E828F83A3A3A3A3A3A312BA8B
:10930000E785088285098312B0DE12D68E1211120B
:10931000850A82850B83EAF0A3EB0291CC85088253
:10932000850983A3E0C0E07402120C0DD0E012F7AF
:10933000CCF0129402E0C0E07403120C0DD0E012E5
:10934000E991E0AA18AB197024121B567402120C92
:109350000DE0701C12941D1221DAE97036901ABCCF
:1093600012D0DE602E12C97612282180031221B697
:109370007402120C0DE064E9701912940C1208FDCD
:10938000750AE9780A1208FD12D9E312215C740209
:10939000120927901A27E0A2E1400302921B8E8255
:1093A0008F83A3A3A3A3A3A3A3A3A3E06402703901
:1093B0008E828F83A3A3A3A3A3A3E05404602A12E5
:1093C000941D1221DAE98E828F83700F12C41874F3
:1093D000FFF0A312B0F1740502923CA3A3A3A3A3D0
:1093E000A3A3A3A3740302923C850882850983A3E7
:1093F000E064E9600302921BEEFAEFFB12224C02DA
:10940000921BE50812DE9C3509F583228E828F833C
:1094100012BAD9E8FAE9FB750A01780A228E828F1E
:109420008312B783FAA3E0FB2274F212041BEAFE54
:10943000EBFF750A007508008E828F83A3A3A3A398
:10944000A3E0603B750A0812D68179FF121DB48B28
:109450000DEA450D6010750A2C8E828F83A3A3A39D
:10946000A3A3E0D2E0F08E828F83A3A3A3A3A3E003
:10947000540364016003029532430A11029532EEEF
:10948000241812A97F6049EE241A12A97F6003F400
:10949000701D12E2037003A3E0697006750A2202D0
:1094A0009532901A3CE064046003029532801CEE11
:1094B000241BF582E43F129547241A12A97FFAEE85
:1094C0002419129FD8121C76E97067750801806212
:1094D00012D6811221DAE964027003750A0112E2E0
:1094E000037003A3E0697006E50AD2E1F50AE50A14
:1094F00060158E828F83A3A3E07006E50AD2E58013
:1095000004E50AD2E6F50A12D6811221DAE96401ED
:109510007006E50AD2E0F50A8E828F83A3A3E0608D
:10952000111291271221BCE964016006E50AC2E02C
:10953000F50AE50AA2E1400CE508A2E04006E50ACA
:10954000D2E7F50A02911AF583129F332274F012C2
:10955000041B74C11209BFEAFEEBFF85188285194E
:109560008374FEF0A304F07402120C0DE4F0A3F077
:10957000750D00740712099F8E828F83A3A3A31217
:10958000D0CD12D68C122126E970030297E678011D
:109590007409120C0DE0C3940240027800740B129F
:1095A0000C0DE0C39402400278007410120C0DE020
:1095B00064F87003A3E0F470030297E67410120CD1
:1095C0000DE064F97003A3E0F470030297E67410F1
:1095D000120C0DE064FA7003A3E0F470030297E646
:1095E0007410120C0DE064FB7003A3E0F47003022E
:1095F00097E6740A120C0DE0F9901A2AE0696003EC
:109600000297E6E8A2E040030297E612BACC74267D
:10961000120C0D12BB03241C12BACF7414120C0DC1
:1096200012CE06740D120C0DE0601D741E120C0D8E
:10963000E0FD7408120C0DE0FC8E828F8312D68C34
:109640007901121F52E9703D740712099712202404
:10965000E9F50C740D120C0DE0702F901A24E060E7
:10966000297422550C642260217442550C644270A6
:10967000147424120C0D129F1D600F7424120C0D13
:10968000129F0B60057ACF0297E8E9A2E6505F903F
:109690001A27E0A2E174245011120C0D12B77F12A8
:1096A00007C901010BC69600E697120C0D12B77F91
:1096B00024FD601214600F24FD600B24FD6007245C
:1096C000FE60030297E67424120C0D129F3A700E8E
:1096D0007424120C0D12C975A3E0640D6010740798
:1096E000120997122216E964017003029EF0129E7D
:1096F000F512A6007003A3E06970217508007808D0
:109700001208FD78081208FDEE242F129FD8129F30
:109710002312D68E12215C7402120927740D120CCA
:109720000DE070030297C5129F2312D68E1222D02D
:109730008A0E8B0FEA450F70030297F07408120C23
:109740000DE0F88E828F83A3A3E028F8A3E0340015
:10975000F9E8240D12EAF9F88A828B83A3A3A3E027
:10976000686010E88A828B83A3A3A312B275F0A36A
:10977000F0A3F079047408120C0D12A98BE02AF8FA
:10978000A3E034008882F583A3AA82AB831211661A
:109790008A088B098C0A8D0B850E82850F83A3A303
:1097A000A3A378081208964003029EF09087FA78E7
:1097B00008120A79850E82850F8312F728A3E50A1D
:1097C000F0A3E50BF0901A27E0A2E14003029EF01F
:1097D000742B120C0DE0605B7412120C0D12D68EFD
:1097E000121A8AE9703F7AD37B00121694029EF017
:1097F000901A81E0640170CD7424120C0D129F1D2B
:109800007006E50CA2E640BD7414120C0DE0F47075
:1098100003A3E0F4600CEEFCEFFD7407120997124D
:109820002030029EF08E828F83A3A312C418A3E07F
:10983000C2E5F07418120C0DE06017129EFF12F1D1
:10984000561412F60812A978F87418120C0DE8F0E4
:109850007006E50CC2E7F50CE50CA2E3506B740250
:10986000120C0DE4F0A37410F0E50CA2E250187491
:109870000C120C0DE054E3F0740C120C0DE01313F9
:1098800013541FF8E0802CA2E4502A740C120C0D23
:10989000E01313543F5407F86009740768600B180D
:1098A000E87007C3E50CC2E7F50CE8333354FCF865
:1098B000E054E348F0740C120C0DE0C0E08E828F8F
:1098C00083A3A312B1BDD0E0F0901A3CE064046021
:1098D00008E0640960030299A57410120C0D12E2ED
:1098E000107003A3E069601F7410120C0D12D68E65
:1098F0001221DAE96402600F740C120C0DE05403BB
:1099000064016003029EF07409120C0DE07041EED8
:10991000242F12A97FC0E07404120C0DD0E0129F16
:1099200063C0E07405120C0DD0E0129F5BC0E074C0
:1099300006120C0DD0E0129F501207407408120955
:109940009F740B120997121B5C7404120927805232
:109950007424120C0D12D2E77016741E120C0DE056
:109960006402703E740712099779001221B08032A8
:109970007424120C0D129F0B7014741E120C0DE047
:109980006404701E74071209971221A480147424B1
:10999000120C0D129F3A700A79007407120997127F
:1099A0002222029EF07461550C7003029ABBE50CF2
:1099B000A2E0507912BADE7407120997121CA6E9C8
:1099C0007068122156E9F50D7418120C0DE070152F
:1099D0007412120C0D12D0C6241312A97F687003E2
:1099E000A3E0696048A90D12BADE74071209971244
:1099F0001CACE9602AE50CA2E3500C85188285199D
:109A00008374FFF0A3800C7410120C0D129F41E8B8
:109A1000F0A3E9F07402120C0DE04404F0800EE5AE
:109A20000CC2E5F50C750D008003530C9FE50CA2EC
:109A3000E5503FEE242F12A97FC0E07404120C0DF4
:109A4000D0E0129F63C0E07405120C0DD0E0129FAD
:109A50005BC0E07406120C0DD0E0129F501207405C
:109A6000740812099F740B120997121B5C7404127C
:109A70000927E50CA2E64003029D89A818A91988C8
:109A800008890978081208F9A90D129F141209977C
:109A90001220187402120927E9F50D7003029D893E
:109AA0007424120C0D12B77F64016003029D897447
:109AB00002120C0DE04410F0029D897409120C0D85
:109AC000E06401705D7424120C0D12B77F640570A0
:109AD0001EA818A9198808890978081208F9129F80
:109AE000121209971220187402120927029EF074AC
:109AF00024120C0D129F3A70297410120C0D12D6FC
:109B00008E121A8AE9601BA818A919880889097891
:109B1000081208F9129F12120997122018740212E3
:109B200009277418120C0DE070257409120C0DE051
:109B30006401700C7424120C0DE0F8129F3A600C52
:109B4000EEFCEFFD7407120997122030029EF0120E
:109B50002096E96003029EF0741F120C0DE0700362
:109B6000029BFF7422120C0D12BAE77421120C0D25
:109B7000E0FA7420120C0DE0F9121C76E96073749F
:109B800021120C0DE0701E7410120C0D129F411268
:109B9000C16FFAA3E0FB121A968B09EA450960032C
:109BA000029D8380427422120C0D12D68E742112F3
:109BB0000C0DE0F9121C7012DEAB7808740F120C59
:109BC0000DE060027810740E120C0DE06004740851
:109BD00028F8740C120C0DE0600108088E828F8347
:109BE000A3A312C44814F07402120C0DE044400206
:109BF0009D8275080078081208FD790B029D397462
:109C000010120C0D12CDFB740B120C0DE060030250
:109C10009D54E50CA2E35003029D547409120C0DEF
:109C2000E06401607A790085188285198312D68EE6
:109C3000121CCA8A088B09A808A909E849601C886F
:109C4000828983A3A3A3A3A3E064016052888289CD
:109C500083A3A3A3A3A3E064026044129EF512BDF4
:109C60008E12D68E1222D08A828B83E58245836043
:109C700015A3A3E0F91222EEE9600BC3940895E066
:109C8000C365D03340197412120C0D12D68E121AFD
:109C90008AE97003029D2F740B120C0D7404F0748A
:109CA00000F50878081208FD7420120C0DAC82AD86
:109CB000837411120C0D12D68E740C120C0DE0F977
:109CC000121CDC7401120927E960137402120C0DD6
:109CD000E0442012BB08F812C975E0543FF0741F2D
:109CE000120C0DE060207410120C0D12BAE77420F3
:109CF000120C0DAA82AB8312212012DEAB74021269
:109D00000C0DE04440F07409120C0DE06401601584
:109D100079007412120C0D12BAE77410120C0D12A5
:109D2000D68E121C7CE50CA2E35037794080357545
:109D3000080078081208FD79027411120C0D12BA8D
:109D4000E77413120C0D12D68E12221C7401120924
:109D500027029EF0E50CA2E34003029C9F744002A0
:109D60009CA179007412120C0D12BAE77410120C37
:109D70000D12D68E121C10E960097402120C0DE04F
:109D80004420F0122156E9F50D851882851983E0EB
:109D900064FE7003A3E0F47003750D0090197EE07B
:109DA00064016003029E3CEE241312A97FF4700349
:109DB000A3E0F47003029E3C7410120C0DC3E094F7
:109DC000F9A3E094FF507512BACC7412120C0DE096
:109DD000687003A3E06960647412120C0D12D68ED1
:109DE000121A968A088B09A808A909E849604D88C3
:109DF000828983A3A3A3A3E06401600D8882898381
:109E0000A3A3A3A3E0640270337432120C0D740197
:109E100012E6BBF8A3E0F9743D120C0D12CE0674E5
:109E200032120997121A42E960127435120C0DAA07
:109E300082AB83121AA8E96003121664E50CA2E74C
:109E40004003029EF0E50D7003029EF08E828F8328
:109E5000A3A3A3A3E0FA7B0012120E8A0E8B0FEAD3
:109E6000450F7003029EF08E828F83A312DCB31223
:109E700008F58E828F83A3A3A3A3E0FC7D001211BB
:109E80004874031209277409120C0DE0C0E0742D08
:109E9000120C0DD0E0F07430120C0DE4F0A3F0744D
:109EA0002D12098F8808890978081208F9750800A9
:109EB00078081208FD7405120C0D120744E50DF523
:109EC0000878081208FD12BAAE1207448E828F83FA
:109ED000A3A3A3A3E0F97408120C0D12C97A1221EE
:109EE000147408120927E96007AA0EAB0F121214A6
:109EF000743F02DB2BEE242DF582E43FF58322EE46
:109F00002402F8E43FF9888289832212C41EE064A7
:109F10000722790012BAB212BAEB74092212B7837F
:109F2000640622EE242BF582E43F129F3112BAB36D
:109F300022F583E0FCA3E0FDEE2212C41EE06403E0
:109F400022129F452212F613F98518828519832261
:109F5000F0EE2425F582E43FF58322F0EE24311261
:109F6000A98322F0EE243012A9832274F412041B78
:109F7000EAFEEBFF8C088D0990197BE0600F12E27E
:109F8000037003A3E0697005121BFE80487900127C
:109F9000D681121CCA8A828B83E5824583602EA3F8
:109FA000A3A3A3A3A3E054186023E508241C12CDA7
:109FB000EA12074412CDE6120744EE2418129FD885
:109FC000129FDD121CE27404120927800879001226
:109FD0009FDD121C2802AC8512A983F9228E828F84
:109FE00083A3A3A3A3A3A3A3A3A3129F3312CEE689
:109FF00012D3252274F012041B74E51209BF8A0ED5
:10A000008B0FEA2402F50AE4350FF50B0A0AFB125E
:10A010001A9C8A088B09AE08AF09750901850E8262
:10A02000850F83A3E0F50C750801AC0AAD0B741025
:10A03000120C0DAA82AB831212FE7418120C0D744E
:10A04000FEF0A304F0741A120C0D7402F0740D12D9
:10A050000C0DE4F090199BE0700EEE4F700AE50CC9
:10A0600070067509C302A251901A3CE064086006AC
:10A070007509C202A24D850E82850F83A3A3A3A3F7
:10A08000A3A3A3A3A3A3E0A2E1500EA2E3500575EE
:10A090000804800C7508038007A2E35003750802CA
:10A0A000EE4F700302A1458E828F83A3A3A3A3E08A
:10A0B0006404600D8E828F83A3A3A3A3E064037066
:10A0C0000C74046508602C7403650860268E828F0A
:10A0D00083A3A3A3A3E06402600D8E828F83A3A356
:10A0E000A3A3E0640170377402650860067401651B
:10A0F00008701E8E828F8312D68E1221F8E9704569
:10A100008E828F8312BAD57418120C0D12CE06806F
:10A11000348E828F83A3A3A3A3E06402600D8E829A
:10A120008F83A3A3A3A3E06401700A8E828F83129E
:10A13000D68E121C46E50E2402FAE4350FFB121AE5
:10A14000A87E007F007418120C0DE064FE7003A35B
:10A15000E0F47048121A4EE97042E50C601D901C44
:10A16000FC12D68E1221F8E97011901CFC12BAD59F
:10A170007418120C0DE8F0A3E98020850E82850F7B
:10A1800083A3A3A3A3A3A3A3A3A3A3E05402F912AD
:10A190001C3A7418120C0DEAF0A3EBF07418120CB0
:10A1A0000DE064FE7003A3E0F470067509C702A217
:10A1B0004DE50CF50A780A1208FD850E82850F839D
:10A1C000A3A3A3A3A3A3A3A3A3A3E0F9E50E24023F
:10A1D000FCE4350FFD7419120C0D12D68E121B8083
:10A1E0007401120927E97065901ACA12D0DE601155
:10A1F0007418120C0D12D68E901ACB12C976122832
:10A2000021A908E50E2402FCE4350FFD7418120C98
:10A210000D12D68E121A788A0A8B0BAE0AAF0BEE8D
:10A220004F601F7402650C700D8E828F83A3A3A3F1
:10A23000A3A3E0D2E3F0741A120C0DE4F075090048
:10A24000800B7418120C0D74FEF0A304F0E50C7072
:10A250000A7405120997121982805B90198DE070BB
:10A26000497401650C704390196AE0703DE50E2455
:10A2700002F8E4350F12CDFF7402120C0DE4F074F5
:10A2800003120C0DE4F07404120C0DE4F0741A12B5
:10A290000C0DE4F07C01A908740512099712219EA7
:10A2A000AA18AB19121B3802A34CAC0CA9087405F0
:10A2B00012099712219EE9F8EE4F6053E50C6020D9
:10A2C0008E828F83A3A3A3A3A3E0D2E6F0740265DA
:10A2D0000C700D8E828F83A3A3A3A3A3E0D2E5F01D
:10A2E000850E82850F83A3A3A3A3A3A3A3A3A3A3E4
:10A2F000E0A2E6500D8E828F83A3A3A3A3A3E0D296
:10A30000E7F08E828F83A3A3A3A3A3A3E004F0E5C9
:10A31000097005E86036600AFC7D007A017B101246
:10A32000110CEE4F600CE50E2402FAE4350FFB121F
:10A330001AA87418120C0DE064FE7003A3E0F46018
:10A340000B7418120C0D12D68E121C46741B02DBF5
:10A350002B74F712041B74F71209BFEAFEEBFF908F
:10A360001A3CE06403600DE064016008E064096089
:10A370000302A4538E828F83A3E0600302A4297C8E
:10A38000007D007A027B0012110C12A4588A828B85
:10A390008312BAD5901A2D12CE06795312197C90D9
:10A3A0001A3CE064096009901A3A12D68E1222CA49
:10A3B000851882851983740112D10C794212197C97
:10A3C000901A3C7404F07401120997794A121976B4
:10A3D000740112099F7A327B1A1212FE901718E04C
:10A3E000640B70057406F0800B7900901A3A12D64F
:10A3F0008E121B7A901A30E064FE7003A3E0F460C2
:10A40000107900740112099F901A3012D68E121A18
:10A4100078901A27E0A2E35004D2F08002C2F01232
:10A42000D102795212197C80278E828F83A3AE824B
:10A43000AF83FC7D007A037B1012110C8E828F8318
:10A44000E0F9901A3A12D68E121B7A901A3CE4F078
:10A4500012206C740902B52EEE2402FAE43FFB22AE
:10A46000C082C08390199C12D0DE7017901A3CE015
:10A4700024FB6005146007800A9019A3802F9019AF
:10A48000A5802AE849600890199D12A998700C8A45
:10A49000828B83A3E0F9121B62801D90199C12D25B
:10A4A000ED64027005122264800E901ABA12D0DE9A
:10A4B000600612C97612282102C58C74F012041BA2
:10A4C00074E81209BFEAFCEBFD8C828D83A3A3A381
:10A4D000A37808120BB67808120B58901A3D78082A
:10A4E000120AB275097F75087F7900901A3D780CC1
:10A4F000120BB6E9780C120976E50CA2E05024782C
:10A5000000901A88800E8E828F83A3A3E069700169
:10A510000812BAA412B46C70EDE8C395095004880F
:10A5200009890809E9C3941B40C18C828D83A3A3C8
:10A53000A3A3120BDEE8494A4B6079EC2404FEE445
:10A540003DFF8E828F83120BDE901A3D120BD27C60
:10A55000187D007900AA18AB1912115A8E828F83C8
:10A56000120BDE851882851983120BD27404120C2B
:10A570000D7401F0901A43E0C0E07405120C0DD088
:10A58000E0F07407120C0DE412D10C121988806BE4
:10A59000901A3A12D68E121BAA8A0A8B0BA80AA905
:10A5A0000B901A3A12CE068E828F83E0687003A356
:10A5B000E0696026901A8812B46C601E8E828F83C8
:10A5C00012A6007003A3E069700B8E828F83A3A391
:10A5D000E0650860BB12BAA480DDE508901A2FF090
:10A5E00012205AE96015901A3CE4F09019A712D095
:10A5F000DE600879C412C976122821741802DB2B98
:10A6000012BAD9901A3AE0682274F412041B74E862
:10A610001209BF8A828B83A3A3A3A3A3A3A3A3A38B
:10A6200012BAD5E8FAE9FB7900901A3D7808120BC6
:10A63000B6E97808120976E508A2E05032E9FCEAAA
:10A640002CF582E412BC1AF8901CFBE0C398501F52
:10A65000750801750900750A00750B00E978081284
:10A6600008777808120B58901A3D7808120AB20938
:10A67000E9C3941B40B3901A3D120BDEE8494A4BE4
:10A68000604E7C187D007900AA18AB1912115A90FF
:10A690001A3D120BDE851882851983120BD27404C1
:10A6A000120C0D7401F07407120C0D7401F0901A65
:10A6B00043E0C0E07405120C0DD0E0F07407120CFA
:10A6C0000DE412D10C121988901A3C7406F0801E09
:10A6D000901A3CE4F0FCFD7A047B1012110C9019E6
:10A6E000A712D0DE600879C412C976122821741826
:10A6F00002AC8274F512041B74D11209BF8A088B54
:10A70000098A828B83A3A3A3A3A3A3A3A3E0C394D7
:10A710000F500302A9738A828B83A3A3A312DEA521
:10A72000741C12099F8A828B83A3A3A3A3A3A3A350
:10A7300012A99012D68512207E741C120C0DE070A6
:10A740002E850882850983A3A3A3A3A3A3A3A3E0C3
:10A75000C3940B401A8E828F83A3A3A3A3A3A3A3A6
:10A76000A3E064027009EE240B12A97FF4600302D7
:10A77000A973741E120C0DE060076402600302A945
:10A7800073901A3CE06402700302A858E0640670FB
:10A790000302A85890199C12D0DE600812A9987084
:10A7A0000302A88C901A3CE064086008E06404602E
:10A7B0000302A973741E120C0D12A98BA3A3A3A3E9
:10A7C000A3A3A312DEA590199CE0F8496009A3E0B9
:10A7D00012A97864026077901A3AE06E7003A3E0E1
:10A7E0006F600302A97374016A60167423120C0D62
:10A7F000AC82AD837A4E7B1A1212F8E9600302A98B
:10A80000737A007B02901A87E0F91212DAEA4B4C55
:10A810004D600302A973901A3D120BDE85188285E4
:10A820001983120BD2901A43E0C0E07404120C0D8D
:10A83000D0E0F07405120C0D7401F07406120C0DCA
:10A84000740212D10C121B0EE9600302A970EEFA19
:10A85000EFFB12225E02A97390199C12D0DE702CBD
:10A8600075080078081208FD78081208FDEE24101B
:10A87000F582E43FF58312D0CEA3A3A3A3A312BA1B
:10A88000F512D68E12215C74021209278E828F83F4
:10A8900012BAD57407120C0DE8F0A3E912B0F11248
:10A8A000BAD57409120C0D12BB0312C07EC0E0743D
:10A8B0000B120C0DD0E0F0EE240B12E6AD740F7805
:10A8C00008120BA7740C120C0DE508F07420120C82
:10A8D0000DE0C0E0740D120C0DD0E0F07422120CEB
:10A8E0000DE0C0E0740E120C0DD0E0F0741D120CDF
:10A8F0000DE0C0E07410120C0DD0E0F0741E120CCC
:10A900000DE0C0E0740F120C0DD0E0F0EE24101238
:10A91000A97FC0E07411120C0DD0E0F07421120C6C
:10A920000DE0C0E07412120C0DD0E0F0742E120C89
:10A930000DE0C0E07413120C0DD0E0F07423120C83
:10A940000DA982AA8389088A09750A007808120865
:10A95000F57C087D007417120C0DAA82AB831211CE
:10A960004874031209277407120997121B74800395
:10A97000121B14742F02B7A112D2F922EE240F1267
:10A98000A98322F582E43FF583E02212C074A3225A
:10A99000A3E0F98A828B832212D2F4640122C0825E
:10A9A000C08374C91209BF12227C901A3CE064086B
:10A9B0006025902F25E493901A1EF0902F25E493A4
:10A9C000901A1CF0901A457401F0A312AB1C04F00D
:10A9D000A3E4F0A3F0A3F07C237D007900741412AB
:10A9E000099712115A901A4DE07009741E120C0D3D
:10A9F00074018006741E120C0DE412BC24740FF056
:10AA0000901CFA12D10C794612197C7401120C0DAB
:10AA1000E4F0901CC9E0C0E07402120C0DD0E0F02C
:10AA2000901A2AE0C0E07403120C0DD0E0F0740418
:10AA3000120C0DE4F07405120C0DE4F07407120C06
:10AA40000DE4F0901A4DE0C3940F500CE0C0E07498
:10AA500006120C0DD0E080077406120C0D740FF076
:10AA60007C4E7D1A7408120C0DAA82AB831212FE62
:10AA70007C037D0079FF7410120C0DAA82AB831247
:10AA8000115A901A86E0C0E07413120C0DD0E01237
:10AA9000CD4F74011209971220787A8A7B1A794572
:10AAA00012197C12218C901A41E0C0E0741C120C27
:10AAB0000DD0E0F0901A42E0C0E0741D120C0DD0F1
:10AAC000E0F0901A2FE0C0E0741A120C0DD0E012E2
:10AAD0008DB47418120C0D12CE067420120C0DE4F5
:10AAE000F0901A44E0C0E0741F120C0DD0E0F07436
:10AAF00034120C0DE4F07429120C0DE4F07A2D7B65
:10AB00001A795312197C7A307B1A794B12197C749A
:10AB10001412099712198E743702BBFFE4F0A3F0E8
:10AB2000A3F0A322C082C0838A828B83A3E0901A01
:10AB30003C6004E4F080777408F0901A4DE07028CF
:10AB40009019A712D0DE6008790012C97612282168
:10AB5000901A3A12BAE77A057B0012110C901A3A51
:10AB600012D68E1222CA801F7900121B6E901A2DE7
:10AB700012BAE77A067B0012110C901A3012BAE76B
:10AB80007A047B0012110C901AC012D0DE601F9064
:10AB90001CDCE0640170179087BE1207407A007BCE
:10ABA00040901A87E0F91212CE740412092702C5E8
:10ABB0008C0208BB74F712041B901A88128D9780C0
:10ABC0000FEA2414F582E412DEA2121214EEFAEF58
:10ABD000FBEA4B70EC901A88E4F0A3F002B53174F4
:10ABE000F412041B8A088B09EA12CDE8E0640370B2
:10ABF0000DEA240BFAE43509FB121A9C800FE0647D
:10AC000002707BEA12940412D68E121A968A0A8B6C
:10AC10000BAE0AAF0BEE4F6065850882850983A3F2
:10AC2000E0700D8E828F83A3A3A3A3A3A3E4804D22
:10AC300064F1600C850882850983A3E064E17025D6
:10AC40008E828F83A3A3A3A3A3A3E0640170168EB7
:10AC5000828F8312D68E121C46E508240BFAE43547
:10AC600009FB121AA88E828F83A3A3A3A3A3A3E038
:10AC7000600C8E828F83A3A3A3A3A3A314F08005EB
:10AC800074091209277F0402067774F212041B8AE2
:10AC90000C8B0DECFEEDFF890B8A828B8312CDF5B8
:10ACA000F0A3A882A9838A828B8312AD5212B2705C
:10ACB000A3E0C454F0FA88828983E04A12C0B285C6
:10ACC0000C828B83A3A312AD5212AD65E0333354D3
:10ACD000FC12AD59E033333354F812AD59A3E0A25E
:10ACE000E0E4331313FA88828983E04AF0EE240308
:10ACF000FE50010FE50C2407F508E4350DF5097544
:10AD00000A0078081208F57C087D00EEFAEFFB12C5
:10AD100011487403120927EE2408FE50010FE50CB8
:10AD2000240FF508E4350DF50978081208F57C03C1
:10AD30007D00EEFAEFFB1211487403120927E50BB0
:10AD4000C3940F400BE50C12BC0D350D12C6E6F096
:10AD50008023A3E08882898322FA88828983E04A5B
:10AD600012AD65A322F0850C828B83A3A3A3A3223B
:10AD700074031209277F0602067774F212041BEA95
:10AD8000FEEBFF8C0C8D0D8E828F83E08C828D8389
:10AD900012C71CA882A983E0540F8C828D8312B045
:10ADA000EBC412C52612C0A812C52E12B0E9A2E249
:10ADB000E4338C828D8312B0E8131313541F12C531
:10ADC0002612B0E8A2E7E4338C828D83A3A3A3A369
:10ADD000A3A3F0EE2403FE50010F8E088F09750A1D
:10ADE0000078081208F57C087D00E50C2407FAE4D9
:10ADF000350DFB1211487403120927EE2408FE508A
:10AE0000010F8E088F0978081208F57C037D00E594
:10AE10000C240FFAE4350DFB1211487403120927B4
:10AE20008E828F83A3A3A3E0C0E012F719D0E0F0D5
:10AE300002AD75C082C083E9901A9A7003E4800263
:10AE400074018004EAF0A3EBF002C58CE0F902C5BE
:10AE50008CC082C0837C067D208A828B8312D68E32
:10AE600012199402C58C74F612041B901A9AE070A1
:10AE70001B7C0079017A007B001220C0EA4B600C39
:10AE80008A828B8312D0DE600312200C02C799C025
:10AE900082C08379041220BAE9F8902F23E493C387
:10AEA00098401079FF1220BAE9F8902F22E493C35A
:10AEB00098500479018002790002C58C74F2120462
:10AEC0001B8A0A8B0B8909C2008A828B83A3A3A3E6
:10AED000A3A3A3A3A3E0F91220C68A0C8B0DAE0C8A
:10AEE000AF0D750801EE4F600302AFA7850A82859A
:10AEF0000B83A3A3A3A3A3A312BAE7850A82850B9E
:10AF000083A3A3A3A3A3A3A312B0DE12D68E122001
:10AF1000AE8A0C8B0DAE0CAF0DEE4F700302B0BCC1
:10AF20008E828F83A3A3A3A3E4F0A3F0E50A240CED
:10AF3000FAE4350BFB8A828B83E0C0E012D63DD069
:10AF4000E0F0E50A240D12D0BF12DCA612CE0612E4
:10AF500021E612B50A12DEB1E50A241112D0BF12A1
:10AF6000C6D312CE06E50A241312E5AFC0E012BA2A
:10AF7000AED0E0F0D200EE2406129F0212B0D5123D
:10AF8000B0EC5404600302B015901CC7E0F50A75DC
:10AF90000B007407780A120AEB8E828F83A3A3A397
:10AFA000A3A3A312B0CCF08E828F83A3A3A3A3A3E9
:10AFB000A3E0F50AA3E0F50B7407780A120BA7E5E6
:10AFC0000A5407FCE509605C8E828F83A3A3A3A3C8
:10AFD000A3A3A3A3A3740212C72112B3A4600B906E
:10AFE0001A2812C165A3A312CE06EC700302B08822
:10AFF000EE240612BABF12B0D5F0EC24FFF50AE435
:10B0000034FFF50B7407780A120AEB8A828B8312DD
:10B01000B0CCF080738E828F83A3A3A3A3A3A3E0FD
:10B0200044808082EC7005750800805C8E828F837E
:10B03000A3A3A3A3A3A3E05420600C121172EA54AB
:10B040007F7900245F80198E828F83A3A3A3A3A39B
:10B05000A3E05410601A121172EA540F7900240A06
:10B060005001098E828F83A3A3A3A3F0A3E9800DCF
:10B070008E828F83A3A3A3A37401F0A3E412B0F183
:10B08000740412B3281211BAA200503312BAF1A3F9
:10B09000A3A3A3A3A3A3A3A3E0F9EEFAEFFB1220BB
:10B0A000B4E9601B12B0C412D0DC600912B50A12F8
:10B0B000D68E121214EEFAEFFB121214750800A9C4
:10B0C0000802AD75EE240FF582E43F22E0450AF058
:10B0D000A3E0450B22E0547FF0A3E054FC22A3E060
:10B0E000F9850A82850B8322A3A3A3A312EA1EE09B
:10B0F0002212B0F52212B795A3A3A32274F412046E
:10B100001B74F71209BF7E001220C6EA4B700302BF
:10B11000B1B88A828B83A3A3A3A3A3A3A3A3A3E011
:10B120006406600302B1B88A828B83A3A3A3A3A39E
:10B13000A3A3E0FF8A828B8312B1BDE0C0E0740854
:10B14000120C0DD0E012B5F212CDFC1220E4EF5437
:10B1500008606385188285198312BAE77A007B003C
:10B160001220A88B0BEA450B704C12F7241219A67B
:10B170007C007D007A007B0080288E828F8312B74E
:10B180007FF47003A3E0F4602D901A3A12BAF9121A
:10B19000D68E1219A0E9641A601C7C007D00EEFABC
:10B1A000EFFB1220A88A0A8B0BAE0AAF0BEE4F7092
:10B1B000C979001219AC7E01EEF902AC8012DE8969
:10B1C0002408F582E438F58322C082C0838A828B0A
:10B1D00083E58245837009901A9F80068A828B835B
:10B1E000A3A312B3D860208A828B83A3A3A3A3A3B3
:10B1F000A3A3E0540860E5EC4D601012B41A70038C
:10B20000A3E06D70D780047A007B0002C58C74F2D5
:10B2100012041B8A088B09890AECFEEDFF7A147B65
:10B220000012120EEA4B603B8A828B83A3A3A3A376
:10B23000A3A3A3A3A3E412B5E7A3E50A12E2DFA345
:10B24000A3A3EEF0A3EF12B27512B5F912B27C8A85
:10B25000828B8312F72CEA240F12B26612B26FA30C
:10B26000F0A3F002AD75F582E43BF583E4F022A390
:10B2700012F4EFA32212E2EFE4F0A322A3F012DE15
:10B280009B12B2692274F512041BEAFEEBFF890AD5
:10B290008C088D09EE4F700302B3237401650A70A8
:10B2A0001279011220BAE9F8902F24E493C3985040
:10B2B0002280167404650A701479041220BAE9F821
:10B2C000902F23E493C398500A7911805874026533
:10B2D0000A70508E828F83A3A3A3A3A3A3A3A3A3C7
:10B2E000E50A12C72112F7288E828F83A3A3E4F008
:10B2F000A3F0901A9F12D0DE6018800312BAD5888E
:10B30000828983A3A312B3D888828983A3A370EC14
:10B310008003901A9FEEF0A3EF12B3281211BA79AE
:10B3200000800279C102B7A4F07A207B00901A87CE
:10B33000E0F922C082C083E9F87900901A9F801D4D
:10B340008A828B83A3A3A3A3A3A3A3A3A3E0686080
:10B350000574FF687001098A828B83A3A312B3D896
:10B3600070DE02C58C74F712041BEA4B7005901A4C
:10B370009F80068A828B83A3A312B3D8601F8A8220
:10B380008B83A3A3A3A3A3A3A3A3A3E06970E4EC6B
:10B39000600F8A828B8312B3A470D880047A007BFA
:10B3A0000002B53112F4D7E0540422C082C0839069
:10B3B0001A9F80068A828B83A3A312B3D860128A55
:10B3C000828B83A3A3A3A3A3A3A3A3E06970E580B7
:10B3D000047A007B0002C58C12D327EA4B2274F753
:10B3E00012041BEAFCEBFD901A9F80068A828B8375
:10B3F000A3A312B3D8601C12B41A7003A3E06D703B
:10B40000EB8A828B8312B52412D9D2A2E0E4337086
:10B41000DB80047A007B0002B5318A828B8312B70D
:10B42000836C2274F212041B8A0A8B0B8C0C8D0D18
:10B43000750800750900EA450B602A901A9F80067E
:10B440008E828F83A3A312B46C601AAC0CAD0DEE88
:10B45000FAEFFB850A82850B83122821E9640170CB
:10B46000DF8E088F09AA08AB0902AD75E0FEA3E0E4
:10B47000FFEE4F2279000208BB74F712041B901AEA
:10B480009F12BAD57C007D00800DE8FCE9FD888222
:10B490008983A3A312BAD5E8496030EA687002EB49
:10B4A0006970E7901A9F12D68EE86A7002E96B887D
:10B4B000828983A3A3700812BAD5901A9F800912BB
:10B4C000BAD58C828D83A3A312CE06806474F71242
:10B4D000041BEAFEEBFFEE4F602E1220DE12B518C1
:10B4E00012D68E1212148E828F8312D68E121214DE
:10B4F00012B0C412D0DC600912B50A12D68E121234
:10B5000014EEFAEFFB1212148027EE12B50F22246C
:10B510000FF582E43FF583228E828F8312B522F5E8
:10B520008322E0F8A3E0C8241FF582E43822120940
:10B53000277F0102067774F612041B8A828B83121E
:10B54000C41812E6B3901A9F12BAD57D007C008011
:10B550003488828983A3A3A3A3A3A3A3A3A3E064A2
:10B560000570190C88828983E0FEA3E0F5838E8242
:10B57000E065087004A3E0650970010D8882898385
:10B58000A3A312BAD5E84970C8902F20E493F8ED30
:10B59000C3985008902F1F12EB28400F8A828B838C
:10B5A000A3A3A3A37401F0A3E48010901A28E0F8E9
:10B5B00012A990A3A3A3A3E8F0A3E912B5F9740517
:10B5C00012B5E7E0440812B5F2F47003A3E0F460AA
:10B5D0000E901A3A12D9FB1219A0E9641A70057973
:10B5E000011219AC02C79912B5EB2212E2F3A3A320
:10B5F000A32212F4EF12B7832212B5EBA3A3227495
:10B60000F612041B901A9F12DEA580308E828F8363
:10B61000A3A312E6B312B51812D68E1212148E829C
:10B620008F8312D68E12121412B50A12D68E1212EF
:10B6300014EEFAEFFB121214AE08AF09EE4F70CC05
:10B64000901A9FE4F0A3F002C799C082C083EAFC7D
:10B65000EBFDEC4D6017EC24FBF582ED34FF12D0CE
:10B66000DC700712B6A4E0F4600712117E79058041
:10B6700030901A87E0C0E012B6A4D0E0F0902F120C
:10B68000E493F97AA17B1A1211B4E9640170107A7B
:10B69000007B20901A87E0F91211BA7900800279B4
:10B6A0000402C58CEC24FFF582ED34FFF58322748F
:10B6B000F412041BA2AFE433F508C2AF901AA11232
:10B6C000B46C603AEE24FBF582EF34FF12D0DC7AE2
:10B6D000007B20901A876007E0F91211BA8005E01C
:10B6E000F91211C0E4F50AF50B780A1208F9EEFC1C
:10B6F000EFFD7AA17B1A1211AE7402120927E50838
:10B70000A2E092AFEEFAEFFB02AC8574F512041BD7
:10B710008A088B09750A00901A9F80548E828F8345
:10B7200012B77F65087004A3E06509703D8E828FB3
:10B7300083A3A3A3A3E4F0A312B78C540460118ED7
:10B74000828F83A3A3A3A3A3A3A3A3E0F9121CB294
:10B750008E828F83A3A3A3A3A3A3A3A3A37406F0A2
:10B760007AF0128D9C122012050A8E828F83A3A379
:10B7700012B46C70A7A90A802BF582E43FF58312FE
:10B78000B7832212F613F5838882E02212B791E084
:10B790002212B79522F08E828F83A3A3A3A3A3A323
:10B7A000221209277F0302067774F012041B74D457
:10B7B0001209BFEAFEEBFF750A00750B007508FE63
:10B7C0007509FF122096E9600302BA97EE2415125C
:10B7D000A97F6041901CE4E0C43354E0F8E03333C7
:10B7E00054FC48C0E012D800D0E012BB08FAA3E035
:10B7F000FB79FF121DB48B0DEA450D6015750A012A
:10B800007508FF12A97C4404F0EE241512A97FD21A
:10B81000E0F0750B408E828F8312D68C1221DAE90C
:10B820006006EE241212CED3EE241312A97F700DFF
:10B83000902F17E493C0E012BAAED0E0F08E828F62
:10B8400083E0A2E7500454038019EE241412A97F68
:10B850007012901A19E0C0E012BAA4D0E0F0901A69
:10B8600019E004F012F4AD7016901CCBE0600D905E
:10B870001A24E0700A8E828F83E0700312CED0907B
:10B880001A27E0A2E15041E50AA2E040208E828F13
:10B890008312D68C1221DAE9602E8E828F83E060CB
:10B8A0000CEE240B12912A1221BCE9601B12A97C18
:10B8B0005440700302BA49EE241312F4B06003023C
:10B8C000BA4912A97C54FBF08E828F83E064017028
:10B8D00010EE240B12B7796402700612A97C444062
:10B8E000F012A97C5440600302B9A7E50AA2E05017
:10B8F0000302B9A7901A27E0A2E1400302B9A7E525
:10B900000BF50A780A1208FDEE2406FCE43FFD8ED2
:10B91000828F8312D68CEE2412129FD8121CDC74F4
:10B9200001120927E9600CEE241212CED312A97C71
:10B930004420F08E828F83A3A3A3A3A3A3E0603F40
:10B94000EE2402F50EE43FF50F850E821295472492
:10B9500007FAE43FFB1221208A088B09850E8285B5
:10B960000F83E065087004A3E06509700C8E828F78
:10B9700083A3A3A3A3A3A3E4F012A97C4440F08E65
:10B98000828F83E06401600BA90B12BAF512D68C8A
:10B99000121C7CA90B12BAF112D68C121C10E96091
:10B9A0000612A97C4420F0AC18AD19EEFAEFFB1298
:10B9B000211A8A0A8B0B74FE6508700474FF6509EE
:10B9C00070098E828F83A3A312E6B3EA450B70033E
:10B9D00002BA9B8E828F83E0C0E07401120C0DD0FE
:10B9E000E0F07404120C0DEEF0A3EFF0EE241E1242
:10B9F000BACF7402120C0D12CE06740112098F8890
:10BA00000C890D780C1208F9EE242012BAB712082E
:10BA1000FD12B50A120744EE240E12BAB71208FD41
:10BA2000901A2D1207447408120C0DE0F9AC08AD01
:10BA3000091221147408120927E9FE74106E705D52
:10BA4000AA0AAB0B1212148054EE241312A97FC061
:10BA5000E07417120C0DD0E012D648740F120C0DC2
:10BA600012BB03240412BABF12BAD57411120C0D02
:10BA7000E8F0A3E912C0D5C0E07418120C0DD0E0B4
:10BA800012E98C12A99112BAE77406120997121CD6
:10BA9000ACE9600302B8C8791180047E10EEF97435
:10BAA0002C02DB2BEE2414F582E43FF5832212BA3C
:10BAB000B222EE12F4FF2212A983F50C780C22F8C0
:10BAC000E43FF9E8FAE9FB8A828B8322EE2413F53E
:10BAD00082E43FF58312BAD92212F613F922EE243A
:10BAE00013F582E43FF58312BAEB22E0FCA3E0FDFC
:10BAF000228E828F83A3A3A3A312BAEB8E828F839D
:10BB000022A3A312CFBAEE2212BB0C22F08E828F98
:10BB100083A3A3E022C082C08374D71209BF90859B
:10BB200018740312099F74261208378A828B83A324
:10BB3000A3A3A312BAD5740E120C0D12F4E7A3A39B
:10BB400012BAD5740C120C0D12BC1F240DF582E430
:10BB500012BC1AC0E0741A120C0DD0E0F012D87D9D
:10BB600012BAD37420120C0D12BC1F12DE7512BC57
:10BB70001AC0E07408120C0DD0E0F0EA241CF58223
:10BB8000E43B12BAD37412120C0D12BC1F12C6DAA7
:10BB900012BC1AC0E07409120C0DD0E0F012BC0CFB
:10BBA00012BC1AC0E07407120C0DD0E0F012BC05F4
:10BBB0003B12BAD37424120C0D12BC1F2420F58240
:10BBC000E412BC1AC0E07426120C0DD0E012BC24A2
:10BBD00074FFF07401120C0D74FFF07402120C0D5E
:10BBE00074FFF09087DA120740740412099F7407FB
:10BBF000120997121B5C7404120927790074291228
:10BC0000092702C58CEA241EF582E422EA2412F5F3
:10BC100082E42274932AF58274063BF583E02212B3
:10BC2000CFBAEA2212BC2822F08518828519832215
:10BC300074F012041B74EC1209BF8A0E8B0F8C086F
:10BC40008D09890C7F107A217B0012120E12BDA281
:10BC5000E849700302BD877E007C217D0079008564
:10BC60001882851983E0FA12115AAA08AB09121A30
:10BC7000967427120C0D12BAD5EA4B60238A828B78
:10BC800083A3A3A3A3E06401600D8A828B83A3A393
:10BC9000A3A3E064037009E854407004740449F9F4
:10BCA000E9540460027E01901A3A12BD8E12F4C16A
:10BCB000ECF0A3EDF07424120C0D12D68E74111258
:10BCC0000C0DEAF0A3EB12BDB412DB203AF583743D
:10BCD0000212BDB42408F582E43AF583740212C45A
:10BCE0006CFAA3E0F5838A82E508F0A3E50912BDAA
:10BCF000B412BC063AF583E50CF07426120C0DE084
:10BD0000F508128D91CA12E99E3AF583E50812BD35
:10BD1000B4241FF582E43A12BD987406120C0D1279
:10BD2000CE067408120C0DE508F0742A120C0D12E0
:10BD3000C418C082C083740C120C0DAC82AD83D0C9
:10BD400083D08274051208377429120C0DE0C0E00C
:10BD50007413120C0DD0E0F0EEF9AA18AB191220F2
:10BD60009CE964017015EEA2E0500CA9081220C6EF
:10BD7000EA4B60031220EA7F00800C851882851947
:10BD80008312D68E121214EFF9741402DB2B12BA3E
:10BD9000EB85188285198322F583E50EF0A3E50F64
:10BDA000F022851882851983EAF0A3EB12C470F89B
:10BDB000A3E0F92212C470FAA3E0CA2274F01204BC
:10BDC0001B74FF1209BFEAFEEBFF8C088D098E82FF
:10BDD0008F83A37408F0EE241612A97F60088E8268
:10BDE0008F83A37410F0EE241712A97F60098E824E
:10BDF0008F83A3E02408F0EE241512A97F60088E3B
:10BE0000828F83A3E004F08E828F83A3A3A3A3A3D6
:10BE1000A3E060198E828F83A3A3A3A3A3A3A3E0AF
:10BE2000C3332402F88E828F83A3E028F0EE24111E
:10BE300012A97F8518828519836004740E8001E43D
:10BE4000F0EE2423F582E43FF58312C46BF98E8271
:10BE50008F83A3E012C07C28298C828D83F0EE248E
:10BE60001112A97F6013901A25E0F9121F58E9F802
:10BE7000850882850983E029F0850882850983E0A9
:10BE8000C394754009750C00750D0002C06BE0FA93
:10BE90007B0012120E8A0C8B0DEA450D700302C056
:10BEA0006B8E828F83E0FA901A2A12C0A1740278F6
:10BEB00008120AEBEA4508FAAB09EE241212C09BFD
:10BEC00074067808120AEBA808EA48FCEBFDEE2499
:10BED0001512A97F6004780180027800EE2416FA1A
:10BEE000E43FFBE4C8F9ED49FDEE241112A97FF50A
:10BEF00008880974097808120AEBED4509FD8A8261
:10BF00008B8312C0A1740B7808120AEBED4509FD72
:10BF1000EE241712C09B740C7808120AEBED450949
:10BF2000FD8E828F83A3A3A3A3A3A312C0A1740A2F
:10BF30007808120AEBED4509FDEE242312C09B742C
:10BF40000D7808120AEBECF8ED4509F9E8850C824A
:10BF5000850D83F0E912C0A8850C82850D8312C07F
:10BF6000CBF0EE2404129F0212C08D12C0CBA3A30B
:10BF700012F4F512C08DA3A3A3A312C0D5850C8221
:10BF8000850D83A3A3A3A3A3A3A3F0750B088A82A3
:10BF90008B83E06015EE241812BAE1E50C2408FA50
:10BFA000E4350DFB1212FE750B10EE241712A97F5B
:10BFB0006019EE241A12BAE1A80BE50C28FAE43550
:10BFC0000DFB1212FE7408250BF50B8E828F83A3D6
:10BFD000A3A3A3A3A3E06054EE2407F50EE43FF56A
:10BFE0000F850E82F583E0C0E012C084D0E012C05D
:10BFF000BBE0C0E00812C086D0E012C0BB12DCB3C8
:10C000001208F5850E82850F83E012C3E5A80BE5C3
:10C010000C28FAE4350DFB12114874031209278528
:10C020000E82850F83E0C333250BF50BEE2415122A
:10C03000A97F6008C0E012C084D0E0F012C6E01210
:10C04000DCB41208F512C07DFC7D007403120C0DE7
:10C0500012C074E0F8E50C28F8E4350DF9E82AFA86
:10C06000E439FB1211487403120927AA0CAB0D74B2
:10C070000102DB2BE0FA8E828F83A322F8EE240DDF
:10C0800012A98322A80BE50C2812C4042212C09125
:10C0900022E0850C82850D83A3A322F582E43FF57F
:10C0A00083E0F50875090022A312C0B28882898353
:10C0B000E022F0EE2402F8E43FF922F0050B8E8234
:10C0C0008F83A3A3A3A3A3A3A3A322A3A312E6C125
:10C0D00012C091A322F0EE241412A9832274F41248
:10C0E000041B74FD1209BFEAFEEBFF8C088D097476
:10C0F0000112098F880A890B780A1208F974021252
:10C10000099FAA08AB09121C587402120927E9708A
:10C110004B85188285198312CDF5F07401120C0D30
:10C1200012C16512C16F6027148E828F83A312C45F
:10C130006C12DC017401120C0DE028F8A3E039F94F
:10C14000E824FEF582E934FFF58312D68E80118E45
:10C15000828F83A3E4F0AA08AB0980047AFE7BFFF8
:10C16000740302AC8212BAD98E828F83A3A322E811
:10C1700012C1742212CFBB851882851983E0227404
:10C18000F012041B74FD1209BF12DEAB7402120C14
:10C190000DE9F08C0C8D0D750B017C267D0079006E
:10C1A000AA0CAB0D12115A7402120C0DE0C39408C4
:10C1B000500302C372E0850C82850D83F0AC0CAD98
:10C1C0000D85188285198312B77FFA851882851923
:10C1D0008312C97512C71012212CE96003750B0078
:10C1E00085188285198312C41812C42CE0F9EA85D7
:10C1F0000C82850D83A3A3A3A3A3A3A3A3A312C40B
:10C200007EF5838882A3A312C42CA3A3E0F9EAF8E5
:10C2100012D9BAE812C47E12A978C0E012D9B1D0FE
:10C22000E012C46CF8A3E0C82407F582E438F58373
:10C23000E0C0E012F719D0E012C45E740812C475B1
:10C24000A3E06020851882851983E02408F8A3E024
:10C250003400F9E50C241312F71DE8F0A3E912DB12
:10C26000242408F0850C82850D83A3A3A3A3A3A394
:10C27000A3A3E0602A850C82850D83A385820E85A9
:10C28000830F12C426F8A3E03400F9E50C2415123C
:10C29000F71D12CE06850E82850F83E02408F0126A
:10C2A000C3ECE4F012C3FCE4F0A312C45EA3A3A3A6
:10C2B000A3E0601112C438850C82850D83A3A3A36B
:10C2C000A3A312C485E50C12C40CE0700302C35E84
:10C2D00012C438FA12C3ECEA12C485F885188285B4
:10C2E0001983E028FBA3E034008B82F583E0F8E5B6
:10C2F0000C241A12F71DE812C485E8C39AE50C5005
:10C300005812C413F8902F13E493C39850047E0C72
:10C310008006E50C12C413FE850C82850D8312C4C1
:10C3200025F508A3E03400F509750A00780812081D
:10C33000F5EE12C3E57A637B091211487403120902
:10C340002712C3FC7463F0A37409F0EEC333F885BD
:10C350000E82850F83E028800412C40CE4F0850C63
:10C3600082850D83A3E0F8850C82850D83E0C39858
:10C3700050047900806C12C425FAA3E03400FBE578
:10C380000C12D9AB12F72012DEB1850C82850D8319
:10C39000E0C398C0E012D9A2D0E012C475E06040BA
:10C3A000E50C2417FEE4350DFF8E828F83E024F226
:10C3B000F0E50C241DF8E4350DF988828983E0242A
:10C3C0000EFAA3E03400FB8882898312DEB1901A52
:10C3D00025E0F9121F58E9F88E828F83E0C398F0A8
:10C3E000A90B02DB2925E0FCE433FD22E50C12C396
:10C3F000F2222419F582E4350DF58322E50C241B85
:10C4000012C40422F582E4350DF5832212DD4C12AC
:10C41000C4072212C3F2E02212C41C22E0F8A3E0F7
:10C42000F583888222A312C455E02822A3A312C94F
:10C430006C12C41EA3A3A322850C82850D83A38541
:10C44000820E85830F12C455E028FAA3E034008AD7
:10C4500082F583E022E0F88518828519832212C4D0
:10C460006222F0850C82850D83A322E412C470221F
:10C4700012BC28E02212C462A3A3A3A3A32212C168
:10C4800074F8A3E022F0850E82850F83E004F02289
:10C4900074F412041B8A088B09EA12C52EA3A3F0B8
:10C4A000EA1313543F12C526A3A3F0EAC4131312D0
:10C4B000C52E12C5417409780A120BA712C535A3FF
:10C4C000A3A3A3A3A3F0EB12C53712C540740A7847
:10C4D0000A120BA7E50A5401C0E0EC12DD4C3DF551
:10C4E00083D0E012C545740B780A120BA712C5352C
:10C4F00012C53E740C780A120BA712C535A312C5DB
:10C500003E740D780A120BA7E50A5401C0E0EC2432
:10C5100024F582E43DF583D0E0F0740E7808120B28
:10C52000A7A90802AC85540F8C828D83A3225403E3
:10C530008C828D8322E50A54018C828D8322A3A3F1
:10C54000A3A3A3A3A3F08A0A8B0B22C082C0837982
:10C55000008A828B83A3A3A3A3A3A3E0901A2460E1
:10C560000EE070238A828B83A3A3E0701A8016E00A
:10C5700060158A828B8312D685901A2DE06A70032B
:10C58000A3E06B60027901800312D68ED083D08243
:10C590000208BB74F212041B8A0A8B0B890CECFE96
:10C5A000EDFF8A828B8312C70E12212C850A8285A9
:10C5B0000B83A3A312C702E0F9EA8E828F83A3A3A1
:10C5C000A3A3A3A3A3A3A312C72F12C702A3A3E0ED
:10C5D000F9EAF812C6E0E812C72FA3A3E0C0E0EE24
:10C5E00012C6D3D0E012C736A3A3A3E0C0E0EE1278
:10C5F000BC0D3FF583D0E012C71C740812C727A3F7
:10C60000A3A3E06016E50A2408F8E4350BF9EE244C
:10C610001312CEC512C71CE02408F08E828F83A3AC
:10C62000A3A3A3A3A3A3A3E060148E828F83A3126A
:10C63000C6F1EE241512CEC512D0F92408F08E8270
:10C640008F83A3A3A3A3A3E0601F8E828F83A38500
:10C650008208858309E0F8E50A28F582E4350B12A3
:10C66000C6E6A3A312D0F904F0EEFAEFFB122132D2
:10C67000E9F50D70598E828F83A3A3A312CDF2A387
:10C680007014E0F8E50A28FAE4350BFB12D22B12FD
:10C69000DEB1E50C802812C6F1E8240EF85001093D
:10C6A00012D22B12CE06901A25E0F9121F58E9F883
:10C6B000850882850983E0F9E50CC39924F2C398C3
:10C6C000C0E0EE2417F582E43FF583D0E0F0A90D39
:10C6D00002AD7512C6DA3FF583222411F582E422F9
:10C6E00012CEE5F58322F583E08E828F83A3A3A388
:10C6F00022858208858309E0F8E50A28F8E4350BED
:10C70000F922E0FA850A82850B83A3A3A322E0FA2B
:10C71000A3E0F8E4C8F9EA28E439FB2212C721A310
:10C7200022F08E828F832212C721A3A3A3A322F01B
:10C73000A3E912C73622F0850A82850B83A3A3A33F
:10C74000A322C082C0837AAF7B1A79E21219767A6B
:10C75000AF7B1A02C58CC082C083901A2D02C58996
:10C76000C082C083901A3002C589C082C083794AD2
:10C7700012197602C58C74F612041B901AB7E0FEEB
:10C7800004F0EEF91220C68B09EA450970EDEE605F
:10C79000EAF9800574011209277F0202067774F016
:10C7A00012041B74FD1209BF7401120C0DECF0A3EE
:10C7B000EDF0E9851882851983F08A0E8B0F7E00D3
:10C7C0008E087401120C0D12BAE71222D08A0A8B5D
:10C7D0000B7413120C0DE0F50C7414120C0DE0F830
:10C7E000EA450B701CE8600302C8CE8518828519E3
:10C7F00083E0F97401120C0D12C97A1222F402C9F5
:10C8000069E8700302C889901ABC12D0DE60061273
:10C81000C976122821E50C700B850A82850B83E40A
:10C82000F002C8C9901A27E0A2E1400302C8E690CE
:10C830001ABE12D0DE600CA90CAA0AAB0B12C97684
:10C84000122821850A82850B83E0FA12E97A5001C9
:10C8500009C3EA98E499A2D265D0335009850A82C7
:10C86000850B83E004F0850A82850B83E0F8902F26
:10C8700011E4936870700EAA0EAB0F121CE8850AC3
:10C8800082850B83A3E4F0805DE50C702BEA240223
:10C89000F8E4350BF98882898312C96CE0FCEA2C34
:10C8A000FAE4340013EA1388828983F0700A850A57
:10C8B000828B83A3A37401F0850A828B83A3A3E0F8
:10C8C000F8901C56E0C398501D750801801874013B
:10C8D000687013E50C600F901A27E0A2E15007AAD8
:10C8E0000EAB0F121CE8E508A2E092F0EEA2E07297
:10C8F000F05076901A27E0A2E15038AA0EAB0F1242
:10C900001A968A0A8B0BA80AA90BE8496025E50844
:10C91000A2E0500D88828983A3A3A3A3A3E0C2E071
:10C92000F0EEA2E0504388828983A3A3A3A3A3E0EF
:10C93000D2E0F0EEA2E05031901A27E0A2E15012CE
:10C94000AA0EAB0F121A84E96008AA0EAB0F790089
:10C950008014901A30E0650E7004A3E0650F700932
:10C96000AA0EAB0F7901121B9202DB29E0FA85189F
:10C970008285198322A312C41F2212BAEBAA0EAB1E
:10C980000F2274F412041B8A088B098C0A8D0B90F9
:10C9900087FA7808120A00700E7A017B00901A87D5
:10C9A000E0F91211BA8031901CB57808120B981278
:10C9B0008FBE601878081208F17A017B00901A8700
:10C9C000E0F91212C87404120927800C7A017B0066
:10C9D000901A87E0F91212D402AC85C082C083900D
:10C9E0001CB902AE44C082C083901CBB02AE44742A
:10C9F000F612041B7E0075081975091A78081208CA
:10CA0000F97C6E7D007A217B001212867402120975
:10CA100027E9640A70027E01121A60E9640A700450
:10CA2000EED2E1FE121AD2E9640A7004EED2E2FEFE
:10CA300090033312D0DE600F12C976122821E96408
:10CA40000A7004EED2E3FE121DD8E9640A7004EE07
:10CA5000D2E4FE1218F8E9640A7004EED2E5FEEEA4
:10CA6000F902C79974F612041B121106750819759C
:10CA7000091A78081208F975086E75090078081205
:10CA800008F97C007D007A217B0012129274041256
:10CA90000927121A66121AD890033512D0DE6006E2
:10CAA00012C976122821121DDE12190402C79974C8
:10CAB000F612041B74FF1209BF7E00750819750970
:10CAC0001A78081208F97C6E7D007A217B00121218
:10CAD000867402120927E9600302CB9478081208D1
:10CAE000F975086E8E0978081208F97C007D007AC5
:10CAF000217B001212987404120927E9600302CB0B
:10CB000094901A2DE064FE7003A3E0F4700302CB4E
:10CB1000947E01901A3CE064086005E06404706F44
:10CB2000851882851983EE12D10C794212197C7A0C
:10CB3000447B1A794312197C7A417B1A794712197E
:10CB40007C7A327B1A794A12197C7A307B1A794BBB
:10CB500012197C7A3A7B1A795012197C7A2D7B1A39
:10CB6000795312197C7A427B1A795412197C7A2FE4
:10CB70007B1A79E112197C901A27E0A2E35004D2C3
:10CB8000F08002C2F012D102795212197C80051293
:10CB900011067E00121A54121AEA90033712D0DEE0
:10CBA000600612C976122821121DEAEEF902C79416
:10CBB00074F612041BE9FEA2E050267508197509E7
:10CBC0001A78081208F975086E75090078081208B5
:10CBD000F97C007D007A217B001212927404120904
:10CBE00027EEA2E35003121A5AEEA2E15003121AE2
:10CBF000F0EEA2E2500E90033912D0DE600612C9A8
:10CC00007612282102C79974F612041B74EC1209DB
:10CC1000BF740112099F901CFAE0F97A8A7B1A12FC
:10CC2000207E7405120C0DE4F07407120C0DE4F074
:10CC30007A04F9121A728A08902F25E493FAC3E550
:10CC4000089AEB94005050121A4EE9704A902F0245
:10CC500012CCF360157A047903121A72902F25E42E
:10CC600093FC902F0212CCFD50087405120C0D7429
:10CC700001F0902F0A12CCF360157A027901121A92
:10CC800072902F25E493FC902F0A12CCFD5008746B
:10CC900007120C0D7401F0901CFAE0F97C8A7D1AE1
:10CCA00074011209971220787A8A7B1A7945121931
:10CCB0007C7407120C0DE070117405120C0DE070FD
:10CCC00009851882851983E480088518828519836F
:10CCD0007401F0901CF4E0F890199BE058F8851866
:10CCE00082851983E05812D10C794112197C741491
:10CCF00002C796E493F8740193F9E84922E493F8A3
:10CD0000740193F9ECC398F8E499F9C3EA98EB99A4
:10CD10002274F712041B74ED1209BFE9FE901A8603
:10CD2000F0AC18AD19901CFAE0F97A8A7B1A12203F
:10CD30007E7412120C0DEE12CD4FAA18AB191220F0
:10CD4000787A8A7B1A794512197C741302B52EF011
:10CD5000901CFAE0F97C8A7D1A2274F412041B8A72
:10CD6000088B09901CFCE064FE7003A3E0F4707370
:10CD70007A167B001211788A0A8B0BAE0AAF0BEE83
:10CD80004F60608E828F83740112D0F112CDF4A3B4
:10CD90006004740280027401F0EE240AF8E43FF9A2
:10CDA000E508241D12CDEA12F16512AD52F0A2E39E
:10CDB000400912940212D68E122102E50812DE7585
:10CDC000350912E9851212FEEE241312CED3EEFAC3
:10CDD000EFFB901A87E0F912118412940212D641E7
:10CDE00012CE0602AC85E5082413F582E43509F578
:10CDF0008322A3A3A3E08E828F8322E0F8A3E0F92D
:10CE000085188285198312CFBA2274F212041B741A
:10CE1000FD1209BF8A088B09890A8C0B7401120C58
:10CE20000D740412D10C1221C28A0C8B0DAE0CAF02
:10CE30000DEE4F607912CEDC7407F0E5082413FA8A
:10CE4000E43509FB8A828B8312AD5312B26F12DD77
:10CE50005912CF9288828983A3A3A312DD60E508CB
:10CE6000240BF8E43509F9EE241812CEC512DF5D63
:10CE700012213E12D0B712DF547403650A600674A3
:10CE800001650A700712CEBC7404800412CEBCE4A3
:10CE9000F0901CFC12C16512CE067401650B700384
:10CEA00012CED0EEFAEFFB121B02E9F980027910E4
:10CEB000901CFC74FEF0A304F002AD70EE12B50FEE
:10CEC0007440F0A322F582E43FF583E8F0A3E92261
:10CED000EE2411F582E43FF583E4F02212CEE5F56D
:10CEE0008312D9DA22EE240BF582E43F2274F41285
:10CEF000041B8A088B097A007B04901A87E0F912D8
:10CF000012D412CFA1901A3C7409F012213E8A0A61
:10CF10008B0BAC0AAD0B12CDE612D68E1212F8E9CD
:10CF20006401706B7A0F7B001211788A0A8B0BAE4A
:10CF30000AAF0BEE4F60588E828F837402F0E508C3
:10CF400012D9AB350912D9D2FC88828983A3A3E018
:10CF5000FBEC8E828F83A3A312DEB28882898312B8
:10CF6000CDF212CF92FAA3E0FB794A12197C850820
:10CF700082850983A3A3A3A3A3A3E0700690171837
:10CF80007405F0EEFAEFFB901A87E0F912118402B3
:10CF9000AC85A3F0E5082415F582E43509F583E0B6
:10CFA0002290199E12BAD9901CBB12CFBA9019A028
:10CFB00012BAD9901CB912CFBA22E8F0A3E9F02234
:10CFC00074F412041B74FD1209BF8A088B097401E2
:10CFD000120C0D740212D10C1221C28A0A8B0BAEF4
:10CFE0000AAF0BEE4F700302D0B212F4B6E412D0C7
:10CFF000E4A3A3A3E06401700888828983A374205A
:10D00000F0850882850983A3A3A3A3A3E06401702C
:10D010000988828983A3E0D2E6F0850882850983A6
:10D02000A3A3A3A3A3A3E06401700A88828983A3B6
:10D03000E0D2E7800512BAAE740112D0F1E06401CB
:10D040007021850882850983A3A312D0DE600312B4
:10D05000DD52850882850983A3A312D0C612DF3F63
:10D0600012CE06850882850983A3A3A3A3A3A3A345
:10D07000E064017009EE240F12DD55A3E4F0850889
:10D080008285098312D68E1221DAE9600612A97C04
:10D090004404F0EE241712DD5512213E12D0B712CF
:10D0A000D0F912D0CC12BB01FAEFFB121B02E9F946
:10D0B0008002791002C16012DF4AEAF0A3EB22F588
:10D0C00082E4350BF58312BAD9EE22E0F8A3E0F939
:10D0D0008E828F83228E828F8312B522F58312BABD
:10D0E000D9E8492212D0E822F0850882850983A375
:10D0F0002212D0E8A3A3A3A322F085088285098386
:10D10000E022A2F0E433851882851983F0AA18ABD7
:10D11000192274F512041B74F31209BF890AEAFE7E
:10D12000EBFF7508007509007C0D7D007900AA18D9
:10D13000AB1912115A12D22B12D2E0741F58600C84
:10D140007AD37B00121694790002D226E8A2E55029
:10D1500008740C120C0D7401F0E8A2E75008740B6F
:10D16000120C0D7401F0E8A2E6740A5008120C0DBE
:10D170007401F08008120C0DE0640170138E828F30
:10D1800083A3A3A3A3A3A3A3E06030EE2413801280
:10D190008E828F83A3A3A3A3A3A3A3A3E0601CEE0B
:10D1A000241512E6ADE50845096010AC08AD097418
:10D1B00002120C0DAA82AB831212FE12C6E012CD2F
:10D1C000FB740A120C0DE06401705290198DE0603E
:10D1D0005364017008901CD7E070198047E0640226
:10D1E0007012EE240B12BACF901A30E0687003A3CD
:10D1F000E069703012D6811221DAE97027E508451E
:10D2000009601A12213E8A088B09AC08AD09740224
:10D21000120C0DAA82AB831212F8E96007AA18ABB0
:10D2200019121B8CA90A740D02B7A1EE241DF582F8
:10D23000E43FF5832274F712041B74CD1209BFEA90
:10D24000FEEBFF8E828F8312D2EDA2E0400302D26A
:10D25000DB12D304E054FE12EDB8740D12099F12D4
:10D26000D312122138E97073742A120C0D12D2E70E
:10D2700070697C0D7D007900AA18AB1912115A74DF
:10D2800016120C0D12CDFB742A120C0D12D2E0A254
:10D29000E55008740B120C0D7401F0E8A2E7500879
:10D2A000740A120C0D7401F0E8A2E6500474208098
:10D2B000027422120C0D12BAE77402120C0DAA822B
:10D2C000AB831212FE8E828F83A3A3E0C0E0740CA6
:10D2D000120C0DD0E012D10C121B86743302B52E45
:10D2E00012C41CA3E0F82212B783640422E0F8A35E
:10D2F00012D2F422E012D2F922C82406F582E438D0
:10D30000F583E0228E828F8312D9DAA3A3A3A3A38D
:10D31000A32212BC053BF583E0F9EA241FF582E461
:10D320003B12D32522F583E0FAA3E0FB22E9F8794A
:10D3300000740468600A740A686005740368700207
:10D3400079010208BB74F612041B8A828B83742451
:10D35000F0A3A37401F0121B088A088B09AE08AF72
:10D3600009EE4F60108E828F8312DF5B12213E1216
:10D37000DF4612DEB1EEFAEFFB02C799C082C0832E
:10D38000901CFB02AE4CC082C083E9901CFB02AE35
:10D3900048C082C083901AA37401F0E9A2E350034D
:10D3A0007403F0E9A2E15004E0D2E2F002C58C740B
:10D3B000F612041B79007C008A088B097808120693
:10D3C00031F8FF07E4D3E2D3E2D3E2D3E2D3DAD3F6
:10D3D000DED3E4D3D6D37C01800A7C0480067C02B1
:10D3E00080027C08901AA3E05C600479028005EC5E
:10D3F0006002790102C79974F412041BEAFEEBFF84
:10D400008908121A9C8A0A8B0BA80AA90BE84960A2
:10D410004188828983A3A3A3A3E06036C394055007
:10D420003174016508601A88828983A3A3A3A3E0ED
:10D430006401600D88828983A3A3A3A3E0640270C2
:10D440000A8882898312D68E121C46EEFAEFFB12EE
:10D450001AA802AC8574F612041B8A828B83E070D2
:10D4600014A3A3A312D0DE600C8A828B8312D68B06
:10D47000121E3880047A007B0002C799C082C083E4
:10D48000901A3CE0640870031221FE02C58CC08231
:10D49000C0837800E875F003A4FCA9F0E9FD12D57B
:10D4A0001D6A7003A3E06B7018902F0CE493C0E02A
:10D4B00074A62CF582741A39F583D0E0F079C58012
:10D4C0005908E8C3940340CC7800E875F003A4FC45
:10D4D000ADF012D51D64FE7003A3E0F4601E08E8F1
:10D4E000C3940340E57800E875F003A4FCADF07444
:10D4F000A62CF582741A3DF583E07015E812EA2433
:10D5000012DEB1902F0CE49388828983F079008039
:10D510000908E8C3940340CF79C702C58C74A72CCF
:10D52000F582741A3DF583E022C082C0837C00EC52
:10D5300075F003A4F8A9F074A728F582741A12EA0A
:10D54000FC6A7003A3E06B700912ED9D6004790121
:10D5500080090CECC3940340D6790002C58C74F2A8
:10D5600012041B74DD1209BF8A088B09750A00902A
:10D570001A2DE065087004A3E065097011EA4509F9
:10D58000700302D629750A0112220402D636121A35
:10D59000968A0C8B0DAE0CAF0DEE4F700302D629A0
:10D5A0008E828F83A3A3A3A3E06401600D8E828F7C
:10D5B00083A3A3A3A3E06402706F851882851983F7
:10D5C000E412D648740B120C0DE8F0A3E912D10C4A
:10D5D000121A42E960538E828F8312D64112CE0610
:10D5E0007403120C0DAC82AD837418120C0DAA8258
:10D5F000AB831212FE7900121C3A7420120C0D1229
:10D60000DEB17422120C0DE4F07C028E828F83A3B3
:10D61000A3A3A3E0F9740D12099712219E750A01C4
:10D6200012D63D12AB1CF0800D901A3A12BAE7AA3E
:10D6300008AB091222B8A90A742302AD7212E99646
:10D640002212BAD9901CFC2212BB0CF8A3E0F922DA
:10D65000C082C08374FE1209BF7901121C4012BD42
:10D66000A2901A2DE8F0A3E912D10C795312197C7B
:10D6700085188285198312D68E121604740202BB95
:10D68000FF8E828F83A3A3A3A3A3A3A3A3A312D3D9
:10D69000272274F412041B74F31209BFEAFEEBFF95
:10D6A0008C088D09750A12EE4F7005790002D7714A
:10D6B000901A2DE06E7003A3E06F701D12213E8A58
:10D6C0000A8B0BAC0AAD0BAA08AB091212F8E97071
:10D6D00005750A018003750A00851882851983E49F
:10D6E000F004120C0DEEF0A3EF12D10C121A36E971
:10D6F00060297403120C0DAA82AB83121A18E96414
:10D70000017018750A017403120C0DAC82AD83AA66
:10D7100008AB091212F8E9701680177412650A70C6
:10D7200011AC08AD09EEFAEFFB121A7EE960037541
:10D730000A00AC08AD09EEFAEFFB1222D6E9F87444
:10D740000A687005750A01801D74A0687012AC0823
:10D75000AD09EEFAEFFB1222E8EEFAEFFB1222FA25
:10D760007401650A70097900EEFAEFFB122210A924
:10D770000A740D02AC8274F612041BEAFEEBFF89F8
:10D78000081221FEE508F50978091208FD790DEE69
:10D79000FCEFFD7AFD7BFF12221C02C79474F71286
:10D7A000041BEAFEEBFF8E828F83A3A3A3A3A3A394
:10D7B000A3A3E0601312D800129FEA12220AE964C0
:10D7C00001700512C6E080298E828F83A3A3A3A3D4
:10D7D000A3A3A3E0602512BADE12D68112220AE9C1
:10D7E000640170178E828F83A3A3A3A3A3A3A3A313
:10D7F000A312D68E1221F279018002790002B5318E
:10D80000EE2415F582E43FF5832274F212041B74B2
:10D81000FD1209BF8A088B09ECFEEDFF890A750B22
:10D82000017401120C0D740412D10C1221C2EA4BC6
:10D8300060467411120C0DE0601512DE7BE412E2FA
:10D84000E68A828B83E0D2E7F0EA241412B26612F1
:10D85000D87D12CEDF7403F0A3E50AF0EE8882894A
:10D8600083A3A3F0EF88828983A3A3A312F4EF120A
:10D87000F72A121B02E9F50BA90B02AD7012DE9B11
:10D880003B2274F112041B8A0C8B0D890875090167
:10D8900012D9AA350D12D9D2F50E88828983128F3A
:10D8A0004B12D9C312D9A2E06404600A7AD37B0078
:10D8B00012169402D99BE50E1207C9020002D0D8B5
:10D8C000030B4FD9030C3FD90D21D90E4FD94CD999
:10D8D000901A27E0A2E150777900EFFB121CCAEA08
:10D8E0004B60338A828B83A3A3A3A3A3A3E0541822
:10D8F000602412D9BA1207448A828B83A3A3120729
:10D90000447900850C82850D8312D9F2121CE274D1
:10D910000412092780247901EEFAEFFB121B98808C
:10D920002E901A27E0A2E15026EFFB1221ECEEFA2E
:10D93000EFFB1221F2E964C57015750900801090A3
:10D940001A27E0A2E150081216288003750800E5A6
:10D950000C2409F50AE4350DF50BEEFCEFFDA90EDC
:10D96000850A82850B8312D68E121BB0850A8285AA
:10D970000B8312D68E1221DAE9602012D9B1E0C3EE
:10D980009402401712D9BA12E2107003A3E0696042
:10D990000AE509A2E05004A908800279007F070285
:10D9A0000677E50C241712C40422EA241DF582E44C
:10D9B00022E50C12C6DA12C40722E50C12DE9C1214
:10D9C000C40722A3A3A3E0F8E4C8F9EA28FEE439D7
:10D9D000FF2212D9D8A3E022F58312F613F9888228
:10D9E000898322E50812E99E3509F583E0F98A82E8
:10D9F0008B83A3A3A3A3A3A3A3A3A312BAEB8A829B
:10DA00008B8312D3272274F012041B74F31209BF04
:10DA10007403120C0DECF0A3EDF08A0E8B0F890B42
:10DA20007E01EE120C0D740AF0741D120C0DE0F55F
:10DA30000AE9700FE50AC333240AC0E0EE120C0DA8
:10DA4000D0E0F0AA18AB191221C28A088B09EA4566
:10DA500009700302DB1912DB1F350912DEA38E8267
:10DA60008F837409F0E50BC43354E0450AA3F0EE4C
:10DA70002402FE50010F7403120C0D129549FAEFA7
:10DA8000FB1212FEEE2408FE50010FE50B703778F2
:10DA900000741E120C0D12D68E8025E812C3E5EA22
:10DAA0002CF50CEB3DF50D850C82F58312CDF512AE
:10DAB000DB248E828F83A3F0EE2402FE50010F0838
:10DAC000E8C3950A40D5E508241712CDEA7401F0A1
:10DAD00012213EE508241A12CDEA12DEB1740512B5
:10DAE000099FAA0EAB0F121A1EE96019E508241649
:10DAF00012CDEA7401F0740512098FE5082418129A
:10DB0000CDEA12CE06850882850983A3A312BD9AA9
:10DB1000AA08AB09121B02E9FEEEF9740D800CEAAB
:10DB200012DE9C2212C462E02274031209277F08CD
:10DB300002067774F012041B74F81209BF8A0E8B68
:10DB40000F12D9AA350F12DD3BF8741F58F50A8859
:10DB50000BA3AE82AF83EEFCEFFDAA18AB19121235
:10DB6000FEEE2408FE50010FAC18AD197A4E7B1A58
:10DB70001212F8E9700302DBFC74E0550B7076AA10
:10DB80000AEA2AFA7B0012120E8A088B09EA450972
:10DB9000606A7A00802B8E828F83E0FCA3E0F8E439
:10DBA000C8F9EC28E439FDEA12DC01E50828F58221
:10DBB000EB39F583ECF0A3EDF0EE2402FE50010FFB
:10DBC0000AEAC3950A40CF78081208F9780A1208C1
:10DBD000FD740312099F7900E50E12DB20350FF565
:10DBE0008312D68E1222347403120927AA08AB09B5
:10DBF00012121480077AD37B00121694740802DB89
:10DC00002B25E0F8E433F92274F012041B74FE12A1
:10DC100009BF12DEAB890C8C0E8D0F90174E12D0FF
:10DC2000DE607D7412120C0DE0F50B12DC01E824AD
:10DC30000EFAE439FB1211788A088B09AE08AF0995
:10DC4000EE4F605C8E828F8374D412BDAC8E828F57
:10DC500083A3A3E8F0A3E912C727E50CF0AC0EAD4F
:10DC60000FEE2405FAE43FFB1212FE12DCA5E50BD1
:10DC7000F07413120C0D12DCB41208F5AC0BEC2C82
:10DC8000FCE433FDEE240EFAE43FFB12114874036A
:10DC9000120927EEFAEFFB90174E12C41812282132
:10DCA000740202DB2BEE12DCAA22240DF582E43F83
:10DCB000F58322A3E0F508A3E0F509750A007808CA
:10DCC0002212BAD9850C82850D832274F612041BA8
:10DCD00074F81209BF890812D9AA3B12DD3BF97406
:10DCE0001F59F88909A3AE82AF83740168703EEEB4
:10DCF000FCEFFDAA18AB191212FEEE2408FE50012B
:10DD00000FAC18AD197A4E7B1A1212F8E96025741F
:10DD1000E0550970188E828F83A312C07412C71049
:10DD20008E828F83E0F9122258A90880097AD37B6A
:10DD3000001216947900740802C796F583E0240156
:10DD4000FEA3E03400FF8E828F83E0222418F58248
:10DD5000E422EE241612DD6822E088828983A32261
:10DD6000F0EE241612DD6822F582E43FF58374019B
:10DD7000F02274F012041B74FD1209BF7401120C1E
:10DD80000D12DEB1851882851983E4F004120C0DA2
:10DD900012DE8512D9AB3812DF6512DEA5740112CE
:10DDA0000C0D12DE8512DE7538F58312D68E121A2E
:10DDB0009CEA4B700302DE728A828B83A3A3A3A327
:10DDC000E0700302DE72C39403400302DE72EEC30E
:10DDD000940F5003EF600B8518828519837401F04E
:10DDE000807512BC0C12B269EE7022902DCF7808AB
:10DDF000120A8C12DE7B7808120B98902DCF7808CF
:10DE0000120A8C12E7797808120B98803BF5087596
:10DE1000090074027808120AEB74CF2508F58274A1
:10DE20002D12CDED780C120A8C9087D67808120B43
:10DE3000B6780C790812032C12DE7B780C120B9842
:10DE400012E779780C120B98EA241BF582E43BF573
:10DE5000837401F0121664901CD8E0FC851882854A
:10DE60001983E0F97401120C0D12DE8F12D68E1296
:10DE7000224602DB292415F582E422EA2417F582E2
:10DE8000E43BF5832212DE8922E0F8A3E0C822E019
:10DE9000F8A3E0C812DE9C38F58322EA240BF58251
:10DEA000E4223BF583E0FEA3E0FF2285188285197A
:10DEB00083EAF0A3EBF02274F012041B74F512094C
:10DEC000BF8A0E8B0F89098C08750C017401120C26
:10DED0000D740312D10C1221C28A0A8B0BAE0AAF49
:10DEE0000BEE4F605312CEDC740C12F72E88828931
:10DEF00083A3A3E50812DF5D12213E12DF4612DE86
:10DF0000B1740312099FAA0EAB0F121A1EE9600F1B
:10DF100012DD52740312098FEE12DF3F12CE068E0D
:10DF2000828F83A3A3E50EF0A3E50F12DF54EEFA70
:10DF3000EFFB121B02E9F50CA90C740B02DB2B1290
:10DF4000DD4C3FF5832212DF4A22EE241AF582E4EB
:10DF50003FF5832212F4F97401F0227401F0EE24EB
:10DF60001712DD6822F583E02401F8A3E03400F9FC
:10DF7000888289832274F612041B74DA1209BFEABC
:10DF8000FEEBFF12D0D560548E828F8312D68EACFA
:10DF900018AD1912D3121221267409120C0D12E2B7
:10DFA000107003A3E06960348E828F8312C418124C
:10DFB00007447508FE7509FF78081208F9741C12E9
:10DFC0000C0DE0F9740D120C0D12BAE7740F120C5F
:10DFD0000D12D68E121CE27404120927742602C791
:10DFE0009674F712041BE9FD7A007B007C00800B1D
:10DFF00012E08AE02AFAA3E03BFB0C902F2512EBFB
:10E00000285030EC75F01CA4F8AEF0EEF9744B28F3
:10E01000F582740412EAFCF460E0745728F5827407
:10E02000043912D0DC60D3ED60C612E08AE4F0A3BC
:10E03000F080C77C00800B12E077E02AFAA3E03B77
:10E04000FB0C12EB25502DEC75F017A4F8AEF0EE9A
:10E05000F912F0DA7003A3E0F460E674A828F58200
:10E0600074063912D0DC60D9ED60CC12E077E4F0B0
:10E07000A3F080CD02B531EC75F017A4F8EEF97479
:10E08000A828F582740639F58322EC75F01CA4F8F3
:10E09000EEF9745728F582740439F5832274F0126E
:10E0A000041BE9FE8A088B09901A86E0C39E503B48
:10E0B000122192901AB812F72C901A20E0F50CE475
:10E0C000F50DF50EF50F9087F67808120BB6780C63
:10E0D000790812032C780C1208F17A007B02901A4E
:10E0E00087E0F91212C8740412092702DB2E74F6B5
:10E0F00012041BEAFEEBFF901AA480138882898326
:10E10000E06E7003A3E06F603C88828983A3A31252
:10E11000D0DE70E87A047B0012120E8A088B09A800
:10E1200008A909E849601E88828983EEF0A3EFF010
:10E13000901AA412D68E88828983A3A312DEB1908E
:10E140001AA412CE0602C79974F412041B7E009022
:10E150001AA480070E88828983A3A312D0DE70F4EC
:10E16000EE25E0FAE433FB12120E8A088B09EA4529
:10E1700009700302E1FD7C00901AA4802A8882893C
:10E1800083E0F50AA3E0F50BEC25E0FAE433FBE5C8
:10E19000082AF582E5093BF583E50AF0A3E50BF0D3
:10E1A0000C88828983A3A312D0DE70D1901A8212C8
:10E1B000E2107003A3E0697808701C1208F9EEF50C
:10E1C0000A780A1208FD7C4E7D1A7900901A821294
:10E1D000D68E122234801A1208F9EEF50A780A1245
:10E1E00008FD7C4E7D1A7900901A8212D68E12227A
:10E1F000287403120927AA08AB09121214121B145F
:10E2000002AC858E828F83A3A3A3A3A3A3A3A3A3FE
:10E2100012BAD9901A2DE06822C082C08380128A77
:10E22000828B83A3A312BAD5901AA412CE0612121F
:10E2300014901AA412B3D870E602C58C74F51204B7
:10E240001B901A3A12E6B3901AB812BAD5901A3A3D
:10E2500012CE067AB87B1A795012197C901AB8122D
:10E26000DEA5750A00801212EBE67003A3E06F6072
:10E270000612EBF21222C4050A12E2D45020E50A7B
:10E2800075F017A4F8A9F012EA8065087004A3E0FD
:10E29000650970D312EA89EEF0A3EFF080D9901AE5
:10E2A000B812DEA590175012D0DE60257A067B00EA
:10E2B000121178EA4B601A8A828B8374D5F0A3A37B
:10E2C000E412E2DF0412E2E690175012C41812289A
:10E2D0002102B7A4902F14E493F8E50AC398221200
:10E2E000F4EFA3A3A32212E2EFEEF0A3EFF02212C9
:10E2F000E2F322F08A828B83A3A3A3A322C082C06D
:10E3000083901A2DE064FE7003A3E0F4600E901A6F
:10E3100027E0A2E150061222DC12228202C58C7490
:10E32000F012041B901A7BE06053F50CE4F50DF538
:10E330000EF50F9087BE7808120BB6780C7908128C
:10E34000032C1211728A088B09A808A909902F08BA
:10E35000E49358F508A3E49359F509E4F50AF50B9D
:10E36000780C7908120A66780C1208F17A007B01A1
:10E37000901A87E0F91212CE740412092702DB2EDC
:10E3800074F012041B74FE1209BF7E007F008E0E13
:10E390008E0F121ABA750A00803BAA0A7B00121A65
:10E3A000B48A088B09A808A909E8496026888289E7
:10E3B00083A3A3A3A3E06004640470178882898305
:10E3C000A3A3A3A3A3A3A3A3A3A3E0F91222EEE90B
:10E3D00060010F050A902F2512E2D740BD1222B22C
:10E3E00012DEAB7508008023AA087B001222BE8AC9
:10E3F0000A8B0BA80AA90BE849600EE8240F12EA61
:10E40000F9F91222EEE960010E050812E5B840D8CC
:10E41000EF2EFE700302E51EF50875090074027800
:10E4200008120AEBAA08AB0912120E8A0E8B0FEA29
:10E43000450F700302E51C750B00EEF50875090029
:10E4400074027808120AEBAC08AD0979FF12115A70
:10E45000750A008069AA0A7B00121AB48A0C8B0D17
:10E46000EA450D60578A828B83A3A3A3A3E06004CF
:10E47000640470488A828B83A3A3A3A3A3A3A3A34A
:10E48000A3A3E0F91222EEE9F96031050B850E082D
:10E49000850F0978081208F9EEFD850C82850D8339
:10E4A000A3A3A3A3A3A3A3A3A3E0FC850C82850D30
:10E4B0008312D68E1222887402120927050A902F21
:10E4C0002512E2D75006E50BC39F4089750800125C
:10E4D000E5B8504AAA087B001222BE8A0A8B0BEAD2
:10E4E000450B6034EA240F12E5AFF91222EEE9F988
:10E4F0006026850E0C850F0D780C1208F9EEFDE5EF
:10E500000A240E12E5AFFC850A82850B8312D68E93
:10E510001222887402120927050880B37E007F62E8
:10E52000901A25E0600BF9121F58E9F87454C3984B
:10E53000FF75F003EF84F5089420400375081F85EC
:10E540000E0A850F0B750C00EF6005750C207F001F
:10E55000E508C39E500585080980088E09E50CD2A0
:10E56000E6F50CAC0AAD0BAA0CA90912228EE9F54E
:10E570000DE50CA2E6401D15097800800BE50A2484
:10E5800004F50A5002050B08E8C3950940EFE509B8
:10E59000CEC39EFEE97006E50CA2E650A8E50E4546
:10E5A0000F6007AA0EAB0F121214A90D02DCA0F522
:10E5B00082E4350BF583E02285188285198312BA2F
:10E5C000D9C3E50898E4992274F212041BE9FE7598
:10E5D0000A00750B00740E120C0D12E6B37F00805A
:10E5E0001185080A85090BE5082404F50850020581
:10E5F000090FEFC39D400302E6AA850882850983BF
:10E60000E0F47003A3E0F4700302E68CE50A450B26
:10E61000600E850A82850B83C3E09AA3E09B50C1FC
:10E6200085088285098312F238EB9950B4A808A9AD
:10E630000988828983E0F47003A3E0F4600DE82484
:10E6400004F85001090FEFC39D40E6880A890BE8E2
:10E6500024FCF8E934FFF98882898312911F850A26
:10E6600082850B83E50CF0A3E50D12E6BB850A82DB
:10E67000850B83A3A312E6C6E0850A82850B83A3DC
:10E68000A3A3F0C3E50898E5099940BF85088285F2
:10E69000098312DEB1EC850882850983A3A3F0EE1D
:10E6A000850882850983A3A3A3F002AD75F582E4F2
:10E6B0003FF583E0F508A3E0F5092212E6C1A3E0E7
:10E6C0002212EA1EA32212E6C1A3A32274F31204AB
:10E6D0001B74FD1209BF89088A09ECFEEDFF750C59
:10E6E0000175F003E9A42402C0E07401120C0DD0FE
:10E6F000E012D10C1221C2EA4B607212D87D12CE08
:10E70000DF7408F0741F55084509A3F0E82402F8E7
:10E710005001097C0080378E828F8312AD5312C75F
:10E720001C12DD5912BB08C454F05470FD8E828F48
:10E7300083A3A3A3E054074D88828983A3A3F0E8B1
:10E740002403F8500109EE2404FE50010F0CECC321
:10E75000950840C38A828B83A3A374FCF0A374FF43
:10E76000F012E7797401F0121B02E9F50CA90C74A0
:10E77000031209277F05020677EA2413F582E43B9A
:10E78000F5832274F112041B8A0A8B0B7508007A38
:10E79000FE7BFF7CFE7DFFE50A12D9AB350B12D95B
:10E7A000D2FE741F5EF509E82402F50CE439F50D7C
:10E7B000EEA2E74072E50A241712E5AFF875F00300
:10E7C000E509A4240268705FE5096009850C82856B
:10E7D0000D8312C70E7F008029850C82850D83A3CF
:10E7E000A3E05407F50EE50C2403F50C5002050DCB
:10E7F000E8FC901A2DE0687003A3E0697003850EB1
:10E80000080FEFC395095029850C82850D8312F6F8
:10E8100013FCE4CCFDE82CE43DF9850C82850D83E6
:10E82000A3A3E0548860B27AD37B0012169402E965
:10E830006DE508700BEEF912229AE9700302E96D9A
:10E8400012E97012D68E121A968A0C8B0DAE0CAF8E
:10E850000DEE4F605A8E828F83A3A3A3A3A3A3A31D
:10E86000E4F0902F1193F88E828F83A3A3A3A3A328
:10E87000A3A3A3E0C398402412E97A5001097A02C5
:10E880007B001202CBE88E828F83A3A3A3A3A3A352
:10E89000A3A3F0E508C39407500205088E828F8376
:10E8A000A3A3A3A3A3A3A3A3A3E508F002E96D7CFC
:10E8B000FF7DFF12E97012D68E1222A68A0C8B0DF4
:10E8C000AE0CAF0DEE4F704F1222AC8A0C8B0DAE1A
:10E8D0000CAF0DEE4F700302E96D7C177D007900DF
:10E8E00012115A12E97012D0CB128DB08E828F8322
:10E8F000A3A3A3A3A3A3A3A312BB0112B50B74AA42
:10E9000012F0615001097A027B001202CB12DCA5E1
:10E91000E812E98C7401F0902F11E49312C07CC3CB
:10E9200098401912E97A5001097A027B001202CB51
:10E9300012F05AE508C394075002050812F04CE59E
:10E940000812E991E4F012A458121A18E9701E8511
:10E950000A82850B83A3A3A3A3A3A3A3A3E0600DB3
:10E96000E50A12DE75350B12E9851212FE02D99DF9
:10E97000E50A12DE9C350BF58322902F11E4937982
:10E98000002401F822129F3112A45922F012F050F3
:10E9900022F012E99622EE12E99E3FF58322240C22
:10E9A000F582E42274F712041BE9FE74FE6A700318
:10E9B00074FF6B603574605E6460602EEEA2E540AB
:10E9C0001CA2E6901A2D500DC3E09AA3E09B501AAA
:10E9D000790002B531C3E09AA3E09B40F3901A2D71
:10E9E00012BAD5C3EC98ED9940E6790180E474F74A
:10E9F00012041B7E008008EE12EBEB1222C40E12F2
:10EA0000EA7640F37E00EE12EA2474FEF0A30412CC
:10EA1000EA1EE4F00EEEC3940340EB02B531F08839
:10EA20008289832275F003A4F8A9F074A628F874EB
:10EA30001A39F988828983A32274F712041B7E0095
:10EA400080010E12EA765027EE12EF9BE06A700307
:10EA5000A3E06B70ED12EA806C7003A3E06D600AB6
:10EA600074FF6C700374FF6D70D812EBF280047A3F
:10EA7000007B0002B531902F14E493F8EEC3982286
:10EA800012EA842212EA89E022749D28F582740633
:10EA900039F5832274F612041B7CFF7DFF7AFE7B1E
:10EAA000FF1222A6EA4B70437508008039E508750D
:10EAB000F017A4F8A9F074A228F582740612EAFCF3
:10EAC000600C74A128F582740612EAFC7016749327
:10EAD00028FE740639FF8E828F8312D68E121CE8B0
:10EAE000EEFAEFFB050812EAEE40C202C799902F3A
:10EAF00014E493F8E508C39822F582E439F583E03D
:10EB000022C082C0837A007B007C00801012F0D289
:10EB10007003A3E0F460050AEA70010B0C12EB2508
:10EB200040EB02C58C902F14E493F8ECC398227448
:10EB3000F412041B8A088B09ECFEEDFF800B1222F5
:10EB4000C4EEFCEFFDAA08AB091222A6EA4B70EE58
:10EB500002AC8574F712041B7D007C0080020D0C52
:10EB600012EB25501C12F0D27003A3E0F460F0ED1C
:10EB7000F8EA684B70E8EC75F017A4F812EBF28035
:10EB8000047A007B0002B53174F712041BEAFEEB35
:10EB9000FFEE4F60187C177D00790012115A8E82AB
:10EBA0008F8374FEF0A30412EBB0F0A3F002B53132
:10EBB00012B0F5A32274F712041BEAFEEBFF7508EE
:10EBC00000801BE50875F017A4F8A9F012EBE670B9
:10EBD00003A3E06F600612EBF21222C4050812EAEA
:10EBE000EE40E002B53112EA846E2275F017A4F807
:10EBF000A9F0749328FA740639FB2274F412041BEA
:10EC00008A088B09ECFEEDFF901A3AE06E7003A3C0
:10EC1000E06F7014121A968A0A8B0BA80AA90BE8E7
:10EC2000496005E82408801AEEFCEFFDAA08AB094C
:10EC30001222A68A088B09A808A909E8496009E8F0
:10EC4000240DFAE439FB80047A007B0002AC857461
:10EC5000F412041BEAFEEBFF8C0A8D0B750800759D
:10EC60000900802CE50912F0C2121A18E9601FE5AC
:10EC70000912F0B67003A3E06F700375080AAC0ABE
:10EC8000AD0B12F0C91212F8E960034308A00509A0
:10EC9000902F14E493F8E509C3985004E50860C484
:10ECA00002C52174F412041B74F81209BF75080020
:10ECB000806BAA087B00121AB48A0A8B0BAE0AAFCB
:10ECC0000BEE4F60568E828F83A3A3A3A3E0640153
:10ECD00060498E828F83A3A3A3A3E06402603CEE0D
:10ECE0002407F582E43F12EDA950308E828F83A372
:10ECF000A3A3A3A3A3A3A3A3A3E412B0F112EDBF04
:10ED0000121CE8AC18AD198E828F8312D68E121A9F
:10ED10001EAA18AB19121AA81216640508902F25FE
:10ED200012EAF1408D7E008052EE75F017A4F8AA29
:10ED3000F0EAF912F0DA7003A3E0F4603D7493286E
:10ED4000F8740639F9E812E99E3912EDA9502BEE54
:10ED500075F017A4F8EAF9749328F8740639F9E8FD
:10ED6000240FF582E439F583E4F0E8240EF582E41B
:10ED700039F583E412EDB8121CE80E12EA7640A9C8
:10ED80007A00EA75F003A4F8A9F012ED9D60021470
:10ED9000F00AEAC3940340EA740802AC8274A6281D
:10EDA000F582741A39F583E022F583E0F8740128BE
:10EDB000F0901A7CE0C3982212EA1E12D327221286
:10EDC000C72112D3272274F012041B8A0E8B0F8CDA
:10EDD0000A8D0B750C00780079017EFE7FFF7410A0
:10EDE000120C0D12E6B38011121172E50CF5F0EA67
:10EDF00084E5F0F8750C0079007C00800B74932A90
:10EE0000F582740612DEA20C902F14E493FAECC380
:10EE10009A506AEC75F017A4FAADF0EDFB12BC1332
:10EE200064FE7003A3E0F460DE12BC13650E700490
:10EE3000A3E0650F60D112BC13650A7004A3E065FE
:10EE40000B60C412BC1365087004A3E0650960B7C9
:10EE500074A12AF582740612BC1A60ABC3940850E0
:10EE6000A6E064076097E9050C709CE50CC3984028
:10EE700096EDF974932AF582740602EF2A7C0080DD
:10EE80000712EF5E12DEA20C902F25E493FAECC37A
:10EE90009A400302EF32EC75F01CA4FAADF0EDFBE2
:10EEA00012EF5E12BC1A64FE7003A3E0F460D81285
:10EEB000EF5E12BC1A650E7004A3E0650F60C81205
:10EEC000EF5E12BC1A650A7004A3E0650B60B8120D
:10EED000EF5E12BC1A65087004A3E0650960A874AF
:10EEE000502AF582740412BC1A609CC3940850978F
:10EEF000744B2AF582740412BC1A64016089E064C0
:10EF000002608474502AF582740412BC1A6407707B
:10EF10000302EE81E9050C600302EE87E50CC3985D
:10EF2000500302EE87EDF912EF5E39F583128D97EB
:10EF30008022E50C6011E8700E7401650C6003021C
:10EF4000EDE8780102EDF474FE6E700374FF6F60FB
:10EF500006EEFAEFFB80047AFE7BFF02DB2E74479D
:10EF60002AF58274042274F512041BEAFEEBFF8C6E
:10EF7000088D09750A008002050A12E2D45019AC06
:10EF800008AD09E50A12F0C21212F8E960EAE50AD2
:10EF900012EF9BEEF0A3EFF002B7A475F017A4F800
:10EFA000A9F012EFA622749328F582740639F5832E
:10EFB00022E9F87907C3940D400479018019E8C368
:10EFC000940740047903800FE8C394034004790553
:10EFD0008005E8700279000208BB74F012041B8AF5
:10EFE0000E8B0F8C0A8D0B89081222AC8A0C8B0DAC
:10EFF000AE0CAF0DEE4F60517C177D007900121101
:10F000005A8E828F83E50EF0A3E50F12EBB0E50A6E
:10F01000F0A3E50BF0E508600712B50AE5088005E6
:10F0200012B50A7401F0901A81E06401700612F0C2
:10F030004CE4800512F04C740712F0615001097A1B
:10F04000027B001202CB12F05A02DB2E12F0502289
:10F05000EE240EF582E43FF58322EE12DCAAE8F0FE
:10F0600022F0902F11E49379002401F82274F71212
:10F07000041BEAFEEBFF7508008033E50812F0B6CA
:10F080007003A3E06F601474FF6E700374FF6F7001
:10F090001B12F0DA7003A3E0F4601112F0C9121A27
:10F0A00018E97008E50812EBEB1222C4050812EA11
:10F0B000EE40C802B53175F017A4F8A9F012F0E0DF
:10F0C0006E2275F017A4F8A9F0749528FA74063921
:10F0D000FB22EC75F017A4F8A9F012F0E064FE2210
:10F0E00012EFA6E022C082C0837AFF7BFF1222FAD1
:10F0F00002C58CC082C083901ABA740CF0A374232A
:10F10000F0901ABC7412F0A37423F0901ABE741815
:10F11000F0A3742302AE4874F712041BEAF8EBF96B
:10F1200090199C12F156702B88828983A3A3A3A304
:10F13000A3A3A3A3A312074490199C12F165120B79
:10F14000F688828983A3E0F9121BA47402120927AE
:10F15000121B1402B531E0FAA3E0CA2406F582E4DA
:10F160003AF583E022E0FAA3E0F5838A8222C082A6
:10F17000C083901A8412F22FF0901A8412D0DE709D
:10F1800005790112225202C58C74F612041B74FC1C
:10F190001209BFE9FE902F1DE493700874E16E60C0
:10F1A0000302F22AEA2408F8E43BF98882898312F0
:10F1B000F22F12F23F700E901A84E4F0A3F079015E
:10F1C0001222528065901CF1E0605FFA901A84125E
:10F1D000F238E499505479001222528A088B09AC13
:10F1E00008AD09ECF8EDF9E875F064A4F8AAF0753B
:10F1F000F064E9A42AF9901A8412D68E1202D3E898
:10F20000941AE99400402390174812D0DE601B90B6
:10F210001A8412CDFB7402120C0DECF0A3ED12D186
:10F220000C90174812C418122821740402C796E0E3
:10F230002401F0A3E034002212BAD9C3EA982212C2
:10F24000F60CF9E84922C082C08374F81209BF9015
:10F250008757AC18AD197408120837AC18AD1912DD
:10F2600012F8E964017004790080027901740802DF
:10F27000BBFF74F612041BEAFEEBFF740C120C0DBC
:10F2800012D68E743A6A7001EB6006743B6A4B705A
:10F290001F740A120C0D1207448C088D097808128D
:10F2A00008F9EEFCEFFD121298740412092780028F
:10F2B000790A02C799C082C083901AC074C0F0A3B3
:10F2C000741AF0901AC274C6F0A3741AF0901CD885
:10F2D000E0A2E05032901AC47436F0A37423F09088
:10F2E0001AC6743CF0A37423F0901AC87442F0A3B9
:10F2F0007423F0901ACA7448F0A37423F0901ACCC7
:10F300007430F0A37423F0901AC412D0DE60061299
:10F31000C97612282102C58C74F412041B74E612FB
:10F3200009BF8A088B097404120C0D7402F00412D0
:10F3300009971221C28A0A8B0BAE0AAF0BEE4F70EF
:10F340000302F4A112F4B6746012F4F512DF5B123A
:10F35000213E12DF4612DEB18E828F83A3A3E50821
:10F36000F0A3E50912C0D57012901A19E0C0E0129E
:10F37000BAA4D0E0F0901A19E004F012F4AD7016BF
:10F38000901CCBE0600D901A24E0700A8E828F836F
:10F39000E0700312CED0AC18AD19EEFAEFFB1221DB
:10F3A0001A8A088B09EA4509700302F49A7A217BCC
:10F3B0000012120E7406120C0D12DEB17406120C3D
:10F3C0000D12D0DE700302F4937C217D007900746D
:10F3D00006120C0DE0FA12115A74011209977950B5
:10F3E0001219767401120C0D12BAD57406120C0D96
:10F3F00012F4C112CE06901A2D12BAD57417120C3F
:10F400000D12CE067406120C0D12DE8F7402F0740B
:10F4100006120C0D12B1BD740212D6487406120CFD
:10F420000D12F16512CE067406120C0D12F4CF12F5
:10F43000C46BC0E07406120C0D12DE8512BC0638D7
:10F44000F583D0E0F0EE240E12BABFE0C0E07406FF
:10F45000120C0D12DE8512F4A6D0E0F07406120C28
:10F460000D12B51C12F72CEE240F12BACF740C1229
:10F470000C0D12F4E7E0C0E0740E120C0DD0E0F0B9
:10F48000740612099712208A7406120C0D12D68E79
:10F49000121214AA08AB09121214EEFAEFFB1212A0
:10F4A00014741A02AC8212E99E38F58322EE2411FC
:10F4B00012A98364012212CEE512D9D87404F0A3F4
:10F4C00022E0FAA3E0CA2409F582E43AF583221285
:10F4D000F4D77401F0A32212DE8912F4DE22240D87
:10F4E000F582E438F58322E8F0A3E912F4EF22F084
:10F4F0008A828B832212F4F922F0EE12F4FF222486
:10F5000013F582E43FF5832274F612041B7E00801B
:10F51000197C047D0079FFEEF5088D0974027808E6
:10F52000120AEB12F7C112115A0E902F1012EA793B
:10F5300040DF02C79974F412041B74F71209BF75F7
:10F540000800804DE508F50A750B007402780A1270
:10F550000AEB12F5FD129EFFE024FFF0A3E034FF5A
:10F5600012F608F97A0A7B001202D38B0BEA450BDC
:10F57000701D7408120C0D12F618120AEB74302567
:10F580000AF582740A350BF58312F7D41219A00517
:10F5900008902F1012EAF15061E508F50A750B008A
:10F5A0007402780A120AEB7430250AF582740A1282
:10F5B000E5B2F47003A3E0F460D5E508F50A750B35
:10F5C000007402780A120AEB12F70E12D0DC600304
:10F5D00002F5447408120C0D12F618120AEB12F51B
:10F5E000FD8E828F8312F7D41219A67C047D0079D8
:10F5F000FFEEFAEFFB12115A809502AC80743025B1
:10F600000AFE740A350BFF2212F60C2212EA1E12B1
:10F61000F61322E0F8A3E0227402F0E508F50A757B
:10F620000B007402780A2274F012041B74F712099A
:10F63000BF8A0E8B0F7EFF7408120C0D740212BC71
:10F6400024EAF0A3EB12F7DB1219A0E9641A7003A5
:10F6500002F70A79007419120C0D7808120BB680A3
:10F660000874FF6E7002E9FE09902F10E493F8E928
:10F67000C3985058E9F50C750D007402780C120A05
:10F68000EB7430250CF582740A12F720E0F4700355
:10F69000A3E0F460CCE9F50C750D007402780C124F
:10F6A0000AEB7430250CF582740A12F720E0650E1F
:10F6B0007004A3E0650F70B0E9F50A750B007402E1
:10F6C000780A120AEB12F70EF583802EE493697024
:10F6D0002C74FF6E602EEEF50C750D007402780C24
:10F6E000120AEB7430250CF8740A350DF9888289FA
:10F6F0008312BD9A88828983A3A312F72C7901749F
:10F700000902DB2B12F7241219A6790080F174325A
:10F71000250AF582740A350B22E50C2412F582E4E1
:10F7200012C4072212F7E022A3A3A3A3E508F0A3C3
:10F73000E509F02274F612041B74F71209BFEAFE01
:10F74000EBFF7A0080010A902F10E493F8EAC39847
:10F75000506AEAF50875090074027808120AEB7419
:10F76000302508F582740A12CDEDE0F47003A3E0B1
:10F77000F460D3EAF50875090074027808120AEB00
:10F7800074302508F582740A12CDEDE06E7003A383
:10F79000E06F70B27C047D0079FFEAF5088D097492
:10F7A000027808120AEB12F7C112115A7408120CEF
:10F7B0000D740212F7CC12F7DB1219A6740902C7F6
:10F7C0009674302508FA740A3509FB2212BC28EE1B
:10F7D000F0A3EF22129F45E8F0A3E9F012F7E02230
:10F7E000901A3AE0FCA3E0FDAA18AB192274F012BB
:10F7F000041B74FE1209BF12DEAB8C0A8D0B750858
:10F8000000851882851983E0650A7004A3E0650B02
:10F810006017851882851983E0FA12128C8A0C8B86
:10F820000DAE0CAF0DEE4F700675080102F8C7AAB9
:10F830000AAB0B12128C8A0C8B0DAC0CAD0DEC4D7F
:10F840006007AA0AAB0B12129EE4F50CF50D780CBA
:10F850001208F9EEFCEFFDAA0AAB0B121286740235
:10F86000120927E96061EEFAEFFB12120E8A0E8B85
:10F870000FEA450F604E780E1208F98E0C8F0D7846
:10F880000C1208F97C007D007404120C0D12D68E47
:10F890001212987404120927E9701D780E1208F9E3
:10F8A000780C1208F97C007D00AA0AAB0B121292A8
:10F8B0007404120927E96003750801AA0EAB0F1240
:10F8C00012148003750810A90802DCA0C082C0834E
:10F8D000906180E4F0E04409F0906189E0D2E5F0C5
:10F8E000906182E0D2E0F0E0D2E1F0E0D2E2F0908C
:10F8F00003AC7401F002FBD374E812041B74F6121B
:10F9000009BF8A168B17ECFEEDFFEA4B60188A825E
:10F910008B83A3A3A3A3A3A3A3A3E0F874026860AB
:10F920000A740368600579E802FB40120E5AE9F494
:10F930006005791E02FB40851682851783A3A3A369
:10F94000A3A3A3A3A3E0F514120E668A088B098C67
:10F950000A8D0B120E6C8A108B118C128D13850878
:10F960000C85090D850A0E850B0F780C7910120A8B
:10F97000D874026514751400703B8A0C8B0D8C0EC4
:10F980008D0F74FE5514780C120976E50CA2E04038
:10F990001985080C85090D850A0E850B0FE514786D
:10F9A0000C120976E50CA2E050460514E514C39448
:10F9B00018503D80C5850C08850D09850E0A850FF8
:10F9C0000B751003751100751200751300E514C353
:10F9D00033781012087778087910120AFEE5084586
:10F9E00009450A450B60090514E514C3940C40C58C
:10F9F000741865147069851682851783A3A3A3A361
:10FA0000A3A3A3A3E06402606FE514F508750900E1
:10FA1000851682851783A3A3A3A3A3A3A3A3E0644E
:10FA200002705A7406120C0DEEF07407120C0DEFF2
:10FA3000F0851682851783E0C0E07408120C0DD0A3
:10FA4000E0F0851682851783A3E0C0E07409120CEC
:10FA50000DD0E0F07904740612099F7402802674B8
:10FA60000C651470A4851682851783A3A3A3A3A392
:10FA7000A3A3A3E064037091791A02FB407908AC58
:10FA800016AD1774037808120AEB2508FA7461356D
:10FA900009FB12FB4A64027903AC18AD19703B7A7A
:10FAA0006712FB5D750C01750D00750E00750F007A
:10FAB000E514780C1208777808790C120AD87808BF
:10FAC0001208F174071209971211EA740412092737
:10FAD0007903E912099F7A6780577A6412FB5DE522
:10FAE00014C333FA750C01750D00750E00750F0007
:10FAF000780C1208777808790C120AD8750C017501
:10FB00000D00750E00750F0074012A780C1208772D
:10FB10007808790C120AD878081208F174071209CB
:10FB2000971211EA74041209277903E912099F7ADE
:10FB3000647B6112FB4AFB7A01A914120E60790002
:10FB4000740A1209277F10020677120F5C8516824D
:10FB5000851783A3A3A3A3A3A3A3A3E02212FBDA85
:10FB60008A088B098C0A8D0B2274F712041BEA4B4E
:10FB70006021EA2408FEE43BFF8E82F583E0F874FE
:10FB800002686005740368700A120E5AE9F974FF7E
:10FB900069700479E8800D8E828F83E0FB7A001211
:10FBA0000E6079007F01020677C082C0837401690C
:10FBB0009003AD700B7401F090618AE0D2E280088E
:10FBC000E4F090618AE0C2E2F0800812FBDA74038C
:10FBD000120927D083D0820208BB7B61120F6279A1
:10FBE00003AA18AB1912116622C082C0839003AD1C
:10FBF000E06401700479FE800279FF80D6C082C083
:10FC0000839003ADE0600479018009906163E0F8BE
:10FC1000744058F980BD74EC12041B74F41209BFCF
:10FC20008A828B83A3A3A3A3A3A3A3A3E0640270EC
:10FC300040EC851882851983F07401120C0DEDF0EB
:10FC40008A828B83E0C0E07402120C0DD0E0F08A4F
:10FC5000828B83A3E0C0E07403120C0DD0E0F0A807
:10FC600018A919881289137E04751001120E668076
:10FC70000C8A128B137E08751002120E6C8A0C8B84
:10FC80000D8C0E8D0F7F00850C08850D09850E0AE1
:10FC9000850F0BEF7808120976E508A2E05053E5CE
:10FCA00010F5F0EF84F50BEEF9740412099FE50BE3
:10FCB00089F0A4FAA8F0E428FB74613BFB120F6200
:10FCC000740412098F88088909750A0078081208D7
:10FCD000F5EEFC7D00851282851383A982AA837BC1
:10FCE000001211547403120927E964017004A90B6E
:10FCF000800BE5102FFFC39418408C79FF740C1211
:10FD000009277F0C02067774EF12041BEBFE750CBB
:10FD100001750D00750E00750F00E9C333780C12E4
:10FD20000877750801F509F50AF50BE97808120856
:10FD300077046A701D74026E700C12FDA0780C7945
:10FD400008120AD8802012FD947808790C120AD87B
:10FD5000802C74026E701812FDA07808120B58786F
:10FD60000C7908120AFE780C1208F17A83801612B8
:10FD7000FD94780C120B587808790C120AFE78085A
:10FD80001208F17A867B611211EA74041209277F46
:10FD900009020677120E6C8A088B098C0A8D0B22D9
:10FDA000120E668A0C8B0D8C0E8D0F22C082C083C2
:10FDB00074FD1209BF7903AC18AD197A8302FBCB2D
:10FDC000C082C08374FD1209BF7903AC18AD197AE3
:10FDD0008602FBCBC082C08390037EE4F053F3FD28
:10FDE00053F5FE53FFFE90037FF0A3F0900381F0E4
:10FDF00002FF3674F712041BE9900382F090037F30
:10FE0000EAF0A3EBF0900382E06033538CFE438C66
:10FE10000143AB02D2BD7589FD53ACF743AC084337
:10FE2000AC01439A02758BFE900381E06401701F60
:10FE30007A107B0090037DE0F91212D4801153AB4D
:10FE4000FDC2BD7A107B0090037DE0F91211BA90DB
:10FE500003817401F0FF020677EEF97F0102067755
:10FE6000C082C0837900A2A05005120DACE9F990C0
:10FE70000382E0700990037EE0696026E9F0A281C8
:10FE80005004E9D2E5F990037FE0FAA3E0FBEA4BE6
:10FE900060107A0090037FE0F8A3E0F58388821277
:10FEA000282102FF3674F712041B7E00EEFF7A0150
:10FEB0007906120D58EAF874FE2AC394255005EE0F
:10FEC000D2E0803274B62AC3940F5005EED2E1809E
:10FED0002574C42AC3940E5005EED2E3801874D959
:10FEE0002AC394155005EED2E4800B74A72AC3945C
:10FEF0000C5004EED2E2FEEF6E70B102FE59C082E9
:10FF0000C0837800E589A2E150057589FD7801E597
:10FF10008BA2E05005758BFE8005E8A2E05017909B
:10FF200087F21207407A107B0090037DE0F91212ED
:10FF3000C87404120927D083D0820208BBD083D0B2
:10FF4000820208BBC082C0838019198C828D83E035
:10FF50008A828B83F0A3AA82AB838C828D83A3AC2D
:10FF600082AD83E970E480D5C082C083801D198A88
:10FF7000828B83E08C828D83F08A828B83A3AA821A
:10FF8000AB838C828D83A3AC82AD83E970E080ADBE
:10FF900074F712041BEAFEEBFF8908E97003120DE7
:10FFA000648E828F83E0F5D9A3AE82AF831508E516
:10FFB0000870EE7F0102067774F712041BEAFEEB6D
:10FFC000FF8908E97003120D64E5D98E828F83F0F2
:10FFD000A3AE82AF831508E50870EE80D6C082C05C
:10FFE000839016C2E4F09016BCF0A3F0D083D082C8
:0DFFF0000208BBC082C083E99016C280EEFB
:020000040001F9
:10000000C082C0831227509019BD7424F0A3741DC0
:10001000F09019BF742AF0A3741DF09019C17430C8
:10002000F0A3741DF09019C37436F0A3741DF00290
:10003000BBD474F712041BE9FE9019AFE4F0EE9004
:1000400019AEF0901CE112ACE312BEB07C807D19B9
:100050007AB27B191212FE901CE3E09019BAF0906C
:1000600019BB746BF0A3741902912F74F012041B66
:10007000EAFEEBFF548070030281DD9019AEE0F9D7
:100080001211908A088B09EA450970030281D6EAA9
:10009000241B12B76A707CEA241F12B76A641370BB
:1000A00002A3E0706E8A828B8312824C9019CD126B
:1000B000BD47750A00750B00800D128F9E12BEB0F1
:1000C000121214AA0EAB0FEA4B60488A828B83E0AF
:1000D000650C7004A3E0650D702C8A828B83A3A34A
:1000E000A3A3E0F50EA3E0F50FE50A450B8A828B8A
:1000F00083A3A3A3A360C3129E40850A82850B83BA
:10010000A3A3A3A380B78A0A8B0B8A828B8312BD19
:100110004380B4E508242A12B76AFCE5082402F8F3
:10012000E43509F9E8FAE9FB9019CDE012AE7FE079
:10013000640270358A828B8312BD4780078882896A
:1001400083129E3CE849601C88828983E06A7003C0
:10015000A3E06B70E888828983A3A3E06C70DE1251
:100160008241806BECF9121D60850882850983E06D
:100170006401704FE50824181282341208FD12C879
:100180006C120740E50824121282341208FDE508BB
:10019000129D981208F9E508240B12C87012074442
:1001A000E50824171297C9E5082402FCE43509FD87
:1001B000E5082419FAE43509FB1227F2740A12093A
:1001C00027800CE064027007AA08AB09121E92AAED
:1001D00008AB0912117EEEFAEF6480804DEEA2E0CA
:1001E00050139019C512B30C600612DC4C12282172
:1001F000EE640180335402600C901CF87401F0EE40
:100200006402FA802CEE54086023121D5A8B09EA0E
:10021000450970119019CF12C2C37A08FB9019AE2C
:10022000E0F91212D4EE6408FAEFFB80047A007B46
:100230000002CFA8F582E43509F583E0F50A780AD3
:1002400022901CE912BA95A3A3A3F022A3A3E0F580
:100250000CA3E0F50D2274F412041BEA4B9019C5AF
:10026000602412AB078A088B09E4F50AF50B7808BD
:100270001208F17A017B009019AEE0F91212C874ED
:1002800004120927800FE4F0A3F07A01FB9019AE65
:10029000E0F91212D402837774F412041B8A088BDB
:1002A000098A828B83A3A3A312AAC8129A0038F5E5
:1002B00083E02409FA7B001211788A0A8B0BAE0ABC
:1002C000AF0BEE4F70030283628E828F8374021233
:1002D000AB2A85088285098312A5BEE8F0A3E9123E
:1002E000C937A3A3A3A3A3A3A3F0E5082403F8E4B9
:1002F0003509128367129A003AF583129423F0EEBF
:100300002409FAE43FFB8E828F83A3A312BD78F504
:10031000838882E0A2E58E828F83A3A3A3A3A35048
:100320000474018001E4F0E5082403F888828983DD
:1003300012BD47EA12B29D3BF58312E14E1208F559
:100340001299FF3B12BD0E8E828F8312BD45121192
:10035000487403120927EEFAEFFB9019AEE0F91288
:1003600011848013F8E43FF988828983E0FAA3E0DE
:10037000CA2274021209277F0402067774F212045B
:100380001B8A088B09ECFAEDFB740E120C0DE0FCD5
:10039000120C328A0C8B0DAE0CAF0DEE4F6030ACF0
:1003A00008AD09120C20E96026AC08AD09EEFAEFA1
:1003B000FB120C26E970148E828F83129F28FAEFAD
:1003C000FB1219CAAA08AB09120C4A7900800279FB
:1003D000B402ADCE74F012041B74F61209BFEAFE2B
:1003E000EBFF8C088D09750FB3851882851983E49E
:1003F000F0750E008002050E902F0DE493F8E50EC7
:10040000C3984003028503AA0E7B00120C6E8A0A71
:100410008B0BEA450B60DF8A828B83A3A312850ACC
:1004200028F0F8C3EE98EF940050CB7C157D00794E
:1004300000AA08AB0912115A850A82850B83A3A36F
:10044000A3A312BDEDE0F8EEC3982925E0F8E4334C
:10045000F9E50A28F582E50B39F583A3A3A3A3A345
:10046000A3129A16A3A3A3A3A312BEB012213E8A7D
:100470000C8B0DAC0CAD0DAA08AB091212FE850A4F
:1004800082850B83A3E06401700A12C86C740112A8
:100490009A2A8044740112099F850A82850B83126F
:1004A000BD45120C56E9603D7409120C0DE0C0E028
:1004B00012C86CD0E0F07409120C0DE064037013E4
:1004C000740112099FE508240BFAE43509FB1212A6
:1004D000FE80127401120C0D129E40E50812B892B3
:1004E000350912BEAE850A82850B8312C878129A2E
:1004F0002AA3A3E0C0E0E508241412C870D0E0F0FD
:10050000750F00A90F740A02CFA5A3A3A3E0F88575
:100510001882851983E02274F712041BE9FE8A828F
:100520008B83A3A3A3A3A3A3E0540860338A828B85
:1005300083A3A3A3A3A3A3E0540260218A828B8395
:10054000A3A3A3A3A3A3A3A3A3E06406600F74E9DA
:100550006E600A74CD6E600574F06E7003121D42F9
:1005600002A6BA74F012041B74EF1209BF740F12C2
:100570000C0D12ABEB7408120C0DE9F0ECFEEDFF64
:100580007405120C0DE4128BFA128879120C3E7469
:1005900006120C0D12ABEB7406120C0D12B30C709C
:1005A00003028826129CB7E0FA7406120C0DE0F9DB
:1005B000121BC285188285198312D3CAF8A3E0F9E9
:1005C000E8497003028826EE2403F50AE43FF50BA0
:1005D000EE2406F508E43FF5097C00850882F583E2
:1005E00012BD47850A82850B83E0F9120C4474031F
:1005F000120C0D12ABEB850A82850B83E0C0E085FF
:100600001882851983128887D0E012B410F98518F2
:1006100082851983128FB112AF5C12850DFAA3E0A7
:10062000CA2407F582E43AF583E8F0A3E412C1ACEA
:100630002406F582E438F583E412D2C612AAB91270
:1006400008F5EE129A003F12BD0E7403120C0D1243
:10065000AAC81291F812BD47121148740312092753
:100660007429120C0D12BDE312836C12B4233A12DA
:10067000BEAE742B120C0DE0C0E085188285198384
:1006800012B2D1D0E0F07402120C0DE4F074251215
:100690000C0D7808120BB602877C7403120C0D1235
:1006A000BE978882898312886EA3A3A312B8CAFB5F
:1006B000120C5C850E82850F83A3EAF0A3EBF07425
:1006C00003120C0D128887A312886E12BAD2A2E60A
:1006D000500F850E82850F83A3A3A3A3A3E0D2E1CD
:1006E000F07405120C0DE0706A850E82850F83127E
:1006F0009E3F901A2DE0687003A3E0697055850E47
:1007000082850F83A3A3A31295C7750C00780C12E2
:1007100008FD78081208F17429120C0DE0F50C7828
:100720000C1208FD7427120C0D120744901A3A128D
:10073000074479007419120C0D12ACAF121EE67446
:100740000A120927850E82850F83A3A3A3A3A3E022
:100750004405F07402120C0DE004FC8E828F83A31A
:10076000A3A3A3A3A3E0128879120C447403120C70
:100770000D12ABEB7402120C0DE004F07403120CBA
:100780000D12B30C60687402120C0DE0FA740612BC
:100790000C0D129E40C3EA98E49950527402120C58
:1007A0000D128BB7851882851983E028F8A3E039EC
:1007B000F9E8240FF50EE439F50F850E82F583E490
:1007C000F07403120C0D12D3A2E0640160030286E0
:1007D0009A7405120C0D740112CF8FF07403120C71
:1007E0000D12BBC4128BDBE8F0A3E90286BE8518AC
:1007F0008285198312BD47121BC88518828519830B
:100800001207447426120C0DE0FD7425120C0DE045
:10081000FC740A120C0DE0F9EEFAEFFB121D3C74A9
:100820000212092780438E828F83A3A3A3E0C0E036
:10083000740C120C0DD0E0F012CC63E0C0E0740D2B
:10084000120C0DD0E0F07406120C0D12B30C7009EE
:10085000740E120C0D74B98007740E120C0D741006
:10086000F07409120997121EE0741102CFA5E085F9
:100870000E82850F83A3A3A322FAA3E0FB8E828FAF
:1008800083A3A3A3E0F922E012C195A3A3A322743A
:10089000F012041B74E01209BF7405120C0DE9F08C
:1008A0007404120C0DECF07403120C0DEDF08A0EB2
:1008B0008B0F7430120C0D12824EAA0CFB121BB659
:1008C0007401120C0DE9F0AA0CAB0D121BBC7402E2
:1008D000120C0DE9F07401120C0DE07003028BB2E2
:1008E000851882851983E480158E828F83A3A3A344
:1008F000A3A3E0D2E3F0851882851983E00412CC2B
:10090000AAF8851882851983E0C3984003028BA951
:100910007401120C0DE07003028BA98518828519F1
:1009200083128BB7E50C28F8E50D39F9E8240FFEA2
:10093000E439FF8E828F83A3A3A3A3A3E0A2E040A8
:10094000B5C2008E828F83E0704612BD46121A96A1
:100950008A088B09A808A909E84960348882898334
:10096000A3A3A3A3E06401600D88828983A3A3A34A
:10097000A3E06403701A8E828F83A3A3A3A3A3E0D2
:10098000D2E7F0D2007402120C0DE070030288F678
:10099000750800750A08750B007403120C0DE060F1
:1009A000037508207C087D007900740612099712EF
:1009B000115A8E828F83E06040901A7DE06401704E
:1009C0001CE508D2E3F508750B108E828F83129E0A
:1009D0003F7406120C0D12BD6074FF807C43080C3E
:1009E000750A0C8E828F83A3128BD312BEB074064D
:1009F000120C0D74FFF0A380607405120C0DE06002
:100A000009E508D2E6F508750A0A8E828F83A3E00D
:100A100064FE7003A3E0F470307413120C0D7404C0
:100A2000128BFAF8741E120C0DE812AB2A74131212
:100A30000997121A427D007C0079007416120C0D81
:100A4000AA82AB831217C080118E828F83129E3FC1
:100A50007406120C0DE8F0A3E9F07408120C0DE511
:100A600008F0129CAEC0E0740A120C0DD0E0F074D5
:100A70000B120C0D7401F07406120997121E987473
:100A800012120C0DE06003028B7B740E120C0D121F
:100A9000B40B8E828F83A3A3A3A3F0740E120C0D4C
:100AA00012AAEBE50AF0A3E50BF07404120C0DE0BA
:100AB000C0E012AA99D0E012BAD26011901A7DE07B
:100AC000C0E0740E120C0D12AAE1D0E0F0740E1208
:100AD0000C0D129E40850C82850D83A3A3128BC042
:100AE000241C12ABE512D2D6128BC512BA88391269
:100AF000CC70C0E012AA80D0E012CC9FC0E0740E8F
:100B0000120C0D12A5B2D0E012C95FC0E0740E1233
:100B10000C0D12A5A8D0E0F0740E120C0D128BD3A0
:100B2000A3A3128BE712CF84128BC0242C12ABE547
:100B3000129C9DC0E012A59ED0E0F0740E120C0D28
:100B400012BD47850E82850F83128BCA2428F58239
:100B5000E43B12BEAE129CA612E14E1208F512BD85
:100B600007EA12C1463BF58312BD471211487403D0
:100B70001209277406120997121E9E8E828F83A374
:100B8000A3A3A3A3E0D2E0F07412120C0DE0600363
:100B90000288E9A20050087402120C0DE014F074EF
:100BA00001120C0DE0140288F57900AA0CAB0D12AD
:100BB0001D48742002CFA5E075F007A4F8A9F02223
:100BC000A3A3A3A3A312BD4BE822A3A3A3A3129E96
:100BD00044EA22E0128BDBA3A3A322F8A3E0F98569
:100BE0000E82850F83A322E0FAA3E0FBE8242AF516
:100BF00082E439F583EAF0A3EB22128BFE2212C6BF
:100C000090E02274F012041B74E81209BFE9851801
:100C100082851983F08A0E8B0F8A828B83A3A3A30C
:100C2000A3A3A3A3A3E0F9121BE08A088B09EA455A
:100C3000097003028CD7E50E12A692129CD212966E
:100C40009B851882851983E06003028CDA7C048519
:100C50000E82850F83A3A3A3A3A3A3A3A3E0F912EA
:100C60001BE6EE4F60718E828F83129E3C740712DA
:100C70000C0D12C684129E407409120C0D12BD2C6C
:100C8000C0E07411120C0DD0E012C945A3129E3AB7
:100C9000740F120C0D12BEB07412120C0DE412CFB0
:100CA00097C8241FF582E438F58312A69EC4131357
:100CB0005403FC70027C048E828F83E0F978081262
:100CC00008F9742059FD744059F9740312099712F8
:100CD0001D3C740212092702CFA37C08850E828571
:100CE0000F83A3A3A3A3A3A3A3A3E0F9121BE68BE3
:100CF0000BEA450B7003028C62EE4F60DA851882B6
:100D0000851983E0F50C780C1208FD8508828509A9
:100D100083A3A3A3A3A3A3A3E0F50C780C1208FD5F
:100D20008A828B83A3A3A3E0FB8A82850B8312D3E1
:100D3000898A82850B83E0FA8E828F83A3A3E0F9F0
:100D40001227F87402120927028C6674F712041B2A
:100D500074FA1209BFE9FE780179017F00800379F6
:100D6000000F12AE55E0FCEFC39C5026EF75F00764
:100D7000A4FC85F008AD08EA2CFCEB3DFD12A41C98
:100D8000E0A2E050DA540C60D6E0A2E250D3780042
:100D900080CF8A828B83A3A3A3A3A3A3E0703DE9A2
:100DA000A2E0400574016E70338A828B83A3A3A3F3
:100DB000A3A3A3740112A486E0C0E07403120C0D77
:100DC000D0E012A47EE0C0E07404120C0DD0E0F07C
:100DD0007405120C0DE812BEEA121EE0740602A69B
:100DE000B7C082C0837901121D4802BBD474F412CB
:100DF000041BEA4B901CF86022E4F08A088B09F58A
:100E00000AF50B78081208F17A027B009019AEE01F
:100E1000F91212C87404120927800F7401F07A02C3
:100E20007B009019AEE0F91212D402837774F012AD
:100E3000041B74F31209BF7403120C0DE4F0A3F049
:100E40009019CD12969B7401120C0DE4F0A312AB15
:100E50001D04F0901A27E0A2E35003028F2812121B
:100E6000E6EAF8EBF9ECFAEDFB7409120C0D120B43
:100E7000D27409120C0D7808120BB69019CF7808AD
:100E80001209A77405120C0D7808120B98128FA581
:100E90007405120C0D7808120B6850077A017B005C
:100EA000028F997405120C0D780C120BB6901CE889
:100EB000E0F509780C79081203ACA80CA90D901C78
:100EC000E9E0C398E4995003E08001E88518828541
:100ED0001983F07409120C0D7808120BB6C008C003
:100EE00009C00AC00B7405120C0D780C120BB61257
:100EF0008FA5780C79081203ACE4F50AF50BD00F36
:100F0000D00ED00DD00C780C7908120A529019CF5F
:100F1000780C120B988011128F9E12BEB0EEFAEF71
:100F2000FB121214AE08AF09EE4F60658E828F83FC
:100F300012850AC398502DEE2403F8E43FF9E0FA35
:100F400088828983E0C39AF060237403120C0D1227
:100F5000A1637401120C0DEEF0A3EF12C1B4FEA355
:100F6000E0FF80C48E828F83A3A3A3E4F08E828FE0
:100F70008312E1127401120C0D12B30C8E828F8356
:100F8000A3A3A3A3609112C656120C0D128FB180B9
:100F9000897403120C0D12BD47740D02CFA5129E69
:100FA000449019CD22901CE712E11AE4F50AF50BE2
:100FB00022128FB8A3A3A322E0FAA3E0F5838A82CA
:100FC000A32274F012041B8A088B09890A7800791D
:100FD000009019CD12969B12AC94601E088E828FE1
:100FE00083A3A3A3A312AC97601008E87001098E35
:100FF000828F83129697EE4F70E3901CEA12BD47E2
:10100000C3E89AE99B40030290B37A067B00121270
:101010000E8A0C8B0DA80CA90DE84970030290B341
:1010200088828983E508F0A3E50912A495A3E50A5F
:10103000F012824188828983A3A3A3A3E4F0A3F0E2
:1010400012AC94600D8E828F83A3A3A3A312BEB0B3
:10105000801F9019CD12BEB0901A27E0A2E3401174
:101060001212E6EAF8EBF9ECFAEDFB9019CF120B4D
:10107000D2901A27E0A2E3503A7A087B009019AE8A
:10108000E0F91212DAEA4B4C4D7028901CE7E0F5BB
:1010900008A3E085080CF50DE4F50EF50F780C12A9
:1010A00008F17A087B009019AEE0F91212CE7404B0
:1010B00012092702CFA8C082C083E9901CF9F090E2
:1010C00019C7747EF0A3741DF09019C97490F0A331
:1010D000741DF09019CB74A2F0A3741DF002BBD460
:1010E00074F712041BEAFEEBFF8908EE4F7003123F
:1010F0000D649019D312B30C70089019D3801E128E
:101100009E4088828983A3A3A3A3A3A3A3A3A3121E
:101110009E49A3A3A3A3A3A3A3A3A370E2EEF0A35A
:10112000EF129133A3A3A3E4F0A3129133E508F0E7
:1011300002A6BA12C68C2274F712041BE9FD90199C
:10114000D3800D88828983A3A3A3A3A3A3A3A3A36E
:1011500012B30C603488828983A3A3A3A3A3A3A39F
:10116000E06D70DF88828983A3A3A3A3E06A700384
:10117000A3E06B70CE88828983A3A3A3A3A3A3E07B
:101180006C70C0E8FAE9FB80047A007B0002A6BA22
:1011900074F712041B9019D312969B9019D3128BDB
:1011A000CE687002EB697019E0C81291F8129E4087
:1011B0009019D312BEB09019D312969B803012961C
:1011C0008EEE4F60298E828F83A3A3A3A3A3128BDD
:1011D000CA687002EB6970E68A828B83A3A3A3A31B
:1011E000A3A3A3A3A312A5BEA3A3A312BEB01212CE
:1011F00014EEFAEFFB02A6BA2409F582E438F5836F
:101200002274F012041B74F91209BF8A0C8B0D8A28
:10121000828B83A3A3A3A3A3A3A3A3E0603364014E
:10122000602F8A828B8312BD471221DAE9702285F2
:101230000C82850D83A3A3A3A3A3A3A3A3E06403AC
:101240007014740212099FAA0CAB0D121E32E970C1
:10125000167902029416850C82850D83129E4074C5
:1012600002120C0D12BEB0E50C241112D2CE2434A1
:1012700012BDDC12120E8A088B09AE08AF09EE4FC0
:1012800070030294147C347D00790012115AAA185C
:10129000AB19850C82850D83A3A3A3A3A3A3A3A34A
:1012A000A3E0F91227B6851882851983E0C0E01201
:1012B000941BD0E0F0EE242EF50EE43FF50F740100
:1012C000120C0DE0850E82850F83F07901EEFAEFA6
:1012D000FB121D6C850C08850D09750A0078081233
:1012E00008F57C1E7D00EE240BFAE43FFB1211484A
:1012F0007403120927EE2432FAE43FFBEE2434F89B
:10130000E43FF98A828B8312BEB0E50C2411FCE421
:10131000350DFD8C828D8312AF57243012BEAAE5A5
:101320000C12A42E12D2EB12E1401208F58C828D21
:101330008312D38A8A828B8312BD471211487403A9
:101340001209277402120C0D129A0A12BEB09019DB
:10135000AF129423A3A3A3F09019AFE004F01212EC
:10136000E68E828F8312A5D1242CF8E43FF9E8FAA7
:10137000E9FB7508FF750900850E82850F83E0780B
:1013800008120AEB8A828B83E508F0EE242B129771
:10139000B67404120C0DE4F0E50C241512D2CEA2A2
:1013A000E074055007120C0D74018004120C0DE45A
:1013B000F0EE2429F508E43FF509740412099712A8
:1013C00027CEE924FE850882850983F0EE243012B9
:1013D00097C012942A1202D3E88E828F83A3A3A30C
:1013E000A3A3A3A3A3F012942A1202D38B09EA4564
:1013F00009600F8E828F83A3A3A3A3A3A3A3A3E05B
:1014000004F0EE242012B75A4408129D061211BAB5
:10141000790080027910740702CFA5EE12C1463F11
:10142000F5832212C93EA3A3A3228C828D8312B816
:10143000ABE0FA7B002274F412041BEAFEEBFF120D
:1014400012E68E828F8312ABEB901CDDE0F8EE2467
:101450002D12B75AC39840030295A41295B6701284
:10146000EE242D12B75A0412AE9EC0E01297ACD0F3
:10147000E0F012AE5DFA7900800109EE242E12B779
:101480005AF8E9C3985026750801750900E97808EB
:10149000120AEB1295B6550860E0E92AFA750801C0
:1014A000750900E97808120AEBE04508F0EE2429F6
:1014B00012B75AFBEE2430F582E43FF583EA8BF055
:1014C000A4F8ACF0E42CF9E098F8A3E099F9EBFC6F
:1014D000C3E89CE99400EE4031242912B75AF8126F
:1014E00095B6602C12941B1295C7A3E4F0EA7047DE
:1014F000EE242012B75A442012BD30C0E012AE8C48
:10150000D0E012AE96FCA3E080551297AD74FFF0C8
:10151000901A1DE0FC901CE01295BEADF075F064D1
:10152000A4FCABF075F064EDA42BFD8E828F83A339
:10153000A3ECF0A3ED80B5EE242012B75A54DF12CD
:10154000AE87EAF0FCEE2429F582E43FF58312959C
:10155000BEFCADF0EE243212B75A2CFCA3E03DFDE8
:1015600012CC80ECF0A3ED12C88DC0E0EE2425F57E
:1015700082E43FF583D0E0F0EE241CF582E43FF5F1
:1015800083E812AB2A9019D512B30C600BEAF9125A
:10159000DC4C122821E9701BEE240BFAE43FFB120D
:1015A0001E08800F7BE91297D91227FEEEFAEFFB97
:1015B000121D78028377EE242B12B7C2F422E0F5D5
:1015C00008EC8508F0A42212C93EA3F02274F4129C
:1015D000041B9019D312969B1212E68A0A8B0B7881
:1015E000FF79FF8020E0C39AFCA3E09BFDC3EC9849
:1015F000ED99500E8E828F83A3A3E0C39AF8A3E0E7
:101600009BF912968EEE4F60598E828F8312BD47E2
:10161000E50AC39AFAE50B9BFB8E828F8312D3886F
:10162000C3EA9CEB9D8E828F83A3A340B8A3A3A3A0
:10163000A3E064027017129CC36009129CB712BD2C
:101640004712117EEEFAEFFB121D788007EEFAEFDB
:10165000FB121D847A017B00901CF9E0F91211BA8B
:10166000802974FF68700374FF69601F8808890906
:10167000E4F50AF50B78081208F17A017B00901C5A
:10168000F9E0F91212C874041209270283778E82D6
:101690008F83A3A3A3A3A3A3A3A3A3E0FEA3E0FF1D
:1016A0002274F312041B8A088B09ECFAEDFB890CF7
:1016B0007C01E50824111297C9121D728A0A8B0B4E
:1016C000AE0AAF0BEE4F70030297A7E50C60030262
:1016D00097A712C86C1297D36860030297A712AE3F
:1016E0004B12B77D8E828F83A3A3A3A3A3A3A3A32F
:1016F000E0FAE89AE99400C365D033401CE5082479
:101700001412B76AF470127B001297D91227FEEEFA
:10171000FAEFFB121D780297A7E508241412B76AA6
:10172000F47043EE242BF8E43FF9E8FAE9FBEE24E9
:101730002E1297C07508FF7509008C828D83E078A2
:1017400008120AEB8A828B83E508F0EE242C1297AC
:10175000B68C828D831297D328F0EE242DF582E487
:101760003FF583E48021E5082414F8E43509F9E025
:10177000C0E0EE242CF582E43FF583D0E012BD51A9
:10178000C0E01297ACD0E0F01212E68E828F831286
:10179000A5D112941C12B773A312AB2A7A01FB9045
:1017A0001CF9E0F91211BA7F05020677EE242BF539
:1017B00082E43FF58322F582E43FF583E508F022D9
:1017C000F8E43FF9E8FCE9FD22F582E43509F58308
:1017D000E0F922E0F812AE6122EE242212B7C2FA3A
:1017E000EE241412B7C2F92274F012041B74FB1217
:1017F00009BF7403120C0D12AB07E9851882851915
:1018000083F08A0A8B0B8A828B83A3A3E0F91227C9
:10181000DA8A0E8B0FEA450F70077A007B00029977
:10182000F17A127B0012120E8A088B09EA450970C0
:10183000030299ED7C127D00790012115A74011295
:101840000997850A82850B83A3A3E0F91227B6E5E1
:1018500008240FFEE43509FF7402120C0DE08E829D
:101860008F83F07902AA08AB09121D6C7403120C65
:101870000D12C190129A16129A2424111299F6850B
:101880000882850983A3A3A3A3A3A3A3F0750CFFD8
:10189000750D008E828F83E0780C120AEBE5082428
:1018A0000C12C870E50C12CF7F12DC4AE0C0E0E5F4
:1018B00008240B12C870D0E0F0E50A129A001299C1
:1018C000F9FAE508240D12C870EAF0E50A12A42E10
:1018D0001299F98AF0A4A9F02427FAE439FB12112D
:1018E000788A0C8B0DAE0CAF0DE508241012C87071
:1018F00012A463EE4F70030299E08E828F83741AF4
:1019000012AB2A8E828F83A3A3F0A3129A38129A65
:101910000A12C67E120C0D12D38A12CC881227BC72
:10192000850A82850B83A3A3A3E0C0E012B75ED033
:10193000E0F0901A3A12AF572410129A1E12A3FA2E
:10194000350BF58312AF5712BEDFE8F0A3E9129A08
:101950003812AF5312CC64E8F0A3E9129A2AE0C01F
:10196000E0EE2414F582E43FF583D0E0F0E50A24AC
:101970000C1299F6C0E0EE12A3FA3FF583D0E0F026
:101980007415120C0D12BA9BE0C0E012D089D0E0A1
:1019900012C888C0E012CC57D0E012A48FC0E01269
:1019A000AAA3D0E012B311C0E012AA8AD0E0F0746A
:1019B00017120C0D120BDEEE241AF582E43FF583AC
:1019C000120BD2EE2427F8E43FF9EE2422129A1EDD
:1019D00012BD351299F9C0E012CC90D0E0F0800D24
:1019E000AA08AB09121D78750800750900AA08AB92
:1019F00009740502CFA5F582E4350BF583E022EAF0
:101A0000129A04222410F582E422129A0E2212ACB9
:101A1000A5A3A3A3A32212B8ABA3A3A3A322F582D9
:101A2000E43FF58312AB46E50A22129A2E22F08596
:101A30000A82850B83A3A322129A2EA3A3A3A32217
:101A400074F012041B74FE1209BF85188285198375
:101A500012AB078A0E8B0F890DC200EA129CC9E0F7
:101A6000F50C9019D512B30C600EA90C12DC4C12B7
:101A70002821E96003029C987C02129CE5129C9D3F
:101A8000F9121D728A088B09AE08AF09EE4F705823
:101A9000850E82850F83A3E0A2E04003029C987428
:101AA00014120C0D1207407416120C0D120744A9E3
:101AB0000D7406120C0D12D38AAA0EAB0F121D96CE
:101AC00074061209278A088B09AE08AF09EE4F7019
:101AD00003029C988E828F83A3A3A3A3A3A3A3A393
:101AE000E50C129D061211BAAA0C8E828F83A3A355
:101AF000A3A3A3A3A3A3E024FFF8E434FFF9E86AB7
:101B0000497002D200129CC37003029C54850E825D
:101B1000850F83A3E0A2E05003750C00129CF3E54F
:101B20000C98E499C365D033401CE0F8EE240E1203
:101B3000B75A2CF07508FF750900E87808120AEB0F
:101B4000EE240C1297B6129CA612E14E1208F51262
:101B5000BD07EE240D12B75AF508E50C8508F0A470
:101B6000FAABF012AAC52422F582E438F583E02A04
:101B7000FAA3E03BFB121148740312092775080110
:101B8000129CD77808120AEB12B7574508F0A2004A
:101B9000506DEE240CFAE43FFB7508FF129CD7044D
:101BA0007808120AEB8A828B83E0450812AB15F89D
:101BB000E50CF508E88508F0A4F8A9F0129CAEFC45
:101BC000E82CFCE439FD12AAC52420F582E438F59E
:101BD00083ECF0A3ED12BBCAF47024EE240BF508DD
:101BE000E43FF509129CB712BD4785088285098339
:101BF000E0F912118485088285098374FF805412EC
:101C000012E68E828F8312ABEB901A1DE0FA901CC5
:101C1000E0E0F508EA8508F0A4FAABF0F8EBF990FB
:101C20001CDDE0F508E88508F0A4F8ACF08508F0C4
:101C3000E9A42CF9EA28F8EB39F9E875F064A4F87E
:101C4000AAF075F064E9A42AF98E828F83A3A3E831
:101C5000F0A3E9F0AA0C129CF312CFD4E86A700149
